{
	"data": {
		"bytecode": {
			"linkReferences": {
				"remix_accounts.sol": {
					"TestsAccounts": [
						{
							"length": 20,
							"start": 893
						},
						{
							"length": 20,
							"start": 1732
						},
						{
							"length": 20,
							"start": 2091
						},
						{
							"length": 20,
							"start": 2789
						}
					]
				},
				"remix_tests.sol": {
					"Assert": [
						{
							"length": 20,
							"start": 367
						},
						{
							"length": 20,
							"start": 496
						},
						{
							"length": 20,
							"start": 626
						},
						{
							"length": 20,
							"start": 758
						},
						{
							"length": 20,
							"start": 1164
						},
						{
							"length": 20,
							"start": 1574
						},
						{
							"length": 20,
							"start": 1705
						},
						{
							"length": 20,
							"start": 1958
						},
						{
							"length": 20,
							"start": 2654
						},
						{
							"length": 20,
							"start": 3530
						}
					]
				}
			},
			"object": "608060405234801561001057600080fd5b50613272806100206000396000f3fe608060405260043610620000865760003560e01c80637fea0d4b11620000555780637fea0d4b14620000f35780639074416d146200010d578063e32637a01462000119578063f229522b14620001335762000086565b8063011e6492146200008b57806336c0065614620000a55780636331e7d414620000bf5780637fa114c414620000d9575b600080fd5b3480156200009857600080fd5b50620000a36200014d565b005b348015620000b257600080fd5b50620000bd620002d4565b005b348015620000cc57600080fd5b50620000d762000357565b005b348015620000e657600080fd5b50620000f162000359565b005b3480156200010057600080fd5b506200010b6200058c565b005b6200011762000687565b005b3480156200012657600080fd5b506200013162000807565b005b3480156200014057600080fd5b506200014b62000ac1565b005b73__$acbfb1c35000d78352310b16a054a6b106$__6339df137f600280146040518263ffffffff1660e01b815260040162000189919062000ebb565b602060405180830381865af4158015620001a7573d6000803e3d6000fd5b505050506040513d601f19601f82011682018060405250810190620001cd919062000f32565b5073__$acbfb1c35000d78352310b16a054a6b106$__63a079f1a3600260016040518363ffffffff1660e01b81526004016200020b92919062000fcf565b602060405180830381865af415801562000229573d6000803e3d6000fd5b505050506040513d601f19601f820116820180604052508101906200024f919062000f32565b5073__$acbfb1c35000d78352310b16a054a6b106$__63aea88952600260036040518363ffffffff1660e01b81526004016200028d92919062001061565b602060405180830381865af4158015620002ab573d6000803e3d6000fd5b505050506040513d601f19601f82011682018060405250810190620002d1919062000f32565b50565b73__$acbfb1c35000d78352310b16a054a6b106$__63561015e26001806040518363ffffffff1660e01b815260040162000310929190620010f3565b602060405180830381865af41580156200032e573d6000803e3d6000fd5b505050506040513d601f19601f8201168201806040525081019062000354919062000f32565b50565b565b600073__$1068a87eb54ed04c4e435de35b2ebf536f$__63ce88b14560016040518263ffffffff1660e01b815260040162000395919062001182565b602060405180830381865af4158015620003b3573d6000803e3d6000fd5b505050506040513d601f19601f82011682018060405250810190620003d9919062001204565b905060008054906101000a900473ffffffffffffffffffffffffffffffffffffffff1673ffffffffffffffffffffffffffffffffffffffff166338db6dd3826040518263ffffffff1660e01b815260040162000436919062001247565b600060405180830381600087803b1580156200045157600080fd5b505af115801562000466573d6000803e3d6000fd5b5050505073__$acbfb1c35000d78352310b16a054a6b106$__63767392b360008054906101000a900473ffffffffffffffffffffffffffffffffffffffff1673ffffffffffffffffffffffffffffffffffffffff1663a3ec138d846040518263ffffffff1660e01b8152600401620004df919062001247565b602060405180830381865afa158015620004fd573d6000803e3d6000fd5b505050506040513d601f19601f8201168201806040525081019062000523919062000f32565b60016040518363ffffffff1660e01b815260040162000544929190620012b4565b602060405180830381865af415801562000562573d6000803e3d6000fd5b505050506040513d601f19601f8201168201806040525081019062000588919062000f32565b5050565b306040516200059b9062000e2f565b620005a7919062001247565b604051809103906000f080158015620005c4573d6000803e3d6000fd5b506000806101000a81548173ffffffffffffffffffffffffffffffffffffffff021916908373ffffffffffffffffffffffffffffffffffffffff16021790555073__$acbfb1c35000d78352310b16a054a6b106$__63abcd79606001806040518363ffffffff1660e01b81526004016200064092919062001346565b602060405180830381865af41580156200065e573d6000803e3d6000fd5b505050506040513d601f19601f8201168201806040525081019062000684919062000f32565b50565b73__$acbfb1c35000d78352310b16a054a6b106$__63bfba5dd63373__$1068a87eb54ed04c4e435de35b2ebf536f$__63ce88b14560016040518263ffffffff1660e01b8152600401620006dc919062001182565b602060405180830381865af4158015620006fa573d6000803e3d6000fd5b505050506040513d601f19601f8201168201806040525081019062000720919062001204565b6040518363ffffffff1660e01b81526004016200073f929190620013e9565b602060405180830381865af41580156200075d573d6000803e3d6000fd5b505050506040513d601f19601f8201168201806040525081019062000783919062000f32565b5073__$acbfb1c35000d78352310b16a054a6b106$__63abcd79603460646040518363ffffffff1660e01b8152600401620007c0929190620014be565b602060405180830381865af4158015620007de573d6000803e3d6000fd5b505050506040513d601f19601f8201168201806040525081019062000804919062000f32565b50565b600073__$1068a87eb54ed04c4e435de35b2ebf536f$__63ce88b14560016040518263ffffffff1660e01b815260040162000843919062001182565b602060405180830381865af415801562000861573d6000803e3d6000fd5b505050506040513d601f19601f8201168201806040525081019062000887919062001204565b905060008054906101000a900473ffffffffffffffffffffffffffffffffffffffff1673ffffffffffffffffffffffffffffffffffffffff166338db6dd3826040518263ffffffff1660e01b8152600401620008e4919062001247565b600060405180830381600087803b158015620008ff57600080fd5b505af115801562000914573d6000803e3d6000fd5b5050505060008054906101000a900473ffffffffffffffffffffffffffffffffffffffff1673ffffffffffffffffffffffffffffffffffffffff166365e481e26040518163ffffffff1660e01b81526004016200097190620015b1565b600060405180830381600087803b1580156200098c57600080fd5b505af1158015620009a1573d6000803e3d6000fd5b5050505060008060009054906101000a900473ffffffffffffffffffffffffffffffffffffffff1673ffffffffffffffffffffffffffffffffffffffff1663da35c6646040518163ffffffff1660e01b8152600401602060405180830381865afa15801562000a14573d6000803e3d6000fd5b505050506040513d601f19601f8201168201806040525081019062000a3a919062001619565b905073__$acbfb1c35000d78352310b16a054a6b106$__63abcd79608260016040518363ffffffff1660e01b815260040162000a789291906200169b565b602060405180830381865af415801562000a96573d6000803e3d6000fd5b505050506040513d601f19601f8201168201806040525081019062000abc919062000f32565b505050565b600073__$1068a87eb54ed04c4e435de35b2ebf536f$__63ce88b14560016040518263ffffffff1660e01b815260040162000afd919062001182565b602060405180830381865af415801562000b1b573d6000803e3d6000fd5b505050506040513d601f19601f8201168201806040525081019062000b41919062001204565b905060008054906101000a900473ffffffffffffffffffffffffffffffffffffffff1673ffffffffffffffffffffffffffffffffffffffff166338db6dd3826040518263ffffffff1660e01b815260040162000b9e919062001247565b600060405180830381600087803b15801562000bb957600080fd5b505af115801562000bce573d6000803e3d6000fd5b5050505060008054906101000a900473ffffffffffffffffffffffffffffffffffffffff1673ffffffffffffffffffffffffffffffffffffffff166365e481e26040518163ffffffff1660e01b815260040162000c2b90620015b1565b600060405180830381600087803b15801562000c4657600080fd5b505af115801562000c5b573d6000803e3d6000fd5b5050505060006001905060006004905060008054906101000a900473ffffffffffffffffffffffffffffffffffffffff1673ffffffffffffffffffffffffffffffffffffffff16633dca3d3483836040518363ffffffff1660e01b815260040162000cc89291906200170c565b600060405180830381600087803b15801562000ce357600080fd5b505af115801562000cf8573d6000803e3d6000fd5b5050505060008060009054906101000a900473ffffffffffffffffffffffffffffffffffffffff1673ffffffffffffffffffffffffffffffffffffffff1663013cf08b846040518263ffffffff1660e01b815260040162000d5a919062001739565b600060405180830381865afa15801562000d78573d6000803e3d6000fd5b505050506040513d6000823e3d601f19601f8201168201806040525081019062000da39190620018d5565b509250505073__$acbfb1c35000d78352310b16a054a6b106$__63abcd79608260016040518363ffffffff1660e01b815260040162000de4929190620019d5565b602060405180830381865af415801562000e02573d6000803e3d6000fd5b505050506040513d601f19601f8201168201806040525081019062000e28919062000f32565b5050505050565b6118258062001a1883390190565b60008115159050919050565b62000e548162000e3d565b82525050565b600082825260208201905092915050565b7f73686f756c642062652074727565000000000000000000000000000000000000600082015250565b600062000ea3600e8362000e5a565b915062000eb08262000e6b565b602082019050919050565b600060408201905062000ed2600083018462000e49565b818103602083015262000ee58162000e94565b905092915050565b6000604051905090565b600080fd5b600080fd5b62000f0c8162000e3d565b811462000f1857600080fd5b50565b60008151905062000f2c8162000f01565b92915050565b60006020828403121562000f4b5762000f4a62000ef7565b5b600062000f5b8482850162000f1b565b91505092915050565b6000819050919050565b62000f798162000f64565b82525050565b7f322073686f756c642062652067726561746572207468616e20746f2031000000600082015250565b600062000fb7601d8362000e5a565b915062000fc48262000f7f565b602082019050919050565b600060608201905062000fe6600083018562000f6e565b62000ff5602083018462000f6e565b8181036040830152620010088162000fa8565b90509392505050565b7f322073686f756c64206265206c6573736572207468616e20746f203300000000600082015250565b600062001049601c8362000e5a565b9150620010568262001011565b602082019050919050565b600060608201905062001078600083018562000f6e565b62001087602083018462000f6e565b81810360408301526200109a816200103a565b90509392505050565b7f312073686f756c64206e6f7420626520657175616c20746f2031000000000000600082015250565b6000620010db601a8362000e5a565b9150620010e882620010a3565b602082019050919050565b60006060820190506200110a600083018562000f6e565b62001119602083018462000f6e565b81810360408301526200112c81620010cc565b90509392505050565b6000819050919050565b6000819050919050565b60006200116a620011646200115e8462001135565b6200113f565b62000f64565b9050919050565b6200117c8162001149565b82525050565b600060208201905062001199600083018462001171565b92915050565b600073ffffffffffffffffffffffffffffffffffffffff82169050919050565b6000620011cc826200119f565b9050919050565b620011de81620011bf565b8114620011ea57600080fd5b50565b600081519050620011fe81620011d3565b92915050565b6000602082840312156200121d576200121c62000ef7565b5b60006200122d84828501620011ed565b91505092915050565b6200124181620011bf565b82525050565b60006020820190506200125e600083018462001236565b92915050565b7f566f74657220726567697374726174696f6e206661696c656400000000000000600082015250565b60006200129c60198362000e5a565b9150620012a98262001264565b602082019050919050565b6000606082019050620012cb600083018562000e49565b620012da602083018462000e49565b8181036040830152620012ed816200128d565b90509392505050565b7f312073686f756c6420626520657175616c20746f203100000000000000000000600082015250565b60006200132e60168362000e5a565b91506200133b82620012f6565b602082019050919050565b60006060820190506200135d600083018562000f6e565b6200136c602083018462000f6e565b81810360408301526200137f816200131f565b90509392505050565b6200139381620011bf565b82525050565b7f496e76616c69642073656e646572000000000000000000000000000000000000600082015250565b6000620013d1600e8362000e5a565b9150620013de8262001399565b602082019050919050565b600060608201905062001400600083018562001388565b6200140f602083018462001388565b81810360408301526200142281620013c2565b90509392505050565b6000819050919050565b600062001456620014506200144a846200142b565b6200113f565b62000f64565b9050919050565b620014688162001435565b82525050565b7f496e76616c69642076616c756500000000000000000000000000000000000000600082015250565b6000620014a6600d8362000e5a565b9150620014b3826200146e565b602082019050919050565b6000606082019050620014d5600083018562000f6e565b620014e460208301846200145d565b8181036040830152620014f78162001497565b90509392505050565b600082825260208201905092915050565b7f50726f706f73616c205469746c65000000000000000000000000000000000000600082015250565b600062001549600e8362001500565b9150620015568262001511565b602082019050919050565b7f50726f706f73616c204465736372697074696f6e000000000000000000000000600082015250565b60006200159960148362001500565b9150620015a68262001561565b602082019050919050565b60006040820190508181036000830152620015cc816200153a565b90508181036020830152620015e1816200158a565b9050919050565b620015f38162000f64565b8114620015ff57600080fd5b50565b6000815190506200161381620015e8565b92915050565b60006020828403121562001632576200163162000ef7565b5b6000620016428482850162001602565b91505092915050565b7f50726f706f73616c206372656174696f6e206661696c65640000000000000000600082015250565b60006200168360188362000e5a565b915062001690826200164b565b602082019050919050565b6000606082019050620016b2600083018562000f6e565b620016c1602083018462001171565b8181036040830152620016d48162001674565b90509392505050565b620016e88162000f64565b82525050565b600060ff82169050919050565b6200170681620016ee565b82525050565b6000604082019050620017236000830185620016dd565b620017326020830184620016fb565b9392505050565b6000602082019050620017506000830184620016dd565b92915050565b600080fd5b600080fd5b6000601f19601f8301169050919050565b7f4e487b7100000000000000000000000000000000000000000000000000000000600052604160045260246000fd5b620017ab8262001760565b810181811067ffffffffffffffff82111715620017cd57620017cc62001771565b5b80604052505050565b6000620017e262000eed565b9050620017f08282620017a0565b919050565b600067ffffffffffffffff82111562001813576200181262001771565b5b6200181e8262001760565b9050602081019050919050565b60005b838110156200184b5780820151818401526020810190506200182e565b60008484015250505050565b60006200186e6200186884620017f5565b620017d6565b9050828152602081018484840111156200188d576200188c6200175b565b5b6200189a8482856200182b565b509392505050565b600082601f830112620018ba57620018b962001756565b5b8151620018cc84826020860162001857565b91505092915050565b60008060008060808587031215620018f257620018f162000ef7565b5b600085015167ffffffffffffffff81111562001913576200191262000efc565b5b6200192187828801620018a2565b945050602085015167ffffffffffffffff81111562001945576200194462000efc565b5b6200195387828801620018a2565b9350506040620019668782880162001602565b9250506060620019798782880162001602565b91505092959194509250565b7f566f74696e67206661696c656400000000000000000000000000000000000000600082015250565b6000620019bd600d8362000e5a565b9150620019ca8262001985565b602082019050919050565b6000606082019050620019ec600083018562000f6e565b620019fb602083018462001171565b818103604083015262001a0e81620019ae565b9050939250505056fe60806040523480156200001157600080fd5b506040516200182538038062001825833981810160405281019062000037919062000118565b806000806101000a81548173ffffffffffffffffffffffffffffffffffffffff021916908373ffffffffffffffffffffffffffffffffffffffff160217905550620d2f004262000088919062000183565b60018190555062069780600154620000a1919062000183565b60028190555050620001be565b600080fd5b600073ffffffffffffffffffffffffffffffffffffffff82169050919050565b6000620000e082620000b3565b9050919050565b620000f281620000d3565b8114620000fe57600080fd5b50565b6000815190506200011281620000e7565b92915050565b600060208284031215620001315762000130620000ae565b5b6000620001418482850162000101565b91505092915050565b6000819050919050565b7f4e487b7100000000000000000000000000000000000000000000000000000000600052601160045260246000fd5b600062000190826200014a565b91506200019d836200014a565b9250828201905080821115620001b857620001b762000154565b5b92915050565b61165780620001ce6000396000f3fe608060405234801561001057600080fd5b50600436106100cf5760003560e01c806385a386351161008c578063cb370ddd11610066578063cb370ddd14610216578063da35c66414610246578063ec20ca7214610264578063fc0c546a14610282576100cf565b806385a3863514610197578063996ee408146101b5578063a3ec138d146101e6576100cf565b8063013cf08b146100d4578063101158af1461010757806338db6dd3146101255780633c1d4bbb146101415780633dca3d341461015f57806365e481e21461017b575b600080fd5b6100ee60048036038101906100e99190610a20565b6102a0565b6040516100fe9493929190610aec565b60405180910390f35b61010f6103e0565b60405161011c9190610b3f565b60405180910390f35b61013f600480360381019061013a9190610bb8565b6103e6565b005b610149610485565b6040516101569190610b3f565b60405180910390f35b61017960048036038101906101749190610c1e565b61048c565b005b61019560048036038101906101909190610d93565b610762565b005b61019f610895565b6040516101ac9190610b3f565b60405180910390f35b6101cf60048036038101906101ca9190610bb8565b61089b565b6040516101dd929190610e29565b60405180910390f35b61020060048036038101906101fb9190610bb8565b6108ec565b60405161020d9190610e6d565b60405180910390f35b610230600480360381019061022b9190610a20565b61090c565b60405161023d9190610b3f565b60405180910390f35b61024e6109a5565b60405161025b9190610b3f565b60405180910390f35b61026c6109ab565b6040516102799190610b3f565b60405180910390f35b61028a6109b2565b6040516102979190610ee7565b60405180910390f35b60046020528060005260406000206000915090508060000180546102c390610f31565b80601f01602080910402602001604051908101604052809291908181526020018280546102ef90610f31565b801561033c5780601f106103115761010080835404028352916020019161033c565b820191906000526020600020905b81548152906001019060200180831161031f57829003601f168201915b50505050509080600101805461035190610f31565b80601f016020809104026020016040519081016040528092919081815260200182805461037d90610f31565b80156103ca5780601f1061039f576101008083540402835291602001916103ca565b820191906000526020600020905b8154815290600101906020018083116103ad57829003601f168201915b5050505050908060020154908060030154905084565b60015481565b600154421061042a576040517f08c379a000000000000000000000000000000000000000000000000000000000815260040161042190610fae565b60405180910390fd5b6001600660008373ffffffffffffffffffffffffffffffffffffffff1673ffffffffffffffffffffffffffffffffffffffff16815260200190815260200160002060006101000a81548160ff02191690831515021790555050565b6206978081565b6002544211156104d1576040517f08c379a00000000000000000000000000000000000000000000000000000000081526004016104c89061101a565b60405180910390fd5b600660003373ffffffffffffffffffffffffffffffffffffffff1673ffffffffffffffffffffffffffffffffffffffff16815260200190815260200160002060009054906101000a900460ff1661055d576040517f08c379a0000000000000000000000000000000000000000000000000000000008152600401610554906110ac565b60405180910390fd5b6000600560003373ffffffffffffffffffffffffffffffffffffffff1673ffffffffffffffffffffffffffffffffffffffff16815260200190815260200160002060000160149054906101000a900460ff1660ff16146105f2576040517f08c379a00000000000000000000000000000000000000000000000000000000081526004016105e990611118565b60405180910390fd5b60018160ff161015801561060a575060058160ff1611155b610649576040517f08c379a0000000000000000000000000000000000000000000000000000000008152600401610640906111aa565b60405180910390fd5b6001600460008481526020019081526020016000206002015461066c91906111f9565b600460008481526020019081526020016000206002018190555060405180604001604052803373ffffffffffffffffffffffffffffffffffffffff1681526020018260ff16815250600560003373ffffffffffffffffffffffffffffffffffffffff1673ffffffffffffffffffffffffffffffffffffffff16815260200190815260200160002060008201518160000160006101000a81548173ffffffffffffffffffffffffffffffffffffffff021916908373ffffffffffffffffffffffffffffffffffffffff16021790555060208201518160000160146101000a81548160ff021916908360ff1602179055509050505050565b6001544210156107a7576040517f08c379a000000000000000000000000000000000000000000000000000000000815260040161079e90611279565b60405180910390fd5b6002544211156107ec576040517f08c379a00000000000000000000000000000000000000000000000000000000081526004016107e39061101a565b60405180910390fd5b600060016003546107fd91906111f9565b90506003600081548092919061081290611299565b919050555060405180608001604052808481526020018381526020016000815260200160008152506004600083815260200190815260200160002060008201518160000190816108629190611483565b5060208201518160010190816108789190611483565b506040820151816002015560608201518160030155905050505050565b60025481565b60056020528060005260406000206000915090508060000160009054906101000a900473ffffffffffffffffffffffffffffffffffffffff16908060000160149054906101000a900460ff16905082565b60066020528060005260406000206000915054906101000a900460ff1681565b600080600460008481526020019081526020016000206002015411610966576040517f08c379a000000000000000000000000000000000000000000000000000000000815260040161095d906115a1565b60405180910390fd5b6004600083815260200190815260200160002060020154600460008481526020019081526020016000206003015461099e91906115f0565b9050919050565b60035481565b620d2f0081565b60008054906101000a900473ffffffffffffffffffffffffffffffffffffffff1681565b6000604051905090565b600080fd5b600080fd5b6000819050919050565b6109fd816109ea565b8114610a0857600080fd5b50565b600081359050610a1a816109f4565b92915050565b600060208284031215610a3657610a356109e0565b5b6000610a4484828501610a0b565b91505092915050565b600081519050919050565b600082825260208201905092915050565b60005b83811015610a87578082015181840152602081019050610a6c565b60008484015250505050565b6000601f19601f8301169050919050565b6000610aaf82610a4d565b610ab98185610a58565b9350610ac9818560208601610a69565b610ad281610a93565b840191505092915050565b610ae6816109ea565b82525050565b60006080820190508181036000830152610b068187610aa4565b90508181036020830152610b1a8186610aa4565b9050610b296040830185610add565b610b366060830184610add565b95945050505050565b6000602082019050610b546000830184610add565b92915050565b600073ffffffffffffffffffffffffffffffffffffffff82169050919050565b6000610b8582610b5a565b9050919050565b610b9581610b7a565b8114610ba057600080fd5b50565b600081359050610bb281610b8c565b92915050565b600060208284031215610bce57610bcd6109e0565b5b6000610bdc84828501610ba3565b91505092915050565b600060ff82169050919050565b610bfb81610be5565b8114610c0657600080fd5b50565b600081359050610c1881610bf2565b92915050565b60008060408385031215610c3557610c346109e0565b5b6000610c4385828601610a0b565b9250506020610c5485828601610c09565b9150509250929050565b600080fd5b600080fd5b7f4e487b7100000000000000000000000000000000000000000000000000000000600052604160045260246000fd5b610ca082610a93565b810181811067ffffffffffffffff82111715610cbf57610cbe610c68565b5b80604052505050565b6000610cd26109d6565b9050610cde8282610c97565b919050565b600067ffffffffffffffff821115610cfe57610cfd610c68565b5b610d0782610a93565b9050602081019050919050565b82818337600083830152505050565b6000610d36610d3184610ce3565b610cc8565b905082815260208101848484011115610d5257610d51610c63565b5b610d5d848285610d14565b509392505050565b600082601f830112610d7a57610d79610c5e565b5b8135610d8a848260208601610d23565b91505092915050565b60008060408385031215610daa57610da96109e0565b5b600083013567ffffffffffffffff811115610dc857610dc76109e5565b5b610dd485828601610d65565b925050602083013567ffffffffffffffff811115610df557610df46109e5565b5b610e0185828601610d65565b9150509250929050565b610e1481610b7a565b82525050565b610e2381610be5565b82525050565b6000604082019050610e3e6000830185610e0b565b610e4b6020830184610e1a565b9392505050565b60008115159050919050565b610e6781610e52565b82525050565b6000602082019050610e826000830184610e5e565b92915050565b6000819050919050565b6000610ead610ea8610ea384610b5a565b610e88565b610b5a565b9050919050565b6000610ebf82610e92565b9050919050565b6000610ed182610eb4565b9050919050565b610ee181610ec6565b82525050565b6000602082019050610efc6000830184610ed8565b92915050565b7f4e487b7100000000000000000000000000000000000000000000000000000000600052602260045260246000fd5b60006002820490506001821680610f4957607f821691505b602082108103610f5c57610f5b610f02565b5b50919050565b7f566f74696e672068617320616c72656164792073746172746564000000000000600082015250565b6000610f98601a83610a58565b9150610fa382610f62565b602082019050919050565b60006020820190508181036000830152610fc781610f8b565b9050919050565b7f566f74696e672068617320616c726561647920656e6465640000000000000000600082015250565b6000611004601883610a58565b915061100f82610fce565b602082019050919050565b6000602082019050818103600083015261103381610ff7565b9050919050565b7f596f7520617265206e6f742072656769737465726564206173206120766f746560008201527f7200000000000000000000000000000000000000000000000000000000000000602082015250565b6000611096602183610a58565b91506110a18261103a565b604082019050919050565b600060208201905081810360008301526110c581611089565b9050919050565b7f59612068617320766f7461646f00000000000000000000000000000000000000600082015250565b6000611102600d83610a58565b915061110d826110cc565b602082019050919050565b60006020820190508181036000830152611131816110f5565b9050919050565b7f4c6120736174697366616363696f6e206465626520657374617220656e74726560008201527f2031207920350000000000000000000000000000000000000000000000000000602082015250565b6000611194602683610a58565b915061119f82611138565b604082019050919050565b600060208201905081810360008301526111c381611187565b9050919050565b7f4e487b7100000000000000000000000000000000000000000000000000000000600052601160045260246000fd5b6000611204826109ea565b915061120f836109ea565b9250828201905080821115611227576112266111ca565b5b92915050565b7f566f74696e6720686173206e6f74207965742073746172746564000000000000600082015250565b6000611263601a83610a58565b915061126e8261122d565b602082019050919050565b6000602082019050818103600083015261129281611256565b9050919050565b60006112a4826109ea565b91507fffffffffffffffffffffffffffffffffffffffffffffffffffffffffffffffff82036112d6576112d56111ca565b5b600182019050919050565b60008190508160005260206000209050919050565b60006020601f8301049050919050565b600082821b905092915050565b6000600883026113437fffffffffffffffffffffffffffffffffffffffffffffffffffffffffffffffff82611306565b61134d8683611306565b95508019841693508086168417925050509392505050565b600061138061137b611376846109ea565b610e88565b6109ea565b9050919050565b6000819050919050565b61139a83611365565b6113ae6113a682611387565b848454611313565b825550505050565b600090565b6113c36113b6565b6113ce818484611391565b505050565b5b818110156113f2576113e76000826113bb565b6001810190506113d4565b5050565b601f82111561143757611408816112e1565b611411846112f6565b81016020851015611420578190505b61143461142c856112f6565b8301826113d3565b50505b505050565b600082821c905092915050565b600061145a6000198460080261143c565b1980831691505092915050565b60006114738383611449565b9150826002028217905092915050565b61148c82610a4d565b67ffffffffffffffff8111156114a5576114a4610c68565b5b6114af8254610f31565b6114ba8282856113f6565b600060209050601f8311600181146114ed57600084156114db578287015190505b6114e58582611467565b86555061154d565b601f1984166114fb866112e1565b60005b82811015611523578489015182556001820191506020850194506020810190506114fe565b86831015611540578489015161153c601f891682611449565b8355505b6001600288020188555050505b505050505050565b7f4e6f2068617920766f746f732061756e00000000000000000000000000000000600082015250565b600061158b601083610a58565b915061159682611555565b602082019050919050565b600060208201905081810360008301526115ba8161157e565b9050919050565b7f4e487b7100000000000000000000000000000000000000000000000000000000600052601260045260246000fd5b60006115fb826109ea565b9150611606836109ea565b925082611616576116156115c1565b5b82820490509291505056fea2646970667358221220836e9d8baacf52cecf26312127a015353ad9b6b6ea0ebe3d00e23b792924587a64736f6c63430008120033a26469706673582212201741c3502a2863c26215d32859bc4a7682a5251771f03a4dfb3169561071670664736f6c63430008120033",
			"opcodes": "PUSH1 0x80 PUSH1 0x40 MSTORE CALLVALUE DUP1 ISZERO PUSH2 0x10 JUMPI PUSH1 0x0 DUP1 REVERT JUMPDEST POP PUSH2 0x3272 DUP1 PUSH2 0x20 PUSH1 0x0 CODECOPY PUSH1 0x0 RETURN INVALID PUSH1 0x80 PUSH1 0x40 MSTORE PUSH1 0x4 CALLDATASIZE LT PUSH3 0x86 JUMPI PUSH1 0x0 CALLDATALOAD PUSH1 0xE0 SHR DUP1 PUSH4 0x7FEA0D4B GT PUSH3 0x55 JUMPI DUP1 PUSH4 0x7FEA0D4B EQ PUSH3 0xF3 JUMPI DUP1 PUSH4 0x9074416D EQ PUSH3 0x10D JUMPI DUP1 PUSH4 0xE32637A0 EQ PUSH3 0x119 JUMPI DUP1 PUSH4 0xF229522B EQ PUSH3 0x133 JUMPI PUSH3 0x86 JUMP JUMPDEST DUP1 PUSH4 0x11E6492 EQ PUSH3 0x8B JUMPI DUP1 PUSH4 0x36C00656 EQ PUSH3 0xA5 JUMPI DUP1 PUSH4 0x6331E7D4 EQ PUSH3 0xBF JUMPI DUP1 PUSH4 0x7FA114C4 EQ PUSH3 0xD9 JUMPI JUMPDEST PUSH1 0x0 DUP1 REVERT JUMPDEST CALLVALUE DUP1 ISZERO PUSH3 0x98 JUMPI PUSH1 0x0 DUP1 REVERT JUMPDEST POP PUSH3 0xA3 PUSH3 0x14D JUMP JUMPDEST STOP JUMPDEST CALLVALUE DUP1 ISZERO PUSH3 0xB2 JUMPI PUSH1 0x0 DUP1 REVERT JUMPDEST POP PUSH3 0xBD PUSH3 0x2D4 JUMP JUMPDEST STOP JUMPDEST CALLVALUE DUP1 ISZERO PUSH3 0xCC JUMPI PUSH1 0x0 DUP1 REVERT JUMPDEST POP PUSH3 0xD7 PUSH3 0x357 JUMP JUMPDEST STOP JUMPDEST CALLVALUE DUP1 ISZERO PUSH3 0xE6 JUMPI PUSH1 0x0 DUP1 REVERT JUMPDEST POP PUSH3 0xF1 PUSH3 0x359 JUMP JUMPDEST STOP JUMPDEST CALLVALUE DUP1 ISZERO PUSH3 0x100 JUMPI PUSH1 0x0 DUP1 REVERT JUMPDEST POP PUSH3 0x10B PUSH3 0x58C JUMP JUMPDEST STOP JUMPDEST PUSH3 0x117 PUSH3 0x687 JUMP JUMPDEST STOP JUMPDEST CALLVALUE DUP1 ISZERO PUSH3 0x126 JUMPI PUSH1 0x0 DUP1 REVERT JUMPDEST POP PUSH3 0x131 PUSH3 0x807 JUMP JUMPDEST STOP JUMPDEST CALLVALUE DUP1 ISZERO PUSH3 0x140 JUMPI PUSH1 0x0 DUP1 REVERT JUMPDEST POP PUSH3 0x14B PUSH3 0xAC1 JUMP JUMPDEST STOP JUMPDEST PUSH20 0x0 PUSH4 0x39DF137F PUSH1 0x2 DUP1 EQ PUSH1 0x40 MLOAD DUP3 PUSH4 0xFFFFFFFF AND PUSH1 0xE0 SHL DUP2 MSTORE PUSH1 0x4 ADD PUSH3 0x189 SWAP2 SWAP1 PUSH3 0xEBB JUMP JUMPDEST PUSH1 0x20 PUSH1 0x40 MLOAD DUP1 DUP4 SUB DUP2 DUP7 GAS DELEGATECALL ISZERO DUP1 ISZERO PUSH3 0x1A7 JUMPI RETURNDATASIZE PUSH1 0x0 DUP1 RETURNDATACOPY RETURNDATASIZE PUSH1 0x0 REVERT JUMPDEST POP POP POP POP PUSH1 0x40 MLOAD RETURNDATASIZE PUSH1 0x1F NOT PUSH1 0x1F DUP3 ADD AND DUP3 ADD DUP1 PUSH1 0x40 MSTORE POP DUP2 ADD SWAP1 PUSH3 0x1CD SWAP2 SWAP1 PUSH3 0xF32 JUMP JUMPDEST POP PUSH20 0x0 PUSH4 0xA079F1A3 PUSH1 0x2 PUSH1 0x1 PUSH1 0x40 MLOAD DUP4 PUSH4 0xFFFFFFFF AND PUSH1 0xE0 SHL DUP2 MSTORE PUSH1 0x4 ADD PUSH3 0x20B SWAP3 SWAP2 SWAP1 PUSH3 0xFCF JUMP JUMPDEST PUSH1 0x20 PUSH1 0x40 MLOAD DUP1 DUP4 SUB DUP2 DUP7 GAS DELEGATECALL ISZERO DUP1 ISZERO PUSH3 0x229 JUMPI RETURNDATASIZE PUSH1 0x0 DUP1 RETURNDATACOPY RETURNDATASIZE PUSH1 0x0 REVERT JUMPDEST POP POP POP POP PUSH1 0x40 MLOAD RETURNDATASIZE PUSH1 0x1F NOT PUSH1 0x1F DUP3 ADD AND DUP3 ADD DUP1 PUSH1 0x40 MSTORE POP DUP2 ADD SWAP1 PUSH3 0x24F SWAP2 SWAP1 PUSH3 0xF32 JUMP JUMPDEST POP PUSH20 0x0 PUSH4 0xAEA88952 PUSH1 0x2 PUSH1 0x3 PUSH1 0x40 MLOAD DUP4 PUSH4 0xFFFFFFFF AND PUSH1 0xE0 SHL DUP2 MSTORE PUSH1 0x4 ADD PUSH3 0x28D SWAP3 SWAP2 SWAP1 PUSH3 0x1061 JUMP JUMPDEST PUSH1 0x20 PUSH1 0x40 MLOAD DUP1 DUP4 SUB DUP2 DUP7 GAS DELEGATECALL ISZERO DUP1 ISZERO PUSH3 0x2AB JUMPI RETURNDATASIZE PUSH1 0x0 DUP1 RETURNDATACOPY RETURNDATASIZE PUSH1 0x0 REVERT JUMPDEST POP POP POP POP PUSH1 0x40 MLOAD RETURNDATASIZE PUSH1 0x1F NOT PUSH1 0x1F DUP3 ADD AND DUP3 ADD DUP1 PUSH1 0x40 MSTORE POP DUP2 ADD SWAP1 PUSH3 0x2D1 SWAP2 SWAP1 PUSH3 0xF32 JUMP JUMPDEST POP JUMP JUMPDEST PUSH20 0x0 PUSH4 0x561015E2 PUSH1 0x1 DUP1 PUSH1 0x40 MLOAD DUP4 PUSH4 0xFFFFFFFF AND PUSH1 0xE0 SHL DUP2 MSTORE PUSH1 0x4 ADD PUSH3 0x310 SWAP3 SWAP2 SWAP1 PUSH3 0x10F3 JUMP JUMPDEST PUSH1 0x20 PUSH1 0x40 MLOAD DUP1 DUP4 SUB DUP2 DUP7 GAS DELEGATECALL ISZERO DUP1 ISZERO PUSH3 0x32E JUMPI RETURNDATASIZE PUSH1 0x0 DUP1 RETURNDATACOPY RETURNDATASIZE PUSH1 0x0 REVERT JUMPDEST POP POP POP POP PUSH1 0x40 MLOAD RETURNDATASIZE PUSH1 0x1F NOT PUSH1 0x1F DUP3 ADD AND DUP3 ADD DUP1 PUSH1 0x40 MSTORE POP DUP2 ADD SWAP1 PUSH3 0x354 SWAP2 SWAP1 PUSH3 0xF32 JUMP JUMPDEST POP JUMP JUMPDEST JUMP JUMPDEST PUSH1 0x0 PUSH20 0x0 PUSH4 0xCE88B145 PUSH1 0x1 PUSH1 0x40 MLOAD DUP3 PUSH4 0xFFFFFFFF AND PUSH1 0xE0 SHL DUP2 MSTORE PUSH1 0x4 ADD PUSH3 0x395 SWAP2 SWAP1 PUSH3 0x1182 JUMP JUMPDEST PUSH1 0x20 PUSH1 0x40 MLOAD DUP1 DUP4 SUB DUP2 DUP7 GAS DELEGATECALL ISZERO DUP1 ISZERO PUSH3 0x3B3 JUMPI RETURNDATASIZE PUSH1 0x0 DUP1 RETURNDATACOPY RETURNDATASIZE PUSH1 0x0 REVERT JUMPDEST POP POP POP POP PUSH1 0x40 MLOAD RETURNDATASIZE PUSH1 0x1F NOT PUSH1 0x1F DUP3 ADD AND DUP3 ADD DUP1 PUSH1 0x40 MSTORE POP DUP2 ADD SWAP1 PUSH3 0x3D9 SWAP2 SWAP1 PUSH3 0x1204 JUMP JUMPDEST SWAP1 POP PUSH1 0x0 DUP1 SLOAD SWAP1 PUSH2 0x100 EXP SWAP1 DIV PUSH20 0xFFFFFFFFFFFFFFFFFFFFFFFFFFFFFFFFFFFFFFFF AND PUSH20 0xFFFFFFFFFFFFFFFFFFFFFFFFFFFFFFFFFFFFFFFF AND PUSH4 0x38DB6DD3 DUP3 PUSH1 0x40 MLOAD DUP3 PUSH4 0xFFFFFFFF AND PUSH1 0xE0 SHL DUP2 MSTORE PUSH1 0x4 ADD PUSH3 0x436 SWAP2 SWAP1 PUSH3 0x1247 JUMP JUMPDEST PUSH1 0x0 PUSH1 0x40 MLOAD DUP1 DUP4 SUB DUP2 PUSH1 0x0 DUP8 DUP1 EXTCODESIZE ISZERO DUP1 ISZERO PUSH3 0x451 JUMPI PUSH1 0x0 DUP1 REVERT JUMPDEST POP GAS CALL ISZERO DUP1 ISZERO PUSH3 0x466 JUMPI RETURNDATASIZE PUSH1 0x0 DUP1 RETURNDATACOPY RETURNDATASIZE PUSH1 0x0 REVERT JUMPDEST POP POP POP POP PUSH20 0x0 PUSH4 0x767392B3 PUSH1 0x0 DUP1 SLOAD SWAP1 PUSH2 0x100 EXP SWAP1 DIV PUSH20 0xFFFFFFFFFFFFFFFFFFFFFFFFFFFFFFFFFFFFFFFF AND PUSH20 0xFFFFFFFFFFFFFFFFFFFFFFFFFFFFFFFFFFFFFFFF AND PUSH4 0xA3EC138D DUP5 PUSH1 0x40 MLOAD DUP3 PUSH4 0xFFFFFFFF AND PUSH1 0xE0 SHL DUP2 MSTORE PUSH1 0x4 ADD PUSH3 0x4DF SWAP2 SWAP1 PUSH3 0x1247 JUMP JUMPDEST PUSH1 0x20 PUSH1 0x40 MLOAD DUP1 DUP4 SUB DUP2 DUP7 GAS STATICCALL ISZERO DUP1 ISZERO PUSH3 0x4FD JUMPI RETURNDATASIZE PUSH1 0x0 DUP1 RETURNDATACOPY RETURNDATASIZE PUSH1 0x0 REVERT JUMPDEST POP POP POP POP PUSH1 0x40 MLOAD RETURNDATASIZE PUSH1 0x1F NOT PUSH1 0x1F DUP3 ADD AND DUP3 ADD DUP1 PUSH1 0x40 MSTORE POP DUP2 ADD SWAP1 PUSH3 0x523 SWAP2 SWAP1 PUSH3 0xF32 JUMP JUMPDEST PUSH1 0x1 PUSH1 0x40 MLOAD DUP4 PUSH4 0xFFFFFFFF AND PUSH1 0xE0 SHL DUP2 MSTORE PUSH1 0x4 ADD PUSH3 0x544 SWAP3 SWAP2 SWAP1 PUSH3 0x12B4 JUMP JUMPDEST PUSH1 0x20 PUSH1 0x40 MLOAD DUP1 DUP4 SUB DUP2 DUP7 GAS DELEGATECALL ISZERO DUP1 ISZERO PUSH3 0x562 JUMPI RETURNDATASIZE PUSH1 0x0 DUP1 RETURNDATACOPY RETURNDATASIZE PUSH1 0x0 REVERT JUMPDEST POP POP POP POP PUSH1 0x40 MLOAD RETURNDATASIZE PUSH1 0x1F NOT PUSH1 0x1F DUP3 ADD AND DUP3 ADD DUP1 PUSH1 0x40 MSTORE POP DUP2 ADD SWAP1 PUSH3 0x588 SWAP2 SWAP1 PUSH3 0xF32 JUMP JUMPDEST POP POP JUMP JUMPDEST ADDRESS PUSH1 0x40 MLOAD PUSH3 0x59B SWAP1 PUSH3 0xE2F JUMP JUMPDEST PUSH3 0x5A7 SWAP2 SWAP1 PUSH3 0x1247 JUMP JUMPDEST PUSH1 0x40 MLOAD DUP1 SWAP2 SUB SWAP1 PUSH1 0x0 CREATE DUP1 ISZERO DUP1 ISZERO PUSH3 0x5C4 JUMPI RETURNDATASIZE PUSH1 0x0 DUP1 RETURNDATACOPY RETURNDATASIZE PUSH1 0x0 REVERT JUMPDEST POP PUSH1 0x0 DUP1 PUSH2 0x100 EXP DUP2 SLOAD DUP2 PUSH20 0xFFFFFFFFFFFFFFFFFFFFFFFFFFFFFFFFFFFFFFFF MUL NOT AND SWAP1 DUP4 PUSH20 0xFFFFFFFFFFFFFFFFFFFFFFFFFFFFFFFFFFFFFFFF AND MUL OR SWAP1 SSTORE POP PUSH20 0x0 PUSH4 0xABCD7960 PUSH1 0x1 DUP1 PUSH1 0x40 MLOAD DUP4 PUSH4 0xFFFFFFFF AND PUSH1 0xE0 SHL DUP2 MSTORE PUSH1 0x4 ADD PUSH3 0x640 SWAP3 SWAP2 SWAP1 PUSH3 0x1346 JUMP JUMPDEST PUSH1 0x20 PUSH1 0x40 MLOAD DUP1 DUP4 SUB DUP2 DUP7 GAS DELEGATECALL ISZERO DUP1 ISZERO PUSH3 0x65E JUMPI RETURNDATASIZE PUSH1 0x0 DUP1 RETURNDATACOPY RETURNDATASIZE PUSH1 0x0 REVERT JUMPDEST POP POP POP POP PUSH1 0x40 MLOAD RETURNDATASIZE PUSH1 0x1F NOT PUSH1 0x1F DUP3 ADD AND DUP3 ADD DUP1 PUSH1 0x40 MSTORE POP DUP2 ADD SWAP1 PUSH3 0x684 SWAP2 SWAP1 PUSH3 0xF32 JUMP JUMPDEST POP JUMP JUMPDEST PUSH20 0x0 PUSH4 0xBFBA5DD6 CALLER PUSH20 0x0 PUSH4 0xCE88B145 PUSH1 0x1 PUSH1 0x40 MLOAD DUP3 PUSH4 0xFFFFFFFF AND PUSH1 0xE0 SHL DUP2 MSTORE PUSH1 0x4 ADD PUSH3 0x6DC SWAP2 SWAP1 PUSH3 0x1182 JUMP JUMPDEST PUSH1 0x20 PUSH1 0x40 MLOAD DUP1 DUP4 SUB DUP2 DUP7 GAS DELEGATECALL ISZERO DUP1 ISZERO PUSH3 0x6FA JUMPI RETURNDATASIZE PUSH1 0x0 DUP1 RETURNDATACOPY RETURNDATASIZE PUSH1 0x0 REVERT JUMPDEST POP POP POP POP PUSH1 0x40 MLOAD RETURNDATASIZE PUSH1 0x1F NOT PUSH1 0x1F DUP3 ADD AND DUP3 ADD DUP1 PUSH1 0x40 MSTORE POP DUP2 ADD SWAP1 PUSH3 0x720 SWAP2 SWAP1 PUSH3 0x1204 JUMP JUMPDEST PUSH1 0x40 MLOAD DUP4 PUSH4 0xFFFFFFFF AND PUSH1 0xE0 SHL DUP2 MSTORE PUSH1 0x4 ADD PUSH3 0x73F SWAP3 SWAP2 SWAP1 PUSH3 0x13E9 JUMP JUMPDEST PUSH1 0x20 PUSH1 0x40 MLOAD DUP1 DUP4 SUB DUP2 DUP7 GAS DELEGATECALL ISZERO DUP1 ISZERO PUSH3 0x75D JUMPI RETURNDATASIZE PUSH1 0x0 DUP1 RETURNDATACOPY RETURNDATASIZE PUSH1 0x0 REVERT JUMPDEST POP POP POP POP PUSH1 0x40 MLOAD RETURNDATASIZE PUSH1 0x1F NOT PUSH1 0x1F DUP3 ADD AND DUP3 ADD DUP1 PUSH1 0x40 MSTORE POP DUP2 ADD SWAP1 PUSH3 0x783 SWAP2 SWAP1 PUSH3 0xF32 JUMP JUMPDEST POP PUSH20 0x0 PUSH4 0xABCD7960 CALLVALUE PUSH1 0x64 PUSH1 0x40 MLOAD DUP4 PUSH4 0xFFFFFFFF AND PUSH1 0xE0 SHL DUP2 MSTORE PUSH1 0x4 ADD PUSH3 0x7C0 SWAP3 SWAP2 SWAP1 PUSH3 0x14BE JUMP JUMPDEST PUSH1 0x20 PUSH1 0x40 MLOAD DUP1 DUP4 SUB DUP2 DUP7 GAS DELEGATECALL ISZERO DUP1 ISZERO PUSH3 0x7DE JUMPI RETURNDATASIZE PUSH1 0x0 DUP1 RETURNDATACOPY RETURNDATASIZE PUSH1 0x0 REVERT JUMPDEST POP POP POP POP PUSH1 0x40 MLOAD RETURNDATASIZE PUSH1 0x1F NOT PUSH1 0x1F DUP3 ADD AND DUP3 ADD DUP1 PUSH1 0x40 MSTORE POP DUP2 ADD SWAP1 PUSH3 0x804 SWAP2 SWAP1 PUSH3 0xF32 JUMP JUMPDEST POP JUMP JUMPDEST PUSH1 0x0 PUSH20 0x0 PUSH4 0xCE88B145 PUSH1 0x1 PUSH1 0x40 MLOAD DUP3 PUSH4 0xFFFFFFFF AND PUSH1 0xE0 SHL DUP2 MSTORE PUSH1 0x4 ADD PUSH3 0x843 SWAP2 SWAP1 PUSH3 0x1182 JUMP JUMPDEST PUSH1 0x20 PUSH1 0x40 MLOAD DUP1 DUP4 SUB DUP2 DUP7 GAS DELEGATECALL ISZERO DUP1 ISZERO PUSH3 0x861 JUMPI RETURNDATASIZE PUSH1 0x0 DUP1 RETURNDATACOPY RETURNDATASIZE PUSH1 0x0 REVERT JUMPDEST POP POP POP POP PUSH1 0x40 MLOAD RETURNDATASIZE PUSH1 0x1F NOT PUSH1 0x1F DUP3 ADD AND DUP3 ADD DUP1 PUSH1 0x40 MSTORE POP DUP2 ADD SWAP1 PUSH3 0x887 SWAP2 SWAP1 PUSH3 0x1204 JUMP JUMPDEST SWAP1 POP PUSH1 0x0 DUP1 SLOAD SWAP1 PUSH2 0x100 EXP SWAP1 DIV PUSH20 0xFFFFFFFFFFFFFFFFFFFFFFFFFFFFFFFFFFFFFFFF AND PUSH20 0xFFFFFFFFFFFFFFFFFFFFFFFFFFFFFFFFFFFFFFFF AND PUSH4 0x38DB6DD3 DUP3 PUSH1 0x40 MLOAD DUP3 PUSH4 0xFFFFFFFF AND PUSH1 0xE0 SHL DUP2 MSTORE PUSH1 0x4 ADD PUSH3 0x8E4 SWAP2 SWAP1 PUSH3 0x1247 JUMP JUMPDEST PUSH1 0x0 PUSH1 0x40 MLOAD DUP1 DUP4 SUB DUP2 PUSH1 0x0 DUP8 DUP1 EXTCODESIZE ISZERO DUP1 ISZERO PUSH3 0x8FF JUMPI PUSH1 0x0 DUP1 REVERT JUMPDEST POP GAS CALL ISZERO DUP1 ISZERO PUSH3 0x914 JUMPI RETURNDATASIZE PUSH1 0x0 DUP1 RETURNDATACOPY RETURNDATASIZE PUSH1 0x0 REVERT JUMPDEST POP POP POP POP PUSH1 0x0 DUP1 SLOAD SWAP1 PUSH2 0x100 EXP SWAP1 DIV PUSH20 0xFFFFFFFFFFFFFFFFFFFFFFFFFFFFFFFFFFFFFFFF AND PUSH20 0xFFFFFFFFFFFFFFFFFFFFFFFFFFFFFFFFFFFFFFFF AND PUSH4 0x65E481E2 PUSH1 0x40 MLOAD DUP2 PUSH4 0xFFFFFFFF AND PUSH1 0xE0 SHL DUP2 MSTORE PUSH1 0x4 ADD PUSH3 0x971 SWAP1 PUSH3 0x15B1 JUMP JUMPDEST PUSH1 0x0 PUSH1 0x40 MLOAD DUP1 DUP4 SUB DUP2 PUSH1 0x0 DUP8 DUP1 EXTCODESIZE ISZERO DUP1 ISZERO PUSH3 0x98C JUMPI PUSH1 0x0 DUP1 REVERT JUMPDEST POP GAS CALL ISZERO DUP1 ISZERO PUSH3 0x9A1 JUMPI RETURNDATASIZE PUSH1 0x0 DUP1 RETURNDATACOPY RETURNDATASIZE PUSH1 0x0 REVERT JUMPDEST POP POP POP POP PUSH1 0x0 DUP1 PUSH1 0x0 SWAP1 SLOAD SWAP1 PUSH2 0x100 EXP SWAP1 DIV PUSH20 0xFFFFFFFFFFFFFFFFFFFFFFFFFFFFFFFFFFFFFFFF AND PUSH20 0xFFFFFFFFFFFFFFFFFFFFFFFFFFFFFFFFFFFFFFFF AND PUSH4 0xDA35C664 PUSH1 0x40 MLOAD DUP2 PUSH4 0xFFFFFFFF AND PUSH1 0xE0 SHL DUP2 MSTORE PUSH1 0x4 ADD PUSH1 0x20 PUSH1 0x40 MLOAD DUP1 DUP4 SUB DUP2 DUP7 GAS STATICCALL ISZERO DUP1 ISZERO PUSH3 0xA14 JUMPI RETURNDATASIZE PUSH1 0x0 DUP1 RETURNDATACOPY RETURNDATASIZE PUSH1 0x0 REVERT JUMPDEST POP POP POP POP PUSH1 0x40 MLOAD RETURNDATASIZE PUSH1 0x1F NOT PUSH1 0x1F DUP3 ADD AND DUP3 ADD DUP1 PUSH1 0x40 MSTORE POP DUP2 ADD SWAP1 PUSH3 0xA3A SWAP2 SWAP1 PUSH3 0x1619 JUMP JUMPDEST SWAP1 POP PUSH20 0x0 PUSH4 0xABCD7960 DUP3 PUSH1 0x1 PUSH1 0x40 MLOAD DUP4 PUSH4 0xFFFFFFFF AND PUSH1 0xE0 SHL DUP2 MSTORE PUSH1 0x4 ADD PUSH3 0xA78 SWAP3 SWAP2 SWAP1 PUSH3 0x169B JUMP JUMPDEST PUSH1 0x20 PUSH1 0x40 MLOAD DUP1 DUP4 SUB DUP2 DUP7 GAS DELEGATECALL ISZERO DUP1 ISZERO PUSH3 0xA96 JUMPI RETURNDATASIZE PUSH1 0x0 DUP1 RETURNDATACOPY RETURNDATASIZE PUSH1 0x0 REVERT JUMPDEST POP POP POP POP PUSH1 0x40 MLOAD RETURNDATASIZE PUSH1 0x1F NOT PUSH1 0x1F DUP3 ADD AND DUP3 ADD DUP1 PUSH1 0x40 MSTORE POP DUP2 ADD SWAP1 PUSH3 0xABC SWAP2 SWAP1 PUSH3 0xF32 JUMP JUMPDEST POP POP POP JUMP JUMPDEST PUSH1 0x0 PUSH20 0x0 PUSH4 0xCE88B145 PUSH1 0x1 PUSH1 0x40 MLOAD DUP3 PUSH4 0xFFFFFFFF AND PUSH1 0xE0 SHL DUP2 MSTORE PUSH1 0x4 ADD PUSH3 0xAFD SWAP2 SWAP1 PUSH3 0x1182 JUMP JUMPDEST PUSH1 0x20 PUSH1 0x40 MLOAD DUP1 DUP4 SUB DUP2 DUP7 GAS DELEGATECALL ISZERO DUP1 ISZERO PUSH3 0xB1B JUMPI RETURNDATASIZE PUSH1 0x0 DUP1 RETURNDATACOPY RETURNDATASIZE PUSH1 0x0 REVERT JUMPDEST POP POP POP POP PUSH1 0x40 MLOAD RETURNDATASIZE PUSH1 0x1F NOT PUSH1 0x1F DUP3 ADD AND DUP3 ADD DUP1 PUSH1 0x40 MSTORE POP DUP2 ADD SWAP1 PUSH3 0xB41 SWAP2 SWAP1 PUSH3 0x1204 JUMP JUMPDEST SWAP1 POP PUSH1 0x0 DUP1 SLOAD SWAP1 PUSH2 0x100 EXP SWAP1 DIV PUSH20 0xFFFFFFFFFFFFFFFFFFFFFFFFFFFFFFFFFFFFFFFF AND PUSH20 0xFFFFFFFFFFFFFFFFFFFFFFFFFFFFFFFFFFFFFFFF AND PUSH4 0x38DB6DD3 DUP3 PUSH1 0x40 MLOAD DUP3 PUSH4 0xFFFFFFFF AND PUSH1 0xE0 SHL DUP2 MSTORE PUSH1 0x4 ADD PUSH3 0xB9E SWAP2 SWAP1 PUSH3 0x1247 JUMP JUMPDEST PUSH1 0x0 PUSH1 0x40 MLOAD DUP1 DUP4 SUB DUP2 PUSH1 0x0 DUP8 DUP1 EXTCODESIZE ISZERO DUP1 ISZERO PUSH3 0xBB9 JUMPI PUSH1 0x0 DUP1 REVERT JUMPDEST POP GAS CALL ISZERO DUP1 ISZERO PUSH3 0xBCE JUMPI RETURNDATASIZE PUSH1 0x0 DUP1 RETURNDATACOPY RETURNDATASIZE PUSH1 0x0 REVERT JUMPDEST POP POP POP POP PUSH1 0x0 DUP1 SLOAD SWAP1 PUSH2 0x100 EXP SWAP1 DIV PUSH20 0xFFFFFFFFFFFFFFFFFFFFFFFFFFFFFFFFFFFFFFFF AND PUSH20 0xFFFFFFFFFFFFFFFFFFFFFFFFFFFFFFFFFFFFFFFF AND PUSH4 0x65E481E2 PUSH1 0x40 MLOAD DUP2 PUSH4 0xFFFFFFFF AND PUSH1 0xE0 SHL DUP2 MSTORE PUSH1 0x4 ADD PUSH3 0xC2B SWAP1 PUSH3 0x15B1 JUMP JUMPDEST PUSH1 0x0 PUSH1 0x40 MLOAD DUP1 DUP4 SUB DUP2 PUSH1 0x0 DUP8 DUP1 EXTCODESIZE ISZERO DUP1 ISZERO PUSH3 0xC46 JUMPI PUSH1 0x0 DUP1 REVERT JUMPDEST POP GAS CALL ISZERO DUP1 ISZERO PUSH3 0xC5B JUMPI RETURNDATASIZE PUSH1 0x0 DUP1 RETURNDATACOPY RETURNDATASIZE PUSH1 0x0 REVERT JUMPDEST POP POP POP POP PUSH1 0x0 PUSH1 0x1 SWAP1 POP PUSH1 0x0 PUSH1 0x4 SWAP1 POP PUSH1 0x0 DUP1 SLOAD SWAP1 PUSH2 0x100 EXP SWAP1 DIV PUSH20 0xFFFFFFFFFFFFFFFFFFFFFFFFFFFFFFFFFFFFFFFF AND PUSH20 0xFFFFFFFFFFFFFFFFFFFFFFFFFFFFFFFFFFFFFFFF AND PUSH4 0x3DCA3D34 DUP4 DUP4 PUSH1 0x40 MLOAD DUP4 PUSH4 0xFFFFFFFF AND PUSH1 0xE0 SHL DUP2 MSTORE PUSH1 0x4 ADD PUSH3 0xCC8 SWAP3 SWAP2 SWAP1 PUSH3 0x170C JUMP JUMPDEST PUSH1 0x0 PUSH1 0x40 MLOAD DUP1 DUP4 SUB DUP2 PUSH1 0x0 DUP8 DUP1 EXTCODESIZE ISZERO DUP1 ISZERO PUSH3 0xCE3 JUMPI PUSH1 0x0 DUP1 REVERT JUMPDEST POP GAS CALL ISZERO DUP1 ISZERO PUSH3 0xCF8 JUMPI RETURNDATASIZE PUSH1 0x0 DUP1 RETURNDATACOPY RETURNDATASIZE PUSH1 0x0 REVERT JUMPDEST POP POP POP POP PUSH1 0x0 DUP1 PUSH1 0x0 SWAP1 SLOAD SWAP1 PUSH2 0x100 EXP SWAP1 DIV PUSH20 0xFFFFFFFFFFFFFFFFFFFFFFFFFFFFFFFFFFFFFFFF AND PUSH20 0xFFFFFFFFFFFFFFFFFFFFFFFFFFFFFFFFFFFFFFFF AND PUSH4 0x13CF08B DUP5 PUSH1 0x40 MLOAD DUP3 PUSH4 0xFFFFFFFF AND PUSH1 0xE0 SHL DUP2 MSTORE PUSH1 0x4 ADD PUSH3 0xD5A SWAP2 SWAP1 PUSH3 0x1739 JUMP JUMPDEST PUSH1 0x0 PUSH1 0x40 MLOAD DUP1 DUP4 SUB DUP2 DUP7 GAS STATICCALL ISZERO DUP1 ISZERO PUSH3 0xD78 JUMPI RETURNDATASIZE PUSH1 0x0 DUP1 RETURNDATACOPY RETURNDATASIZE PUSH1 0x0 REVERT JUMPDEST POP POP POP POP PUSH1 0x40 MLOAD RETURNDATASIZE PUSH1 0x0 DUP3 RETURNDATACOPY RETURNDATASIZE PUSH1 0x1F NOT PUSH1 0x1F DUP3 ADD AND DUP3 ADD DUP1 PUSH1 0x40 MSTORE POP DUP2 ADD SWAP1 PUSH3 0xDA3 SWAP2 SWAP1 PUSH3 0x18D5 JUMP JUMPDEST POP SWAP3 POP POP POP PUSH20 0x0 PUSH4 0xABCD7960 DUP3 PUSH1 0x1 PUSH1 0x40 MLOAD DUP4 PUSH4 0xFFFFFFFF AND PUSH1 0xE0 SHL DUP2 MSTORE PUSH1 0x4 ADD PUSH3 0xDE4 SWAP3 SWAP2 SWAP1 PUSH3 0x19D5 JUMP JUMPDEST PUSH1 0x20 PUSH1 0x40 MLOAD DUP1 DUP4 SUB DUP2 DUP7 GAS DELEGATECALL ISZERO DUP1 ISZERO PUSH3 0xE02 JUMPI RETURNDATASIZE PUSH1 0x0 DUP1 RETURNDATACOPY RETURNDATASIZE PUSH1 0x0 REVERT JUMPDEST POP POP POP POP PUSH1 0x40 MLOAD RETURNDATASIZE PUSH1 0x1F NOT PUSH1 0x1F DUP3 ADD AND DUP3 ADD DUP1 PUSH1 0x40 MSTORE POP DUP2 ADD SWAP1 PUSH3 0xE28 SWAP2 SWAP1 PUSH3 0xF32 JUMP JUMPDEST POP POP POP POP POP JUMP JUMPDEST PUSH2 0x1825 DUP1 PUSH3 0x1A18 DUP4 CODECOPY ADD SWAP1 JUMP JUMPDEST PUSH1 0x0 DUP2 ISZERO ISZERO SWAP1 POP SWAP2 SWAP1 POP JUMP JUMPDEST PUSH3 0xE54 DUP2 PUSH3 0xE3D JUMP JUMPDEST DUP3 MSTORE POP POP JUMP JUMPDEST PUSH1 0x0 DUP3 DUP3 MSTORE PUSH1 0x20 DUP3 ADD SWAP1 POP SWAP3 SWAP2 POP POP JUMP JUMPDEST PUSH32 0x73686F756C642062652074727565000000000000000000000000000000000000 PUSH1 0x0 DUP3 ADD MSTORE POP JUMP JUMPDEST PUSH1 0x0 PUSH3 0xEA3 PUSH1 0xE DUP4 PUSH3 0xE5A JUMP JUMPDEST SWAP2 POP PUSH3 0xEB0 DUP3 PUSH3 0xE6B JUMP JUMPDEST PUSH1 0x20 DUP3 ADD SWAP1 POP SWAP2 SWAP1 POP JUMP JUMPDEST PUSH1 0x0 PUSH1 0x40 DUP3 ADD SWAP1 POP PUSH3 0xED2 PUSH1 0x0 DUP4 ADD DUP5 PUSH3 0xE49 JUMP JUMPDEST DUP2 DUP2 SUB PUSH1 0x20 DUP4 ADD MSTORE PUSH3 0xEE5 DUP2 PUSH3 0xE94 JUMP JUMPDEST SWAP1 POP SWAP3 SWAP2 POP POP JUMP JUMPDEST PUSH1 0x0 PUSH1 0x40 MLOAD SWAP1 POP SWAP1 JUMP JUMPDEST PUSH1 0x0 DUP1 REVERT JUMPDEST PUSH1 0x0 DUP1 REVERT JUMPDEST PUSH3 0xF0C DUP2 PUSH3 0xE3D JUMP JUMPDEST DUP2 EQ PUSH3 0xF18 JUMPI PUSH1 0x0 DUP1 REVERT JUMPDEST POP JUMP JUMPDEST PUSH1 0x0 DUP2 MLOAD SWAP1 POP PUSH3 0xF2C DUP2 PUSH3 0xF01 JUMP JUMPDEST SWAP3 SWAP2 POP POP JUMP JUMPDEST PUSH1 0x0 PUSH1 0x20 DUP3 DUP5 SUB SLT ISZERO PUSH3 0xF4B JUMPI PUSH3 0xF4A PUSH3 0xEF7 JUMP JUMPDEST JUMPDEST PUSH1 0x0 PUSH3 0xF5B DUP5 DUP3 DUP6 ADD PUSH3 0xF1B JUMP JUMPDEST SWAP2 POP POP SWAP3 SWAP2 POP POP JUMP JUMPDEST PUSH1 0x0 DUP2 SWAP1 POP SWAP2 SWAP1 POP JUMP JUMPDEST PUSH3 0xF79 DUP2 PUSH3 0xF64 JUMP JUMPDEST DUP3 MSTORE POP POP JUMP JUMPDEST PUSH32 0x322073686F756C642062652067726561746572207468616E20746F2031000000 PUSH1 0x0 DUP3 ADD MSTORE POP JUMP JUMPDEST PUSH1 0x0 PUSH3 0xFB7 PUSH1 0x1D DUP4 PUSH3 0xE5A JUMP JUMPDEST SWAP2 POP PUSH3 0xFC4 DUP3 PUSH3 0xF7F JUMP JUMPDEST PUSH1 0x20 DUP3 ADD SWAP1 POP SWAP2 SWAP1 POP JUMP JUMPDEST PUSH1 0x0 PUSH1 0x60 DUP3 ADD SWAP1 POP PUSH3 0xFE6 PUSH1 0x0 DUP4 ADD DUP6 PUSH3 0xF6E JUMP JUMPDEST PUSH3 0xFF5 PUSH1 0x20 DUP4 ADD DUP5 PUSH3 0xF6E JUMP JUMPDEST DUP2 DUP2 SUB PUSH1 0x40 DUP4 ADD MSTORE PUSH3 0x1008 DUP2 PUSH3 0xFA8 JUMP JUMPDEST SWAP1 POP SWAP4 SWAP3 POP POP POP JUMP JUMPDEST PUSH32 0x322073686F756C64206265206C6573736572207468616E20746F203300000000 PUSH1 0x0 DUP3 ADD MSTORE POP JUMP JUMPDEST PUSH1 0x0 PUSH3 0x1049 PUSH1 0x1C DUP4 PUSH3 0xE5A JUMP JUMPDEST SWAP2 POP PUSH3 0x1056 DUP3 PUSH3 0x1011 JUMP JUMPDEST PUSH1 0x20 DUP3 ADD SWAP1 POP SWAP2 SWAP1 POP JUMP JUMPDEST PUSH1 0x0 PUSH1 0x60 DUP3 ADD SWAP1 POP PUSH3 0x1078 PUSH1 0x0 DUP4 ADD DUP6 PUSH3 0xF6E JUMP JUMPDEST PUSH3 0x1087 PUSH1 0x20 DUP4 ADD DUP5 PUSH3 0xF6E JUMP JUMPDEST DUP2 DUP2 SUB PUSH1 0x40 DUP4 ADD MSTORE PUSH3 0x109A DUP2 PUSH3 0x103A JUMP JUMPDEST SWAP1 POP SWAP4 SWAP3 POP POP POP JUMP JUMPDEST PUSH32 0x312073686F756C64206E6F7420626520657175616C20746F2031000000000000 PUSH1 0x0 DUP3 ADD MSTORE POP JUMP JUMPDEST PUSH1 0x0 PUSH3 0x10DB PUSH1 0x1A DUP4 PUSH3 0xE5A JUMP JUMPDEST SWAP2 POP PUSH3 0x10E8 DUP3 PUSH3 0x10A3 JUMP JUMPDEST PUSH1 0x20 DUP3 ADD SWAP1 POP SWAP2 SWAP1 POP JUMP JUMPDEST PUSH1 0x0 PUSH1 0x60 DUP3 ADD SWAP1 POP PUSH3 0x110A PUSH1 0x0 DUP4 ADD DUP6 PUSH3 0xF6E JUMP JUMPDEST PUSH3 0x1119 PUSH1 0x20 DUP4 ADD DUP5 PUSH3 0xF6E JUMP JUMPDEST DUP2 DUP2 SUB PUSH1 0x40 DUP4 ADD MSTORE PUSH3 0x112C DUP2 PUSH3 0x10CC JUMP JUMPDEST SWAP1 POP SWAP4 SWAP3 POP POP POP JUMP JUMPDEST PUSH1 0x0 DUP2 SWAP1 POP SWAP2 SWAP1 POP JUMP JUMPDEST PUSH1 0x0 DUP2 SWAP1 POP SWAP2 SWAP1 POP JUMP JUMPDEST PUSH1 0x0 PUSH3 0x116A PUSH3 0x1164 PUSH3 0x115E DUP5 PUSH3 0x1135 JUMP JUMPDEST PUSH3 0x113F JUMP JUMPDEST PUSH3 0xF64 JUMP JUMPDEST SWAP1 POP SWAP2 SWAP1 POP JUMP JUMPDEST PUSH3 0x117C DUP2 PUSH3 0x1149 JUMP JUMPDEST DUP3 MSTORE POP POP JUMP JUMPDEST PUSH1 0x0 PUSH1 0x20 DUP3 ADD SWAP1 POP PUSH3 0x1199 PUSH1 0x0 DUP4 ADD DUP5 PUSH3 0x1171 JUMP JUMPDEST SWAP3 SWAP2 POP POP JUMP JUMPDEST PUSH1 0x0 PUSH20 0xFFFFFFFFFFFFFFFFFFFFFFFFFFFFFFFFFFFFFFFF DUP3 AND SWAP1 POP SWAP2 SWAP1 POP JUMP JUMPDEST PUSH1 0x0 PUSH3 0x11CC DUP3 PUSH3 0x119F JUMP JUMPDEST SWAP1 POP SWAP2 SWAP1 POP JUMP JUMPDEST PUSH3 0x11DE DUP2 PUSH3 0x11BF JUMP JUMPDEST DUP2 EQ PUSH3 0x11EA JUMPI PUSH1 0x0 DUP1 REVERT JUMPDEST POP JUMP JUMPDEST PUSH1 0x0 DUP2 MLOAD SWAP1 POP PUSH3 0x11FE DUP2 PUSH3 0x11D3 JUMP JUMPDEST SWAP3 SWAP2 POP POP JUMP JUMPDEST PUSH1 0x0 PUSH1 0x20 DUP3 DUP5 SUB SLT ISZERO PUSH3 0x121D JUMPI PUSH3 0x121C PUSH3 0xEF7 JUMP JUMPDEST JUMPDEST PUSH1 0x0 PUSH3 0x122D DUP5 DUP3 DUP6 ADD PUSH3 0x11ED JUMP JUMPDEST SWAP2 POP POP SWAP3 SWAP2 POP POP JUMP JUMPDEST PUSH3 0x1241 DUP2 PUSH3 0x11BF JUMP JUMPDEST DUP3 MSTORE POP POP JUMP JUMPDEST PUSH1 0x0 PUSH1 0x20 DUP3 ADD SWAP1 POP PUSH3 0x125E PUSH1 0x0 DUP4 ADD DUP5 PUSH3 0x1236 JUMP JUMPDEST SWAP3 SWAP2 POP POP JUMP JUMPDEST PUSH32 0x566F74657220726567697374726174696F6E206661696C656400000000000000 PUSH1 0x0 DUP3 ADD MSTORE POP JUMP JUMPDEST PUSH1 0x0 PUSH3 0x129C PUSH1 0x19 DUP4 PUSH3 0xE5A JUMP JUMPDEST SWAP2 POP PUSH3 0x12A9 DUP3 PUSH3 0x1264 JUMP JUMPDEST PUSH1 0x20 DUP3 ADD SWAP1 POP SWAP2 SWAP1 POP JUMP JUMPDEST PUSH1 0x0 PUSH1 0x60 DUP3 ADD SWAP1 POP PUSH3 0x12CB PUSH1 0x0 DUP4 ADD DUP6 PUSH3 0xE49 JUMP JUMPDEST PUSH3 0x12DA PUSH1 0x20 DUP4 ADD DUP5 PUSH3 0xE49 JUMP JUMPDEST DUP2 DUP2 SUB PUSH1 0x40 DUP4 ADD MSTORE PUSH3 0x12ED DUP2 PUSH3 0x128D JUMP JUMPDEST SWAP1 POP SWAP4 SWAP3 POP POP POP JUMP JUMPDEST PUSH32 0x312073686F756C6420626520657175616C20746F203100000000000000000000 PUSH1 0x0 DUP3 ADD MSTORE POP JUMP JUMPDEST PUSH1 0x0 PUSH3 0x132E PUSH1 0x16 DUP4 PUSH3 0xE5A JUMP JUMPDEST SWAP2 POP PUSH3 0x133B DUP3 PUSH3 0x12F6 JUMP JUMPDEST PUSH1 0x20 DUP3 ADD SWAP1 POP SWAP2 SWAP1 POP JUMP JUMPDEST PUSH1 0x0 PUSH1 0x60 DUP3 ADD SWAP1 POP PUSH3 0x135D PUSH1 0x0 DUP4 ADD DUP6 PUSH3 0xF6E JUMP JUMPDEST PUSH3 0x136C PUSH1 0x20 DUP4 ADD DUP5 PUSH3 0xF6E JUMP JUMPDEST DUP2 DUP2 SUB PUSH1 0x40 DUP4 ADD MSTORE PUSH3 0x137F DUP2 PUSH3 0x131F JUMP JUMPDEST SWAP1 POP SWAP4 SWAP3 POP POP POP JUMP JUMPDEST PUSH3 0x1393 DUP2 PUSH3 0x11BF JUMP JUMPDEST DUP3 MSTORE POP POP JUMP JUMPDEST PUSH32 0x496E76616C69642073656E646572000000000000000000000000000000000000 PUSH1 0x0 DUP3 ADD MSTORE POP JUMP JUMPDEST PUSH1 0x0 PUSH3 0x13D1 PUSH1 0xE DUP4 PUSH3 0xE5A JUMP JUMPDEST SWAP2 POP PUSH3 0x13DE DUP3 PUSH3 0x1399 JUMP JUMPDEST PUSH1 0x20 DUP3 ADD SWAP1 POP SWAP2 SWAP1 POP JUMP JUMPDEST PUSH1 0x0 PUSH1 0x60 DUP3 ADD SWAP1 POP PUSH3 0x1400 PUSH1 0x0 DUP4 ADD DUP6 PUSH3 0x1388 JUMP JUMPDEST PUSH3 0x140F PUSH1 0x20 DUP4 ADD DUP5 PUSH3 0x1388 JUMP JUMPDEST DUP2 DUP2 SUB PUSH1 0x40 DUP4 ADD MSTORE PUSH3 0x1422 DUP2 PUSH3 0x13C2 JUMP JUMPDEST SWAP1 POP SWAP4 SWAP3 POP POP POP JUMP JUMPDEST PUSH1 0x0 DUP2 SWAP1 POP SWAP2 SWAP1 POP JUMP JUMPDEST PUSH1 0x0 PUSH3 0x1456 PUSH3 0x1450 PUSH3 0x144A DUP5 PUSH3 0x142B JUMP JUMPDEST PUSH3 0x113F JUMP JUMPDEST PUSH3 0xF64 JUMP JUMPDEST SWAP1 POP SWAP2 SWAP1 POP JUMP JUMPDEST PUSH3 0x1468 DUP2 PUSH3 0x1435 JUMP JUMPDEST DUP3 MSTORE POP POP JUMP JUMPDEST PUSH32 0x496E76616C69642076616C756500000000000000000000000000000000000000 PUSH1 0x0 DUP3 ADD MSTORE POP JUMP JUMPDEST PUSH1 0x0 PUSH3 0x14A6 PUSH1 0xD DUP4 PUSH3 0xE5A JUMP JUMPDEST SWAP2 POP PUSH3 0x14B3 DUP3 PUSH3 0x146E JUMP JUMPDEST PUSH1 0x20 DUP3 ADD SWAP1 POP SWAP2 SWAP1 POP JUMP JUMPDEST PUSH1 0x0 PUSH1 0x60 DUP3 ADD SWAP1 POP PUSH3 0x14D5 PUSH1 0x0 DUP4 ADD DUP6 PUSH3 0xF6E JUMP JUMPDEST PUSH3 0x14E4 PUSH1 0x20 DUP4 ADD DUP5 PUSH3 0x145D JUMP JUMPDEST DUP2 DUP2 SUB PUSH1 0x40 DUP4 ADD MSTORE PUSH3 0x14F7 DUP2 PUSH3 0x1497 JUMP JUMPDEST SWAP1 POP SWAP4 SWAP3 POP POP POP JUMP JUMPDEST PUSH1 0x0 DUP3 DUP3 MSTORE PUSH1 0x20 DUP3 ADD SWAP1 POP SWAP3 SWAP2 POP POP JUMP JUMPDEST PUSH32 0x50726F706F73616C205469746C65000000000000000000000000000000000000 PUSH1 0x0 DUP3 ADD MSTORE POP JUMP JUMPDEST PUSH1 0x0 PUSH3 0x1549 PUSH1 0xE DUP4 PUSH3 0x1500 JUMP JUMPDEST SWAP2 POP PUSH3 0x1556 DUP3 PUSH3 0x1511 JUMP JUMPDEST PUSH1 0x20 DUP3 ADD SWAP1 POP SWAP2 SWAP1 POP JUMP JUMPDEST PUSH32 0x50726F706F73616C204465736372697074696F6E000000000000000000000000 PUSH1 0x0 DUP3 ADD MSTORE POP JUMP JUMPDEST PUSH1 0x0 PUSH3 0x1599 PUSH1 0x14 DUP4 PUSH3 0x1500 JUMP JUMPDEST SWAP2 POP PUSH3 0x15A6 DUP3 PUSH3 0x1561 JUMP JUMPDEST PUSH1 0x20 DUP3 ADD SWAP1 POP SWAP2 SWAP1 POP JUMP JUMPDEST PUSH1 0x0 PUSH1 0x40 DUP3 ADD SWAP1 POP DUP2 DUP2 SUB PUSH1 0x0 DUP4 ADD MSTORE PUSH3 0x15CC DUP2 PUSH3 0x153A JUMP JUMPDEST SWAP1 POP DUP2 DUP2 SUB PUSH1 0x20 DUP4 ADD MSTORE PUSH3 0x15E1 DUP2 PUSH3 0x158A JUMP JUMPDEST SWAP1 POP SWAP2 SWAP1 POP JUMP JUMPDEST PUSH3 0x15F3 DUP2 PUSH3 0xF64 JUMP JUMPDEST DUP2 EQ PUSH3 0x15FF JUMPI PUSH1 0x0 DUP1 REVERT JUMPDEST POP JUMP JUMPDEST PUSH1 0x0 DUP2 MLOAD SWAP1 POP PUSH3 0x1613 DUP2 PUSH3 0x15E8 JUMP JUMPDEST SWAP3 SWAP2 POP POP JUMP JUMPDEST PUSH1 0x0 PUSH1 0x20 DUP3 DUP5 SUB SLT ISZERO PUSH3 0x1632 JUMPI PUSH3 0x1631 PUSH3 0xEF7 JUMP JUMPDEST JUMPDEST PUSH1 0x0 PUSH3 0x1642 DUP5 DUP3 DUP6 ADD PUSH3 0x1602 JUMP JUMPDEST SWAP2 POP POP SWAP3 SWAP2 POP POP JUMP JUMPDEST PUSH32 0x50726F706F73616C206372656174696F6E206661696C65640000000000000000 PUSH1 0x0 DUP3 ADD MSTORE POP JUMP JUMPDEST PUSH1 0x0 PUSH3 0x1683 PUSH1 0x18 DUP4 PUSH3 0xE5A JUMP JUMPDEST SWAP2 POP PUSH3 0x1690 DUP3 PUSH3 0x164B JUMP JUMPDEST PUSH1 0x20 DUP3 ADD SWAP1 POP SWAP2 SWAP1 POP JUMP JUMPDEST PUSH1 0x0 PUSH1 0x60 DUP3 ADD SWAP1 POP PUSH3 0x16B2 PUSH1 0x0 DUP4 ADD DUP6 PUSH3 0xF6E JUMP JUMPDEST PUSH3 0x16C1 PUSH1 0x20 DUP4 ADD DUP5 PUSH3 0x1171 JUMP JUMPDEST DUP2 DUP2 SUB PUSH1 0x40 DUP4 ADD MSTORE PUSH3 0x16D4 DUP2 PUSH3 0x1674 JUMP JUMPDEST SWAP1 POP SWAP4 SWAP3 POP POP POP JUMP JUMPDEST PUSH3 0x16E8 DUP2 PUSH3 0xF64 JUMP JUMPDEST DUP3 MSTORE POP POP JUMP JUMPDEST PUSH1 0x0 PUSH1 0xFF DUP3 AND SWAP1 POP SWAP2 SWAP1 POP JUMP JUMPDEST PUSH3 0x1706 DUP2 PUSH3 0x16EE JUMP JUMPDEST DUP3 MSTORE POP POP JUMP JUMPDEST PUSH1 0x0 PUSH1 0x40 DUP3 ADD SWAP1 POP PUSH3 0x1723 PUSH1 0x0 DUP4 ADD DUP6 PUSH3 0x16DD JUMP JUMPDEST PUSH3 0x1732 PUSH1 0x20 DUP4 ADD DUP5 PUSH3 0x16FB JUMP JUMPDEST SWAP4 SWAP3 POP POP POP JUMP JUMPDEST PUSH1 0x0 PUSH1 0x20 DUP3 ADD SWAP1 POP PUSH3 0x1750 PUSH1 0x0 DUP4 ADD DUP5 PUSH3 0x16DD JUMP JUMPDEST SWAP3 SWAP2 POP POP JUMP JUMPDEST PUSH1 0x0 DUP1 REVERT JUMPDEST PUSH1 0x0 DUP1 REVERT JUMPDEST PUSH1 0x0 PUSH1 0x1F NOT PUSH1 0x1F DUP4 ADD AND SWAP1 POP SWAP2 SWAP1 POP JUMP JUMPDEST PUSH32 0x4E487B7100000000000000000000000000000000000000000000000000000000 PUSH1 0x0 MSTORE PUSH1 0x41 PUSH1 0x4 MSTORE PUSH1 0x24 PUSH1 0x0 REVERT JUMPDEST PUSH3 0x17AB DUP3 PUSH3 0x1760 JUMP JUMPDEST DUP2 ADD DUP2 DUP2 LT PUSH8 0xFFFFFFFFFFFFFFFF DUP3 GT OR ISZERO PUSH3 0x17CD JUMPI PUSH3 0x17CC PUSH3 0x1771 JUMP JUMPDEST JUMPDEST DUP1 PUSH1 0x40 MSTORE POP POP POP JUMP JUMPDEST PUSH1 0x0 PUSH3 0x17E2 PUSH3 0xEED JUMP JUMPDEST SWAP1 POP PUSH3 0x17F0 DUP3 DUP3 PUSH3 0x17A0 JUMP JUMPDEST SWAP2 SWAP1 POP JUMP JUMPDEST PUSH1 0x0 PUSH8 0xFFFFFFFFFFFFFFFF DUP3 GT ISZERO PUSH3 0x1813 JUMPI PUSH3 0x1812 PUSH3 0x1771 JUMP JUMPDEST JUMPDEST PUSH3 0x181E DUP3 PUSH3 0x1760 JUMP JUMPDEST SWAP1 POP PUSH1 0x20 DUP2 ADD SWAP1 POP SWAP2 SWAP1 POP JUMP JUMPDEST PUSH1 0x0 JUMPDEST DUP4 DUP2 LT ISZERO PUSH3 0x184B JUMPI DUP1 DUP3 ADD MLOAD DUP2 DUP5 ADD MSTORE PUSH1 0x20 DUP2 ADD SWAP1 POP PUSH3 0x182E JUMP JUMPDEST PUSH1 0x0 DUP5 DUP5 ADD MSTORE POP POP POP POP JUMP JUMPDEST PUSH1 0x0 PUSH3 0x186E PUSH3 0x1868 DUP5 PUSH3 0x17F5 JUMP JUMPDEST PUSH3 0x17D6 JUMP JUMPDEST SWAP1 POP DUP3 DUP2 MSTORE PUSH1 0x20 DUP2 ADD DUP5 DUP5 DUP5 ADD GT ISZERO PUSH3 0x188D JUMPI PUSH3 0x188C PUSH3 0x175B JUMP JUMPDEST JUMPDEST PUSH3 0x189A DUP5 DUP3 DUP6 PUSH3 0x182B JUMP JUMPDEST POP SWAP4 SWAP3 POP POP POP JUMP JUMPDEST PUSH1 0x0 DUP3 PUSH1 0x1F DUP4 ADD SLT PUSH3 0x18BA JUMPI PUSH3 0x18B9 PUSH3 0x1756 JUMP JUMPDEST JUMPDEST DUP2 MLOAD PUSH3 0x18CC DUP5 DUP3 PUSH1 0x20 DUP7 ADD PUSH3 0x1857 JUMP JUMPDEST SWAP2 POP POP SWAP3 SWAP2 POP POP JUMP JUMPDEST PUSH1 0x0 DUP1 PUSH1 0x0 DUP1 PUSH1 0x80 DUP6 DUP8 SUB SLT ISZERO PUSH3 0x18F2 JUMPI PUSH3 0x18F1 PUSH3 0xEF7 JUMP JUMPDEST JUMPDEST PUSH1 0x0 DUP6 ADD MLOAD PUSH8 0xFFFFFFFFFFFFFFFF DUP2 GT ISZERO PUSH3 0x1913 JUMPI PUSH3 0x1912 PUSH3 0xEFC JUMP JUMPDEST JUMPDEST PUSH3 0x1921 DUP8 DUP3 DUP9 ADD PUSH3 0x18A2 JUMP JUMPDEST SWAP5 POP POP PUSH1 0x20 DUP6 ADD MLOAD PUSH8 0xFFFFFFFFFFFFFFFF DUP2 GT ISZERO PUSH3 0x1945 JUMPI PUSH3 0x1944 PUSH3 0xEFC JUMP JUMPDEST JUMPDEST PUSH3 0x1953 DUP8 DUP3 DUP9 ADD PUSH3 0x18A2 JUMP JUMPDEST SWAP4 POP POP PUSH1 0x40 PUSH3 0x1966 DUP8 DUP3 DUP9 ADD PUSH3 0x1602 JUMP JUMPDEST SWAP3 POP POP PUSH1 0x60 PUSH3 0x1979 DUP8 DUP3 DUP9 ADD PUSH3 0x1602 JUMP JUMPDEST SWAP2 POP POP SWAP3 SWAP6 SWAP2 SWAP5 POP SWAP3 POP JUMP JUMPDEST PUSH32 0x566F74696E67206661696C656400000000000000000000000000000000000000 PUSH1 0x0 DUP3 ADD MSTORE POP JUMP JUMPDEST PUSH1 0x0 PUSH3 0x19BD PUSH1 0xD DUP4 PUSH3 0xE5A JUMP JUMPDEST SWAP2 POP PUSH3 0x19CA DUP3 PUSH3 0x1985 JUMP JUMPDEST PUSH1 0x20 DUP3 ADD SWAP1 POP SWAP2 SWAP1 POP JUMP JUMPDEST PUSH1 0x0 PUSH1 0x60 DUP3 ADD SWAP1 POP PUSH3 0x19EC PUSH1 0x0 DUP4 ADD DUP6 PUSH3 0xF6E JUMP JUMPDEST PUSH3 0x19FB PUSH1 0x20 DUP4 ADD DUP5 PUSH3 0x1171 JUMP JUMPDEST DUP2 DUP2 SUB PUSH1 0x40 DUP4 ADD MSTORE PUSH3 0x1A0E DUP2 PUSH3 0x19AE JUMP JUMPDEST SWAP1 POP SWAP4 SWAP3 POP POP POP JUMP INVALID PUSH1 0x80 PUSH1 0x40 MSTORE CALLVALUE DUP1 ISZERO PUSH3 0x11 JUMPI PUSH1 0x0 DUP1 REVERT JUMPDEST POP PUSH1 0x40 MLOAD PUSH3 0x1825 CODESIZE SUB DUP1 PUSH3 0x1825 DUP4 CODECOPY DUP2 DUP2 ADD PUSH1 0x40 MSTORE DUP2 ADD SWAP1 PUSH3 0x37 SWAP2 SWAP1 PUSH3 0x118 JUMP JUMPDEST DUP1 PUSH1 0x0 DUP1 PUSH2 0x100 EXP DUP2 SLOAD DUP2 PUSH20 0xFFFFFFFFFFFFFFFFFFFFFFFFFFFFFFFFFFFFFFFF MUL NOT AND SWAP1 DUP4 PUSH20 0xFFFFFFFFFFFFFFFFFFFFFFFFFFFFFFFFFFFFFFFF AND MUL OR SWAP1 SSTORE POP PUSH3 0xD2F00 TIMESTAMP PUSH3 0x88 SWAP2 SWAP1 PUSH3 0x183 JUMP JUMPDEST PUSH1 0x1 DUP2 SWAP1 SSTORE POP PUSH3 0x69780 PUSH1 0x1 SLOAD PUSH3 0xA1 SWAP2 SWAP1 PUSH3 0x183 JUMP JUMPDEST PUSH1 0x2 DUP2 SWAP1 SSTORE POP POP PUSH3 0x1BE JUMP JUMPDEST PUSH1 0x0 DUP1 REVERT JUMPDEST PUSH1 0x0 PUSH20 0xFFFFFFFFFFFFFFFFFFFFFFFFFFFFFFFFFFFFFFFF DUP3 AND SWAP1 POP SWAP2 SWAP1 POP JUMP JUMPDEST PUSH1 0x0 PUSH3 0xE0 DUP3 PUSH3 0xB3 JUMP JUMPDEST SWAP1 POP SWAP2 SWAP1 POP JUMP JUMPDEST PUSH3 0xF2 DUP2 PUSH3 0xD3 JUMP JUMPDEST DUP2 EQ PUSH3 0xFE JUMPI PUSH1 0x0 DUP1 REVERT JUMPDEST POP JUMP JUMPDEST PUSH1 0x0 DUP2 MLOAD SWAP1 POP PUSH3 0x112 DUP2 PUSH3 0xE7 JUMP JUMPDEST SWAP3 SWAP2 POP POP JUMP JUMPDEST PUSH1 0x0 PUSH1 0x20 DUP3 DUP5 SUB SLT ISZERO PUSH3 0x131 JUMPI PUSH3 0x130 PUSH3 0xAE JUMP JUMPDEST JUMPDEST PUSH1 0x0 PUSH3 0x141 DUP5 DUP3 DUP6 ADD PUSH3 0x101 JUMP JUMPDEST SWAP2 POP POP SWAP3 SWAP2 POP POP JUMP JUMPDEST PUSH1 0x0 DUP2 SWAP1 POP SWAP2 SWAP1 POP JUMP JUMPDEST PUSH32 0x4E487B7100000000000000000000000000000000000000000000000000000000 PUSH1 0x0 MSTORE PUSH1 0x11 PUSH1 0x4 MSTORE PUSH1 0x24 PUSH1 0x0 REVERT JUMPDEST PUSH1 0x0 PUSH3 0x190 DUP3 PUSH3 0x14A JUMP JUMPDEST SWAP2 POP PUSH3 0x19D DUP4 PUSH3 0x14A JUMP JUMPDEST SWAP3 POP DUP3 DUP3 ADD SWAP1 POP DUP1 DUP3 GT ISZERO PUSH3 0x1B8 JUMPI PUSH3 0x1B7 PUSH3 0x154 JUMP JUMPDEST JUMPDEST SWAP3 SWAP2 POP POP JUMP JUMPDEST PUSH2 0x1657 DUP1 PUSH3 0x1CE PUSH1 0x0 CODECOPY PUSH1 0x0 RETURN INVALID PUSH1 0x80 PUSH1 0x40 MSTORE CALLVALUE DUP1 ISZERO PUSH2 0x10 JUMPI PUSH1 0x0 DUP1 REVERT JUMPDEST POP PUSH1 0x4 CALLDATASIZE LT PUSH2 0xCF JUMPI PUSH1 0x0 CALLDATALOAD PUSH1 0xE0 SHR DUP1 PUSH4 0x85A38635 GT PUSH2 0x8C JUMPI DUP1 PUSH4 0xCB370DDD GT PUSH2 0x66 JUMPI DUP1 PUSH4 0xCB370DDD EQ PUSH2 0x216 JUMPI DUP1 PUSH4 0xDA35C664 EQ PUSH2 0x246 JUMPI DUP1 PUSH4 0xEC20CA72 EQ PUSH2 0x264 JUMPI DUP1 PUSH4 0xFC0C546A EQ PUSH2 0x282 JUMPI PUSH2 0xCF JUMP JUMPDEST DUP1 PUSH4 0x85A38635 EQ PUSH2 0x197 JUMPI DUP1 PUSH4 0x996EE408 EQ PUSH2 0x1B5 JUMPI DUP1 PUSH4 0xA3EC138D EQ PUSH2 0x1E6 JUMPI PUSH2 0xCF JUMP JUMPDEST DUP1 PUSH4 0x13CF08B EQ PUSH2 0xD4 JUMPI DUP1 PUSH4 0x101158AF EQ PUSH2 0x107 JUMPI DUP1 PUSH4 0x38DB6DD3 EQ PUSH2 0x125 JUMPI DUP1 PUSH4 0x3C1D4BBB EQ PUSH2 0x141 JUMPI DUP1 PUSH4 0x3DCA3D34 EQ PUSH2 0x15F JUMPI DUP1 PUSH4 0x65E481E2 EQ PUSH2 0x17B JUMPI JUMPDEST PUSH1 0x0 DUP1 REVERT JUMPDEST PUSH2 0xEE PUSH1 0x4 DUP1 CALLDATASIZE SUB DUP2 ADD SWAP1 PUSH2 0xE9 SWAP2 SWAP1 PUSH2 0xA20 JUMP JUMPDEST PUSH2 0x2A0 JUMP JUMPDEST PUSH1 0x40 MLOAD PUSH2 0xFE SWAP5 SWAP4 SWAP3 SWAP2 SWAP1 PUSH2 0xAEC JUMP JUMPDEST PUSH1 0x40 MLOAD DUP1 SWAP2 SUB SWAP1 RETURN JUMPDEST PUSH2 0x10F PUSH2 0x3E0 JUMP JUMPDEST PUSH1 0x40 MLOAD PUSH2 0x11C SWAP2 SWAP1 PUSH2 0xB3F JUMP JUMPDEST PUSH1 0x40 MLOAD DUP1 SWAP2 SUB SWAP1 RETURN JUMPDEST PUSH2 0x13F PUSH1 0x4 DUP1 CALLDATASIZE SUB DUP2 ADD SWAP1 PUSH2 0x13A SWAP2 SWAP1 PUSH2 0xBB8 JUMP JUMPDEST PUSH2 0x3E6 JUMP JUMPDEST STOP JUMPDEST PUSH2 0x149 PUSH2 0x485 JUMP JUMPDEST PUSH1 0x40 MLOAD PUSH2 0x156 SWAP2 SWAP1 PUSH2 0xB3F JUMP JUMPDEST PUSH1 0x40 MLOAD DUP1 SWAP2 SUB SWAP1 RETURN JUMPDEST PUSH2 0x179 PUSH1 0x4 DUP1 CALLDATASIZE SUB DUP2 ADD SWAP1 PUSH2 0x174 SWAP2 SWAP1 PUSH2 0xC1E JUMP JUMPDEST PUSH2 0x48C JUMP JUMPDEST STOP JUMPDEST PUSH2 0x195 PUSH1 0x4 DUP1 CALLDATASIZE SUB DUP2 ADD SWAP1 PUSH2 0x190 SWAP2 SWAP1 PUSH2 0xD93 JUMP JUMPDEST PUSH2 0x762 JUMP JUMPDEST STOP JUMPDEST PUSH2 0x19F PUSH2 0x895 JUMP JUMPDEST PUSH1 0x40 MLOAD PUSH2 0x1AC SWAP2 SWAP1 PUSH2 0xB3F JUMP JUMPDEST PUSH1 0x40 MLOAD DUP1 SWAP2 SUB SWAP1 RETURN JUMPDEST PUSH2 0x1CF PUSH1 0x4 DUP1 CALLDATASIZE SUB DUP2 ADD SWAP1 PUSH2 0x1CA SWAP2 SWAP1 PUSH2 0xBB8 JUMP JUMPDEST PUSH2 0x89B JUMP JUMPDEST PUSH1 0x40 MLOAD PUSH2 0x1DD SWAP3 SWAP2 SWAP1 PUSH2 0xE29 JUMP JUMPDEST PUSH1 0x40 MLOAD DUP1 SWAP2 SUB SWAP1 RETURN JUMPDEST PUSH2 0x200 PUSH1 0x4 DUP1 CALLDATASIZE SUB DUP2 ADD SWAP1 PUSH2 0x1FB SWAP2 SWAP1 PUSH2 0xBB8 JUMP JUMPDEST PUSH2 0x8EC JUMP JUMPDEST PUSH1 0x40 MLOAD PUSH2 0x20D SWAP2 SWAP1 PUSH2 0xE6D JUMP JUMPDEST PUSH1 0x40 MLOAD DUP1 SWAP2 SUB SWAP1 RETURN JUMPDEST PUSH2 0x230 PUSH1 0x4 DUP1 CALLDATASIZE SUB DUP2 ADD SWAP1 PUSH2 0x22B SWAP2 SWAP1 PUSH2 0xA20 JUMP JUMPDEST PUSH2 0x90C JUMP JUMPDEST PUSH1 0x40 MLOAD PUSH2 0x23D SWAP2 SWAP1 PUSH2 0xB3F JUMP JUMPDEST PUSH1 0x40 MLOAD DUP1 SWAP2 SUB SWAP1 RETURN JUMPDEST PUSH2 0x24E PUSH2 0x9A5 JUMP JUMPDEST PUSH1 0x40 MLOAD PUSH2 0x25B SWAP2 SWAP1 PUSH2 0xB3F JUMP JUMPDEST PUSH1 0x40 MLOAD DUP1 SWAP2 SUB SWAP1 RETURN JUMPDEST PUSH2 0x26C PUSH2 0x9AB JUMP JUMPDEST PUSH1 0x40 MLOAD PUSH2 0x279 SWAP2 SWAP1 PUSH2 0xB3F JUMP JUMPDEST PUSH1 0x40 MLOAD DUP1 SWAP2 SUB SWAP1 RETURN JUMPDEST PUSH2 0x28A PUSH2 0x9B2 JUMP JUMPDEST PUSH1 0x40 MLOAD PUSH2 0x297 SWAP2 SWAP1 PUSH2 0xEE7 JUMP JUMPDEST PUSH1 0x40 MLOAD DUP1 SWAP2 SUB SWAP1 RETURN JUMPDEST PUSH1 0x4 PUSH1 0x20 MSTORE DUP1 PUSH1 0x0 MSTORE PUSH1 0x40 PUSH1 0x0 KECCAK256 PUSH1 0x0 SWAP2 POP SWAP1 POP DUP1 PUSH1 0x0 ADD DUP1 SLOAD PUSH2 0x2C3 SWAP1 PUSH2 0xF31 JUMP JUMPDEST DUP1 PUSH1 0x1F ADD PUSH1 0x20 DUP1 SWAP2 DIV MUL PUSH1 0x20 ADD PUSH1 0x40 MLOAD SWAP1 DUP2 ADD PUSH1 0x40 MSTORE DUP1 SWAP3 SWAP2 SWAP1 DUP2 DUP2 MSTORE PUSH1 0x20 ADD DUP3 DUP1 SLOAD PUSH2 0x2EF SWAP1 PUSH2 0xF31 JUMP JUMPDEST DUP1 ISZERO PUSH2 0x33C JUMPI DUP1 PUSH1 0x1F LT PUSH2 0x311 JUMPI PUSH2 0x100 DUP1 DUP4 SLOAD DIV MUL DUP4 MSTORE SWAP2 PUSH1 0x20 ADD SWAP2 PUSH2 0x33C JUMP JUMPDEST DUP3 ADD SWAP2 SWAP1 PUSH1 0x0 MSTORE PUSH1 0x20 PUSH1 0x0 KECCAK256 SWAP1 JUMPDEST DUP2 SLOAD DUP2 MSTORE SWAP1 PUSH1 0x1 ADD SWAP1 PUSH1 0x20 ADD DUP1 DUP4 GT PUSH2 0x31F JUMPI DUP3 SWAP1 SUB PUSH1 0x1F AND DUP3 ADD SWAP2 JUMPDEST POP POP POP POP POP SWAP1 DUP1 PUSH1 0x1 ADD DUP1 SLOAD PUSH2 0x351 SWAP1 PUSH2 0xF31 JUMP JUMPDEST DUP1 PUSH1 0x1F ADD PUSH1 0x20 DUP1 SWAP2 DIV MUL PUSH1 0x20 ADD PUSH1 0x40 MLOAD SWAP1 DUP2 ADD PUSH1 0x40 MSTORE DUP1 SWAP3 SWAP2 SWAP1 DUP2 DUP2 MSTORE PUSH1 0x20 ADD DUP3 DUP1 SLOAD PUSH2 0x37D SWAP1 PUSH2 0xF31 JUMP JUMPDEST DUP1 ISZERO PUSH2 0x3CA JUMPI DUP1 PUSH1 0x1F LT PUSH2 0x39F JUMPI PUSH2 0x100 DUP1 DUP4 SLOAD DIV MUL DUP4 MSTORE SWAP2 PUSH1 0x20 ADD SWAP2 PUSH2 0x3CA JUMP JUMPDEST DUP3 ADD SWAP2 SWAP1 PUSH1 0x0 MSTORE PUSH1 0x20 PUSH1 0x0 KECCAK256 SWAP1 JUMPDEST DUP2 SLOAD DUP2 MSTORE SWAP1 PUSH1 0x1 ADD SWAP1 PUSH1 0x20 ADD DUP1 DUP4 GT PUSH2 0x3AD JUMPI DUP3 SWAP1 SUB PUSH1 0x1F AND DUP3 ADD SWAP2 JUMPDEST POP POP POP POP POP SWAP1 DUP1 PUSH1 0x2 ADD SLOAD SWAP1 DUP1 PUSH1 0x3 ADD SLOAD SWAP1 POP DUP5 JUMP JUMPDEST PUSH1 0x1 SLOAD DUP2 JUMP JUMPDEST PUSH1 0x1 SLOAD TIMESTAMP LT PUSH2 0x42A JUMPI PUSH1 0x40 MLOAD PUSH32 0x8C379A000000000000000000000000000000000000000000000000000000000 DUP2 MSTORE PUSH1 0x4 ADD PUSH2 0x421 SWAP1 PUSH2 0xFAE JUMP JUMPDEST PUSH1 0x40 MLOAD DUP1 SWAP2 SUB SWAP1 REVERT JUMPDEST PUSH1 0x1 PUSH1 0x6 PUSH1 0x0 DUP4 PUSH20 0xFFFFFFFFFFFFFFFFFFFFFFFFFFFFFFFFFFFFFFFF AND PUSH20 0xFFFFFFFFFFFFFFFFFFFFFFFFFFFFFFFFFFFFFFFF AND DUP2 MSTORE PUSH1 0x20 ADD SWAP1 DUP2 MSTORE PUSH1 0x20 ADD PUSH1 0x0 KECCAK256 PUSH1 0x0 PUSH2 0x100 EXP DUP2 SLOAD DUP2 PUSH1 0xFF MUL NOT AND SWAP1 DUP4 ISZERO ISZERO MUL OR SWAP1 SSTORE POP POP JUMP JUMPDEST PUSH3 0x69780 DUP2 JUMP JUMPDEST PUSH1 0x2 SLOAD TIMESTAMP GT ISZERO PUSH2 0x4D1 JUMPI PUSH1 0x40 MLOAD PUSH32 0x8C379A000000000000000000000000000000000000000000000000000000000 DUP2 MSTORE PUSH1 0x4 ADD PUSH2 0x4C8 SWAP1 PUSH2 0x101A JUMP JUMPDEST PUSH1 0x40 MLOAD DUP1 SWAP2 SUB SWAP1 REVERT JUMPDEST PUSH1 0x6 PUSH1 0x0 CALLER PUSH20 0xFFFFFFFFFFFFFFFFFFFFFFFFFFFFFFFFFFFFFFFF AND PUSH20 0xFFFFFFFFFFFFFFFFFFFFFFFFFFFFFFFFFFFFFFFF AND DUP2 MSTORE PUSH1 0x20 ADD SWAP1 DUP2 MSTORE PUSH1 0x20 ADD PUSH1 0x0 KECCAK256 PUSH1 0x0 SWAP1 SLOAD SWAP1 PUSH2 0x100 EXP SWAP1 DIV PUSH1 0xFF AND PUSH2 0x55D JUMPI PUSH1 0x40 MLOAD PUSH32 0x8C379A000000000000000000000000000000000000000000000000000000000 DUP2 MSTORE PUSH1 0x4 ADD PUSH2 0x554 SWAP1 PUSH2 0x10AC JUMP JUMPDEST PUSH1 0x40 MLOAD DUP1 SWAP2 SUB SWAP1 REVERT JUMPDEST PUSH1 0x0 PUSH1 0x5 PUSH1 0x0 CALLER PUSH20 0xFFFFFFFFFFFFFFFFFFFFFFFFFFFFFFFFFFFFFFFF AND PUSH20 0xFFFFFFFFFFFFFFFFFFFFFFFFFFFFFFFFFFFFFFFF AND DUP2 MSTORE PUSH1 0x20 ADD SWAP1 DUP2 MSTORE PUSH1 0x20 ADD PUSH1 0x0 KECCAK256 PUSH1 0x0 ADD PUSH1 0x14 SWAP1 SLOAD SWAP1 PUSH2 0x100 EXP SWAP1 DIV PUSH1 0xFF AND PUSH1 0xFF AND EQ PUSH2 0x5F2 JUMPI PUSH1 0x40 MLOAD PUSH32 0x8C379A000000000000000000000000000000000000000000000000000000000 DUP2 MSTORE PUSH1 0x4 ADD PUSH2 0x5E9 SWAP1 PUSH2 0x1118 JUMP JUMPDEST PUSH1 0x40 MLOAD DUP1 SWAP2 SUB SWAP1 REVERT JUMPDEST PUSH1 0x1 DUP2 PUSH1 0xFF AND LT ISZERO DUP1 ISZERO PUSH2 0x60A JUMPI POP PUSH1 0x5 DUP2 PUSH1 0xFF AND GT ISZERO JUMPDEST PUSH2 0x649 JUMPI PUSH1 0x40 MLOAD PUSH32 0x8C379A000000000000000000000000000000000000000000000000000000000 DUP2 MSTORE PUSH1 0x4 ADD PUSH2 0x640 SWAP1 PUSH2 0x11AA JUMP JUMPDEST PUSH1 0x40 MLOAD DUP1 SWAP2 SUB SWAP1 REVERT JUMPDEST PUSH1 0x1 PUSH1 0x4 PUSH1 0x0 DUP5 DUP2 MSTORE PUSH1 0x20 ADD SWAP1 DUP2 MSTORE PUSH1 0x20 ADD PUSH1 0x0 KECCAK256 PUSH1 0x2 ADD SLOAD PUSH2 0x66C SWAP2 SWAP1 PUSH2 0x11F9 JUMP JUMPDEST PUSH1 0x4 PUSH1 0x0 DUP5 DUP2 MSTORE PUSH1 0x20 ADD SWAP1 DUP2 MSTORE PUSH1 0x20 ADD PUSH1 0x0 KECCAK256 PUSH1 0x2 ADD DUP2 SWAP1 SSTORE POP PUSH1 0x40 MLOAD DUP1 PUSH1 0x40 ADD PUSH1 0x40 MSTORE DUP1 CALLER PUSH20 0xFFFFFFFFFFFFFFFFFFFFFFFFFFFFFFFFFFFFFFFF AND DUP2 MSTORE PUSH1 0x20 ADD DUP3 PUSH1 0xFF AND DUP2 MSTORE POP PUSH1 0x5 PUSH1 0x0 CALLER PUSH20 0xFFFFFFFFFFFFFFFFFFFFFFFFFFFFFFFFFFFFFFFF AND PUSH20 0xFFFFFFFFFFFFFFFFFFFFFFFFFFFFFFFFFFFFFFFF AND DUP2 MSTORE PUSH1 0x20 ADD SWAP1 DUP2 MSTORE PUSH1 0x20 ADD PUSH1 0x0 KECCAK256 PUSH1 0x0 DUP3 ADD MLOAD DUP2 PUSH1 0x0 ADD PUSH1 0x0 PUSH2 0x100 EXP DUP2 SLOAD DUP2 PUSH20 0xFFFFFFFFFFFFFFFFFFFFFFFFFFFFFFFFFFFFFFFF MUL NOT AND SWAP1 DUP4 PUSH20 0xFFFFFFFFFFFFFFFFFFFFFFFFFFFFFFFFFFFFFFFF AND MUL OR SWAP1 SSTORE POP PUSH1 0x20 DUP3 ADD MLOAD DUP2 PUSH1 0x0 ADD PUSH1 0x14 PUSH2 0x100 EXP DUP2 SLOAD DUP2 PUSH1 0xFF MUL NOT AND SWAP1 DUP4 PUSH1 0xFF AND MUL OR SWAP1 SSTORE POP SWAP1 POP POP POP POP JUMP JUMPDEST PUSH1 0x1 SLOAD TIMESTAMP LT ISZERO PUSH2 0x7A7 JUMPI PUSH1 0x40 MLOAD PUSH32 0x8C379A000000000000000000000000000000000000000000000000000000000 DUP2 MSTORE PUSH1 0x4 ADD PUSH2 0x79E SWAP1 PUSH2 0x1279 JUMP JUMPDEST PUSH1 0x40 MLOAD DUP1 SWAP2 SUB SWAP1 REVERT JUMPDEST PUSH1 0x2 SLOAD TIMESTAMP GT ISZERO PUSH2 0x7EC JUMPI PUSH1 0x40 MLOAD PUSH32 0x8C379A000000000000000000000000000000000000000000000000000000000 DUP2 MSTORE PUSH1 0x4 ADD PUSH2 0x7E3 SWAP1 PUSH2 0x101A JUMP JUMPDEST PUSH1 0x40 MLOAD DUP1 SWAP2 SUB SWAP1 REVERT JUMPDEST PUSH1 0x0 PUSH1 0x1 PUSH1 0x3 SLOAD PUSH2 0x7FD SWAP2 SWAP1 PUSH2 0x11F9 JUMP JUMPDEST SWAP1 POP PUSH1 0x3 PUSH1 0x0 DUP2 SLOAD DUP1 SWAP3 SWAP2 SWAP1 PUSH2 0x812 SWAP1 PUSH2 0x1299 JUMP JUMPDEST SWAP2 SWAP1 POP SSTORE POP PUSH1 0x40 MLOAD DUP1 PUSH1 0x80 ADD PUSH1 0x40 MSTORE DUP1 DUP5 DUP2 MSTORE PUSH1 0x20 ADD DUP4 DUP2 MSTORE PUSH1 0x20 ADD PUSH1 0x0 DUP2 MSTORE PUSH1 0x20 ADD PUSH1 0x0 DUP2 MSTORE POP PUSH1 0x4 PUSH1 0x0 DUP4 DUP2 MSTORE PUSH1 0x20 ADD SWAP1 DUP2 MSTORE PUSH1 0x20 ADD PUSH1 0x0 KECCAK256 PUSH1 0x0 DUP3 ADD MLOAD DUP2 PUSH1 0x0 ADD SWAP1 DUP2 PUSH2 0x862 SWAP2 SWAP1 PUSH2 0x1483 JUMP JUMPDEST POP PUSH1 0x20 DUP3 ADD MLOAD DUP2 PUSH1 0x1 ADD SWAP1 DUP2 PUSH2 0x878 SWAP2 SWAP1 PUSH2 0x1483 JUMP JUMPDEST POP PUSH1 0x40 DUP3 ADD MLOAD DUP2 PUSH1 0x2 ADD SSTORE PUSH1 0x60 DUP3 ADD MLOAD DUP2 PUSH1 0x3 ADD SSTORE SWAP1 POP POP POP POP POP JUMP JUMPDEST PUSH1 0x2 SLOAD DUP2 JUMP JUMPDEST PUSH1 0x5 PUSH1 0x20 MSTORE DUP1 PUSH1 0x0 MSTORE PUSH1 0x40 PUSH1 0x0 KECCAK256 PUSH1 0x0 SWAP2 POP SWAP1 POP DUP1 PUSH1 0x0 ADD PUSH1 0x0 SWAP1 SLOAD SWAP1 PUSH2 0x100 EXP SWAP1 DIV PUSH20 0xFFFFFFFFFFFFFFFFFFFFFFFFFFFFFFFFFFFFFFFF AND SWAP1 DUP1 PUSH1 0x0 ADD PUSH1 0x14 SWAP1 SLOAD SWAP1 PUSH2 0x100 EXP SWAP1 DIV PUSH1 0xFF AND SWAP1 POP DUP3 JUMP JUMPDEST PUSH1 0x6 PUSH1 0x20 MSTORE DUP1 PUSH1 0x0 MSTORE PUSH1 0x40 PUSH1 0x0 KECCAK256 PUSH1 0x0 SWAP2 POP SLOAD SWAP1 PUSH2 0x100 EXP SWAP1 DIV PUSH1 0xFF AND DUP2 JUMP JUMPDEST PUSH1 0x0 DUP1 PUSH1 0x4 PUSH1 0x0 DUP5 DUP2 MSTORE PUSH1 0x20 ADD SWAP1 DUP2 MSTORE PUSH1 0x20 ADD PUSH1 0x0 KECCAK256 PUSH1 0x2 ADD SLOAD GT PUSH2 0x966 JUMPI PUSH1 0x40 MLOAD PUSH32 0x8C379A000000000000000000000000000000000000000000000000000000000 DUP2 MSTORE PUSH1 0x4 ADD PUSH2 0x95D SWAP1 PUSH2 0x15A1 JUMP JUMPDEST PUSH1 0x40 MLOAD DUP1 SWAP2 SUB SWAP1 REVERT JUMPDEST PUSH1 0x4 PUSH1 0x0 DUP4 DUP2 MSTORE PUSH1 0x20 ADD SWAP1 DUP2 MSTORE PUSH1 0x20 ADD PUSH1 0x0 KECCAK256 PUSH1 0x2 ADD SLOAD PUSH1 0x4 PUSH1 0x0 DUP5 DUP2 MSTORE PUSH1 0x20 ADD SWAP1 DUP2 MSTORE PUSH1 0x20 ADD PUSH1 0x0 KECCAK256 PUSH1 0x3 ADD SLOAD PUSH2 0x99E SWAP2 SWAP1 PUSH2 0x15F0 JUMP JUMPDEST SWAP1 POP SWAP2 SWAP1 POP JUMP JUMPDEST PUSH1 0x3 SLOAD DUP2 JUMP JUMPDEST PUSH3 0xD2F00 DUP2 JUMP JUMPDEST PUSH1 0x0 DUP1 SLOAD SWAP1 PUSH2 0x100 EXP SWAP1 DIV PUSH20 0xFFFFFFFFFFFFFFFFFFFFFFFFFFFFFFFFFFFFFFFF AND DUP2 JUMP JUMPDEST PUSH1 0x0 PUSH1 0x40 MLOAD SWAP1 POP SWAP1 JUMP JUMPDEST PUSH1 0x0 DUP1 REVERT JUMPDEST PUSH1 0x0 DUP1 REVERT JUMPDEST PUSH1 0x0 DUP2 SWAP1 POP SWAP2 SWAP1 POP JUMP JUMPDEST PUSH2 0x9FD DUP2 PUSH2 0x9EA JUMP JUMPDEST DUP2 EQ PUSH2 0xA08 JUMPI PUSH1 0x0 DUP1 REVERT JUMPDEST POP JUMP JUMPDEST PUSH1 0x0 DUP2 CALLDATALOAD SWAP1 POP PUSH2 0xA1A DUP2 PUSH2 0x9F4 JUMP JUMPDEST SWAP3 SWAP2 POP POP JUMP JUMPDEST PUSH1 0x0 PUSH1 0x20 DUP3 DUP5 SUB SLT ISZERO PUSH2 0xA36 JUMPI PUSH2 0xA35 PUSH2 0x9E0 JUMP JUMPDEST JUMPDEST PUSH1 0x0 PUSH2 0xA44 DUP5 DUP3 DUP6 ADD PUSH2 0xA0B JUMP JUMPDEST SWAP2 POP POP SWAP3 SWAP2 POP POP JUMP JUMPDEST PUSH1 0x0 DUP2 MLOAD SWAP1 POP SWAP2 SWAP1 POP JUMP JUMPDEST PUSH1 0x0 DUP3 DUP3 MSTORE PUSH1 0x20 DUP3 ADD SWAP1 POP SWAP3 SWAP2 POP POP JUMP JUMPDEST PUSH1 0x0 JUMPDEST DUP4 DUP2 LT ISZERO PUSH2 0xA87 JUMPI DUP1 DUP3 ADD MLOAD DUP2 DUP5 ADD MSTORE PUSH1 0x20 DUP2 ADD SWAP1 POP PUSH2 0xA6C JUMP JUMPDEST PUSH1 0x0 DUP5 DUP5 ADD MSTORE POP POP POP POP JUMP JUMPDEST PUSH1 0x0 PUSH1 0x1F NOT PUSH1 0x1F DUP4 ADD AND SWAP1 POP SWAP2 SWAP1 POP JUMP JUMPDEST PUSH1 0x0 PUSH2 0xAAF DUP3 PUSH2 0xA4D JUMP JUMPDEST PUSH2 0xAB9 DUP2 DUP6 PUSH2 0xA58 JUMP JUMPDEST SWAP4 POP PUSH2 0xAC9 DUP2 DUP6 PUSH1 0x20 DUP7 ADD PUSH2 0xA69 JUMP JUMPDEST PUSH2 0xAD2 DUP2 PUSH2 0xA93 JUMP JUMPDEST DUP5 ADD SWAP2 POP POP SWAP3 SWAP2 POP POP JUMP JUMPDEST PUSH2 0xAE6 DUP2 PUSH2 0x9EA JUMP JUMPDEST DUP3 MSTORE POP POP JUMP JUMPDEST PUSH1 0x0 PUSH1 0x80 DUP3 ADD SWAP1 POP DUP2 DUP2 SUB PUSH1 0x0 DUP4 ADD MSTORE PUSH2 0xB06 DUP2 DUP8 PUSH2 0xAA4 JUMP JUMPDEST SWAP1 POP DUP2 DUP2 SUB PUSH1 0x20 DUP4 ADD MSTORE PUSH2 0xB1A DUP2 DUP7 PUSH2 0xAA4 JUMP JUMPDEST SWAP1 POP PUSH2 0xB29 PUSH1 0x40 DUP4 ADD DUP6 PUSH2 0xADD JUMP JUMPDEST PUSH2 0xB36 PUSH1 0x60 DUP4 ADD DUP5 PUSH2 0xADD JUMP JUMPDEST SWAP6 SWAP5 POP POP POP POP POP JUMP JUMPDEST PUSH1 0x0 PUSH1 0x20 DUP3 ADD SWAP1 POP PUSH2 0xB54 PUSH1 0x0 DUP4 ADD DUP5 PUSH2 0xADD JUMP JUMPDEST SWAP3 SWAP2 POP POP JUMP JUMPDEST PUSH1 0x0 PUSH20 0xFFFFFFFFFFFFFFFFFFFFFFFFFFFFFFFFFFFFFFFF DUP3 AND SWAP1 POP SWAP2 SWAP1 POP JUMP JUMPDEST PUSH1 0x0 PUSH2 0xB85 DUP3 PUSH2 0xB5A JUMP JUMPDEST SWAP1 POP SWAP2 SWAP1 POP JUMP JUMPDEST PUSH2 0xB95 DUP2 PUSH2 0xB7A JUMP JUMPDEST DUP2 EQ PUSH2 0xBA0 JUMPI PUSH1 0x0 DUP1 REVERT JUMPDEST POP JUMP JUMPDEST PUSH1 0x0 DUP2 CALLDATALOAD SWAP1 POP PUSH2 0xBB2 DUP2 PUSH2 0xB8C JUMP JUMPDEST SWAP3 SWAP2 POP POP JUMP JUMPDEST PUSH1 0x0 PUSH1 0x20 DUP3 DUP5 SUB SLT ISZERO PUSH2 0xBCE JUMPI PUSH2 0xBCD PUSH2 0x9E0 JUMP JUMPDEST JUMPDEST PUSH1 0x0 PUSH2 0xBDC DUP5 DUP3 DUP6 ADD PUSH2 0xBA3 JUMP JUMPDEST SWAP2 POP POP SWAP3 SWAP2 POP POP JUMP JUMPDEST PUSH1 0x0 PUSH1 0xFF DUP3 AND SWAP1 POP SWAP2 SWAP1 POP JUMP JUMPDEST PUSH2 0xBFB DUP2 PUSH2 0xBE5 JUMP JUMPDEST DUP2 EQ PUSH2 0xC06 JUMPI PUSH1 0x0 DUP1 REVERT JUMPDEST POP JUMP JUMPDEST PUSH1 0x0 DUP2 CALLDATALOAD SWAP1 POP PUSH2 0xC18 DUP2 PUSH2 0xBF2 JUMP JUMPDEST SWAP3 SWAP2 POP POP JUMP JUMPDEST PUSH1 0x0 DUP1 PUSH1 0x40 DUP4 DUP6 SUB SLT ISZERO PUSH2 0xC35 JUMPI PUSH2 0xC34 PUSH2 0x9E0 JUMP JUMPDEST JUMPDEST PUSH1 0x0 PUSH2 0xC43 DUP6 DUP3 DUP7 ADD PUSH2 0xA0B JUMP JUMPDEST SWAP3 POP POP PUSH1 0x20 PUSH2 0xC54 DUP6 DUP3 DUP7 ADD PUSH2 0xC09 JUMP JUMPDEST SWAP2 POP POP SWAP3 POP SWAP3 SWAP1 POP JUMP JUMPDEST PUSH1 0x0 DUP1 REVERT JUMPDEST PUSH1 0x0 DUP1 REVERT JUMPDEST PUSH32 0x4E487B7100000000000000000000000000000000000000000000000000000000 PUSH1 0x0 MSTORE PUSH1 0x41 PUSH1 0x4 MSTORE PUSH1 0x24 PUSH1 0x0 REVERT JUMPDEST PUSH2 0xCA0 DUP3 PUSH2 0xA93 JUMP JUMPDEST DUP2 ADD DUP2 DUP2 LT PUSH8 0xFFFFFFFFFFFFFFFF DUP3 GT OR ISZERO PUSH2 0xCBF JUMPI PUSH2 0xCBE PUSH2 0xC68 JUMP JUMPDEST JUMPDEST DUP1 PUSH1 0x40 MSTORE POP POP POP JUMP JUMPDEST PUSH1 0x0 PUSH2 0xCD2 PUSH2 0x9D6 JUMP JUMPDEST SWAP1 POP PUSH2 0xCDE DUP3 DUP3 PUSH2 0xC97 JUMP JUMPDEST SWAP2 SWAP1 POP JUMP JUMPDEST PUSH1 0x0 PUSH8 0xFFFFFFFFFFFFFFFF DUP3 GT ISZERO PUSH2 0xCFE JUMPI PUSH2 0xCFD PUSH2 0xC68 JUMP JUMPDEST JUMPDEST PUSH2 0xD07 DUP3 PUSH2 0xA93 JUMP JUMPDEST SWAP1 POP PUSH1 0x20 DUP2 ADD SWAP1 POP SWAP2 SWAP1 POP JUMP JUMPDEST DUP3 DUP2 DUP4 CALLDATACOPY PUSH1 0x0 DUP4 DUP4 ADD MSTORE POP POP POP JUMP JUMPDEST PUSH1 0x0 PUSH2 0xD36 PUSH2 0xD31 DUP5 PUSH2 0xCE3 JUMP JUMPDEST PUSH2 0xCC8 JUMP JUMPDEST SWAP1 POP DUP3 DUP2 MSTORE PUSH1 0x20 DUP2 ADD DUP5 DUP5 DUP5 ADD GT ISZERO PUSH2 0xD52 JUMPI PUSH2 0xD51 PUSH2 0xC63 JUMP JUMPDEST JUMPDEST PUSH2 0xD5D DUP5 DUP3 DUP6 PUSH2 0xD14 JUMP JUMPDEST POP SWAP4 SWAP3 POP POP POP JUMP JUMPDEST PUSH1 0x0 DUP3 PUSH1 0x1F DUP4 ADD SLT PUSH2 0xD7A JUMPI PUSH2 0xD79 PUSH2 0xC5E JUMP JUMPDEST JUMPDEST DUP2 CALLDATALOAD PUSH2 0xD8A DUP5 DUP3 PUSH1 0x20 DUP7 ADD PUSH2 0xD23 JUMP JUMPDEST SWAP2 POP POP SWAP3 SWAP2 POP POP JUMP JUMPDEST PUSH1 0x0 DUP1 PUSH1 0x40 DUP4 DUP6 SUB SLT ISZERO PUSH2 0xDAA JUMPI PUSH2 0xDA9 PUSH2 0x9E0 JUMP JUMPDEST JUMPDEST PUSH1 0x0 DUP4 ADD CALLDATALOAD PUSH8 0xFFFFFFFFFFFFFFFF DUP2 GT ISZERO PUSH2 0xDC8 JUMPI PUSH2 0xDC7 PUSH2 0x9E5 JUMP JUMPDEST JUMPDEST PUSH2 0xDD4 DUP6 DUP3 DUP7 ADD PUSH2 0xD65 JUMP JUMPDEST SWAP3 POP POP PUSH1 0x20 DUP4 ADD CALLDATALOAD PUSH8 0xFFFFFFFFFFFFFFFF DUP2 GT ISZERO PUSH2 0xDF5 JUMPI PUSH2 0xDF4 PUSH2 0x9E5 JUMP JUMPDEST JUMPDEST PUSH2 0xE01 DUP6 DUP3 DUP7 ADD PUSH2 0xD65 JUMP JUMPDEST SWAP2 POP POP SWAP3 POP SWAP3 SWAP1 POP JUMP JUMPDEST PUSH2 0xE14 DUP2 PUSH2 0xB7A JUMP JUMPDEST DUP3 MSTORE POP POP JUMP JUMPDEST PUSH2 0xE23 DUP2 PUSH2 0xBE5 JUMP JUMPDEST DUP3 MSTORE POP POP JUMP JUMPDEST PUSH1 0x0 PUSH1 0x40 DUP3 ADD SWAP1 POP PUSH2 0xE3E PUSH1 0x0 DUP4 ADD DUP6 PUSH2 0xE0B JUMP JUMPDEST PUSH2 0xE4B PUSH1 0x20 DUP4 ADD DUP5 PUSH2 0xE1A JUMP JUMPDEST SWAP4 SWAP3 POP POP POP JUMP JUMPDEST PUSH1 0x0 DUP2 ISZERO ISZERO SWAP1 POP SWAP2 SWAP1 POP JUMP JUMPDEST PUSH2 0xE67 DUP2 PUSH2 0xE52 JUMP JUMPDEST DUP3 MSTORE POP POP JUMP JUMPDEST PUSH1 0x0 PUSH1 0x20 DUP3 ADD SWAP1 POP PUSH2 0xE82 PUSH1 0x0 DUP4 ADD DUP5 PUSH2 0xE5E JUMP JUMPDEST SWAP3 SWAP2 POP POP JUMP JUMPDEST PUSH1 0x0 DUP2 SWAP1 POP SWAP2 SWAP1 POP JUMP JUMPDEST PUSH1 0x0 PUSH2 0xEAD PUSH2 0xEA8 PUSH2 0xEA3 DUP5 PUSH2 0xB5A JUMP JUMPDEST PUSH2 0xE88 JUMP JUMPDEST PUSH2 0xB5A JUMP JUMPDEST SWAP1 POP SWAP2 SWAP1 POP JUMP JUMPDEST PUSH1 0x0 PUSH2 0xEBF DUP3 PUSH2 0xE92 JUMP JUMPDEST SWAP1 POP SWAP2 SWAP1 POP JUMP JUMPDEST PUSH1 0x0 PUSH2 0xED1 DUP3 PUSH2 0xEB4 JUMP JUMPDEST SWAP1 POP SWAP2 SWAP1 POP JUMP JUMPDEST PUSH2 0xEE1 DUP2 PUSH2 0xEC6 JUMP JUMPDEST DUP3 MSTORE POP POP JUMP JUMPDEST PUSH1 0x0 PUSH1 0x20 DUP3 ADD SWAP1 POP PUSH2 0xEFC PUSH1 0x0 DUP4 ADD DUP5 PUSH2 0xED8 JUMP JUMPDEST SWAP3 SWAP2 POP POP JUMP JUMPDEST PUSH32 0x4E487B7100000000000000000000000000000000000000000000000000000000 PUSH1 0x0 MSTORE PUSH1 0x22 PUSH1 0x4 MSTORE PUSH1 0x24 PUSH1 0x0 REVERT JUMPDEST PUSH1 0x0 PUSH1 0x2 DUP3 DIV SWAP1 POP PUSH1 0x1 DUP3 AND DUP1 PUSH2 0xF49 JUMPI PUSH1 0x7F DUP3 AND SWAP2 POP JUMPDEST PUSH1 0x20 DUP3 LT DUP2 SUB PUSH2 0xF5C JUMPI PUSH2 0xF5B PUSH2 0xF02 JUMP JUMPDEST JUMPDEST POP SWAP2 SWAP1 POP JUMP JUMPDEST PUSH32 0x566F74696E672068617320616C72656164792073746172746564000000000000 PUSH1 0x0 DUP3 ADD MSTORE POP JUMP JUMPDEST PUSH1 0x0 PUSH2 0xF98 PUSH1 0x1A DUP4 PUSH2 0xA58 JUMP JUMPDEST SWAP2 POP PUSH2 0xFA3 DUP3 PUSH2 0xF62 JUMP JUMPDEST PUSH1 0x20 DUP3 ADD SWAP1 POP SWAP2 SWAP1 POP JUMP JUMPDEST PUSH1 0x0 PUSH1 0x20 DUP3 ADD SWAP1 POP DUP2 DUP2 SUB PUSH1 0x0 DUP4 ADD MSTORE PUSH2 0xFC7 DUP2 PUSH2 0xF8B JUMP JUMPDEST SWAP1 POP SWAP2 SWAP1 POP JUMP JUMPDEST PUSH32 0x566F74696E672068617320616C726561647920656E6465640000000000000000 PUSH1 0x0 DUP3 ADD MSTORE POP JUMP JUMPDEST PUSH1 0x0 PUSH2 0x1004 PUSH1 0x18 DUP4 PUSH2 0xA58 JUMP JUMPDEST SWAP2 POP PUSH2 0x100F DUP3 PUSH2 0xFCE JUMP JUMPDEST PUSH1 0x20 DUP3 ADD SWAP1 POP SWAP2 SWAP1 POP JUMP JUMPDEST PUSH1 0x0 PUSH1 0x20 DUP3 ADD SWAP1 POP DUP2 DUP2 SUB PUSH1 0x0 DUP4 ADD MSTORE PUSH2 0x1033 DUP2 PUSH2 0xFF7 JUMP JUMPDEST SWAP1 POP SWAP2 SWAP1 POP JUMP JUMPDEST PUSH32 0x596F7520617265206E6F742072656769737465726564206173206120766F7465 PUSH1 0x0 DUP3 ADD MSTORE PUSH32 0x7200000000000000000000000000000000000000000000000000000000000000 PUSH1 0x20 DUP3 ADD MSTORE POP JUMP JUMPDEST PUSH1 0x0 PUSH2 0x1096 PUSH1 0x21 DUP4 PUSH2 0xA58 JUMP JUMPDEST SWAP2 POP PUSH2 0x10A1 DUP3 PUSH2 0x103A JUMP JUMPDEST PUSH1 0x40 DUP3 ADD SWAP1 POP SWAP2 SWAP1 POP JUMP JUMPDEST PUSH1 0x0 PUSH1 0x20 DUP3 ADD SWAP1 POP DUP2 DUP2 SUB PUSH1 0x0 DUP4 ADD MSTORE PUSH2 0x10C5 DUP2 PUSH2 0x1089 JUMP JUMPDEST SWAP1 POP SWAP2 SWAP1 POP JUMP JUMPDEST PUSH32 0x59612068617320766F7461646F00000000000000000000000000000000000000 PUSH1 0x0 DUP3 ADD MSTORE POP JUMP JUMPDEST PUSH1 0x0 PUSH2 0x1102 PUSH1 0xD DUP4 PUSH2 0xA58 JUMP JUMPDEST SWAP2 POP PUSH2 0x110D DUP3 PUSH2 0x10CC JUMP JUMPDEST PUSH1 0x20 DUP3 ADD SWAP1 POP SWAP2 SWAP1 POP JUMP JUMPDEST PUSH1 0x0 PUSH1 0x20 DUP3 ADD SWAP1 POP DUP2 DUP2 SUB PUSH1 0x0 DUP4 ADD MSTORE PUSH2 0x1131 DUP2 PUSH2 0x10F5 JUMP JUMPDEST SWAP1 POP SWAP2 SWAP1 POP JUMP JUMPDEST PUSH32 0x4C6120736174697366616363696F6E206465626520657374617220656E747265 PUSH1 0x0 DUP3 ADD MSTORE PUSH32 0x2031207920350000000000000000000000000000000000000000000000000000 PUSH1 0x20 DUP3 ADD MSTORE POP JUMP JUMPDEST PUSH1 0x0 PUSH2 0x1194 PUSH1 0x26 DUP4 PUSH2 0xA58 JUMP JUMPDEST SWAP2 POP PUSH2 0x119F DUP3 PUSH2 0x1138 JUMP JUMPDEST PUSH1 0x40 DUP3 ADD SWAP1 POP SWAP2 SWAP1 POP JUMP JUMPDEST PUSH1 0x0 PUSH1 0x20 DUP3 ADD SWAP1 POP DUP2 DUP2 SUB PUSH1 0x0 DUP4 ADD MSTORE PUSH2 0x11C3 DUP2 PUSH2 0x1187 JUMP JUMPDEST SWAP1 POP SWAP2 SWAP1 POP JUMP JUMPDEST PUSH32 0x4E487B7100000000000000000000000000000000000000000000000000000000 PUSH1 0x0 MSTORE PUSH1 0x11 PUSH1 0x4 MSTORE PUSH1 0x24 PUSH1 0x0 REVERT JUMPDEST PUSH1 0x0 PUSH2 0x1204 DUP3 PUSH2 0x9EA JUMP JUMPDEST SWAP2 POP PUSH2 0x120F DUP4 PUSH2 0x9EA JUMP JUMPDEST SWAP3 POP DUP3 DUP3 ADD SWAP1 POP DUP1 DUP3 GT ISZERO PUSH2 0x1227 JUMPI PUSH2 0x1226 PUSH2 0x11CA JUMP JUMPDEST JUMPDEST SWAP3 SWAP2 POP POP JUMP JUMPDEST PUSH32 0x566F74696E6720686173206E6F74207965742073746172746564000000000000 PUSH1 0x0 DUP3 ADD MSTORE POP JUMP JUMPDEST PUSH1 0x0 PUSH2 0x1263 PUSH1 0x1A DUP4 PUSH2 0xA58 JUMP JUMPDEST SWAP2 POP PUSH2 0x126E DUP3 PUSH2 0x122D JUMP JUMPDEST PUSH1 0x20 DUP3 ADD SWAP1 POP SWAP2 SWAP1 POP JUMP JUMPDEST PUSH1 0x0 PUSH1 0x20 DUP3 ADD SWAP1 POP DUP2 DUP2 SUB PUSH1 0x0 DUP4 ADD MSTORE PUSH2 0x1292 DUP2 PUSH2 0x1256 JUMP JUMPDEST SWAP1 POP SWAP2 SWAP1 POP JUMP JUMPDEST PUSH1 0x0 PUSH2 0x12A4 DUP3 PUSH2 0x9EA JUMP JUMPDEST SWAP2 POP PUSH32 0xFFFFFFFFFFFFFFFFFFFFFFFFFFFFFFFFFFFFFFFFFFFFFFFFFFFFFFFFFFFFFFFF DUP3 SUB PUSH2 0x12D6 JUMPI PUSH2 0x12D5 PUSH2 0x11CA JUMP JUMPDEST JUMPDEST PUSH1 0x1 DUP3 ADD SWAP1 POP SWAP2 SWAP1 POP JUMP JUMPDEST PUSH1 0x0 DUP2 SWAP1 POP DUP2 PUSH1 0x0 MSTORE PUSH1 0x20 PUSH1 0x0 KECCAK256 SWAP1 POP SWAP2 SWAP1 POP JUMP JUMPDEST PUSH1 0x0 PUSH1 0x20 PUSH1 0x1F DUP4 ADD DIV SWAP1 POP SWAP2 SWAP1 POP JUMP JUMPDEST PUSH1 0x0 DUP3 DUP3 SHL SWAP1 POP SWAP3 SWAP2 POP POP JUMP JUMPDEST PUSH1 0x0 PUSH1 0x8 DUP4 MUL PUSH2 0x1343 PUSH32 0xFFFFFFFFFFFFFFFFFFFFFFFFFFFFFFFFFFFFFFFFFFFFFFFFFFFFFFFFFFFFFFFF DUP3 PUSH2 0x1306 JUMP JUMPDEST PUSH2 0x134D DUP7 DUP4 PUSH2 0x1306 JUMP JUMPDEST SWAP6 POP DUP1 NOT DUP5 AND SWAP4 POP DUP1 DUP7 AND DUP5 OR SWAP3 POP POP POP SWAP4 SWAP3 POP POP POP JUMP JUMPDEST PUSH1 0x0 PUSH2 0x1380 PUSH2 0x137B PUSH2 0x1376 DUP5 PUSH2 0x9EA JUMP JUMPDEST PUSH2 0xE88 JUMP JUMPDEST PUSH2 0x9EA JUMP JUMPDEST SWAP1 POP SWAP2 SWAP1 POP JUMP JUMPDEST PUSH1 0x0 DUP2 SWAP1 POP SWAP2 SWAP1 POP JUMP JUMPDEST PUSH2 0x139A DUP4 PUSH2 0x1365 JUMP JUMPDEST PUSH2 0x13AE PUSH2 0x13A6 DUP3 PUSH2 0x1387 JUMP JUMPDEST DUP5 DUP5 SLOAD PUSH2 0x1313 JUMP JUMPDEST DUP3 SSTORE POP POP POP POP JUMP JUMPDEST PUSH1 0x0 SWAP1 JUMP JUMPDEST PUSH2 0x13C3 PUSH2 0x13B6 JUMP JUMPDEST PUSH2 0x13CE DUP2 DUP5 DUP5 PUSH2 0x1391 JUMP JUMPDEST POP POP POP JUMP JUMPDEST JUMPDEST DUP2 DUP2 LT ISZERO PUSH2 0x13F2 JUMPI PUSH2 0x13E7 PUSH1 0x0 DUP3 PUSH2 0x13BB JUMP JUMPDEST PUSH1 0x1 DUP2 ADD SWAP1 POP PUSH2 0x13D4 JUMP JUMPDEST POP POP JUMP JUMPDEST PUSH1 0x1F DUP3 GT ISZERO PUSH2 0x1437 JUMPI PUSH2 0x1408 DUP2 PUSH2 0x12E1 JUMP JUMPDEST PUSH2 0x1411 DUP5 PUSH2 0x12F6 JUMP JUMPDEST DUP2 ADD PUSH1 0x20 DUP6 LT ISZERO PUSH2 0x1420 JUMPI DUP2 SWAP1 POP JUMPDEST PUSH2 0x1434 PUSH2 0x142C DUP6 PUSH2 0x12F6 JUMP JUMPDEST DUP4 ADD DUP3 PUSH2 0x13D3 JUMP JUMPDEST POP POP JUMPDEST POP POP POP JUMP JUMPDEST PUSH1 0x0 DUP3 DUP3 SHR SWAP1 POP SWAP3 SWAP2 POP POP JUMP JUMPDEST PUSH1 0x0 PUSH2 0x145A PUSH1 0x0 NOT DUP5 PUSH1 0x8 MUL PUSH2 0x143C JUMP JUMPDEST NOT DUP1 DUP4 AND SWAP2 POP POP SWAP3 SWAP2 POP POP JUMP JUMPDEST PUSH1 0x0 PUSH2 0x1473 DUP4 DUP4 PUSH2 0x1449 JUMP JUMPDEST SWAP2 POP DUP3 PUSH1 0x2 MUL DUP3 OR SWAP1 POP SWAP3 SWAP2 POP POP JUMP JUMPDEST PUSH2 0x148C DUP3 PUSH2 0xA4D JUMP JUMPDEST PUSH8 0xFFFFFFFFFFFFFFFF DUP2 GT ISZERO PUSH2 0x14A5 JUMPI PUSH2 0x14A4 PUSH2 0xC68 JUMP JUMPDEST JUMPDEST PUSH2 0x14AF DUP3 SLOAD PUSH2 0xF31 JUMP JUMPDEST PUSH2 0x14BA DUP3 DUP3 DUP6 PUSH2 0x13F6 JUMP JUMPDEST PUSH1 0x0 PUSH1 0x20 SWAP1 POP PUSH1 0x1F DUP4 GT PUSH1 0x1 DUP2 EQ PUSH2 0x14ED JUMPI PUSH1 0x0 DUP5 ISZERO PUSH2 0x14DB JUMPI DUP3 DUP8 ADD MLOAD SWAP1 POP JUMPDEST PUSH2 0x14E5 DUP6 DUP3 PUSH2 0x1467 JUMP JUMPDEST DUP7 SSTORE POP PUSH2 0x154D JUMP JUMPDEST PUSH1 0x1F NOT DUP5 AND PUSH2 0x14FB DUP7 PUSH2 0x12E1 JUMP JUMPDEST PUSH1 0x0 JUMPDEST DUP3 DUP2 LT ISZERO PUSH2 0x1523 JUMPI DUP5 DUP10 ADD MLOAD DUP3 SSTORE PUSH1 0x1 DUP3 ADD SWAP2 POP PUSH1 0x20 DUP6 ADD SWAP5 POP PUSH1 0x20 DUP2 ADD SWAP1 POP PUSH2 0x14FE JUMP JUMPDEST DUP7 DUP4 LT ISZERO PUSH2 0x1540 JUMPI DUP5 DUP10 ADD MLOAD PUSH2 0x153C PUSH1 0x1F DUP10 AND DUP3 PUSH2 0x1449 JUMP JUMPDEST DUP4 SSTORE POP JUMPDEST PUSH1 0x1 PUSH1 0x2 DUP9 MUL ADD DUP9 SSTORE POP POP POP JUMPDEST POP POP POP POP POP POP JUMP JUMPDEST PUSH32 0x4E6F2068617920766F746F732061756E00000000000000000000000000000000 PUSH1 0x0 DUP3 ADD MSTORE POP JUMP JUMPDEST PUSH1 0x0 PUSH2 0x158B PUSH1 0x10 DUP4 PUSH2 0xA58 JUMP JUMPDEST SWAP2 POP PUSH2 0x1596 DUP3 PUSH2 0x1555 JUMP JUMPDEST PUSH1 0x20 DUP3 ADD SWAP1 POP SWAP2 SWAP1 POP JUMP JUMPDEST PUSH1 0x0 PUSH1 0x20 DUP3 ADD SWAP1 POP DUP2 DUP2 SUB PUSH1 0x0 DUP4 ADD MSTORE PUSH2 0x15BA DUP2 PUSH2 0x157E JUMP JUMPDEST SWAP1 POP SWAP2 SWAP1 POP JUMP JUMPDEST PUSH32 0x4E487B7100000000000000000000000000000000000000000000000000000000 PUSH1 0x0 MSTORE PUSH1 0x12 PUSH1 0x4 MSTORE PUSH1 0x24 PUSH1 0x0 REVERT JUMPDEST PUSH1 0x0 PUSH2 0x15FB DUP3 PUSH2 0x9EA JUMP JUMPDEST SWAP2 POP PUSH2 0x1606 DUP4 PUSH2 0x9EA JUMP JUMPDEST SWAP3 POP DUP3 PUSH2 0x1616 JUMPI PUSH2 0x1615 PUSH2 0x15C1 JUMP JUMPDEST JUMPDEST DUP3 DUP3 DIV SWAP1 POP SWAP3 SWAP2 POP POP JUMP INVALID LOG2 PUSH5 0x6970667358 0x22 SLT KECCAK256 DUP4 PUSH15 0x9D8BAACF52CECF26312127A015353A 0xD9 0xB6 0xB6 0xEA 0xE 0xBE RETURNDATASIZE STOP 0xE2 EXTCODESIZE PUSH26 0x2924587A64736F6C63430008120033A264697066735822122017 COINBASE 0xC3 POP 0x2A 0x28 PUSH4 0xC26215D3 0x28 MSIZE 0xBC 0x4A PUSH23 0x82A5251771F03A4DFB3169561071670664736F6C634300 ADDMOD SLT STOP CALLER "
		},
		"gasEstimates": {
			"creation": {
				"codeDepositCost": "2582800",
				"executionCost": "2793",
				"totalCost": "2585593"
			},
			"external": {
				"beforeAll()": "infinite",
				"beforeEach()": "189",
				"checkFailure()": "infinite",
				"checkSenderAndValue()": "infinite",
				"checkSuccess()": "infinite",
				"testCreateProposal()": "infinite",
				"testRegisterVoter()": "infinite",
				"testVoteProposal()": "infinite"
			}
		},
		"methodIdentifiers": {
			"beforeAll()": "7fea0d4b",
			"beforeEach()": "6331e7d4",
			"checkFailure()": "36c00656",
			"checkSenderAndValue()": "9074416d",
			"checkSuccess()": "011e6492",
			"testCreateProposal()": "e32637a0",
			"testRegisterVoter()": "7fa114c4",
			"testVoteProposal()": "f229522b"
		}
	},
	"abi": [
		{
			"inputs": [],
			"name": "beforeAll",
			"outputs": [],
			"stateMutability": "nonpayable",
			"type": "function"
		},
		{
			"inputs": [],
			"name": "beforeEach",
			"outputs": [],
			"stateMutability": "nonpayable",
			"type": "function"
		},
		{
			"inputs": [],
			"name": "checkFailure",
			"outputs": [],
			"stateMutability": "nonpayable",
			"type": "function"
		},
		{
			"inputs": [],
			"name": "checkSenderAndValue",
			"outputs": [],
			"stateMutability": "payable",
			"type": "function"
		},
		{
			"inputs": [],
			"name": "checkSuccess",
			"outputs": [],
			"stateMutability": "nonpayable",
			"type": "function"
		},
		{
			"inputs": [],
			"name": "testCreateProposal",
			"outputs": [],
			"stateMutability": "nonpayable",
			"type": "function"
		},
		{
			"inputs": [],
			"name": "testRegisterVoter",
			"outputs": [],
			"stateMutability": "nonpayable",
			"type": "function"
		},
		{
			"inputs": [],
			"name": "testVoteProposal",
			"outputs": [],
			"stateMutability": "nonpayable",
			"type": "function"
		}
	]
}