{
	"contracts/AdivinaNumero.sol": {
		"AdivinaNumero": {
			"abi": [
				{
					"anonymous": false,
					"inputs": [
						{
							"indexed": false,
							"internalType": "uint256",
							"name": "randomnumber",
							"type": "uint256"
						},
						{
							"indexed": false,
							"internalType": "uint256",
							"name": "numeroAdivinado",
							"type": "uint256"
						},
						{
							"indexed": false,
							"internalType": "uint256",
							"name": "premio",
							"type": "uint256"
						}
					],
					"name": "Numero",
					"type": "event"
				},
				{
					"inputs": [
						{
							"internalType": "uint256",
							"name": "numeroAdivinado",
							"type": "uint256"
						}
					],
					"name": "adivina",
					"outputs": [],
					"stateMutability": "payable",
					"type": "function"
				}
			],
			"devdoc": {
				"custom:dev-run-script": "./scripts/deploy_with_ethers.ts",
				"kind": "dev",
				"methods": {
					"adivina(uint256)": {
						"details": "Constructor que inicializa el número aleatorio Toma módulo %10 porque quiere que sea del 1 al 10 "
					}
				},
				"version": 1
			},
			"evm": {
				"assembly": "    /* \"contracts/AdivinaNumero.sol\":122:1249  contract AdivinaNumero {... */\n  mstore(0x40, 0x80)\n  callvalue\n  dup1\n  iszero\n  tag_1\n  jumpi\n  0x00\n  dup1\n  revert\ntag_1:\n  pop\n  dataSize(sub_0)\n  dup1\n  dataOffset(sub_0)\n  0x00\n  codecopy\n  0x00\n  return\nstop\n\nsub_0: assembly {\n        /* \"contracts/AdivinaNumero.sol\":122:1249  contract AdivinaNumero {... */\n      mstore(0x40, 0x80)\n      jumpi(tag_1, lt(calldatasize, 0x04))\n      shr(0xe0, calldataload(0x00))\n      dup1\n      0x51c640b9\n      eq\n      tag_2\n      jumpi\n    tag_1:\n      0x00\n      dup1\n      revert\n        /* \"contracts/AdivinaNumero.sol\":676:1246  function adivina(uint numeroAdivinado) public payable {... */\n    tag_2:\n      tag_3\n      0x04\n      dup1\n      calldatasize\n      sub\n      dup2\n      add\n      swap1\n      tag_4\n      swap2\n      swap1\n      tag_5\n      jump\t// in\n    tag_4:\n      tag_6\n      jump\t// in\n    tag_3:\n      stop\n    tag_6:\n        /* \"contracts/AdivinaNumero.sol\":842:859  uint randomnumber */\n      0x00\n        /* \"contracts/AdivinaNumero.sol\":958:959  1 */\n      0x01\n        /* \"contracts/AdivinaNumero.sol\":952:954  10 */\n      0x0a\n        /* \"contracts/AdivinaNumero.sol\":909:924  block.timestamp */\n      timestamp\n        /* \"contracts/AdivinaNumero.sol\":926:936  msg.sender */\n      caller\n        /* \"contracts/AdivinaNumero.sol\":892:937  abi.encodePacked(block.timestamp, msg.sender) */\n      add(0x20, mload(0x40))\n      tag_8\n      swap3\n      swap2\n      swap1\n      tag_9\n      jump\t// in\n    tag_8:\n      mload(0x40)\n      0x20\n      dup2\n      dup4\n      sub\n      sub\n      dup2\n      mstore\n      swap1\n      0x40\n      mstore\n        /* \"contracts/AdivinaNumero.sol\":882:938  keccak256(abi.encodePacked(block.timestamp, msg.sender)) */\n      dup1\n      mload\n      swap1\n      0x20\n      add\n      keccak256\n        /* \"contracts/AdivinaNumero.sol\":863:949  uint(... */\n      0x00\n      shr\n        /* \"contracts/AdivinaNumero.sol\":863:954  uint(... */\n      tag_10\n      swap2\n      swap1\n      tag_11\n      jump\t// in\n    tag_10:\n        /* \"contracts/AdivinaNumero.sol\":862:959  (uint(... */\n      tag_12\n      swap2\n      swap1\n      tag_13\n      jump\t// in\n    tag_12:\n        /* \"contracts/AdivinaNumero.sol\":842:959  uint randomnumber = (uint(... */\n      swap1\n      pop\n        /* \"contracts/AdivinaNumero.sol\":995:1007  randomnumber */\n      dup1\n        /* \"contracts/AdivinaNumero.sol\":976:991  numeroAdivinado */\n      dup3\n        /* \"contracts/AdivinaNumero.sol\":976:1007  numeroAdivinado == randomnumber */\n      sub\n        /* \"contracts/AdivinaNumero.sol\":972:1121  if (numeroAdivinado == randomnumber) {... */\n      tag_14\n      jumpi\n        /* \"contracts/AdivinaNumero.sol\":1034:1044  msg.sender */\n      caller\n        /* \"contracts/AdivinaNumero.sol\":1024:1031  jugador */\n      0x00\n      dup1\n        /* \"contracts/AdivinaNumero.sol\":1024:1044  jugador = msg.sender */\n      0x0100\n      exp\n      dup2\n      sload\n      dup2\n      0xffffffffffffffffffffffffffffffffffffffff\n      mul\n      not\n      and\n      swap1\n      dup4\n      0xffffffffffffffffffffffffffffffffffffffff\n      and\n      mul\n      or\n      swap1\n      sstore\n      pop\n        /* \"contracts/AdivinaNumero.sol\":1068:1087  1000000000000000000 */\n      0x0de0b6b3a7640000\n        /* \"contracts/AdivinaNumero.sol\":1059:1065  premio */\n      0x01\n        /* \"contracts/AdivinaNumero.sol\":1059:1087  premio = 1000000000000000000 */\n      dup2\n      swap1\n      sstore\n      pop\n        /* \"contracts/AdivinaNumero.sol\":972:1121  if (numeroAdivinado == randomnumber) {... */\n    tag_14:\n        /* \"contracts/AdivinaNumero.sol\":1193:1238  Numero(randomnumber, numeroAdivinado, premio) */\n      0xa6ba13f01e7f2135a6cfeb6bf217ae66796e848aa2c5c331b0a0e490161e112c\n        /* \"contracts/AdivinaNumero.sol\":1200:1212  randomnumber */\n      dup2\n        /* \"contracts/AdivinaNumero.sol\":1214:1229  numeroAdivinado */\n      dup4\n        /* \"contracts/AdivinaNumero.sol\":1231:1237  premio */\n      sload(0x01)\n        /* \"contracts/AdivinaNumero.sol\":1193:1238  Numero(randomnumber, numeroAdivinado, premio) */\n      mload(0x40)\n      tag_15\n      swap4\n      swap3\n      swap2\n      swap1\n      tag_16\n      jump\t// in\n    tag_15:\n      mload(0x40)\n      dup1\n      swap2\n      sub\n      swap1\n      log1\n        /* \"contracts/AdivinaNumero.sol\":730:1246  {... */\n      pop\n        /* \"contracts/AdivinaNumero.sol\":676:1246  function adivina(uint numeroAdivinado) public payable {... */\n      pop\n      jump\t// out\n        /* \"#utility.yul\":88:205   */\n    tag_18:\n        /* \"#utility.yul\":197:198   */\n      0x00\n        /* \"#utility.yul\":194:195   */\n      dup1\n        /* \"#utility.yul\":187:199   */\n      revert\n        /* \"#utility.yul\":334:411   */\n    tag_20:\n        /* \"#utility.yul\":371:378   */\n      0x00\n        /* \"#utility.yul\":400:405   */\n      dup2\n        /* \"#utility.yul\":389:405   */\n      swap1\n      pop\n        /* \"#utility.yul\":334:411   */\n      swap2\n      swap1\n      pop\n      jump\t// out\n        /* \"#utility.yul\":417:539   */\n    tag_21:\n        /* \"#utility.yul\":490:514   */\n      tag_40\n        /* \"#utility.yul\":508:513   */\n      dup2\n        /* \"#utility.yul\":490:514   */\n      tag_20\n      jump\t// in\n    tag_40:\n        /* \"#utility.yul\":483:488   */\n      dup2\n        /* \"#utility.yul\":480:515   */\n      eq\n        /* \"#utility.yul\":470:533   */\n      tag_41\n      jumpi\n        /* \"#utility.yul\":529:530   */\n      0x00\n        /* \"#utility.yul\":526:527   */\n      dup1\n        /* \"#utility.yul\":519:531   */\n      revert\n        /* \"#utility.yul\":470:533   */\n    tag_41:\n        /* \"#utility.yul\":417:539   */\n      pop\n      jump\t// out\n        /* \"#utility.yul\":545:684   */\n    tag_22:\n        /* \"#utility.yul\":591:596   */\n      0x00\n        /* \"#utility.yul\":629:635   */\n      dup2\n        /* \"#utility.yul\":616:636   */\n      calldataload\n        /* \"#utility.yul\":607:636   */\n      swap1\n      pop\n        /* \"#utility.yul\":645:678   */\n      tag_43\n        /* \"#utility.yul\":672:677   */\n      dup2\n        /* \"#utility.yul\":645:678   */\n      tag_21\n      jump\t// in\n    tag_43:\n        /* \"#utility.yul\":545:684   */\n      swap3\n      swap2\n      pop\n      pop\n      jump\t// out\n        /* \"#utility.yul\":690:1019   */\n    tag_5:\n        /* \"#utility.yul\":749:755   */\n      0x00\n        /* \"#utility.yul\":798:800   */\n      0x20\n        /* \"#utility.yul\":786:795   */\n      dup3\n        /* \"#utility.yul\":777:784   */\n      dup5\n        /* \"#utility.yul\":773:796   */\n      sub\n        /* \"#utility.yul\":769:801   */\n      slt\n        /* \"#utility.yul\":766:885   */\n      iszero\n      tag_45\n      jumpi\n        /* \"#utility.yul\":804:883   */\n      tag_46\n      tag_18\n      jump\t// in\n    tag_46:\n        /* \"#utility.yul\":766:885   */\n    tag_45:\n        /* \"#utility.yul\":924:925   */\n      0x00\n        /* \"#utility.yul\":949:1002   */\n      tag_47\n        /* \"#utility.yul\":994:1001   */\n      dup5\n        /* \"#utility.yul\":985:991   */\n      dup3\n        /* \"#utility.yul\":974:983   */\n      dup6\n        /* \"#utility.yul\":970:992   */\n      add\n        /* \"#utility.yul\":949:1002   */\n      tag_22\n      jump\t// in\n    tag_47:\n        /* \"#utility.yul\":939:1002   */\n      swap2\n      pop\n        /* \"#utility.yul\":895:1012   */\n      pop\n        /* \"#utility.yul\":690:1019   */\n      swap3\n      swap2\n      pop\n      pop\n      jump\t// out\n        /* \"#utility.yul\":1025:1104   */\n    tag_23:\n        /* \"#utility.yul\":1064:1071   */\n      0x00\n        /* \"#utility.yul\":1093:1098   */\n      dup2\n        /* \"#utility.yul\":1082:1098   */\n      swap1\n      pop\n        /* \"#utility.yul\":1025:1104   */\n      swap2\n      swap1\n      pop\n      jump\t// out\n        /* \"#utility.yul\":1110:1267   */\n    tag_24:\n        /* \"#utility.yul\":1215:1260   */\n      tag_50\n        /* \"#utility.yul\":1235:1259   */\n      tag_51\n        /* \"#utility.yul\":1253:1258   */\n      dup3\n        /* \"#utility.yul\":1235:1259   */\n      tag_20\n      jump\t// in\n    tag_51:\n        /* \"#utility.yul\":1215:1260   */\n      tag_23\n      jump\t// in\n    tag_50:\n        /* \"#utility.yul\":1210:1213   */\n      dup3\n        /* \"#utility.yul\":1203:1261   */\n      mstore\n        /* \"#utility.yul\":1110:1267   */\n      pop\n      pop\n      jump\t// out\n        /* \"#utility.yul\":1273:1399   */\n    tag_25:\n        /* \"#utility.yul\":1310:1317   */\n      0x00\n        /* \"#utility.yul\":1350:1392   */\n      0xffffffffffffffffffffffffffffffffffffffff\n        /* \"#utility.yul\":1343:1348   */\n      dup3\n        /* \"#utility.yul\":1339:1393   */\n      and\n        /* \"#utility.yul\":1328:1393   */\n      swap1\n      pop\n        /* \"#utility.yul\":1273:1399   */\n      swap2\n      swap1\n      pop\n      jump\t// out\n        /* \"#utility.yul\":1405:1501   */\n    tag_26:\n        /* \"#utility.yul\":1442:1449   */\n      0x00\n        /* \"#utility.yul\":1471:1495   */\n      tag_54\n        /* \"#utility.yul\":1489:1494   */\n      dup3\n        /* \"#utility.yul\":1471:1495   */\n      tag_25\n      jump\t// in\n    tag_54:\n        /* \"#utility.yul\":1460:1495   */\n      swap1\n      pop\n        /* \"#utility.yul\":1405:1501   */\n      swap2\n      swap1\n      pop\n      jump\t// out\n        /* \"#utility.yul\":1507:1601   */\n    tag_27:\n        /* \"#utility.yul\":1540:1548   */\n      0x00\n        /* \"#utility.yul\":1588:1593   */\n      dup2\n        /* \"#utility.yul\":1584:1586   */\n      0x60\n        /* \"#utility.yul\":1580:1594   */\n      shl\n        /* \"#utility.yul\":1559:1594   */\n      swap1\n      pop\n        /* \"#utility.yul\":1507:1601   */\n      swap2\n      swap1\n      pop\n      jump\t// out\n        /* \"#utility.yul\":1607:1701   */\n    tag_28:\n        /* \"#utility.yul\":1646:1653   */\n      0x00\n        /* \"#utility.yul\":1675:1695   */\n      tag_57\n        /* \"#utility.yul\":1689:1694   */\n      dup3\n        /* \"#utility.yul\":1675:1695   */\n      tag_27\n      jump\t// in\n    tag_57:\n        /* \"#utility.yul\":1664:1695   */\n      swap1\n      pop\n        /* \"#utility.yul\":1607:1701   */\n      swap2\n      swap1\n      pop\n      jump\t// out\n        /* \"#utility.yul\":1707:1807   */\n    tag_29:\n        /* \"#utility.yul\":1746:1753   */\n      0x00\n        /* \"#utility.yul\":1775:1801   */\n      tag_59\n        /* \"#utility.yul\":1795:1800   */\n      dup3\n        /* \"#utility.yul\":1775:1801   */\n      tag_28\n      jump\t// in\n    tag_59:\n        /* \"#utility.yul\":1764:1801   */\n      swap1\n      pop\n        /* \"#utility.yul\":1707:1807   */\n      swap2\n      swap1\n      pop\n      jump\t// out\n        /* \"#utility.yul\":1813:1970   */\n    tag_30:\n        /* \"#utility.yul\":1918:1963   */\n      tag_61\n        /* \"#utility.yul\":1938:1962   */\n      tag_62\n        /* \"#utility.yul\":1956:1961   */\n      dup3\n        /* \"#utility.yul\":1938:1962   */\n      tag_26\n      jump\t// in\n    tag_62:\n        /* \"#utility.yul\":1918:1963   */\n      tag_29\n      jump\t// in\n    tag_61:\n        /* \"#utility.yul\":1913:1916   */\n      dup3\n        /* \"#utility.yul\":1906:1964   */\n      mstore\n        /* \"#utility.yul\":1813:1970   */\n      pop\n      pop\n      jump\t// out\n        /* \"#utility.yul\":1976:2373   */\n    tag_9:\n        /* \"#utility.yul\":2116:2119   */\n      0x00\n        /* \"#utility.yul\":2131:2206   */\n      tag_64\n        /* \"#utility.yul\":2202:2205   */\n      dup3\n        /* \"#utility.yul\":2193:2199   */\n      dup6\n        /* \"#utility.yul\":2131:2206   */\n      tag_24\n      jump\t// in\n    tag_64:\n        /* \"#utility.yul\":2231:2233   */\n      0x20\n        /* \"#utility.yul\":2226:2229   */\n      dup3\n        /* \"#utility.yul\":2222:2234   */\n      add\n        /* \"#utility.yul\":2215:2234   */\n      swap2\n      pop\n        /* \"#utility.yul\":2244:2319   */\n      tag_65\n        /* \"#utility.yul\":2315:2318   */\n      dup3\n        /* \"#utility.yul\":2306:2312   */\n      dup5\n        /* \"#utility.yul\":2244:2319   */\n      tag_30\n      jump\t// in\n    tag_65:\n        /* \"#utility.yul\":2344:2346   */\n      0x14\n        /* \"#utility.yul\":2339:2342   */\n      dup3\n        /* \"#utility.yul\":2335:2347   */\n      add\n        /* \"#utility.yul\":2328:2347   */\n      swap2\n      pop\n        /* \"#utility.yul\":2364:2367   */\n      dup2\n        /* \"#utility.yul\":2357:2367   */\n      swap1\n      pop\n        /* \"#utility.yul\":1976:2373   */\n      swap4\n      swap3\n      pop\n      pop\n      pop\n      jump\t// out\n        /* \"#utility.yul\":2379:2559   */\n    tag_31:\n        /* \"#utility.yul\":2427:2504   */\n      0x4e487b7100000000000000000000000000000000000000000000000000000000\n        /* \"#utility.yul\":2424:2425   */\n      0x00\n        /* \"#utility.yul\":2417:2505   */\n      mstore\n        /* \"#utility.yul\":2524:2528   */\n      0x12\n        /* \"#utility.yul\":2521:2522   */\n      0x04\n        /* \"#utility.yul\":2514:2529   */\n      mstore\n        /* \"#utility.yul\":2548:2552   */\n      0x24\n        /* \"#utility.yul\":2545:2546   */\n      0x00\n        /* \"#utility.yul\":2538:2553   */\n      revert\n        /* \"#utility.yul\":2565:2741   */\n    tag_11:\n        /* \"#utility.yul\":2597:2598   */\n      0x00\n        /* \"#utility.yul\":2614:2634   */\n      tag_68\n        /* \"#utility.yul\":2632:2633   */\n      dup3\n        /* \"#utility.yul\":2614:2634   */\n      tag_20\n      jump\t// in\n    tag_68:\n        /* \"#utility.yul\":2609:2634   */\n      swap2\n      pop\n        /* \"#utility.yul\":2648:2668   */\n      tag_69\n        /* \"#utility.yul\":2666:2667   */\n      dup4\n        /* \"#utility.yul\":2648:2668   */\n      tag_20\n      jump\t// in\n    tag_69:\n        /* \"#utility.yul\":2643:2668   */\n      swap3\n      pop\n        /* \"#utility.yul\":2687:2688   */\n      dup3\n        /* \"#utility.yul\":2677:2712   */\n      tag_70\n      jumpi\n        /* \"#utility.yul\":2692:2710   */\n      tag_71\n      tag_31\n      jump\t// in\n    tag_71:\n        /* \"#utility.yul\":2677:2712   */\n    tag_70:\n        /* \"#utility.yul\":2733:2734   */\n      dup3\n        /* \"#utility.yul\":2730:2731   */\n      dup3\n        /* \"#utility.yul\":2726:2735   */\n      mod\n        /* \"#utility.yul\":2721:2735   */\n      swap1\n      pop\n        /* \"#utility.yul\":2565:2741   */\n      swap3\n      swap2\n      pop\n      pop\n      jump\t// out\n        /* \"#utility.yul\":2747:2927   */\n    tag_32:\n        /* \"#utility.yul\":2795:2872   */\n      0x4e487b7100000000000000000000000000000000000000000000000000000000\n        /* \"#utility.yul\":2792:2793   */\n      0x00\n        /* \"#utility.yul\":2785:2873   */\n      mstore\n        /* \"#utility.yul\":2892:2896   */\n      0x11\n        /* \"#utility.yul\":2889:2890   */\n      0x04\n        /* \"#utility.yul\":2882:2897   */\n      mstore\n        /* \"#utility.yul\":2916:2920   */\n      0x24\n        /* \"#utility.yul\":2913:2914   */\n      0x00\n        /* \"#utility.yul\":2906:2921   */\n      revert\n        /* \"#utility.yul\":2933:3124   */\n    tag_13:\n        /* \"#utility.yul\":2973:2976   */\n      0x00\n        /* \"#utility.yul\":2992:3012   */\n      tag_74\n        /* \"#utility.yul\":3010:3011   */\n      dup3\n        /* \"#utility.yul\":2992:3012   */\n      tag_20\n      jump\t// in\n    tag_74:\n        /* \"#utility.yul\":2987:3012   */\n      swap2\n      pop\n        /* \"#utility.yul\":3026:3046   */\n      tag_75\n        /* \"#utility.yul\":3044:3045   */\n      dup4\n        /* \"#utility.yul\":3026:3046   */\n      tag_20\n      jump\t// in\n    tag_75:\n        /* \"#utility.yul\":3021:3046   */\n      swap3\n      pop\n        /* \"#utility.yul\":3069:3070   */\n      dup3\n        /* \"#utility.yul\":3066:3067   */\n      dup3\n        /* \"#utility.yul\":3062:3071   */\n      add\n        /* \"#utility.yul\":3055:3071   */\n      swap1\n      pop\n        /* \"#utility.yul\":3090:3093   */\n      dup1\n        /* \"#utility.yul\":3087:3088   */\n      dup3\n        /* \"#utility.yul\":3084:3094   */\n      gt\n        /* \"#utility.yul\":3081:3117   */\n      iszero\n      tag_76\n      jumpi\n        /* \"#utility.yul\":3097:3115   */\n      tag_77\n      tag_32\n      jump\t// in\n    tag_77:\n        /* \"#utility.yul\":3081:3117   */\n    tag_76:\n        /* \"#utility.yul\":2933:3124   */\n      swap3\n      swap2\n      pop\n      pop\n      jump\t// out\n        /* \"#utility.yul\":3130:3248   */\n    tag_33:\n        /* \"#utility.yul\":3217:3241   */\n      tag_79\n        /* \"#utility.yul\":3235:3240   */\n      dup2\n        /* \"#utility.yul\":3217:3241   */\n      tag_20\n      jump\t// in\n    tag_79:\n        /* \"#utility.yul\":3212:3215   */\n      dup3\n        /* \"#utility.yul\":3205:3242   */\n      mstore\n        /* \"#utility.yul\":3130:3248   */\n      pop\n      pop\n      jump\t// out\n        /* \"#utility.yul\":3254:3696   */\n    tag_16:\n        /* \"#utility.yul\":3403:3407   */\n      0x00\n        /* \"#utility.yul\":3441:3443   */\n      0x60\n        /* \"#utility.yul\":3430:3439   */\n      dup3\n        /* \"#utility.yul\":3426:3444   */\n      add\n        /* \"#utility.yul\":3418:3444   */\n      swap1\n      pop\n        /* \"#utility.yul\":3454:3525   */\n      tag_81\n        /* \"#utility.yul\":3522:3523   */\n      0x00\n        /* \"#utility.yul\":3511:3520   */\n      dup4\n        /* \"#utility.yul\":3507:3524   */\n      add\n        /* \"#utility.yul\":3498:3504   */\n      dup7\n        /* \"#utility.yul\":3454:3525   */\n      tag_33\n      jump\t// in\n    tag_81:\n        /* \"#utility.yul\":3535:3607   */\n      tag_82\n        /* \"#utility.yul\":3603:3605   */\n      0x20\n        /* \"#utility.yul\":3592:3601   */\n      dup4\n        /* \"#utility.yul\":3588:3606   */\n      add\n        /* \"#utility.yul\":3579:3585   */\n      dup6\n        /* \"#utility.yul\":3535:3607   */\n      tag_33\n      jump\t// in\n    tag_82:\n        /* \"#utility.yul\":3617:3689   */\n      tag_83\n        /* \"#utility.yul\":3685:3687   */\n      0x40\n        /* \"#utility.yul\":3674:3683   */\n      dup4\n        /* \"#utility.yul\":3670:3688   */\n      add\n        /* \"#utility.yul\":3661:3667   */\n      dup5\n        /* \"#utility.yul\":3617:3689   */\n      tag_33\n      jump\t// in\n    tag_83:\n        /* \"#utility.yul\":3254:3696   */\n      swap5\n      swap4\n      pop\n      pop\n      pop\n      pop\n      jump\t// out\n\n    auxdata: 0xa2646970667358221220b7b5bc39ebfab5be6537e9d813bedf881189ca6946f3965d48b75e38c82d5c2164736f6c63430008120033\n}\n",
				"bytecode": {
					"linkReferences": {},
					"object": "608060405234801561001057600080fd5b5061038d806100206000396000f3fe60806040526004361061001e5760003560e01c806351c640b914610023575b600080fd5b61003d6004803603810190610038919061015a565b61003f565b005b60006001600a4233604051602001610058929190610222565b6040516020818303038152906040528051906020012060001c61007b919061027d565b61008591906102dd565b90508082036100de57336000806101000a81548173ffffffffffffffffffffffffffffffffffffffff021916908373ffffffffffffffffffffffffffffffffffffffff160217905550670de0b6b3a76400006001819055505b7fa6ba13f01e7f2135a6cfeb6bf217ae66796e848aa2c5c331b0a0e490161e112c818360015460405161011393929190610320565b60405180910390a15050565b600080fd5b6000819050919050565b61013781610124565b811461014257600080fd5b50565b6000813590506101548161012e565b92915050565b6000602082840312156101705761016f61011f565b5b600061017e84828501610145565b91505092915050565b6000819050919050565b6101a261019d82610124565b610187565b82525050565b600073ffffffffffffffffffffffffffffffffffffffff82169050919050565b60006101d3826101a8565b9050919050565b60008160601b9050919050565b60006101f2826101da565b9050919050565b6000610204826101e7565b9050919050565b61021c610217826101c8565b6101f9565b82525050565b600061022e8285610191565b60208201915061023e828461020b565b6014820191508190509392505050565b7f4e487b7100000000000000000000000000000000000000000000000000000000600052601260045260246000fd5b600061028882610124565b915061029383610124565b9250826102a3576102a261024e565b5b828206905092915050565b7f4e487b7100000000000000000000000000000000000000000000000000000000600052601160045260246000fd5b60006102e882610124565b91506102f383610124565b925082820190508082111561030b5761030a6102ae565b5b92915050565b61031a81610124565b82525050565b60006060820190506103356000830186610311565b6103426020830185610311565b61034f6040830184610311565b94935050505056fea2646970667358221220b7b5bc39ebfab5be6537e9d813bedf881189ca6946f3965d48b75e38c82d5c2164736f6c63430008120033",
					"opcodes": "PUSH1 0x80 PUSH1 0x40 MSTORE CALLVALUE DUP1 ISZERO PUSH2 0x10 JUMPI PUSH1 0x0 DUP1 REVERT JUMPDEST POP PUSH2 0x38D DUP1 PUSH2 0x20 PUSH1 0x0 CODECOPY PUSH1 0x0 RETURN INVALID PUSH1 0x80 PUSH1 0x40 MSTORE PUSH1 0x4 CALLDATASIZE LT PUSH2 0x1E JUMPI PUSH1 0x0 CALLDATALOAD PUSH1 0xE0 SHR DUP1 PUSH4 0x51C640B9 EQ PUSH2 0x23 JUMPI JUMPDEST PUSH1 0x0 DUP1 REVERT JUMPDEST PUSH2 0x3D PUSH1 0x4 DUP1 CALLDATASIZE SUB DUP2 ADD SWAP1 PUSH2 0x38 SWAP2 SWAP1 PUSH2 0x15A JUMP JUMPDEST PUSH2 0x3F JUMP JUMPDEST STOP JUMPDEST PUSH1 0x0 PUSH1 0x1 PUSH1 0xA TIMESTAMP CALLER PUSH1 0x40 MLOAD PUSH1 0x20 ADD PUSH2 0x58 SWAP3 SWAP2 SWAP1 PUSH2 0x222 JUMP JUMPDEST PUSH1 0x40 MLOAD PUSH1 0x20 DUP2 DUP4 SUB SUB DUP2 MSTORE SWAP1 PUSH1 0x40 MSTORE DUP1 MLOAD SWAP1 PUSH1 0x20 ADD KECCAK256 PUSH1 0x0 SHR PUSH2 0x7B SWAP2 SWAP1 PUSH2 0x27D JUMP JUMPDEST PUSH2 0x85 SWAP2 SWAP1 PUSH2 0x2DD JUMP JUMPDEST SWAP1 POP DUP1 DUP3 SUB PUSH2 0xDE JUMPI CALLER PUSH1 0x0 DUP1 PUSH2 0x100 EXP DUP2 SLOAD DUP2 PUSH20 0xFFFFFFFFFFFFFFFFFFFFFFFFFFFFFFFFFFFFFFFF MUL NOT AND SWAP1 DUP4 PUSH20 0xFFFFFFFFFFFFFFFFFFFFFFFFFFFFFFFFFFFFFFFF AND MUL OR SWAP1 SSTORE POP PUSH8 0xDE0B6B3A7640000 PUSH1 0x1 DUP2 SWAP1 SSTORE POP JUMPDEST PUSH32 0xA6BA13F01E7F2135A6CFEB6BF217AE66796E848AA2C5C331B0A0E490161E112C DUP2 DUP4 PUSH1 0x1 SLOAD PUSH1 0x40 MLOAD PUSH2 0x113 SWAP4 SWAP3 SWAP2 SWAP1 PUSH2 0x320 JUMP JUMPDEST PUSH1 0x40 MLOAD DUP1 SWAP2 SUB SWAP1 LOG1 POP POP JUMP JUMPDEST PUSH1 0x0 DUP1 REVERT JUMPDEST PUSH1 0x0 DUP2 SWAP1 POP SWAP2 SWAP1 POP JUMP JUMPDEST PUSH2 0x137 DUP2 PUSH2 0x124 JUMP JUMPDEST DUP2 EQ PUSH2 0x142 JUMPI PUSH1 0x0 DUP1 REVERT JUMPDEST POP JUMP JUMPDEST PUSH1 0x0 DUP2 CALLDATALOAD SWAP1 POP PUSH2 0x154 DUP2 PUSH2 0x12E JUMP JUMPDEST SWAP3 SWAP2 POP POP JUMP JUMPDEST PUSH1 0x0 PUSH1 0x20 DUP3 DUP5 SUB SLT ISZERO PUSH2 0x170 JUMPI PUSH2 0x16F PUSH2 0x11F JUMP JUMPDEST JUMPDEST PUSH1 0x0 PUSH2 0x17E DUP5 DUP3 DUP6 ADD PUSH2 0x145 JUMP JUMPDEST SWAP2 POP POP SWAP3 SWAP2 POP POP JUMP JUMPDEST PUSH1 0x0 DUP2 SWAP1 POP SWAP2 SWAP1 POP JUMP JUMPDEST PUSH2 0x1A2 PUSH2 0x19D DUP3 PUSH2 0x124 JUMP JUMPDEST PUSH2 0x187 JUMP JUMPDEST DUP3 MSTORE POP POP JUMP JUMPDEST PUSH1 0x0 PUSH20 0xFFFFFFFFFFFFFFFFFFFFFFFFFFFFFFFFFFFFFFFF DUP3 AND SWAP1 POP SWAP2 SWAP1 POP JUMP JUMPDEST PUSH1 0x0 PUSH2 0x1D3 DUP3 PUSH2 0x1A8 JUMP JUMPDEST SWAP1 POP SWAP2 SWAP1 POP JUMP JUMPDEST PUSH1 0x0 DUP2 PUSH1 0x60 SHL SWAP1 POP SWAP2 SWAP1 POP JUMP JUMPDEST PUSH1 0x0 PUSH2 0x1F2 DUP3 PUSH2 0x1DA JUMP JUMPDEST SWAP1 POP SWAP2 SWAP1 POP JUMP JUMPDEST PUSH1 0x0 PUSH2 0x204 DUP3 PUSH2 0x1E7 JUMP JUMPDEST SWAP1 POP SWAP2 SWAP1 POP JUMP JUMPDEST PUSH2 0x21C PUSH2 0x217 DUP3 PUSH2 0x1C8 JUMP JUMPDEST PUSH2 0x1F9 JUMP JUMPDEST DUP3 MSTORE POP POP JUMP JUMPDEST PUSH1 0x0 PUSH2 0x22E DUP3 DUP6 PUSH2 0x191 JUMP JUMPDEST PUSH1 0x20 DUP3 ADD SWAP2 POP PUSH2 0x23E DUP3 DUP5 PUSH2 0x20B JUMP JUMPDEST PUSH1 0x14 DUP3 ADD SWAP2 POP DUP2 SWAP1 POP SWAP4 SWAP3 POP POP POP JUMP JUMPDEST PUSH32 0x4E487B7100000000000000000000000000000000000000000000000000000000 PUSH1 0x0 MSTORE PUSH1 0x12 PUSH1 0x4 MSTORE PUSH1 0x24 PUSH1 0x0 REVERT JUMPDEST PUSH1 0x0 PUSH2 0x288 DUP3 PUSH2 0x124 JUMP JUMPDEST SWAP2 POP PUSH2 0x293 DUP4 PUSH2 0x124 JUMP JUMPDEST SWAP3 POP DUP3 PUSH2 0x2A3 JUMPI PUSH2 0x2A2 PUSH2 0x24E JUMP JUMPDEST JUMPDEST DUP3 DUP3 MOD SWAP1 POP SWAP3 SWAP2 POP POP JUMP JUMPDEST PUSH32 0x4E487B7100000000000000000000000000000000000000000000000000000000 PUSH1 0x0 MSTORE PUSH1 0x11 PUSH1 0x4 MSTORE PUSH1 0x24 PUSH1 0x0 REVERT JUMPDEST PUSH1 0x0 PUSH2 0x2E8 DUP3 PUSH2 0x124 JUMP JUMPDEST SWAP2 POP PUSH2 0x2F3 DUP4 PUSH2 0x124 JUMP JUMPDEST SWAP3 POP DUP3 DUP3 ADD SWAP1 POP DUP1 DUP3 GT ISZERO PUSH2 0x30B JUMPI PUSH2 0x30A PUSH2 0x2AE JUMP JUMPDEST JUMPDEST SWAP3 SWAP2 POP POP JUMP JUMPDEST PUSH2 0x31A DUP2 PUSH2 0x124 JUMP JUMPDEST DUP3 MSTORE POP POP JUMP JUMPDEST PUSH1 0x0 PUSH1 0x60 DUP3 ADD SWAP1 POP PUSH2 0x335 PUSH1 0x0 DUP4 ADD DUP7 PUSH2 0x311 JUMP JUMPDEST PUSH2 0x342 PUSH1 0x20 DUP4 ADD DUP6 PUSH2 0x311 JUMP JUMPDEST PUSH2 0x34F PUSH1 0x40 DUP4 ADD DUP5 PUSH2 0x311 JUMP JUMPDEST SWAP5 SWAP4 POP POP POP POP JUMP INVALID LOG2 PUSH5 0x6970667358 0x22 SLT KECCAK256 0xB7 0xB5 0xBC CODECOPY 0xEB STATICCALL 0xB5 0xBE PUSH6 0x37E9D813BEDF DUP9 GT DUP10 0xCA PUSH10 0x46F3965D48B75E38C82D 0x5C 0x21 PUSH5 0x736F6C6343 STOP ADDMOD SLT STOP CALLER "
				},
				"gasEstimates": {
					"creation": {
						"codeDepositCost": "181800",
						"executionCost": "226",
						"totalCost": "182026"
					},
					"external": {
						"adivina(uint256)": "infinite"
					}
				},
				"methodIdentifiers": {
					"adivina(uint256)": "51c640b9"
				}
			},
			"storageLayout": {
				"storage": [
					{
						"astId": 4,
						"contract": "contracts/AdivinaNumero.sol:AdivinaNumero",
						"label": "jugador",
						"offset": 0,
						"slot": "0",
						"type": "t_address"
					},
					{
						"astId": 6,
						"contract": "contracts/AdivinaNumero.sol:AdivinaNumero",
						"label": "premio",
						"offset": 0,
						"slot": "1",
						"type": "t_uint256"
					},
					{
						"astId": 8,
						"contract": "contracts/AdivinaNumero.sol:AdivinaNumero",
						"label": "numeroAleatorio",
						"offset": 0,
						"slot": "2",
						"type": "t_uint256"
					}
				],
				"types": {
					"t_address": {
						"encoding": "inplace",
						"label": "address",
						"numberOfBytes": "20"
					},
					"t_uint256": {
						"encoding": "inplace",
						"label": "uint256",
						"numberOfBytes": "32"
					}
				}
			},
			"userdoc": {
				"kind": "user",
				"methods": {
					"adivina(uint256)": {
						"notice": "payable porque en caso de ser positiva permite cobrar"
					}
				},
				"version": 1
			}
		}
	}
}