{
	"contracts/CourseVoting.sol": {
		"CourseVoting": {
			"abi": [
				{
					"inputs": [
						{
							"internalType": "address",
							"name": "_tokenAddress",
							"type": "address"
						}
					],
					"stateMutability": "nonpayable",
					"type": "constructor"
				},
				{
					"inputs": [],
					"name": "DESDE_HOY_A_INICIO_VOTACION_DIAS",
					"outputs": [
						{
							"internalType": "uint256",
							"name": "",
							"type": "uint256"
						}
					],
					"stateMutability": "view",
					"type": "function"
				},
				{
					"inputs": [],
					"name": "DURACION_VOTACION_DIAS",
					"outputs": [
						{
							"internalType": "uint256",
							"name": "",
							"type": "uint256"
						}
					],
					"stateMutability": "view",
					"type": "function"
				},
				{
					"inputs": [
						{
							"internalType": "string",
							"name": "_title",
							"type": "string"
						},
						{
							"internalType": "string",
							"name": "_description",
							"type": "string"
						}
					],
					"name": "createProposal",
					"outputs": [],
					"stateMutability": "nonpayable",
					"type": "function"
				},
				{
					"inputs": [
						{
							"internalType": "uint256",
							"name": "_proposalId",
							"type": "uint256"
						}
					],
					"name": "getAvgSatisfaction",
					"outputs": [
						{
							"internalType": "uint256",
							"name": "integerPart",
							"type": "uint256"
						},
						{
							"internalType": "uint256",
							"name": "decimalPart",
							"type": "uint256"
						}
					],
					"stateMutability": "view",
					"type": "function"
				},
				{
					"inputs": [
						{
							"internalType": "address",
							"name": "_voter",
							"type": "address"
						},
						{
							"internalType": "uint256",
							"name": "_proposalId",
							"type": "uint256"
						}
					],
					"name": "getVote",
					"outputs": [
						{
							"internalType": "uint8",
							"name": "",
							"type": "uint8"
						},
						{
							"internalType": "uint256",
							"name": "",
							"type": "uint256"
						}
					],
					"stateMutability": "view",
					"type": "function"
				},
				{
					"inputs": [],
					"name": "proposalCount",
					"outputs": [
						{
							"internalType": "uint256",
							"name": "",
							"type": "uint256"
						}
					],
					"stateMutability": "view",
					"type": "function"
				},
				{
					"inputs": [
						{
							"internalType": "uint256",
							"name": "",
							"type": "uint256"
						}
					],
					"name": "proposals",
					"outputs": [
						{
							"internalType": "string",
							"name": "title",
							"type": "string"
						},
						{
							"internalType": "string",
							"name": "description",
							"type": "string"
						},
						{
							"internalType": "uint256",
							"name": "votes",
							"type": "uint256"
						},
						{
							"internalType": "uint256",
							"name": "totalSatisfaction",
							"type": "uint256"
						}
					],
					"stateMutability": "view",
					"type": "function"
				},
				{
					"inputs": [
						{
							"internalType": "address",
							"name": "_address",
							"type": "address"
						}
					],
					"name": "registerVoter",
					"outputs": [],
					"stateMutability": "nonpayable",
					"type": "function"
				},
				{
					"inputs": [],
					"name": "token",
					"outputs": [
						{
							"internalType": "contract ERC20",
							"name": "",
							"type": "address"
						}
					],
					"stateMutability": "view",
					"type": "function"
				},
				{
					"inputs": [
						{
							"internalType": "uint256",
							"name": "_proposalId",
							"type": "uint256"
						},
						{
							"internalType": "uint8",
							"name": "_satisfaction",
							"type": "uint8"
						}
					],
					"name": "voteProposal",
					"outputs": [],
					"stateMutability": "nonpayable",
					"type": "function"
				},
				{
					"inputs": [
						{
							"internalType": "address",
							"name": "",
							"type": "address"
						}
					],
					"name": "voters",
					"outputs": [
						{
							"internalType": "bool",
							"name": "",
							"type": "bool"
						}
					],
					"stateMutability": "view",
					"type": "function"
				},
				{
					"inputs": [],
					"name": "votesCount",
					"outputs": [
						{
							"internalType": "uint256",
							"name": "",
							"type": "uint256"
						}
					],
					"stateMutability": "view",
					"type": "function"
				},
				{
					"inputs": [],
					"name": "votingEnd",
					"outputs": [
						{
							"internalType": "uint256",
							"name": "",
							"type": "uint256"
						}
					],
					"stateMutability": "view",
					"type": "function"
				},
				{
					"inputs": [],
					"name": "votingStart",
					"outputs": [
						{
							"internalType": "uint256",
							"name": "",
							"type": "uint256"
						}
					],
					"stateMutability": "view",
					"type": "function"
				},
				{
					"inputs": [
						{
							"internalType": "uint256",
							"name": "",
							"type": "uint256"
						}
					],
					"name": "votos",
					"outputs": [
						{
							"internalType": "address",
							"name": "voter",
							"type": "address"
						},
						{
							"internalType": "uint8",
							"name": "satisfaction",
							"type": "uint8"
						},
						{
							"internalType": "uint256",
							"name": "proposalId",
							"type": "uint256"
						}
					],
					"stateMutability": "view",
					"type": "function"
				}
			],
			"devdoc": {
				"kind": "dev",
				"methods": {},
				"version": 1
			},
			"evm": {
				"assembly": "    /* \"contracts/CourseVoting.sol\":1170:7912  contract CourseVoting {... */\n  mstore(0x40, 0x80)\n    /* \"contracts/CourseVoting.sol\":3286:3540  constructor(address _tokenAddress) {... */\n  callvalue\n  dup1\n  iszero\n  tag_1\n  jumpi\n  0x00\n  dup1\n  revert\ntag_1:\n  pop\n  mload(0x40)\n  sub(codesize, bytecodeSize)\n  dup1\n  bytecodeSize\n  dup4\n  codecopy\n  dup2\n  dup2\n  add\n  0x40\n  mstore\n  dup2\n  add\n  swap1\n  tag_2\n  swap2\n  swap1\n  tag_3\n  jump\t// in\ntag_2:\n    /* \"contracts/CourseVoting.sol\":3346:3359  _tokenAddress */\n  dup1\n    /* \"contracts/CourseVoting.sol\":3332:3337  token */\n  0x00\n  dup1\n    /* \"contracts/CourseVoting.sol\":3332:3360  token = ERC20(_tokenAddress) */\n  0x0100\n  exp\n  dup2\n  sload\n  dup2\n  0xffffffffffffffffffffffffffffffffffffffff\n  mul\n  not\n  and\n  swap1\n  dup4\n  0xffffffffffffffffffffffffffffffffffffffff\n  and\n  mul\n  or\n  swap1\n  sstore\n  pop\n    /* \"contracts/CourseVoting.sol\":1814:1820  0 days */\n  0x00\n    /* \"contracts/CourseVoting.sol\":3385:3400  block.timestamp */\n  timestamp\n    /* \"contracts/CourseVoting.sol\":3385:3435  block.timestamp + DESDE_HOY_A_INICIO_VOTACION_DIAS */\n  tag_6\n  swap2\n  swap1\n  tag_7\n  jump\t// in\ntag_6:\n    /* \"contracts/CourseVoting.sol\":3371:3382  votingStart */\n  0x01\n    /* \"contracts/CourseVoting.sol\":3371:3435  votingStart = block.timestamp + DESDE_HOY_A_INICIO_VOTACION_DIAS */\n  dup2\n  swap1\n  sstore\n  pop\n    /* \"contracts/CourseVoting.sol\":1627:1633  5 days */\n  0x069780\n    /* \"contracts/CourseVoting.sol\":3496:3507  votingStart */\n  sload(0x01)\n    /* \"contracts/CourseVoting.sol\":3496:3532  votingStart + DURACION_VOTACION_DIAS */\n  tag_8\n  swap2\n  swap1\n  tag_7\n  jump\t// in\ntag_8:\n    /* \"contracts/CourseVoting.sol\":3484:3493  votingEnd */\n  0x02\n    /* \"contracts/CourseVoting.sol\":3484:3532  votingEnd = votingStart + DURACION_VOTACION_DIAS */\n  dup2\n  swap1\n  sstore\n  pop\n    /* \"contracts/CourseVoting.sol\":3286:3540  constructor(address _tokenAddress) {... */\n  pop\n    /* \"contracts/CourseVoting.sol\":1170:7912  contract CourseVoting {... */\n  jump(tag_9)\n    /* \"#utility.yul\":88:205   */\ntag_11:\n    /* \"#utility.yul\":197:198   */\n  0x00\n    /* \"#utility.yul\":194:195   */\n  dup1\n    /* \"#utility.yul\":187:199   */\n  revert\n    /* \"#utility.yul\":334:460   */\ntag_13:\n    /* \"#utility.yul\":371:378   */\n  0x00\n    /* \"#utility.yul\":411:453   */\n  0xffffffffffffffffffffffffffffffffffffffff\n    /* \"#utility.yul\":404:409   */\n  dup3\n    /* \"#utility.yul\":400:454   */\n  and\n    /* \"#utility.yul\":389:454   */\n  swap1\n  pop\n    /* \"#utility.yul\":334:460   */\n  swap2\n  swap1\n  pop\n  jump\t// out\n    /* \"#utility.yul\":466:562   */\ntag_14:\n    /* \"#utility.yul\":503:510   */\n  0x00\n    /* \"#utility.yul\":532:556   */\n  tag_25\n    /* \"#utility.yul\":550:555   */\n  dup3\n    /* \"#utility.yul\":532:556   */\n  tag_13\n  jump\t// in\ntag_25:\n    /* \"#utility.yul\":521:556   */\n  swap1\n  pop\n    /* \"#utility.yul\":466:562   */\n  swap2\n  swap1\n  pop\n  jump\t// out\n    /* \"#utility.yul\":568:690   */\ntag_15:\n    /* \"#utility.yul\":641:665   */\n  tag_27\n    /* \"#utility.yul\":659:664   */\n  dup2\n    /* \"#utility.yul\":641:665   */\n  tag_14\n  jump\t// in\ntag_27:\n    /* \"#utility.yul\":634:639   */\n  dup2\n    /* \"#utility.yul\":631:666   */\n  eq\n    /* \"#utility.yul\":621:684   */\n  tag_28\n  jumpi\n    /* \"#utility.yul\":680:681   */\n  0x00\n    /* \"#utility.yul\":677:678   */\n  dup1\n    /* \"#utility.yul\":670:682   */\n  revert\n    /* \"#utility.yul\":621:684   */\ntag_28:\n    /* \"#utility.yul\":568:690   */\n  pop\n  jump\t// out\n    /* \"#utility.yul\":696:839   */\ntag_16:\n    /* \"#utility.yul\":753:758   */\n  0x00\n    /* \"#utility.yul\":784:790   */\n  dup2\n    /* \"#utility.yul\":778:791   */\n  mload\n    /* \"#utility.yul\":769:791   */\n  swap1\n  pop\n    /* \"#utility.yul\":800:833   */\n  tag_30\n    /* \"#utility.yul\":827:832   */\n  dup2\n    /* \"#utility.yul\":800:833   */\n  tag_15\n  jump\t// in\ntag_30:\n    /* \"#utility.yul\":696:839   */\n  swap3\n  swap2\n  pop\n  pop\n  jump\t// out\n    /* \"#utility.yul\":845:1196   */\ntag_3:\n    /* \"#utility.yul\":915:921   */\n  0x00\n    /* \"#utility.yul\":964:966   */\n  0x20\n    /* \"#utility.yul\":952:961   */\n  dup3\n    /* \"#utility.yul\":943:950   */\n  dup5\n    /* \"#utility.yul\":939:962   */\n  sub\n    /* \"#utility.yul\":935:967   */\n  slt\n    /* \"#utility.yul\":932:1051   */\n  iszero\n  tag_32\n  jumpi\n    /* \"#utility.yul\":970:1049   */\n  tag_33\n  tag_11\n  jump\t// in\ntag_33:\n    /* \"#utility.yul\":932:1051   */\ntag_32:\n    /* \"#utility.yul\":1090:1091   */\n  0x00\n    /* \"#utility.yul\":1115:1179   */\n  tag_34\n    /* \"#utility.yul\":1171:1178   */\n  dup5\n    /* \"#utility.yul\":1162:1168   */\n  dup3\n    /* \"#utility.yul\":1151:1160   */\n  dup6\n    /* \"#utility.yul\":1147:1169   */\n  add\n    /* \"#utility.yul\":1115:1179   */\n  tag_16\n  jump\t// in\ntag_34:\n    /* \"#utility.yul\":1105:1179   */\n  swap2\n  pop\n    /* \"#utility.yul\":1061:1189   */\n  pop\n    /* \"#utility.yul\":845:1196   */\n  swap3\n  swap2\n  pop\n  pop\n  jump\t// out\n    /* \"#utility.yul\":1202:1279   */\ntag_17:\n    /* \"#utility.yul\":1239:1246   */\n  0x00\n    /* \"#utility.yul\":1268:1273   */\n  dup2\n    /* \"#utility.yul\":1257:1273   */\n  swap1\n  pop\n    /* \"#utility.yul\":1202:1279   */\n  swap2\n  swap1\n  pop\n  jump\t// out\n    /* \"#utility.yul\":1285:1465   */\ntag_18:\n    /* \"#utility.yul\":1333:1410   */\n  0x4e487b7100000000000000000000000000000000000000000000000000000000\n    /* \"#utility.yul\":1330:1331   */\n  0x00\n    /* \"#utility.yul\":1323:1411   */\n  mstore\n    /* \"#utility.yul\":1430:1434   */\n  0x11\n    /* \"#utility.yul\":1427:1428   */\n  0x04\n    /* \"#utility.yul\":1420:1435   */\n  mstore\n    /* \"#utility.yul\":1454:1458   */\n  0x24\n    /* \"#utility.yul\":1451:1452   */\n  0x00\n    /* \"#utility.yul\":1444:1459   */\n  revert\n    /* \"#utility.yul\":1471:1662   */\ntag_7:\n    /* \"#utility.yul\":1511:1514   */\n  0x00\n    /* \"#utility.yul\":1530:1550   */\n  tag_38\n    /* \"#utility.yul\":1548:1549   */\n  dup3\n    /* \"#utility.yul\":1530:1550   */\n  tag_17\n  jump\t// in\ntag_38:\n    /* \"#utility.yul\":1525:1550   */\n  swap2\n  pop\n    /* \"#utility.yul\":1564:1584   */\n  tag_39\n    /* \"#utility.yul\":1582:1583   */\n  dup4\n    /* \"#utility.yul\":1564:1584   */\n  tag_17\n  jump\t// in\ntag_39:\n    /* \"#utility.yul\":1559:1584   */\n  swap3\n  pop\n    /* \"#utility.yul\":1607:1608   */\n  dup3\n    /* \"#utility.yul\":1604:1605   */\n  dup3\n    /* \"#utility.yul\":1600:1609   */\n  add\n    /* \"#utility.yul\":1593:1609   */\n  swap1\n  pop\n    /* \"#utility.yul\":1628:1631   */\n  dup1\n    /* \"#utility.yul\":1625:1626   */\n  dup3\n    /* \"#utility.yul\":1622:1632   */\n  gt\n    /* \"#utility.yul\":1619:1655   */\n  iszero\n  tag_40\n  jumpi\n    /* \"#utility.yul\":1635:1653   */\n  tag_41\n  tag_18\n  jump\t// in\ntag_41:\n    /* \"#utility.yul\":1619:1655   */\ntag_40:\n    /* \"#utility.yul\":1471:1662   */\n  swap3\n  swap2\n  pop\n  pop\n  jump\t// out\n    /* \"contracts/CourseVoting.sol\":1170:7912  contract CourseVoting {... */\ntag_9:\n  dataSize(sub_0)\n  dup1\n  dataOffset(sub_0)\n  0x00\n  codecopy\n  0x00\n  return\nstop\n\nsub_0: assembly {\n        /* \"contracts/CourseVoting.sol\":1170:7912  contract CourseVoting {... */\n      mstore(0x40, 0x80)\n      callvalue\n      dup1\n      iszero\n      tag_1\n      jumpi\n      0x00\n      dup1\n      revert\n    tag_1:\n      pop\n      jumpi(tag_2, lt(calldatasize, 0x04))\n      shr(0xe0, calldataload(0x00))\n      dup1\n      0x85a38635\n      gt\n      tag_18\n      jumpi\n      dup1\n      0xcb370ddd\n      gt\n      tag_19\n      jumpi\n      dup1\n      0xcb370ddd\n      eq\n      tag_14\n      jumpi\n      dup1\n      0xda35c664\n      eq\n      tag_15\n      jumpi\n      dup1\n      0xec20ca72\n      eq\n      tag_16\n      jumpi\n      dup1\n      0xfc0c546a\n      eq\n      tag_17\n      jumpi\n      jump(tag_2)\n    tag_19:\n      dup1\n      0x85a38635\n      eq\n      tag_10\n      jumpi\n      dup1\n      0x8778b27d\n      eq\n      tag_11\n      jumpi\n      dup1\n      0xa3ec138d\n      eq\n      tag_12\n      jumpi\n      dup1\n      0xb2731f0e\n      eq\n      tag_13\n      jumpi\n      jump(tag_2)\n    tag_18:\n      dup1\n      0x3c1d4bbb\n      gt\n      tag_20\n      jumpi\n      dup1\n      0x3c1d4bbb\n      eq\n      tag_6\n      jumpi\n      dup1\n      0x3dca3d34\n      eq\n      tag_7\n      jumpi\n      dup1\n      0x65e481e2\n      eq\n      tag_8\n      jumpi\n      dup1\n      0x6b0dd90f\n      eq\n      tag_9\n      jumpi\n      jump(tag_2)\n    tag_20:\n      dup1\n      0x013cf08b\n      eq\n      tag_3\n      jumpi\n      dup1\n      0x101158af\n      eq\n      tag_4\n      jumpi\n      dup1\n      0x38db6dd3\n      eq\n      tag_5\n      jumpi\n    tag_2:\n      0x00\n      dup1\n      revert\n        /* \"contracts/CourseVoting.sol\":2657:2702  mapping(uint256 => Proposal) public proposals */\n    tag_3:\n      tag_21\n      0x04\n      dup1\n      calldatasize\n      sub\n      dup2\n      add\n      swap1\n      tag_22\n      swap2\n      swap1\n      tag_23\n      jump\t// in\n    tag_22:\n      tag_24\n      jump\t// in\n    tag_21:\n      mload(0x40)\n      tag_25\n      swap5\n      swap4\n      swap3\n      swap2\n      swap1\n      tag_26\n      jump\t// in\n    tag_25:\n      mload(0x40)\n      dup1\n      swap2\n      sub\n      swap1\n      return\n        /* \"contracts/CourseVoting.sol\":1312:1338  uint256 public votingStart */\n    tag_4:\n      tag_27\n      tag_28\n      jump\t// in\n    tag_27:\n      mload(0x40)\n      tag_29\n      swap2\n      swap1\n      tag_30\n      jump\t// in\n    tag_29:\n      mload(0x40)\n      dup1\n      swap2\n      sub\n      swap1\n      return\n        /* \"contracts/CourseVoting.sol\":4567:4765  function registerVoter(address _address) public {... */\n    tag_5:\n      tag_31\n      0x04\n      dup1\n      calldatasize\n      sub\n      dup2\n      add\n      swap1\n      tag_32\n      swap2\n      swap1\n      tag_33\n      jump\t// in\n    tag_32:\n      tag_34\n      jump\t// in\n    tag_31:\n      stop\n        /* \"contracts/CourseVoting.sol\":1578:1633  uint256 public constant DURACION_VOTACION_DIAS = 5 days */\n    tag_6:\n      tag_35\n      tag_36\n      jump\t// in\n    tag_35:\n      mload(0x40)\n      tag_37\n      swap2\n      swap1\n      tag_30\n      jump\t// in\n    tag_37:\n      mload(0x40)\n      dup1\n      swap2\n      sub\n      swap1\n      return\n        /* \"contracts/CourseVoting.sol\":5069:6103  function voteProposal(uint256 _proposalId, uint8 _satisfaction) public {... */\n    tag_7:\n      tag_38\n      0x04\n      dup1\n      calldatasize\n      sub\n      dup2\n      add\n      swap1\n      tag_39\n      swap2\n      swap1\n      tag_40\n      jump\t// in\n    tag_39:\n      tag_41\n      jump\t// in\n    tag_38:\n      stop\n        /* \"contracts/CourseVoting.sol\":3784:4337  function createProposal(... */\n    tag_8:\n      tag_42\n      0x04\n      dup1\n      calldatasize\n      sub\n      dup2\n      add\n      swap1\n      tag_43\n      swap2\n      swap1\n      tag_44\n      jump\t// in\n    tag_43:\n      tag_45\n      jump\t// in\n    tag_42:\n      stop\n        /* \"contracts/CourseVoting.sol\":6642:7229  function getVote(address _voter, uint256 _proposalId) public view returns (uint8, uint256) {... */\n    tag_9:\n      tag_46\n      0x04\n      dup1\n      calldatasize\n      sub\n      dup2\n      add\n      swap1\n      tag_47\n      swap2\n      swap1\n      tag_48\n      jump\t// in\n    tag_47:\n      tag_49\n      jump\t// in\n    tag_46:\n      mload(0x40)\n      tag_50\n      swap3\n      swap2\n      swap1\n      tag_51\n      jump\t// in\n    tag_50:\n      mload(0x40)\n      dup1\n      swap2\n      sub\n      swap1\n      return\n        /* \"contracts/CourseVoting.sol\":1373:1397  uint256 public votingEnd */\n    tag_10:\n      tag_52\n      tag_53\n      jump\t// in\n    tag_52:\n      mload(0x40)\n      tag_54\n      swap2\n      swap1\n      tag_30\n      jump\t// in\n    tag_54:\n      mload(0x40)\n      dup1\n      swap2\n      sub\n      swap1\n      return\n        /* \"contracts/CourseVoting.sol\":1489:1514  uint256 public votesCount */\n    tag_11:\n      tag_55\n      tag_56\n      jump\t// in\n    tag_55:\n      mload(0x40)\n      tag_57\n      swap2\n      swap1\n      tag_30\n      jump\t// in\n    tag_57:\n      mload(0x40)\n      dup1\n      swap2\n      sub\n      swap1\n      return\n        /* \"contracts/CourseVoting.sol\":3021:3059  mapping(address => bool) public voters */\n    tag_12:\n      tag_58\n      0x04\n      dup1\n      calldatasize\n      sub\n      dup2\n      add\n      swap1\n      tag_59\n      swap2\n      swap1\n      tag_33\n      jump\t// in\n    tag_59:\n      tag_60\n      jump\t// in\n    tag_58:\n      mload(0x40)\n      tag_61\n      swap2\n      swap1\n      tag_62\n      jump\t// in\n    tag_61:\n      mload(0x40)\n      dup1\n      swap2\n      sub\n      swap1\n      return\n        /* \"contracts/CourseVoting.sol\":2826:2863  mapping(uint256 => Voto) public votos */\n    tag_13:\n      tag_63\n      0x04\n      dup1\n      calldatasize\n      sub\n      dup2\n      add\n      swap1\n      tag_64\n      swap2\n      swap1\n      tag_23\n      jump\t// in\n    tag_64:\n      tag_65\n      jump\t// in\n    tag_63:\n      mload(0x40)\n      tag_66\n      swap4\n      swap3\n      swap2\n      swap1\n      tag_67\n      jump\t// in\n    tag_66:\n      mload(0x40)\n      dup1\n      swap2\n      sub\n      swap1\n      return\n        /* \"contracts/CourseVoting.sol\":7380:7909  function getAvgSatisfaction(... */\n    tag_14:\n      tag_68\n      0x04\n      dup1\n      calldatasize\n      sub\n      dup2\n      add\n      swap1\n      tag_69\n      swap2\n      swap1\n      tag_23\n      jump\t// in\n    tag_69:\n      tag_70\n      jump\t// in\n    tag_68:\n      mload(0x40)\n      tag_71\n      swap3\n      swap2\n      swap1\n      tag_72\n      jump\t// in\n    tag_71:\n      mload(0x40)\n      dup1\n      swap2\n      sub\n      swap1\n      return\n        /* \"contracts/CourseVoting.sol\":1429:1457  uint256 public proposalCount */\n    tag_15:\n      tag_73\n      tag_74\n      jump\t// in\n    tag_73:\n      mload(0x40)\n      tag_75\n      swap2\n      swap1\n      tag_30\n      jump\t// in\n    tag_75:\n      mload(0x40)\n      dup1\n      swap2\n      sub\n      swap1\n      return\n        /* \"contracts/CourseVoting.sol\":1755:1820  uint256 public constant DESDE_HOY_A_INICIO_VOTACION_DIAS = 0 days */\n    tag_16:\n      tag_76\n      tag_77\n      jump\t// in\n    tag_76:\n      mload(0x40)\n      tag_78\n      swap2\n      swap1\n      tag_30\n      jump\t// in\n    tag_78:\n      mload(0x40)\n      dup1\n      swap2\n      sub\n      swap1\n      return\n        /* \"contracts/CourseVoting.sol\":1252:1270  ERC20 public token */\n    tag_17:\n      tag_79\n      tag_80\n      jump\t// in\n    tag_79:\n      mload(0x40)\n      tag_81\n      swap2\n      swap1\n      tag_82\n      jump\t// in\n    tag_81:\n      mload(0x40)\n      dup1\n      swap2\n      sub\n      swap1\n      return\n        /* \"contracts/CourseVoting.sol\":2657:2702  mapping(uint256 => Proposal) public proposals */\n    tag_24:\n      mstore(0x20, 0x05)\n      dup1\n      0x00\n      mstore\n      keccak256(0x00, 0x40)\n      0x00\n      swap2\n      pop\n      swap1\n      pop\n      dup1\n      0x00\n      add\n      dup1\n      sload\n      tag_83\n      swap1\n      tag_84\n      jump\t// in\n    tag_83:\n      dup1\n      0x1f\n      add\n      0x20\n      dup1\n      swap2\n      div\n      mul\n      0x20\n      add\n      mload(0x40)\n      swap1\n      dup2\n      add\n      0x40\n      mstore\n      dup1\n      swap3\n      swap2\n      swap1\n      dup2\n      dup2\n      mstore\n      0x20\n      add\n      dup3\n      dup1\n      sload\n      tag_85\n      swap1\n      tag_84\n      jump\t// in\n    tag_85:\n      dup1\n      iszero\n      tag_86\n      jumpi\n      dup1\n      0x1f\n      lt\n      tag_87\n      jumpi\n      0x0100\n      dup1\n      dup4\n      sload\n      div\n      mul\n      dup4\n      mstore\n      swap2\n      0x20\n      add\n      swap2\n      jump(tag_86)\n    tag_87:\n      dup3\n      add\n      swap2\n      swap1\n      0x00\n      mstore\n      keccak256(0x00, 0x20)\n      swap1\n    tag_88:\n      dup2\n      sload\n      dup2\n      mstore\n      swap1\n      0x01\n      add\n      swap1\n      0x20\n      add\n      dup1\n      dup4\n      gt\n      tag_88\n      jumpi\n      dup3\n      swap1\n      sub\n      0x1f\n      and\n      dup3\n      add\n      swap2\n    tag_86:\n      pop\n      pop\n      pop\n      pop\n      pop\n      swap1\n      dup1\n      0x01\n      add\n      dup1\n      sload\n      tag_89\n      swap1\n      tag_84\n      jump\t// in\n    tag_89:\n      dup1\n      0x1f\n      add\n      0x20\n      dup1\n      swap2\n      div\n      mul\n      0x20\n      add\n      mload(0x40)\n      swap1\n      dup2\n      add\n      0x40\n      mstore\n      dup1\n      swap3\n      swap2\n      swap1\n      dup2\n      dup2\n      mstore\n      0x20\n      add\n      dup3\n      dup1\n      sload\n      tag_90\n      swap1\n      tag_84\n      jump\t// in\n    tag_90:\n      dup1\n      iszero\n      tag_91\n      jumpi\n      dup1\n      0x1f\n      lt\n      tag_92\n      jumpi\n      0x0100\n      dup1\n      dup4\n      sload\n      div\n      mul\n      dup4\n      mstore\n      swap2\n      0x20\n      add\n      swap2\n      jump(tag_91)\n    tag_92:\n      dup3\n      add\n      swap2\n      swap1\n      0x00\n      mstore\n      keccak256(0x00, 0x20)\n      swap1\n    tag_93:\n      dup2\n      sload\n      dup2\n      mstore\n      swap1\n      0x01\n      add\n      swap1\n      0x20\n      add\n      dup1\n      dup4\n      gt\n      tag_93\n      jumpi\n      dup3\n      swap1\n      sub\n      0x1f\n      and\n      dup3\n      add\n      swap2\n    tag_91:\n      pop\n      pop\n      pop\n      pop\n      pop\n      swap1\n      dup1\n      0x02\n      add\n      sload\n      swap1\n      dup1\n      0x03\n      add\n      sload\n      swap1\n      pop\n      dup5\n      jump\t// out\n        /* \"contracts/CourseVoting.sol\":1312:1338  uint256 public votingStart */\n    tag_28:\n      sload(0x01)\n      dup2\n      jump\t// out\n        /* \"contracts/CourseVoting.sol\":4567:4765  function registerVoter(address _address) public {... */\n    tag_34:\n        /* \"contracts/CourseVoting.sol\":4753:4757  true */\n      0x01\n        /* \"contracts/CourseVoting.sol\":4734:4740  voters */\n      0x07\n        /* \"contracts/CourseVoting.sol\":4734:4750  voters[_address] */\n      0x00\n        /* \"contracts/CourseVoting.sol\":4741:4749  _address */\n      dup4\n        /* \"contracts/CourseVoting.sol\":4734:4750  voters[_address] */\n      0xffffffffffffffffffffffffffffffffffffffff\n      and\n      0xffffffffffffffffffffffffffffffffffffffff\n      and\n      dup2\n      mstore\n      0x20\n      add\n      swap1\n      dup2\n      mstore\n      0x20\n      add\n      0x00\n      keccak256\n      0x00\n        /* \"contracts/CourseVoting.sol\":4734:4757  voters[_address] = true */\n      0x0100\n      exp\n      dup2\n      sload\n      dup2\n      0xff\n      mul\n      not\n      and\n      swap1\n      dup4\n      iszero\n      iszero\n      mul\n      or\n      swap1\n      sstore\n      pop\n        /* \"contracts/CourseVoting.sol\":4567:4765  function registerVoter(address _address) public {... */\n      pop\n      jump\t// out\n        /* \"contracts/CourseVoting.sol\":1578:1633  uint256 public constant DURACION_VOTACION_DIAS = 5 days */\n    tag_36:\n        /* \"contracts/CourseVoting.sol\":1627:1633  5 days */\n      0x069780\n        /* \"contracts/CourseVoting.sol\":1578:1633  uint256 public constant DURACION_VOTACION_DIAS = 5 days */\n      dup2\n      jump\t// out\n        /* \"contracts/CourseVoting.sol\":5069:6103  function voteProposal(uint256 _proposalId, uint8 _satisfaction) public {... */\n    tag_41:\n        /* \"contracts/CourseVoting.sol\":5178:5187  votingEnd */\n      sload(0x02)\n        /* \"contracts/CourseVoting.sol\":5159:5174  block.timestamp */\n      timestamp\n        /* \"contracts/CourseVoting.sol\":5159:5187  block.timestamp <= votingEnd */\n      gt\n      iszero\n        /* \"contracts/CourseVoting.sol\":5151:5212  require(block.timestamp <= votingEnd, \"Encuesta ya finalizo\") */\n      tag_96\n      jumpi\n      mload(0x40)\n      0x08c379a000000000000000000000000000000000000000000000000000000000\n      dup2\n      mstore\n      0x04\n      add\n      tag_97\n      swap1\n      tag_98\n      jump\t// in\n    tag_97:\n      mload(0x40)\n      dup1\n      swap2\n      sub\n      swap1\n      revert\n    tag_96:\n        /* \"contracts/CourseVoting.sol\":5231:5237  voters */\n      0x07\n        /* \"contracts/CourseVoting.sol\":5231:5249  voters[msg.sender] */\n      0x00\n        /* \"contracts/CourseVoting.sol\":5238:5248  msg.sender */\n      caller\n        /* \"contracts/CourseVoting.sol\":5231:5249  voters[msg.sender] */\n      0xffffffffffffffffffffffffffffffffffffffff\n      and\n      0xffffffffffffffffffffffffffffffffffffffff\n      and\n      dup2\n      mstore\n      0x20\n      add\n      swap1\n      dup2\n      mstore\n      0x20\n      add\n      0x00\n      keccak256\n      0x00\n      swap1\n      sload\n      swap1\n      0x0100\n      exp\n      swap1\n      div\n      0xff\n      and\n        /* \"contracts/CourseVoting.sol\":5223:5286  require(voters[msg.sender], \"No estas registrado como votante\") */\n      tag_99\n      jumpi\n      mload(0x40)\n      0x08c379a000000000000000000000000000000000000000000000000000000000\n      dup2\n      mstore\n      0x04\n      add\n      tag_100\n      swap1\n      tag_101\n      jump\t// in\n    tag_100:\n      mload(0x40)\n      dup1\n      swap2\n      sub\n      swap1\n      revert\n    tag_99:\n        /* \"contracts/CourseVoting.sol\":5322:5323  1 */\n      0x01\n        /* \"contracts/CourseVoting.sol\":5305:5318  _satisfaction */\n      dup2\n        /* \"contracts/CourseVoting.sol\":5305:5323  _satisfaction >= 1 */\n      0xff\n      and\n      lt\n      iszero\n        /* \"contracts/CourseVoting.sol\":5305:5345  _satisfaction >= 1 && _satisfaction <= 5 */\n      dup1\n      iszero\n      tag_102\n      jumpi\n      pop\n        /* \"contracts/CourseVoting.sol\":5344:5345  5 */\n      0x05\n        /* \"contracts/CourseVoting.sol\":5327:5340  _satisfaction */\n      dup2\n        /* \"contracts/CourseVoting.sol\":5327:5345  _satisfaction <= 5 */\n      0xff\n      and\n      gt\n      iszero\n        /* \"contracts/CourseVoting.sol\":5305:5345  _satisfaction >= 1 && _satisfaction <= 5 */\n    tag_102:\n        /* \"contracts/CourseVoting.sol\":5297:5388  require(_satisfaction >= 1 && _satisfaction <= 5, \"La satisfaccion debe estar entre 1 y 5\") */\n      tag_103\n      jumpi\n      mload(0x40)\n      0x08c379a000000000000000000000000000000000000000000000000000000000\n      dup2\n      mstore\n      0x04\n      add\n      tag_104\n      swap1\n      tag_105\n      jump\t// in\n    tag_104:\n      mload(0x40)\n      dup1\n      swap2\n      sub\n      swap1\n      revert\n    tag_103:\n        /* \"contracts/CourseVoting.sol\":5408:5446  votoExistente(msg.sender, _proposalId) */\n      tag_106\n        /* \"contracts/CourseVoting.sol\":5422:5432  msg.sender */\n      caller\n        /* \"contracts/CourseVoting.sol\":5434:5445  _proposalId */\n      dup4\n        /* \"contracts/CourseVoting.sol\":5408:5421  votoExistente */\n      tag_107\n        /* \"contracts/CourseVoting.sol\":5408:5446  votoExistente(msg.sender, _proposalId) */\n      jump\t// in\n    tag_106:\n        /* \"contracts/CourseVoting.sol\":5407:5446  !votoExistente(msg.sender, _proposalId) */\n      iszero\n        /* \"contracts/CourseVoting.sol\":5399:5484  require(!votoExistente(msg.sender, _proposalId), \"Ya has votado para esta propuesta\") */\n      tag_108\n      jumpi\n      mload(0x40)\n      0x08c379a000000000000000000000000000000000000000000000000000000000\n      dup2\n      mstore\n      0x04\n      add\n      tag_109\n      swap1\n      tag_110\n      jump\t// in\n    tag_109:\n      mload(0x40)\n      dup1\n      swap2\n      sub\n      swap1\n      revert\n    tag_108:\n        /* \"contracts/CourseVoting.sol\":5600:5601  1 */\n      0x01\n        /* \"contracts/CourseVoting.sol\":5569:5578  proposals */\n      0x05\n        /* \"contracts/CourseVoting.sol\":5569:5591  proposals[_proposalId] */\n      0x00\n        /* \"contracts/CourseVoting.sol\":5579:5590  _proposalId */\n      dup5\n        /* \"contracts/CourseVoting.sol\":5569:5591  proposals[_proposalId] */\n      dup2\n      mstore\n      0x20\n      add\n      swap1\n      dup2\n      mstore\n      0x20\n      add\n      0x00\n      keccak256\n        /* \"contracts/CourseVoting.sol\":5569:5597  proposals[_proposalId].votes */\n      0x02\n      add\n      sload\n        /* \"contracts/CourseVoting.sol\":5569:5601  proposals[_proposalId].votes + 1 */\n      tag_111\n      swap2\n      swap1\n      tag_112\n      jump\t// in\n    tag_111:\n        /* \"contracts/CourseVoting.sol\":5538:5547  proposals */\n      0x05\n        /* \"contracts/CourseVoting.sol\":5538:5560  proposals[_proposalId] */\n      0x00\n        /* \"contracts/CourseVoting.sol\":5548:5559  _proposalId */\n      dup5\n        /* \"contracts/CourseVoting.sol\":5538:5560  proposals[_proposalId] */\n      dup2\n      mstore\n      0x20\n      add\n      swap1\n      dup2\n      mstore\n      0x20\n      add\n      0x00\n      keccak256\n        /* \"contracts/CourseVoting.sol\":5538:5566  proposals[_proposalId].votes */\n      0x02\n      add\n        /* \"contracts/CourseVoting.sol\":5538:5601  proposals[_proposalId].votes = proposals[_proposalId].votes + 1 */\n      dup2\n      swap1\n      sstore\n      pop\n        /* \"contracts/CourseVoting.sol\":5698:5711  _satisfaction */\n      dup1\n        /* \"contracts/CourseVoting.sol\":5655:5711  proposals[_proposalId].totalSatisfaction + _satisfaction */\n      0xff\n      and\n        /* \"contracts/CourseVoting.sol\":5655:5664  proposals */\n      0x05\n        /* \"contracts/CourseVoting.sol\":5655:5677  proposals[_proposalId] */\n      0x00\n        /* \"contracts/CourseVoting.sol\":5665:5676  _proposalId */\n      dup5\n        /* \"contracts/CourseVoting.sol\":5655:5677  proposals[_proposalId] */\n      dup2\n      mstore\n      0x20\n      add\n      swap1\n      dup2\n      mstore\n      0x20\n      add\n      0x00\n      keccak256\n        /* \"contracts/CourseVoting.sol\":5655:5695  proposals[_proposalId].totalSatisfaction */\n      0x03\n      add\n      sload\n        /* \"contracts/CourseVoting.sol\":5655:5711  proposals[_proposalId].totalSatisfaction + _satisfaction */\n      tag_113\n      swap2\n      swap1\n      tag_112\n      jump\t// in\n    tag_113:\n        /* \"contracts/CourseVoting.sol\":5612:5621  proposals */\n      0x05\n        /* \"contracts/CourseVoting.sol\":5612:5634  proposals[_proposalId] */\n      0x00\n        /* \"contracts/CourseVoting.sol\":5622:5633  _proposalId */\n      dup5\n        /* \"contracts/CourseVoting.sol\":5612:5634  proposals[_proposalId] */\n      dup2\n      mstore\n      0x20\n      add\n      swap1\n      dup2\n      mstore\n      0x20\n      add\n      0x00\n      keccak256\n        /* \"contracts/CourseVoting.sol\":5612:5652  proposals[_proposalId].totalSatisfaction */\n      0x03\n      add\n        /* \"contracts/CourseVoting.sol\":5612:5711  proposals[_proposalId].totalSatisfaction = proposals[_proposalId].totalSatisfaction + _satisfaction */\n      dup2\n      swap1\n      sstore\n      pop\n        /* \"contracts/CourseVoting.sol\":5724:5738  uint256 voteId */\n      0x00\n        /* \"contracts/CourseVoting.sol\":5754:5755  1 */\n      0x01\n        /* \"contracts/CourseVoting.sol\":5741:5751  votesCount */\n      sload(0x04)\n        /* \"contracts/CourseVoting.sol\":5741:5755  votesCount + 1 */\n      tag_114\n      swap2\n      swap1\n      tag_112\n      jump\t// in\n    tag_114:\n        /* \"contracts/CourseVoting.sol\":5724:5755  uint256 voteId = votesCount + 1 */\n      swap1\n      pop\n        /* \"contracts/CourseVoting.sol\":5766:5776  votesCount */\n      0x04\n      0x00\n        /* \"contracts/CourseVoting.sol\":5766:5778  votesCount++ */\n      dup2\n      sload\n      dup1\n      swap3\n      swap2\n      swap1\n      tag_115\n      swap1\n      tag_116\n      jump\t// in\n    tag_115:\n      swap2\n      swap1\n      pop\n      sstore\n      pop\n        /* \"contracts/CourseVoting.sol\":5861:5878  votosPorDireccion */\n      0x08\n        /* \"contracts/CourseVoting.sol\":5861:5890  votosPorDireccion[msg.sender] */\n      0x00\n        /* \"contracts/CourseVoting.sol\":5879:5889  msg.sender */\n      caller\n        /* \"contracts/CourseVoting.sol\":5861:5890  votosPorDireccion[msg.sender] */\n      0xffffffffffffffffffffffffffffffffffffffff\n      and\n      0xffffffffffffffffffffffffffffffffffffffff\n      and\n      dup2\n      mstore\n      0x20\n      add\n      swap1\n      dup2\n      mstore\n      0x20\n      add\n      0x00\n      keccak256\n        /* \"contracts/CourseVoting.sol\":5896:5902  voteId */\n      dup2\n        /* \"contracts/CourseVoting.sol\":5861:5903  votosPorDireccion[msg.sender].push(voteId) */\n      swap1\n      dup1\n      0x01\n      dup2\n      sload\n      add\n      dup1\n      dup3\n      sstore\n      dup1\n      swap2\n      pop\n      pop\n      0x01\n      swap1\n      sub\n      swap1\n      0x00\n      mstore\n      keccak256(0x00, 0x20)\n      add\n      0x00\n      swap1\n      swap2\n      swap1\n      swap2\n      swap1\n      swap2\n      pop\n      sstore\n        /* \"contracts/CourseVoting.sol\":5962:6093  Voto({... */\n      mload(0x40)\n      dup1\n      0x60\n      add\n      0x40\n      mstore\n      dup1\n        /* \"contracts/CourseVoting.sol\":5989:5999  msg.sender */\n      caller\n        /* \"contracts/CourseVoting.sol\":5962:6093  Voto({... */\n      0xffffffffffffffffffffffffffffffffffffffff\n      and\n      dup2\n      mstore\n      0x20\n      add\n        /* \"contracts/CourseVoting.sol\":6029:6042  _satisfaction */\n      dup4\n        /* \"contracts/CourseVoting.sol\":5962:6093  Voto({... */\n      0xff\n      and\n      dup2\n      mstore\n      0x20\n      add\n        /* \"contracts/CourseVoting.sol\":6070:6081  _proposalId */\n      dup5\n        /* \"contracts/CourseVoting.sol\":5962:6093  Voto({... */\n      dup2\n      mstore\n      pop\n        /* \"contracts/CourseVoting.sol\":5946:5951  votos */\n      0x06\n        /* \"contracts/CourseVoting.sol\":5946:5959  votos[voteId] */\n      0x00\n        /* \"contracts/CourseVoting.sol\":5952:5958  voteId */\n      dup4\n        /* \"contracts/CourseVoting.sol\":5946:5959  votos[voteId] */\n      dup2\n      mstore\n      0x20\n      add\n      swap1\n      dup2\n      mstore\n      0x20\n      add\n      0x00\n      keccak256\n        /* \"contracts/CourseVoting.sol\":5946:6093  votos[voteId] = Voto({... */\n      0x00\n      dup3\n      add\n      mload\n      dup2\n      0x00\n      add\n      exp(0x0100, 0x00)\n      dup2\n      sload\n      dup2\n      0xffffffffffffffffffffffffffffffffffffffff\n      mul\n      not\n      and\n      swap1\n      dup4\n      0xffffffffffffffffffffffffffffffffffffffff\n      and\n      mul\n      or\n      swap1\n      sstore\n      pop\n      0x20\n      dup3\n      add\n      mload\n      dup2\n      0x00\n      add\n      exp(0x0100, 0x14)\n      dup2\n      sload\n      dup2\n      0xff\n      mul\n      not\n      and\n      swap1\n      dup4\n      0xff\n      and\n      mul\n      or\n      swap1\n      sstore\n      pop\n      0x40\n      dup3\n      add\n      mload\n      dup2\n      0x01\n      add\n      sstore\n      swap1\n      pop\n      pop\n        /* \"contracts/CourseVoting.sol\":5140:6103  {... */\n      pop\n        /* \"contracts/CourseVoting.sol\":5069:6103  function voteProposal(uint256 _proposalId, uint8 _satisfaction) public {... */\n      pop\n      pop\n      jump\t// out\n        /* \"contracts/CourseVoting.sol\":3784:4337  function createProposal(... */\n    tag_45:\n        /* \"contracts/CourseVoting.sol\":4036:4045  votingEnd */\n      sload(0x02)\n        /* \"contracts/CourseVoting.sol\":4017:4032  block.timestamp */\n      timestamp\n        /* \"contracts/CourseVoting.sol\":4017:4045  block.timestamp <= votingEnd */\n      gt\n      iszero\n        /* \"contracts/CourseVoting.sol\":4009:4070  require(block.timestamp <= votingEnd, \"Encuesta ya finalizo\") */\n      tag_119\n      jumpi\n      mload(0x40)\n      0x08c379a000000000000000000000000000000000000000000000000000000000\n      dup2\n      mstore\n      0x04\n      add\n      tag_120\n      swap1\n      tag_98\n      jump\t// in\n    tag_120:\n      mload(0x40)\n      dup1\n      swap2\n      sub\n      swap1\n      revert\n    tag_119:\n        /* \"contracts/CourseVoting.sol\":4083:4101  uint256 proposalId */\n      0x00\n        /* \"contracts/CourseVoting.sol\":4120:4121  1 */\n      0x01\n        /* \"contracts/CourseVoting.sol\":4104:4117  proposalCount */\n      sload(0x03)\n        /* \"contracts/CourseVoting.sol\":4104:4121  proposalCount + 1 */\n      tag_121\n      swap2\n      swap1\n      tag_112\n      jump\t// in\n    tag_121:\n        /* \"contracts/CourseVoting.sol\":4083:4121  uint256 proposalId = proposalCount + 1 */\n      swap1\n      pop\n        /* \"contracts/CourseVoting.sol\":4132:4145  proposalCount */\n      0x03\n      0x00\n        /* \"contracts/CourseVoting.sol\":4132:4147  proposalCount++ */\n      dup2\n      sload\n      dup1\n      swap3\n      swap2\n      swap1\n      tag_122\n      swap1\n      tag_116\n      jump\t// in\n    tag_122:\n      swap2\n      swap1\n      pop\n      sstore\n      pop\n        /* \"contracts/CourseVoting.sol\":4182:4329  Proposal({... */\n      mload(0x40)\n      dup1\n      0x80\n      add\n      0x40\n      mstore\n      dup1\n        /* \"contracts/CourseVoting.sol\":4213:4219  _title */\n      dup5\n        /* \"contracts/CourseVoting.sol\":4182:4329  Proposal({... */\n      dup2\n      mstore\n      0x20\n      add\n        /* \"contracts/CourseVoting.sol\":4247:4259  _description */\n      dup4\n        /* \"contracts/CourseVoting.sol\":4182:4329  Proposal({... */\n      dup2\n      mstore\n      0x20\n      add\n        /* \"contracts/CourseVoting.sol\":4281:4282  0 */\n      0x00\n        /* \"contracts/CourseVoting.sol\":4182:4329  Proposal({... */\n      dup2\n      mstore\n      0x20\n      add\n        /* \"contracts/CourseVoting.sol\":4316:4317  0 */\n      0x00\n        /* \"contracts/CourseVoting.sol\":4182:4329  Proposal({... */\n      dup2\n      mstore\n      pop\n        /* \"contracts/CourseVoting.sol\":4158:4167  proposals */\n      0x05\n        /* \"contracts/CourseVoting.sol\":4158:4179  proposals[proposalId] */\n      0x00\n        /* \"contracts/CourseVoting.sol\":4168:4178  proposalId */\n      dup4\n        /* \"contracts/CourseVoting.sol\":4158:4179  proposals[proposalId] */\n      dup2\n      mstore\n      0x20\n      add\n      swap1\n      dup2\n      mstore\n      0x20\n      add\n      0x00\n      keccak256\n        /* \"contracts/CourseVoting.sol\":4158:4329  proposals[proposalId] = Proposal({... */\n      0x00\n      dup3\n      add\n      mload\n      dup2\n      0x00\n      add\n      swap1\n      dup2\n      tag_123\n      swap2\n      swap1\n      tag_124\n      jump\t// in\n    tag_123:\n      pop\n      0x20\n      dup3\n      add\n      mload\n      dup2\n      0x01\n      add\n      swap1\n      dup2\n      tag_125\n      swap2\n      swap1\n      tag_124\n      jump\t// in\n    tag_125:\n      pop\n      0x40\n      dup3\n      add\n      mload\n      dup2\n      0x02\n      add\n      sstore\n      0x60\n      dup3\n      add\n      mload\n      dup2\n      0x03\n      add\n      sstore\n      swap1\n      pop\n      pop\n        /* \"contracts/CourseVoting.sol\":3890:4337  {... */\n      pop\n        /* \"contracts/CourseVoting.sol\":3784:4337  function createProposal(... */\n      pop\n      pop\n      jump\t// out\n        /* \"contracts/CourseVoting.sol\":6642:7229  function getVote(address _voter, uint256 _proposalId) public view returns (uint8, uint256) {... */\n    tag_49:\n        /* \"contracts/CourseVoting.sol\":6717:6722  uint8 */\n      0x00\n        /* \"contracts/CourseVoting.sol\":6724:6731  uint256 */\n      dup1\n        /* \"contracts/CourseVoting.sol\":6819:6844  uint256[] memory votosIds */\n      0x00\n        /* \"contracts/CourseVoting.sol\":6847:6864  votosPorDireccion */\n      0x08\n        /* \"contracts/CourseVoting.sol\":6847:6872  votosPorDireccion[_voter] */\n      0x00\n        /* \"contracts/CourseVoting.sol\":6865:6871  _voter */\n      dup7\n        /* \"contracts/CourseVoting.sol\":6847:6872  votosPorDireccion[_voter] */\n      0xffffffffffffffffffffffffffffffffffffffff\n      and\n      0xffffffffffffffffffffffffffffffffffffffff\n      and\n      dup2\n      mstore\n      0x20\n      add\n      swap1\n      dup2\n      mstore\n      0x20\n      add\n      0x00\n      keccak256\n        /* \"contracts/CourseVoting.sol\":6819:6872  uint256[] memory votosIds = votosPorDireccion[_voter] */\n      dup1\n      sload\n      dup1\n      0x20\n      mul\n      0x20\n      add\n      mload(0x40)\n      swap1\n      dup2\n      add\n      0x40\n      mstore\n      dup1\n      swap3\n      swap2\n      swap1\n      dup2\n      dup2\n      mstore\n      0x20\n      add\n      dup3\n      dup1\n      sload\n      dup1\n      iszero\n      tag_127\n      jumpi\n      0x20\n      mul\n      dup3\n      add\n      swap2\n      swap1\n      0x00\n      mstore\n      keccak256(0x00, 0x20)\n      swap1\n    tag_128:\n      dup2\n      sload\n      dup2\n      mstore\n      0x20\n      add\n      swap1\n      0x01\n      add\n      swap1\n      dup1\n      dup4\n      gt\n      tag_128\n      jumpi\n    tag_127:\n      pop\n      pop\n      pop\n      pop\n      pop\n      swap1\n      pop\n        /* \"contracts/CourseVoting.sol\":6888:6897  uint256 i */\n      0x00\n        /* \"contracts/CourseVoting.sol\":6883:7142  for (uint256 i = 0; i < votosIds.length; i++) {... */\n    tag_129:\n        /* \"contracts/CourseVoting.sol\":6907:6915  votosIds */\n      dup2\n        /* \"contracts/CourseVoting.sol\":6907:6922  votosIds.length */\n      mload\n        /* \"contracts/CourseVoting.sol\":6903:6904  i */\n      dup2\n        /* \"contracts/CourseVoting.sol\":6903:6922  i < votosIds.length */\n      lt\n        /* \"contracts/CourseVoting.sol\":6883:7142  for (uint256 i = 0; i < votosIds.length; i++) {... */\n      iszero\n      tag_130\n      jumpi\n        /* \"contracts/CourseVoting.sol\":6944:6958  uint256 voteId */\n      0x00\n        /* \"contracts/CourseVoting.sol\":6961:6969  votosIds */\n      dup3\n        /* \"contracts/CourseVoting.sol\":6970:6971  i */\n      dup3\n        /* \"contracts/CourseVoting.sol\":6961:6972  votosIds[i] */\n      dup2\n      mload\n      dup2\n      lt\n      tag_132\n      jumpi\n      tag_133\n      tag_134\n      jump\t// in\n    tag_133:\n    tag_132:\n      0x20\n      mul\n      0x20\n      add\n      add\n      mload\n        /* \"contracts/CourseVoting.sol\":6944:6972  uint256 voteId = votosIds[i] */\n      swap1\n      pop\n        /* \"contracts/CourseVoting.sol\":6987:7001  Voto storage v */\n      0x00\n        /* \"contracts/CourseVoting.sol\":7004:7009  votos */\n      0x06\n        /* \"contracts/CourseVoting.sol\":7004:7017  votos[voteId] */\n      0x00\n        /* \"contracts/CourseVoting.sol\":7010:7016  voteId */\n      dup4\n        /* \"contracts/CourseVoting.sol\":7004:7017  votos[voteId] */\n      dup2\n      mstore\n      0x20\n      add\n      swap1\n      dup2\n      mstore\n      0x20\n      add\n      0x00\n      keccak256\n        /* \"contracts/CourseVoting.sol\":6987:7017  Voto storage v = votos[voteId] */\n      swap1\n      pop\n        /* \"contracts/CourseVoting.sol\":7052:7063  _proposalId */\n      dup7\n        /* \"contracts/CourseVoting.sol\":7036:7037  v */\n      dup2\n        /* \"contracts/CourseVoting.sol\":7036:7048  v.proposalId */\n      0x01\n      add\n      sload\n        /* \"contracts/CourseVoting.sol\":7036:7063  v.proposalId == _proposalId */\n      sub\n        /* \"contracts/CourseVoting.sol\":7032:7131  if (v.proposalId == _proposalId) {... */\n      tag_135\n      jumpi\n        /* \"contracts/CourseVoting.sol\":7092:7093  v */\n      dup1\n        /* \"contracts/CourseVoting.sol\":7092:7106  v.satisfaction */\n      0x00\n      add\n      0x14\n      swap1\n      sload\n      swap1\n      0x0100\n      exp\n      swap1\n      div\n      0xff\n      and\n        /* \"contracts/CourseVoting.sol\":7108:7114  voteId */\n      dup3\n        /* \"contracts/CourseVoting.sol\":7084:7115  return (v.satisfaction, voteId) */\n      swap6\n      pop\n      swap6\n      pop\n      pop\n      pop\n      pop\n      pop\n      jump(tag_126)\n        /* \"contracts/CourseVoting.sol\":7032:7131  if (v.proposalId == _proposalId) {... */\n    tag_135:\n        /* \"contracts/CourseVoting.sol\":6929:7142  {... */\n      pop\n      pop\n        /* \"contracts/CourseVoting.sol\":6924:6927  i++ */\n      dup1\n      dup1\n      tag_136\n      swap1\n      tag_116\n      jump\t// in\n    tag_136:\n      swap2\n      pop\n      pop\n        /* \"contracts/CourseVoting.sol\":6883:7142  for (uint256 i = 0; i < votosIds.length; i++) {... */\n      jump(tag_129)\n    tag_130:\n      pop\n        /* \"contracts/CourseVoting.sol\":7193:7221  revert(\"Voto no encontrado\") */\n      mload(0x40)\n      0x08c379a000000000000000000000000000000000000000000000000000000000\n      dup2\n      mstore\n      0x04\n      add\n      tag_137\n      swap1\n      tag_138\n      jump\t// in\n    tag_137:\n      mload(0x40)\n      dup1\n      swap2\n      sub\n      swap1\n      revert\n        /* \"contracts/CourseVoting.sol\":6642:7229  function getVote(address _voter, uint256 _proposalId) public view returns (uint8, uint256) {... */\n    tag_126:\n      swap3\n      pop\n      swap3\n      swap1\n      pop\n      jump\t// out\n        /* \"contracts/CourseVoting.sol\":1373:1397  uint256 public votingEnd */\n    tag_53:\n      sload(0x02)\n      dup2\n      jump\t// out\n        /* \"contracts/CourseVoting.sol\":1489:1514  uint256 public votesCount */\n    tag_56:\n      sload(0x04)\n      dup2\n      jump\t// out\n        /* \"contracts/CourseVoting.sol\":3021:3059  mapping(address => bool) public voters */\n    tag_60:\n      mstore(0x20, 0x07)\n      dup1\n      0x00\n      mstore\n      keccak256(0x00, 0x40)\n      0x00\n      swap2\n      pop\n      sload\n      swap1\n      0x0100\n      exp\n      swap1\n      div\n      0xff\n      and\n      dup2\n      jump\t// out\n        /* \"contracts/CourseVoting.sol\":2826:2863  mapping(uint256 => Voto) public votos */\n    tag_65:\n      mstore(0x20, 0x06)\n      dup1\n      0x00\n      mstore\n      keccak256(0x00, 0x40)\n      0x00\n      swap2\n      pop\n      swap1\n      pop\n      dup1\n      0x00\n      add\n      0x00\n      swap1\n      sload\n      swap1\n      0x0100\n      exp\n      swap1\n      div\n      0xffffffffffffffffffffffffffffffffffffffff\n      and\n      swap1\n      dup1\n      0x00\n      add\n      0x14\n      swap1\n      sload\n      swap1\n      0x0100\n      exp\n      swap1\n      div\n      0xff\n      and\n      swap1\n      dup1\n      0x01\n      add\n      sload\n      swap1\n      pop\n      dup4\n      jump\t// out\n        /* \"contracts/CourseVoting.sol\":7380:7909  function getAvgSatisfaction(... */\n    tag_70:\n        /* \"contracts/CourseVoting.sol\":7466:7485  uint256 integerPart */\n      0x00\n        /* \"contracts/CourseVoting.sol\":7487:7506  uint256 decimalPart */\n      dup1\n        /* \"contracts/CourseVoting.sol\":7558:7559  0 */\n      0x00\n        /* \"contracts/CourseVoting.sol\":7527:7536  proposals */\n      0x05\n        /* \"contracts/CourseVoting.sol\":7527:7549  proposals[_proposalId] */\n      0x00\n        /* \"contracts/CourseVoting.sol\":7537:7548  _proposalId */\n      dup6\n        /* \"contracts/CourseVoting.sol\":7527:7549  proposals[_proposalId] */\n      dup2\n      mstore\n      0x20\n      add\n      swap1\n      dup2\n      mstore\n      0x20\n      add\n      0x00\n      keccak256\n        /* \"contracts/CourseVoting.sol\":7527:7555  proposals[_proposalId].votes */\n      0x02\n      add\n      sload\n        /* \"contracts/CourseVoting.sol\":7527:7559  proposals[_proposalId].votes > 0 */\n      gt\n        /* \"contracts/CourseVoting.sol\":7519:7580  require(proposals[_proposalId].votes > 0, \"No hay votos aun\") */\n      tag_140\n      jumpi\n      mload(0x40)\n      0x08c379a000000000000000000000000000000000000000000000000000000000\n      dup2\n      mstore\n      0x04\n      add\n      tag_141\n      swap1\n      tag_142\n      jump\t// in\n    tag_141:\n      mload(0x40)\n      dup1\n      swap2\n      sub\n      swap1\n      revert\n    tag_140:\n        /* \"contracts/CourseVoting.sol\":7676:7690  uint256 rawAvg */\n      0x00\n        /* \"contracts/CourseVoting.sol\":7747:7756  proposals */\n      0x05\n        /* \"contracts/CourseVoting.sol\":7747:7769  proposals[_proposalId] */\n      0x00\n        /* \"contracts/CourseVoting.sol\":7757:7768  _proposalId */\n      dup6\n        /* \"contracts/CourseVoting.sol\":7747:7769  proposals[_proposalId] */\n      dup2\n      mstore\n      0x20\n      add\n      swap1\n      dup2\n      mstore\n      0x20\n      add\n      0x00\n      keccak256\n        /* \"contracts/CourseVoting.sol\":7747:7775  proposals[_proposalId].votes */\n      0x02\n      add\n      sload\n        /* \"contracts/CourseVoting.sol\":7737:7743  10**18 */\n      0x0de0b6b3a7640000\n        /* \"contracts/CourseVoting.sol\":7694:7703  proposals */\n      0x05\n        /* \"contracts/CourseVoting.sol\":7694:7716  proposals[_proposalId] */\n      0x00\n        /* \"contracts/CourseVoting.sol\":7704:7715  _proposalId */\n      dup8\n        /* \"contracts/CourseVoting.sol\":7694:7716  proposals[_proposalId] */\n      dup2\n      mstore\n      0x20\n      add\n      swap1\n      dup2\n      mstore\n      0x20\n      add\n      0x00\n      keccak256\n        /* \"contracts/CourseVoting.sol\":7694:7734  proposals[_proposalId].totalSatisfaction */\n      0x03\n      add\n      sload\n        /* \"contracts/CourseVoting.sol\":7694:7743  proposals[_proposalId].totalSatisfaction * 10**18 */\n      tag_143\n      swap2\n      swap1\n      tag_144\n      jump\t// in\n    tag_143:\n        /* \"contracts/CourseVoting.sol\":7693:7775  (proposals[_proposalId].totalSatisfaction * 10**18) / proposals[_proposalId].votes */\n      tag_145\n      swap2\n      swap1\n      tag_146\n      jump\t// in\n    tag_145:\n        /* \"contracts/CourseVoting.sol\":7676:7775  uint256 rawAvg = (proposals[_proposalId].totalSatisfaction * 10**18) / proposals[_proposalId].votes */\n      swap1\n      pop\n        /* \"contracts/CourseVoting.sol\":7855:7861  10**18 */\n      0x0de0b6b3a7640000\n        /* \"contracts/CourseVoting.sol\":7846:7852  rawAvg */\n      dup2\n        /* \"contracts/CourseVoting.sol\":7846:7861  rawAvg / 10**18 */\n      tag_147\n      swap2\n      swap1\n      tag_146\n      jump\t// in\n    tag_147:\n        /* \"contracts/CourseVoting.sol\":7832:7861  integerPart = rawAvg / 10**18 */\n      swap3\n      pop\n        /* \"contracts/CourseVoting.sol\":7895:7901  10**18 */\n      0x0de0b6b3a7640000\n        /* \"contracts/CourseVoting.sol\":7886:7892  rawAvg */\n      dup2\n        /* \"contracts/CourseVoting.sol\":7886:7901  rawAvg % 10**18 */\n      tag_148\n      swap2\n      swap1\n      tag_149\n      jump\t// in\n    tag_148:\n        /* \"contracts/CourseVoting.sol\":7872:7901  decimalPart = rawAvg % 10**18 */\n      swap2\n      pop\n        /* \"contracts/CourseVoting.sol\":7508:7909  {... */\n      pop\n        /* \"contracts/CourseVoting.sol\":7380:7909  function getAvgSatisfaction(... */\n      swap2\n      pop\n      swap2\n      jump\t// out\n        /* \"contracts/CourseVoting.sol\":1429:1457  uint256 public proposalCount */\n    tag_74:\n      sload(0x03)\n      dup2\n      jump\t// out\n        /* \"contracts/CourseVoting.sol\":1755:1820  uint256 public constant DESDE_HOY_A_INICIO_VOTACION_DIAS = 0 days */\n    tag_77:\n        /* \"contracts/CourseVoting.sol\":1814:1820  0 days */\n      0x00\n        /* \"contracts/CourseVoting.sol\":1755:1820  uint256 public constant DESDE_HOY_A_INICIO_VOTACION_DIAS = 0 days */\n      dup2\n      jump\t// out\n        /* \"contracts/CourseVoting.sol\":1252:1270  ERC20 public token */\n    tag_80:\n      0x00\n      dup1\n      sload\n      swap1\n      0x0100\n      exp\n      swap1\n      div\n      0xffffffffffffffffffffffffffffffffffffffff\n      and\n      dup2\n      jump\t// out\n        /* \"contracts/CourseVoting.sol\":6199:6632  function votoExistente(address _voter, uint256 _proposalId) internal view returns (bool) {... */\n    tag_107:\n        /* \"contracts/CourseVoting.sol\":6282:6286  bool */\n      0x00\n        /* \"contracts/CourseVoting.sol\":6299:6324  uint256[] memory votosIds */\n      dup1\n        /* \"contracts/CourseVoting.sol\":6327:6344  votosPorDireccion */\n      0x08\n        /* \"contracts/CourseVoting.sol\":6327:6352  votosPorDireccion[_voter] */\n      0x00\n        /* \"contracts/CourseVoting.sol\":6345:6351  _voter */\n      dup6\n        /* \"contracts/CourseVoting.sol\":6327:6352  votosPorDireccion[_voter] */\n      0xffffffffffffffffffffffffffffffffffffffff\n      and\n      0xffffffffffffffffffffffffffffffffffffffff\n      and\n      dup2\n      mstore\n      0x20\n      add\n      swap1\n      dup2\n      mstore\n      0x20\n      add\n      0x00\n      keccak256\n        /* \"contracts/CourseVoting.sol\":6299:6352  uint256[] memory votosIds = votosPorDireccion[_voter] */\n      dup1\n      sload\n      dup1\n      0x20\n      mul\n      0x20\n      add\n      mload(0x40)\n      swap1\n      dup2\n      add\n      0x40\n      mstore\n      dup1\n      swap3\n      swap2\n      swap1\n      dup2\n      dup2\n      mstore\n      0x20\n      add\n      dup3\n      dup1\n      sload\n      dup1\n      iszero\n      tag_151\n      jumpi\n      0x20\n      mul\n      dup3\n      add\n      swap2\n      swap1\n      0x00\n      mstore\n      keccak256(0x00, 0x20)\n      swap1\n    tag_152:\n      dup2\n      sload\n      dup2\n      mstore\n      0x20\n      add\n      swap1\n      0x01\n      add\n      swap1\n      dup1\n      dup4\n      gt\n      tag_152\n      jumpi\n    tag_151:\n      pop\n      pop\n      pop\n      pop\n      pop\n      swap1\n      pop\n        /* \"contracts/CourseVoting.sol\":6368:6377  uint256 i */\n      0x00\n        /* \"contracts/CourseVoting.sol\":6363:6602  for (uint256 i = 0; i < votosIds.length; i++) {... */\n    tag_153:\n        /* \"contracts/CourseVoting.sol\":6387:6395  votosIds */\n      dup2\n        /* \"contracts/CourseVoting.sol\":6387:6402  votosIds.length */\n      mload\n        /* \"contracts/CourseVoting.sol\":6383:6384  i */\n      dup2\n        /* \"contracts/CourseVoting.sol\":6383:6402  i < votosIds.length */\n      lt\n        /* \"contracts/CourseVoting.sol\":6363:6602  for (uint256 i = 0; i < votosIds.length; i++) {... */\n      iszero\n      tag_154\n      jumpi\n        /* \"contracts/CourseVoting.sol\":6424:6438  uint256 voteId */\n      0x00\n        /* \"contracts/CourseVoting.sol\":6441:6449  votosIds */\n      dup3\n        /* \"contracts/CourseVoting.sol\":6450:6451  i */\n      dup3\n        /* \"contracts/CourseVoting.sol\":6441:6452  votosIds[i] */\n      dup2\n      mload\n      dup2\n      lt\n      tag_156\n      jumpi\n      tag_157\n      tag_134\n      jump\t// in\n    tag_157:\n    tag_156:\n      0x20\n      mul\n      0x20\n      add\n      add\n      mload\n        /* \"contracts/CourseVoting.sol\":6424:6452  uint256 voteId = votosIds[i] */\n      swap1\n      pop\n        /* \"contracts/CourseVoting.sol\":6467:6481  Voto storage v */\n      0x00\n        /* \"contracts/CourseVoting.sol\":6484:6489  votos */\n      0x06\n        /* \"contracts/CourseVoting.sol\":6484:6497  votos[voteId] */\n      0x00\n        /* \"contracts/CourseVoting.sol\":6490:6496  voteId */\n      dup4\n        /* \"contracts/CourseVoting.sol\":6484:6497  votos[voteId] */\n      dup2\n      mstore\n      0x20\n      add\n      swap1\n      dup2\n      mstore\n      0x20\n      add\n      0x00\n      keccak256\n        /* \"contracts/CourseVoting.sol\":6467:6497  Voto storage v = votos[voteId] */\n      swap1\n      pop\n        /* \"contracts/CourseVoting.sol\":6532:6543  _proposalId */\n      dup6\n        /* \"contracts/CourseVoting.sol\":6516:6517  v */\n      dup2\n        /* \"contracts/CourseVoting.sol\":6516:6528  v.proposalId */\n      0x01\n      add\n      sload\n        /* \"contracts/CourseVoting.sol\":6516:6543  v.proposalId == _proposalId */\n      sub\n        /* \"contracts/CourseVoting.sol\":6512:6591  if (v.proposalId == _proposalId) {... */\n      tag_158\n      jumpi\n        /* \"contracts/CourseVoting.sol\":6571:6575  true */\n      0x01\n        /* \"contracts/CourseVoting.sol\":6564:6575  return true */\n      swap5\n      pop\n      pop\n      pop\n      pop\n      pop\n      jump(tag_150)\n        /* \"contracts/CourseVoting.sol\":6512:6591  if (v.proposalId == _proposalId) {... */\n    tag_158:\n        /* \"contracts/CourseVoting.sol\":6409:6602  {... */\n      pop\n      pop\n        /* \"contracts/CourseVoting.sol\":6404:6407  i++ */\n      dup1\n      dup1\n      tag_159\n      swap1\n      tag_116\n      jump\t// in\n    tag_159:\n      swap2\n      pop\n      pop\n        /* \"contracts/CourseVoting.sol\":6363:6602  for (uint256 i = 0; i < votosIds.length; i++) {... */\n      jump(tag_153)\n    tag_154:\n      pop\n        /* \"contracts/CourseVoting.sol\":6619:6624  false */\n      0x00\n        /* \"contracts/CourseVoting.sol\":6612:6624  return false */\n      swap2\n      pop\n      pop\n        /* \"contracts/CourseVoting.sol\":6199:6632  function votoExistente(address _voter, uint256 _proposalId) internal view returns (bool) {... */\n    tag_150:\n      swap3\n      swap2\n      pop\n      pop\n      jump\t// out\n        /* \"#utility.yul\":7:82   */\n    tag_160:\n        /* \"#utility.yul\":40:46   */\n      0x00\n        /* \"#utility.yul\":73:75   */\n      0x40\n        /* \"#utility.yul\":67:76   */\n      mload\n        /* \"#utility.yul\":57:76   */\n      swap1\n      pop\n        /* \"#utility.yul\":7:82   */\n      swap1\n      jump\t// out\n        /* \"#utility.yul\":88:205   */\n    tag_161:\n        /* \"#utility.yul\":197:198   */\n      0x00\n        /* \"#utility.yul\":194:195   */\n      dup1\n        /* \"#utility.yul\":187:199   */\n      revert\n        /* \"#utility.yul\":211:328   */\n    tag_162:\n        /* \"#utility.yul\":320:321   */\n      0x00\n        /* \"#utility.yul\":317:318   */\n      dup1\n        /* \"#utility.yul\":310:322   */\n      revert\n        /* \"#utility.yul\":334:411   */\n    tag_163:\n        /* \"#utility.yul\":371:378   */\n      0x00\n        /* \"#utility.yul\":400:405   */\n      dup2\n        /* \"#utility.yul\":389:405   */\n      swap1\n      pop\n        /* \"#utility.yul\":334:411   */\n      swap2\n      swap1\n      pop\n      jump\t// out\n        /* \"#utility.yul\":417:539   */\n    tag_164:\n        /* \"#utility.yul\":490:514   */\n      tag_232\n        /* \"#utility.yul\":508:513   */\n      dup2\n        /* \"#utility.yul\":490:514   */\n      tag_163\n      jump\t// in\n    tag_232:\n        /* \"#utility.yul\":483:488   */\n      dup2\n        /* \"#utility.yul\":480:515   */\n      eq\n        /* \"#utility.yul\":470:533   */\n      tag_233\n      jumpi\n        /* \"#utility.yul\":529:530   */\n      0x00\n        /* \"#utility.yul\":526:527   */\n      dup1\n        /* \"#utility.yul\":519:531   */\n      revert\n        /* \"#utility.yul\":470:533   */\n    tag_233:\n        /* \"#utility.yul\":417:539   */\n      pop\n      jump\t// out\n        /* \"#utility.yul\":545:684   */\n    tag_165:\n        /* \"#utility.yul\":591:596   */\n      0x00\n        /* \"#utility.yul\":629:635   */\n      dup2\n        /* \"#utility.yul\":616:636   */\n      calldataload\n        /* \"#utility.yul\":607:636   */\n      swap1\n      pop\n        /* \"#utility.yul\":645:678   */\n      tag_235\n        /* \"#utility.yul\":672:677   */\n      dup2\n        /* \"#utility.yul\":645:678   */\n      tag_164\n      jump\t// in\n    tag_235:\n        /* \"#utility.yul\":545:684   */\n      swap3\n      swap2\n      pop\n      pop\n      jump\t// out\n        /* \"#utility.yul\":690:1019   */\n    tag_23:\n        /* \"#utility.yul\":749:755   */\n      0x00\n        /* \"#utility.yul\":798:800   */\n      0x20\n        /* \"#utility.yul\":786:795   */\n      dup3\n        /* \"#utility.yul\":777:784   */\n      dup5\n        /* \"#utility.yul\":773:796   */\n      sub\n        /* \"#utility.yul\":769:801   */\n      slt\n        /* \"#utility.yul\":766:885   */\n      iszero\n      tag_237\n      jumpi\n        /* \"#utility.yul\":804:883   */\n      tag_238\n      tag_161\n      jump\t// in\n    tag_238:\n        /* \"#utility.yul\":766:885   */\n    tag_237:\n        /* \"#utility.yul\":924:925   */\n      0x00\n        /* \"#utility.yul\":949:1002   */\n      tag_239\n        /* \"#utility.yul\":994:1001   */\n      dup5\n        /* \"#utility.yul\":985:991   */\n      dup3\n        /* \"#utility.yul\":974:983   */\n      dup6\n        /* \"#utility.yul\":970:992   */\n      add\n        /* \"#utility.yul\":949:1002   */\n      tag_165\n      jump\t// in\n    tag_239:\n        /* \"#utility.yul\":939:1002   */\n      swap2\n      pop\n        /* \"#utility.yul\":895:1012   */\n      pop\n        /* \"#utility.yul\":690:1019   */\n      swap3\n      swap2\n      pop\n      pop\n      jump\t// out\n        /* \"#utility.yul\":1025:1124   */\n    tag_166:\n        /* \"#utility.yul\":1077:1083   */\n      0x00\n        /* \"#utility.yul\":1111:1116   */\n      dup2\n        /* \"#utility.yul\":1105:1117   */\n      mload\n        /* \"#utility.yul\":1095:1117   */\n      swap1\n      pop\n        /* \"#utility.yul\":1025:1124   */\n      swap2\n      swap1\n      pop\n      jump\t// out\n        /* \"#utility.yul\":1130:1299   */\n    tag_167:\n        /* \"#utility.yul\":1214:1225   */\n      0x00\n        /* \"#utility.yul\":1248:1254   */\n      dup3\n        /* \"#utility.yul\":1243:1246   */\n      dup3\n        /* \"#utility.yul\":1236:1255   */\n      mstore\n        /* \"#utility.yul\":1288:1292   */\n      0x20\n        /* \"#utility.yul\":1283:1286   */\n      dup3\n        /* \"#utility.yul\":1279:1293   */\n      add\n        /* \"#utility.yul\":1264:1293   */\n      swap1\n      pop\n        /* \"#utility.yul\":1130:1299   */\n      swap3\n      swap2\n      pop\n      pop\n      jump\t// out\n        /* \"#utility.yul\":1305:1551   */\n    tag_168:\n        /* \"#utility.yul\":1386:1387   */\n      0x00\n        /* \"#utility.yul\":1396:1509   */\n    tag_243:\n        /* \"#utility.yul\":1410:1416   */\n      dup4\n        /* \"#utility.yul\":1407:1408   */\n      dup2\n        /* \"#utility.yul\":1404:1417   */\n      lt\n        /* \"#utility.yul\":1396:1509   */\n      iszero\n      tag_245\n      jumpi\n        /* \"#utility.yul\":1495:1496   */\n      dup1\n        /* \"#utility.yul\":1490:1493   */\n      dup3\n        /* \"#utility.yul\":1486:1497   */\n      add\n        /* \"#utility.yul\":1480:1498   */\n      mload\n        /* \"#utility.yul\":1476:1477   */\n      dup2\n        /* \"#utility.yul\":1471:1474   */\n      dup5\n        /* \"#utility.yul\":1467:1478   */\n      add\n        /* \"#utility.yul\":1460:1499   */\n      mstore\n        /* \"#utility.yul\":1432:1434   */\n      0x20\n        /* \"#utility.yul\":1429:1430   */\n      dup2\n        /* \"#utility.yul\":1425:1435   */\n      add\n        /* \"#utility.yul\":1420:1435   */\n      swap1\n      pop\n        /* \"#utility.yul\":1396:1509   */\n      jump(tag_243)\n    tag_245:\n        /* \"#utility.yul\":1543:1544   */\n      0x00\n        /* \"#utility.yul\":1534:1540   */\n      dup5\n        /* \"#utility.yul\":1529:1532   */\n      dup5\n        /* \"#utility.yul\":1525:1541   */\n      add\n        /* \"#utility.yul\":1518:1545   */\n      mstore\n        /* \"#utility.yul\":1367:1551   */\n      pop\n        /* \"#utility.yul\":1305:1551   */\n      pop\n      pop\n      pop\n      jump\t// out\n        /* \"#utility.yul\":1557:1659   */\n    tag_169:\n        /* \"#utility.yul\":1598:1604   */\n      0x00\n        /* \"#utility.yul\":1649:1651   */\n      0x1f\n        /* \"#utility.yul\":1645:1652   */\n      not\n        /* \"#utility.yul\":1640:1642   */\n      0x1f\n        /* \"#utility.yul\":1633:1638   */\n      dup4\n        /* \"#utility.yul\":1629:1643   */\n      add\n        /* \"#utility.yul\":1625:1653   */\n      and\n        /* \"#utility.yul\":1615:1653   */\n      swap1\n      pop\n        /* \"#utility.yul\":1557:1659   */\n      swap2\n      swap1\n      pop\n      jump\t// out\n        /* \"#utility.yul\":1665:2042   */\n    tag_170:\n        /* \"#utility.yul\":1753:1756   */\n      0x00\n        /* \"#utility.yul\":1781:1820   */\n      tag_248\n        /* \"#utility.yul\":1814:1819   */\n      dup3\n        /* \"#utility.yul\":1781:1820   */\n      tag_166\n      jump\t// in\n    tag_248:\n        /* \"#utility.yul\":1836:1907   */\n      tag_249\n        /* \"#utility.yul\":1900:1906   */\n      dup2\n        /* \"#utility.yul\":1895:1898   */\n      dup6\n        /* \"#utility.yul\":1836:1907   */\n      tag_167\n      jump\t// in\n    tag_249:\n        /* \"#utility.yul\":1829:1907   */\n      swap4\n      pop\n        /* \"#utility.yul\":1916:1981   */\n      tag_250\n        /* \"#utility.yul\":1974:1980   */\n      dup2\n        /* \"#utility.yul\":1969:1972   */\n      dup6\n        /* \"#utility.yul\":1962:1966   */\n      0x20\n        /* \"#utility.yul\":1955:1960   */\n      dup7\n        /* \"#utility.yul\":1951:1967   */\n      add\n        /* \"#utility.yul\":1916:1981   */\n      tag_168\n      jump\t// in\n    tag_250:\n        /* \"#utility.yul\":2006:2035   */\n      tag_251\n        /* \"#utility.yul\":2028:2034   */\n      dup2\n        /* \"#utility.yul\":2006:2035   */\n      tag_169\n      jump\t// in\n    tag_251:\n        /* \"#utility.yul\":2001:2004   */\n      dup5\n        /* \"#utility.yul\":1997:2036   */\n      add\n        /* \"#utility.yul\":1990:2036   */\n      swap2\n      pop\n        /* \"#utility.yul\":1757:2042   */\n      pop\n        /* \"#utility.yul\":1665:2042   */\n      swap3\n      swap2\n      pop\n      pop\n      jump\t// out\n        /* \"#utility.yul\":2048:2166   */\n    tag_171:\n        /* \"#utility.yul\":2135:2159   */\n      tag_253\n        /* \"#utility.yul\":2153:2158   */\n      dup2\n        /* \"#utility.yul\":2135:2159   */\n      tag_163\n      jump\t// in\n    tag_253:\n        /* \"#utility.yul\":2130:2133   */\n      dup3\n        /* \"#utility.yul\":2123:2160   */\n      mstore\n        /* \"#utility.yul\":2048:2166   */\n      pop\n      pop\n      jump\t// out\n        /* \"#utility.yul\":2172:2907   */\n    tag_26:\n        /* \"#utility.yul\":2389:2393   */\n      0x00\n        /* \"#utility.yul\":2427:2430   */\n      0x80\n        /* \"#utility.yul\":2416:2425   */\n      dup3\n        /* \"#utility.yul\":2412:2431   */\n      add\n        /* \"#utility.yul\":2404:2431   */\n      swap1\n      pop\n        /* \"#utility.yul\":2477:2486   */\n      dup2\n        /* \"#utility.yul\":2471:2475   */\n      dup2\n        /* \"#utility.yul\":2467:2487   */\n      sub\n        /* \"#utility.yul\":2463:2464   */\n      0x00\n        /* \"#utility.yul\":2452:2461   */\n      dup4\n        /* \"#utility.yul\":2448:2465   */\n      add\n        /* \"#utility.yul\":2441:2488   */\n      mstore\n        /* \"#utility.yul\":2505:2583   */\n      tag_255\n        /* \"#utility.yul\":2578:2582   */\n      dup2\n        /* \"#utility.yul\":2569:2575   */\n      dup8\n        /* \"#utility.yul\":2505:2583   */\n      tag_170\n      jump\t// in\n    tag_255:\n        /* \"#utility.yul\":2497:2583   */\n      swap1\n      pop\n        /* \"#utility.yul\":2630:2639   */\n      dup2\n        /* \"#utility.yul\":2624:2628   */\n      dup2\n        /* \"#utility.yul\":2620:2640   */\n      sub\n        /* \"#utility.yul\":2615:2617   */\n      0x20\n        /* \"#utility.yul\":2604:2613   */\n      dup4\n        /* \"#utility.yul\":2600:2618   */\n      add\n        /* \"#utility.yul\":2593:2641   */\n      mstore\n        /* \"#utility.yul\":2658:2736   */\n      tag_256\n        /* \"#utility.yul\":2731:2735   */\n      dup2\n        /* \"#utility.yul\":2722:2728   */\n      dup7\n        /* \"#utility.yul\":2658:2736   */\n      tag_170\n      jump\t// in\n    tag_256:\n        /* \"#utility.yul\":2650:2736   */\n      swap1\n      pop\n        /* \"#utility.yul\":2746:2818   */\n      tag_257\n        /* \"#utility.yul\":2814:2816   */\n      0x40\n        /* \"#utility.yul\":2803:2812   */\n      dup4\n        /* \"#utility.yul\":2799:2817   */\n      add\n        /* \"#utility.yul\":2790:2796   */\n      dup6\n        /* \"#utility.yul\":2746:2818   */\n      tag_171\n      jump\t// in\n    tag_257:\n        /* \"#utility.yul\":2828:2900   */\n      tag_258\n        /* \"#utility.yul\":2896:2898   */\n      0x60\n        /* \"#utility.yul\":2885:2894   */\n      dup4\n        /* \"#utility.yul\":2881:2899   */\n      add\n        /* \"#utility.yul\":2872:2878   */\n      dup5\n        /* \"#utility.yul\":2828:2900   */\n      tag_171\n      jump\t// in\n    tag_258:\n        /* \"#utility.yul\":2172:2907   */\n      swap6\n      swap5\n      pop\n      pop\n      pop\n      pop\n      pop\n      jump\t// out\n        /* \"#utility.yul\":2913:3135   */\n    tag_30:\n        /* \"#utility.yul\":3006:3010   */\n      0x00\n        /* \"#utility.yul\":3044:3046   */\n      0x20\n        /* \"#utility.yul\":3033:3042   */\n      dup3\n        /* \"#utility.yul\":3029:3047   */\n      add\n        /* \"#utility.yul\":3021:3047   */\n      swap1\n      pop\n        /* \"#utility.yul\":3057:3128   */\n      tag_260\n        /* \"#utility.yul\":3125:3126   */\n      0x00\n        /* \"#utility.yul\":3114:3123   */\n      dup4\n        /* \"#utility.yul\":3110:3127   */\n      add\n        /* \"#utility.yul\":3101:3107   */\n      dup5\n        /* \"#utility.yul\":3057:3128   */\n      tag_171\n      jump\t// in\n    tag_260:\n        /* \"#utility.yul\":2913:3135   */\n      swap3\n      swap2\n      pop\n      pop\n      jump\t// out\n        /* \"#utility.yul\":3141:3267   */\n    tag_172:\n        /* \"#utility.yul\":3178:3185   */\n      0x00\n        /* \"#utility.yul\":3218:3260   */\n      0xffffffffffffffffffffffffffffffffffffffff\n        /* \"#utility.yul\":3211:3216   */\n      dup3\n        /* \"#utility.yul\":3207:3261   */\n      and\n        /* \"#utility.yul\":3196:3261   */\n      swap1\n      pop\n        /* \"#utility.yul\":3141:3267   */\n      swap2\n      swap1\n      pop\n      jump\t// out\n        /* \"#utility.yul\":3273:3369   */\n    tag_173:\n        /* \"#utility.yul\":3310:3317   */\n      0x00\n        /* \"#utility.yul\":3339:3363   */\n      tag_263\n        /* \"#utility.yul\":3357:3362   */\n      dup3\n        /* \"#utility.yul\":3339:3363   */\n      tag_172\n      jump\t// in\n    tag_263:\n        /* \"#utility.yul\":3328:3363   */\n      swap1\n      pop\n        /* \"#utility.yul\":3273:3369   */\n      swap2\n      swap1\n      pop\n      jump\t// out\n        /* \"#utility.yul\":3375:3497   */\n    tag_174:\n        /* \"#utility.yul\":3448:3472   */\n      tag_265\n        /* \"#utility.yul\":3466:3471   */\n      dup2\n        /* \"#utility.yul\":3448:3472   */\n      tag_173\n      jump\t// in\n    tag_265:\n        /* \"#utility.yul\":3441:3446   */\n      dup2\n        /* \"#utility.yul\":3438:3473   */\n      eq\n        /* \"#utility.yul\":3428:3491   */\n      tag_266\n      jumpi\n        /* \"#utility.yul\":3487:3488   */\n      0x00\n        /* \"#utility.yul\":3484:3485   */\n      dup1\n        /* \"#utility.yul\":3477:3489   */\n      revert\n        /* \"#utility.yul\":3428:3491   */\n    tag_266:\n        /* \"#utility.yul\":3375:3497   */\n      pop\n      jump\t// out\n        /* \"#utility.yul\":3503:3642   */\n    tag_175:\n        /* \"#utility.yul\":3549:3554   */\n      0x00\n        /* \"#utility.yul\":3587:3593   */\n      dup2\n        /* \"#utility.yul\":3574:3594   */\n      calldataload\n        /* \"#utility.yul\":3565:3594   */\n      swap1\n      pop\n        /* \"#utility.yul\":3603:3636   */\n      tag_268\n        /* \"#utility.yul\":3630:3635   */\n      dup2\n        /* \"#utility.yul\":3603:3636   */\n      tag_174\n      jump\t// in\n    tag_268:\n        /* \"#utility.yul\":3503:3642   */\n      swap3\n      swap2\n      pop\n      pop\n      jump\t// out\n        /* \"#utility.yul\":3648:3977   */\n    tag_33:\n        /* \"#utility.yul\":3707:3713   */\n      0x00\n        /* \"#utility.yul\":3756:3758   */\n      0x20\n        /* \"#utility.yul\":3744:3753   */\n      dup3\n        /* \"#utility.yul\":3735:3742   */\n      dup5\n        /* \"#utility.yul\":3731:3754   */\n      sub\n        /* \"#utility.yul\":3727:3759   */\n      slt\n        /* \"#utility.yul\":3724:3843   */\n      iszero\n      tag_270\n      jumpi\n        /* \"#utility.yul\":3762:3841   */\n      tag_271\n      tag_161\n      jump\t// in\n    tag_271:\n        /* \"#utility.yul\":3724:3843   */\n    tag_270:\n        /* \"#utility.yul\":3882:3883   */\n      0x00\n        /* \"#utility.yul\":3907:3960   */\n      tag_272\n        /* \"#utility.yul\":3952:3959   */\n      dup5\n        /* \"#utility.yul\":3943:3949   */\n      dup3\n        /* \"#utility.yul\":3932:3941   */\n      dup6\n        /* \"#utility.yul\":3928:3950   */\n      add\n        /* \"#utility.yul\":3907:3960   */\n      tag_175\n      jump\t// in\n    tag_272:\n        /* \"#utility.yul\":3897:3960   */\n      swap2\n      pop\n        /* \"#utility.yul\":3853:3970   */\n      pop\n        /* \"#utility.yul\":3648:3977   */\n      swap3\n      swap2\n      pop\n      pop\n      jump\t// out\n        /* \"#utility.yul\":3983:4069   */\n    tag_176:\n        /* \"#utility.yul\":4018:4025   */\n      0x00\n        /* \"#utility.yul\":4058:4062   */\n      0xff\n        /* \"#utility.yul\":4051:4056   */\n      dup3\n        /* \"#utility.yul\":4047:4063   */\n      and\n        /* \"#utility.yul\":4036:4063   */\n      swap1\n      pop\n        /* \"#utility.yul\":3983:4069   */\n      swap2\n      swap1\n      pop\n      jump\t// out\n        /* \"#utility.yul\":4075:4193   */\n    tag_177:\n        /* \"#utility.yul\":4146:4168   */\n      tag_275\n        /* \"#utility.yul\":4162:4167   */\n      dup2\n        /* \"#utility.yul\":4146:4168   */\n      tag_176\n      jump\t// in\n    tag_275:\n        /* \"#utility.yul\":4139:4144   */\n      dup2\n        /* \"#utility.yul\":4136:4169   */\n      eq\n        /* \"#utility.yul\":4126:4187   */\n      tag_276\n      jumpi\n        /* \"#utility.yul\":4183:4184   */\n      0x00\n        /* \"#utility.yul\":4180:4181   */\n      dup1\n        /* \"#utility.yul\":4173:4185   */\n      revert\n        /* \"#utility.yul\":4126:4187   */\n    tag_276:\n        /* \"#utility.yul\":4075:4193   */\n      pop\n      jump\t// out\n        /* \"#utility.yul\":4199:4334   */\n    tag_178:\n        /* \"#utility.yul\":4243:4248   */\n      0x00\n        /* \"#utility.yul\":4281:4287   */\n      dup2\n        /* \"#utility.yul\":4268:4288   */\n      calldataload\n        /* \"#utility.yul\":4259:4288   */\n      swap1\n      pop\n        /* \"#utility.yul\":4297:4328   */\n      tag_278\n        /* \"#utility.yul\":4322:4327   */\n      dup2\n        /* \"#utility.yul\":4297:4328   */\n      tag_177\n      jump\t// in\n    tag_278:\n        /* \"#utility.yul\":4199:4334   */\n      swap3\n      swap2\n      pop\n      pop\n      jump\t// out\n        /* \"#utility.yul\":4340:4810   */\n    tag_40:\n        /* \"#utility.yul\":4406:4412   */\n      0x00\n        /* \"#utility.yul\":4414:4420   */\n      dup1\n        /* \"#utility.yul\":4463:4465   */\n      0x40\n        /* \"#utility.yul\":4451:4460   */\n      dup4\n        /* \"#utility.yul\":4442:4449   */\n      dup6\n        /* \"#utility.yul\":4438:4461   */\n      sub\n        /* \"#utility.yul\":4434:4466   */\n      slt\n        /* \"#utility.yul\":4431:4550   */\n      iszero\n      tag_280\n      jumpi\n        /* \"#utility.yul\":4469:4548   */\n      tag_281\n      tag_161\n      jump\t// in\n    tag_281:\n        /* \"#utility.yul\":4431:4550   */\n    tag_280:\n        /* \"#utility.yul\":4589:4590   */\n      0x00\n        /* \"#utility.yul\":4614:4667   */\n      tag_282\n        /* \"#utility.yul\":4659:4666   */\n      dup6\n        /* \"#utility.yul\":4650:4656   */\n      dup3\n        /* \"#utility.yul\":4639:4648   */\n      dup7\n        /* \"#utility.yul\":4635:4657   */\n      add\n        /* \"#utility.yul\":4614:4667   */\n      tag_165\n      jump\t// in\n    tag_282:\n        /* \"#utility.yul\":4604:4667   */\n      swap3\n      pop\n        /* \"#utility.yul\":4560:4677   */\n      pop\n        /* \"#utility.yul\":4716:4718   */\n      0x20\n        /* \"#utility.yul\":4742:4793   */\n      tag_283\n        /* \"#utility.yul\":4785:4792   */\n      dup6\n        /* \"#utility.yul\":4776:4782   */\n      dup3\n        /* \"#utility.yul\":4765:4774   */\n      dup7\n        /* \"#utility.yul\":4761:4783   */\n      add\n        /* \"#utility.yul\":4742:4793   */\n      tag_178\n      jump\t// in\n    tag_283:\n        /* \"#utility.yul\":4732:4793   */\n      swap2\n      pop\n        /* \"#utility.yul\":4687:4803   */\n      pop\n        /* \"#utility.yul\":4340:4810   */\n      swap3\n      pop\n      swap3\n      swap1\n      pop\n      jump\t// out\n        /* \"#utility.yul\":4816:4933   */\n    tag_179:\n        /* \"#utility.yul\":4925:4926   */\n      0x00\n        /* \"#utility.yul\":4922:4923   */\n      dup1\n        /* \"#utility.yul\":4915:4927   */\n      revert\n        /* \"#utility.yul\":4939:5056   */\n    tag_180:\n        /* \"#utility.yul\":5048:5049   */\n      0x00\n        /* \"#utility.yul\":5045:5046   */\n      dup1\n        /* \"#utility.yul\":5038:5050   */\n      revert\n        /* \"#utility.yul\":5062:5242   */\n    tag_181:\n        /* \"#utility.yul\":5110:5187   */\n      0x4e487b7100000000000000000000000000000000000000000000000000000000\n        /* \"#utility.yul\":5107:5108   */\n      0x00\n        /* \"#utility.yul\":5100:5188   */\n      mstore\n        /* \"#utility.yul\":5207:5211   */\n      0x41\n        /* \"#utility.yul\":5204:5205   */\n      0x04\n        /* \"#utility.yul\":5197:5212   */\n      mstore\n        /* \"#utility.yul\":5231:5235   */\n      0x24\n        /* \"#utility.yul\":5228:5229   */\n      0x00\n        /* \"#utility.yul\":5221:5236   */\n      revert\n        /* \"#utility.yul\":5248:5529   */\n    tag_182:\n        /* \"#utility.yul\":5331:5358   */\n      tag_288\n        /* \"#utility.yul\":5353:5357   */\n      dup3\n        /* \"#utility.yul\":5331:5358   */\n      tag_169\n      jump\t// in\n    tag_288:\n        /* \"#utility.yul\":5323:5329   */\n      dup2\n        /* \"#utility.yul\":5319:5359   */\n      add\n        /* \"#utility.yul\":5461:5467   */\n      dup2\n        /* \"#utility.yul\":5449:5459   */\n      dup2\n        /* \"#utility.yul\":5446:5468   */\n      lt\n        /* \"#utility.yul\":5425:5443   */\n      0xffffffffffffffff\n        /* \"#utility.yul\":5413:5423   */\n      dup3\n        /* \"#utility.yul\":5410:5444   */\n      gt\n        /* \"#utility.yul\":5407:5469   */\n      or\n        /* \"#utility.yul\":5404:5492   */\n      iszero\n      tag_289\n      jumpi\n        /* \"#utility.yul\":5472:5490   */\n      tag_290\n      tag_181\n      jump\t// in\n    tag_290:\n        /* \"#utility.yul\":5404:5492   */\n    tag_289:\n        /* \"#utility.yul\":5512:5522   */\n      dup1\n        /* \"#utility.yul\":5508:5510   */\n      0x40\n        /* \"#utility.yul\":5501:5523   */\n      mstore\n        /* \"#utility.yul\":5291:5529   */\n      pop\n        /* \"#utility.yul\":5248:5529   */\n      pop\n      pop\n      jump\t// out\n        /* \"#utility.yul\":5535:5664   */\n    tag_183:\n        /* \"#utility.yul\":5569:5575   */\n      0x00\n        /* \"#utility.yul\":5596:5616   */\n      tag_292\n      tag_160\n      jump\t// in\n    tag_292:\n        /* \"#utility.yul\":5586:5616   */\n      swap1\n      pop\n        /* \"#utility.yul\":5625:5658   */\n      tag_293\n        /* \"#utility.yul\":5653:5657   */\n      dup3\n        /* \"#utility.yul\":5645:5651   */\n      dup3\n        /* \"#utility.yul\":5625:5658   */\n      tag_182\n      jump\t// in\n    tag_293:\n        /* \"#utility.yul\":5535:5664   */\n      swap2\n      swap1\n      pop\n      jump\t// out\n        /* \"#utility.yul\":5670:5978   */\n    tag_184:\n        /* \"#utility.yul\":5732:5736   */\n      0x00\n        /* \"#utility.yul\":5822:5840   */\n      0xffffffffffffffff\n        /* \"#utility.yul\":5814:5820   */\n      dup3\n        /* \"#utility.yul\":5811:5841   */\n      gt\n        /* \"#utility.yul\":5808:5864   */\n      iszero\n      tag_295\n      jumpi\n        /* \"#utility.yul\":5844:5862   */\n      tag_296\n      tag_181\n      jump\t// in\n    tag_296:\n        /* \"#utility.yul\":5808:5864   */\n    tag_295:\n        /* \"#utility.yul\":5882:5911   */\n      tag_297\n        /* \"#utility.yul\":5904:5910   */\n      dup3\n        /* \"#utility.yul\":5882:5911   */\n      tag_169\n      jump\t// in\n    tag_297:\n        /* \"#utility.yul\":5874:5911   */\n      swap1\n      pop\n        /* \"#utility.yul\":5966:5970   */\n      0x20\n        /* \"#utility.yul\":5960:5964   */\n      dup2\n        /* \"#utility.yul\":5956:5971   */\n      add\n        /* \"#utility.yul\":5948:5971   */\n      swap1\n      pop\n        /* \"#utility.yul\":5670:5978   */\n      swap2\n      swap1\n      pop\n      jump\t// out\n        /* \"#utility.yul\":5984:6130   */\n    tag_185:\n        /* \"#utility.yul\":6081:6087   */\n      dup3\n        /* \"#utility.yul\":6076:6079   */\n      dup2\n        /* \"#utility.yul\":6071:6074   */\n      dup4\n        /* \"#utility.yul\":6058:6088   */\n      calldatacopy\n        /* \"#utility.yul\":6122:6123   */\n      0x00\n        /* \"#utility.yul\":6113:6119   */\n      dup4\n        /* \"#utility.yul\":6108:6111   */\n      dup4\n        /* \"#utility.yul\":6104:6120   */\n      add\n        /* \"#utility.yul\":6097:6124   */\n      mstore\n        /* \"#utility.yul\":5984:6130   */\n      pop\n      pop\n      pop\n      jump\t// out\n        /* \"#utility.yul\":6136:6561   */\n    tag_186:\n        /* \"#utility.yul\":6214:6219   */\n      0x00\n        /* \"#utility.yul\":6239:6305   */\n      tag_300\n        /* \"#utility.yul\":6255:6304   */\n      tag_301\n        /* \"#utility.yul\":6297:6303   */\n      dup5\n        /* \"#utility.yul\":6255:6304   */\n      tag_184\n      jump\t// in\n    tag_301:\n        /* \"#utility.yul\":6239:6305   */\n      tag_183\n      jump\t// in\n    tag_300:\n        /* \"#utility.yul\":6230:6305   */\n      swap1\n      pop\n        /* \"#utility.yul\":6328:6334   */\n      dup3\n        /* \"#utility.yul\":6321:6326   */\n      dup2\n        /* \"#utility.yul\":6314:6335   */\n      mstore\n        /* \"#utility.yul\":6366:6370   */\n      0x20\n        /* \"#utility.yul\":6359:6364   */\n      dup2\n        /* \"#utility.yul\":6355:6371   */\n      add\n        /* \"#utility.yul\":6404:6407   */\n      dup5\n        /* \"#utility.yul\":6395:6401   */\n      dup5\n        /* \"#utility.yul\":6390:6393   */\n      dup5\n        /* \"#utility.yul\":6386:6402   */\n      add\n        /* \"#utility.yul\":6383:6408   */\n      gt\n        /* \"#utility.yul\":6380:6492   */\n      iszero\n      tag_302\n      jumpi\n        /* \"#utility.yul\":6411:6490   */\n      tag_303\n      tag_180\n      jump\t// in\n    tag_303:\n        /* \"#utility.yul\":6380:6492   */\n    tag_302:\n        /* \"#utility.yul\":6501:6555   */\n      tag_304\n        /* \"#utility.yul\":6548:6554   */\n      dup5\n        /* \"#utility.yul\":6543:6546   */\n      dup3\n        /* \"#utility.yul\":6538:6541   */\n      dup6\n        /* \"#utility.yul\":6501:6555   */\n      tag_185\n      jump\t// in\n    tag_304:\n        /* \"#utility.yul\":6220:6561   */\n      pop\n        /* \"#utility.yul\":6136:6561   */\n      swap4\n      swap3\n      pop\n      pop\n      pop\n      jump\t// out\n        /* \"#utility.yul\":6581:6921   */\n    tag_187:\n        /* \"#utility.yul\":6637:6642   */\n      0x00\n        /* \"#utility.yul\":6686:6689   */\n      dup3\n        /* \"#utility.yul\":6679:6683   */\n      0x1f\n        /* \"#utility.yul\":6671:6677   */\n      dup4\n        /* \"#utility.yul\":6667:6684   */\n      add\n        /* \"#utility.yul\":6663:6690   */\n      slt\n        /* \"#utility.yul\":6653:6775   */\n      tag_306\n      jumpi\n        /* \"#utility.yul\":6694:6773   */\n      tag_307\n      tag_179\n      jump\t// in\n    tag_307:\n        /* \"#utility.yul\":6653:6775   */\n    tag_306:\n        /* \"#utility.yul\":6811:6817   */\n      dup2\n        /* \"#utility.yul\":6798:6818   */\n      calldataload\n        /* \"#utility.yul\":6836:6915   */\n      tag_308\n        /* \"#utility.yul\":6911:6914   */\n      dup5\n        /* \"#utility.yul\":6903:6909   */\n      dup3\n        /* \"#utility.yul\":6896:6900   */\n      0x20\n        /* \"#utility.yul\":6888:6894   */\n      dup7\n        /* \"#utility.yul\":6884:6901   */\n      add\n        /* \"#utility.yul\":6836:6915   */\n      tag_186\n      jump\t// in\n    tag_308:\n        /* \"#utility.yul\":6827:6915   */\n      swap2\n      pop\n        /* \"#utility.yul\":6643:6921   */\n      pop\n        /* \"#utility.yul\":6581:6921   */\n      swap3\n      swap2\n      pop\n      pop\n      jump\t// out\n        /* \"#utility.yul\":6927:7761   */\n    tag_44:\n        /* \"#utility.yul\":7015:7021   */\n      0x00\n        /* \"#utility.yul\":7023:7029   */\n      dup1\n        /* \"#utility.yul\":7072:7074   */\n      0x40\n        /* \"#utility.yul\":7060:7069   */\n      dup4\n        /* \"#utility.yul\":7051:7058   */\n      dup6\n        /* \"#utility.yul\":7047:7070   */\n      sub\n        /* \"#utility.yul\":7043:7075   */\n      slt\n        /* \"#utility.yul\":7040:7159   */\n      iszero\n      tag_310\n      jumpi\n        /* \"#utility.yul\":7078:7157   */\n      tag_311\n      tag_161\n      jump\t// in\n    tag_311:\n        /* \"#utility.yul\":7040:7159   */\n    tag_310:\n        /* \"#utility.yul\":7226:7227   */\n      0x00\n        /* \"#utility.yul\":7215:7224   */\n      dup4\n        /* \"#utility.yul\":7211:7228   */\n      add\n        /* \"#utility.yul\":7198:7229   */\n      calldataload\n        /* \"#utility.yul\":7256:7274   */\n      0xffffffffffffffff\n        /* \"#utility.yul\":7248:7254   */\n      dup2\n        /* \"#utility.yul\":7245:7275   */\n      gt\n        /* \"#utility.yul\":7242:7359   */\n      iszero\n      tag_312\n      jumpi\n        /* \"#utility.yul\":7278:7357   */\n      tag_313\n      tag_162\n      jump\t// in\n    tag_313:\n        /* \"#utility.yul\":7242:7359   */\n    tag_312:\n        /* \"#utility.yul\":7383:7446   */\n      tag_314\n        /* \"#utility.yul\":7438:7445   */\n      dup6\n        /* \"#utility.yul\":7429:7435   */\n      dup3\n        /* \"#utility.yul\":7418:7427   */\n      dup7\n        /* \"#utility.yul\":7414:7436   */\n      add\n        /* \"#utility.yul\":7383:7446   */\n      tag_187\n      jump\t// in\n    tag_314:\n        /* \"#utility.yul\":7373:7446   */\n      swap3\n      pop\n        /* \"#utility.yul\":7169:7456   */\n      pop\n        /* \"#utility.yul\":7523:7525   */\n      0x20\n        /* \"#utility.yul\":7512:7521   */\n      dup4\n        /* \"#utility.yul\":7508:7526   */\n      add\n        /* \"#utility.yul\":7495:7527   */\n      calldataload\n        /* \"#utility.yul\":7554:7572   */\n      0xffffffffffffffff\n        /* \"#utility.yul\":7546:7552   */\n      dup2\n        /* \"#utility.yul\":7543:7573   */\n      gt\n        /* \"#utility.yul\":7540:7657   */\n      iszero\n      tag_315\n      jumpi\n        /* \"#utility.yul\":7576:7655   */\n      tag_316\n      tag_162\n      jump\t// in\n    tag_316:\n        /* \"#utility.yul\":7540:7657   */\n    tag_315:\n        /* \"#utility.yul\":7681:7744   */\n      tag_317\n        /* \"#utility.yul\":7736:7743   */\n      dup6\n        /* \"#utility.yul\":7727:7733   */\n      dup3\n        /* \"#utility.yul\":7716:7725   */\n      dup7\n        /* \"#utility.yul\":7712:7734   */\n      add\n        /* \"#utility.yul\":7681:7744   */\n      tag_187\n      jump\t// in\n    tag_317:\n        /* \"#utility.yul\":7671:7744   */\n      swap2\n      pop\n        /* \"#utility.yul\":7466:7754   */\n      pop\n        /* \"#utility.yul\":6927:7761   */\n      swap3\n      pop\n      swap3\n      swap1\n      pop\n      jump\t// out\n        /* \"#utility.yul\":7767:8241   */\n    tag_48:\n        /* \"#utility.yul\":7835:7841   */\n      0x00\n        /* \"#utility.yul\":7843:7849   */\n      dup1\n        /* \"#utility.yul\":7892:7894   */\n      0x40\n        /* \"#utility.yul\":7880:7889   */\n      dup4\n        /* \"#utility.yul\":7871:7878   */\n      dup6\n        /* \"#utility.yul\":7867:7890   */\n      sub\n        /* \"#utility.yul\":7863:7895   */\n      slt\n        /* \"#utility.yul\":7860:7979   */\n      iszero\n      tag_319\n      jumpi\n        /* \"#utility.yul\":7898:7977   */\n      tag_320\n      tag_161\n      jump\t// in\n    tag_320:\n        /* \"#utility.yul\":7860:7979   */\n    tag_319:\n        /* \"#utility.yul\":8018:8019   */\n      0x00\n        /* \"#utility.yul\":8043:8096   */\n      tag_321\n        /* \"#utility.yul\":8088:8095   */\n      dup6\n        /* \"#utility.yul\":8079:8085   */\n      dup3\n        /* \"#utility.yul\":8068:8077   */\n      dup7\n        /* \"#utility.yul\":8064:8086   */\n      add\n        /* \"#utility.yul\":8043:8096   */\n      tag_175\n      jump\t// in\n    tag_321:\n        /* \"#utility.yul\":8033:8096   */\n      swap3\n      pop\n        /* \"#utility.yul\":7989:8106   */\n      pop\n        /* \"#utility.yul\":8145:8147   */\n      0x20\n        /* \"#utility.yul\":8171:8224   */\n      tag_322\n        /* \"#utility.yul\":8216:8223   */\n      dup6\n        /* \"#utility.yul\":8207:8213   */\n      dup3\n        /* \"#utility.yul\":8196:8205   */\n      dup7\n        /* \"#utility.yul\":8192:8214   */\n      add\n        /* \"#utility.yul\":8171:8224   */\n      tag_165\n      jump\t// in\n    tag_322:\n        /* \"#utility.yul\":8161:8224   */\n      swap2\n      pop\n        /* \"#utility.yul\":8116:8234   */\n      pop\n        /* \"#utility.yul\":7767:8241   */\n      swap3\n      pop\n      swap3\n      swap1\n      pop\n      jump\t// out\n        /* \"#utility.yul\":8247:8359   */\n    tag_188:\n        /* \"#utility.yul\":8330:8352   */\n      tag_324\n        /* \"#utility.yul\":8346:8351   */\n      dup2\n        /* \"#utility.yul\":8330:8352   */\n      tag_176\n      jump\t// in\n    tag_324:\n        /* \"#utility.yul\":8325:8328   */\n      dup3\n        /* \"#utility.yul\":8318:8353   */\n      mstore\n        /* \"#utility.yul\":8247:8359   */\n      pop\n      pop\n      jump\t// out\n        /* \"#utility.yul\":8365:8689   */\n    tag_51:\n        /* \"#utility.yul\":8482:8486   */\n      0x00\n        /* \"#utility.yul\":8520:8522   */\n      0x40\n        /* \"#utility.yul\":8509:8518   */\n      dup3\n        /* \"#utility.yul\":8505:8523   */\n      add\n        /* \"#utility.yul\":8497:8523   */\n      swap1\n      pop\n        /* \"#utility.yul\":8533:8600   */\n      tag_326\n        /* \"#utility.yul\":8597:8598   */\n      0x00\n        /* \"#utility.yul\":8586:8595   */\n      dup4\n        /* \"#utility.yul\":8582:8599   */\n      add\n        /* \"#utility.yul\":8573:8579   */\n      dup6\n        /* \"#utility.yul\":8533:8600   */\n      tag_188\n      jump\t// in\n    tag_326:\n        /* \"#utility.yul\":8610:8682   */\n      tag_327\n        /* \"#utility.yul\":8678:8680   */\n      0x20\n        /* \"#utility.yul\":8667:8676   */\n      dup4\n        /* \"#utility.yul\":8663:8681   */\n      add\n        /* \"#utility.yul\":8654:8660   */\n      dup5\n        /* \"#utility.yul\":8610:8682   */\n      tag_171\n      jump\t// in\n    tag_327:\n        /* \"#utility.yul\":8365:8689   */\n      swap4\n      swap3\n      pop\n      pop\n      pop\n      jump\t// out\n        /* \"#utility.yul\":8695:8785   */\n    tag_189:\n        /* \"#utility.yul\":8729:8736   */\n      0x00\n        /* \"#utility.yul\":8772:8777   */\n      dup2\n        /* \"#utility.yul\":8765:8778   */\n      iszero\n        /* \"#utility.yul\":8758:8779   */\n      iszero\n        /* \"#utility.yul\":8747:8779   */\n      swap1\n      pop\n        /* \"#utility.yul\":8695:8785   */\n      swap2\n      swap1\n      pop\n      jump\t// out\n        /* \"#utility.yul\":8791:8900   */\n    tag_190:\n        /* \"#utility.yul\":8872:8893   */\n      tag_330\n        /* \"#utility.yul\":8887:8892   */\n      dup2\n        /* \"#utility.yul\":8872:8893   */\n      tag_189\n      jump\t// in\n    tag_330:\n        /* \"#utility.yul\":8867:8870   */\n      dup3\n        /* \"#utility.yul\":8860:8894   */\n      mstore\n        /* \"#utility.yul\":8791:8900   */\n      pop\n      pop\n      jump\t// out\n        /* \"#utility.yul\":8906:9116   */\n    tag_62:\n        /* \"#utility.yul\":8993:8997   */\n      0x00\n        /* \"#utility.yul\":9031:9033   */\n      0x20\n        /* \"#utility.yul\":9020:9029   */\n      dup3\n        /* \"#utility.yul\":9016:9034   */\n      add\n        /* \"#utility.yul\":9008:9034   */\n      swap1\n      pop\n        /* \"#utility.yul\":9044:9109   */\n      tag_332\n        /* \"#utility.yul\":9106:9107   */\n      0x00\n        /* \"#utility.yul\":9095:9104   */\n      dup4\n        /* \"#utility.yul\":9091:9108   */\n      add\n        /* \"#utility.yul\":9082:9088   */\n      dup5\n        /* \"#utility.yul\":9044:9109   */\n      tag_190\n      jump\t// in\n    tag_332:\n        /* \"#utility.yul\":8906:9116   */\n      swap3\n      swap2\n      pop\n      pop\n      jump\t// out\n        /* \"#utility.yul\":9122:9240   */\n    tag_191:\n        /* \"#utility.yul\":9209:9233   */\n      tag_334\n        /* \"#utility.yul\":9227:9232   */\n      dup2\n        /* \"#utility.yul\":9209:9233   */\n      tag_173\n      jump\t// in\n    tag_334:\n        /* \"#utility.yul\":9204:9207   */\n      dup3\n        /* \"#utility.yul\":9197:9234   */\n      mstore\n        /* \"#utility.yul\":9122:9240   */\n      pop\n      pop\n      jump\t// out\n        /* \"#utility.yul\":9246:9680   */\n    tag_67:\n        /* \"#utility.yul\":9391:9395   */\n      0x00\n        /* \"#utility.yul\":9429:9431   */\n      0x60\n        /* \"#utility.yul\":9418:9427   */\n      dup3\n        /* \"#utility.yul\":9414:9432   */\n      add\n        /* \"#utility.yul\":9406:9432   */\n      swap1\n      pop\n        /* \"#utility.yul\":9442:9513   */\n      tag_336\n        /* \"#utility.yul\":9510:9511   */\n      0x00\n        /* \"#utility.yul\":9499:9508   */\n      dup4\n        /* \"#utility.yul\":9495:9512   */\n      add\n        /* \"#utility.yul\":9486:9492   */\n      dup7\n        /* \"#utility.yul\":9442:9513   */\n      tag_191\n      jump\t// in\n    tag_336:\n        /* \"#utility.yul\":9523:9591   */\n      tag_337\n        /* \"#utility.yul\":9587:9589   */\n      0x20\n        /* \"#utility.yul\":9576:9585   */\n      dup4\n        /* \"#utility.yul\":9572:9590   */\n      add\n        /* \"#utility.yul\":9563:9569   */\n      dup6\n        /* \"#utility.yul\":9523:9591   */\n      tag_188\n      jump\t// in\n    tag_337:\n        /* \"#utility.yul\":9601:9673   */\n      tag_338\n        /* \"#utility.yul\":9669:9671   */\n      0x40\n        /* \"#utility.yul\":9658:9667   */\n      dup4\n        /* \"#utility.yul\":9654:9672   */\n      add\n        /* \"#utility.yul\":9645:9651   */\n      dup5\n        /* \"#utility.yul\":9601:9673   */\n      tag_171\n      jump\t// in\n    tag_338:\n        /* \"#utility.yul\":9246:9680   */\n      swap5\n      swap4\n      pop\n      pop\n      pop\n      pop\n      jump\t// out\n        /* \"#utility.yul\":9686:10018   */\n    tag_72:\n        /* \"#utility.yul\":9807:9811   */\n      0x00\n        /* \"#utility.yul\":9845:9847   */\n      0x40\n        /* \"#utility.yul\":9834:9843   */\n      dup3\n        /* \"#utility.yul\":9830:9848   */\n      add\n        /* \"#utility.yul\":9822:9848   */\n      swap1\n      pop\n        /* \"#utility.yul\":9858:9929   */\n      tag_340\n        /* \"#utility.yul\":9926:9927   */\n      0x00\n        /* \"#utility.yul\":9915:9924   */\n      dup4\n        /* \"#utility.yul\":9911:9928   */\n      add\n        /* \"#utility.yul\":9902:9908   */\n      dup6\n        /* \"#utility.yul\":9858:9929   */\n      tag_171\n      jump\t// in\n    tag_340:\n        /* \"#utility.yul\":9939:10011   */\n      tag_341\n        /* \"#utility.yul\":10007:10009   */\n      0x20\n        /* \"#utility.yul\":9996:10005   */\n      dup4\n        /* \"#utility.yul\":9992:10010   */\n      add\n        /* \"#utility.yul\":9983:9989   */\n      dup5\n        /* \"#utility.yul\":9939:10011   */\n      tag_171\n      jump\t// in\n    tag_341:\n        /* \"#utility.yul\":9686:10018   */\n      swap4\n      swap3\n      pop\n      pop\n      pop\n      jump\t// out\n        /* \"#utility.yul\":10024:10084   */\n    tag_192:\n        /* \"#utility.yul\":10052:10055   */\n      0x00\n        /* \"#utility.yul\":10073:10078   */\n      dup2\n        /* \"#utility.yul\":10066:10078   */\n      swap1\n      pop\n        /* \"#utility.yul\":10024:10084   */\n      swap2\n      swap1\n      pop\n      jump\t// out\n        /* \"#utility.yul\":10090:10232   */\n    tag_193:\n        /* \"#utility.yul\":10140:10149   */\n      0x00\n        /* \"#utility.yul\":10173:10226   */\n      tag_344\n        /* \"#utility.yul\":10191:10225   */\n      tag_345\n        /* \"#utility.yul\":10200:10224   */\n      tag_346\n        /* \"#utility.yul\":10218:10223   */\n      dup5\n        /* \"#utility.yul\":10200:10224   */\n      tag_172\n      jump\t// in\n    tag_346:\n        /* \"#utility.yul\":10191:10225   */\n      tag_192\n      jump\t// in\n    tag_345:\n        /* \"#utility.yul\":10173:10226   */\n      tag_172\n      jump\t// in\n    tag_344:\n        /* \"#utility.yul\":10160:10226   */\n      swap1\n      pop\n        /* \"#utility.yul\":10090:10232   */\n      swap2\n      swap1\n      pop\n      jump\t// out\n        /* \"#utility.yul\":10238:10364   */\n    tag_194:\n        /* \"#utility.yul\":10288:10297   */\n      0x00\n        /* \"#utility.yul\":10321:10358   */\n      tag_348\n        /* \"#utility.yul\":10352:10357   */\n      dup3\n        /* \"#utility.yul\":10321:10358   */\n      tag_193\n      jump\t// in\n    tag_348:\n        /* \"#utility.yul\":10308:10358   */\n      swap1\n      pop\n        /* \"#utility.yul\":10238:10364   */\n      swap2\n      swap1\n      pop\n      jump\t// out\n        /* \"#utility.yul\":10370:10509   */\n    tag_195:\n        /* \"#utility.yul\":10433:10442   */\n      0x00\n        /* \"#utility.yul\":10466:10503   */\n      tag_350\n        /* \"#utility.yul\":10497:10502   */\n      dup3\n        /* \"#utility.yul\":10466:10503   */\n      tag_194\n      jump\t// in\n    tag_350:\n        /* \"#utility.yul\":10453:10503   */\n      swap1\n      pop\n        /* \"#utility.yul\":10370:10509   */\n      swap2\n      swap1\n      pop\n      jump\t// out\n        /* \"#utility.yul\":10515:10672   */\n    tag_196:\n        /* \"#utility.yul\":10615:10665   */\n      tag_352\n        /* \"#utility.yul\":10659:10664   */\n      dup2\n        /* \"#utility.yul\":10615:10665   */\n      tag_195\n      jump\t// in\n    tag_352:\n        /* \"#utility.yul\":10610:10613   */\n      dup3\n        /* \"#utility.yul\":10603:10666   */\n      mstore\n        /* \"#utility.yul\":10515:10672   */\n      pop\n      pop\n      jump\t// out\n        /* \"#utility.yul\":10678:10926   */\n    tag_82:\n        /* \"#utility.yul\":10784:10788   */\n      0x00\n        /* \"#utility.yul\":10822:10824   */\n      0x20\n        /* \"#utility.yul\":10811:10820   */\n      dup3\n        /* \"#utility.yul\":10807:10825   */\n      add\n        /* \"#utility.yul\":10799:10825   */\n      swap1\n      pop\n        /* \"#utility.yul\":10835:10919   */\n      tag_354\n        /* \"#utility.yul\":10916:10917   */\n      0x00\n        /* \"#utility.yul\":10905:10914   */\n      dup4\n        /* \"#utility.yul\":10901:10918   */\n      add\n        /* \"#utility.yul\":10892:10898   */\n      dup5\n        /* \"#utility.yul\":10835:10919   */\n      tag_196\n      jump\t// in\n    tag_354:\n        /* \"#utility.yul\":10678:10926   */\n      swap3\n      swap2\n      pop\n      pop\n      jump\t// out\n        /* \"#utility.yul\":10932:11112   */\n    tag_197:\n        /* \"#utility.yul\":10980:11057   */\n      0x4e487b7100000000000000000000000000000000000000000000000000000000\n        /* \"#utility.yul\":10977:10978   */\n      0x00\n        /* \"#utility.yul\":10970:11058   */\n      mstore\n        /* \"#utility.yul\":11077:11081   */\n      0x22\n        /* \"#utility.yul\":11074:11075   */\n      0x04\n        /* \"#utility.yul\":11067:11082   */\n      mstore\n        /* \"#utility.yul\":11101:11105   */\n      0x24\n        /* \"#utility.yul\":11098:11099   */\n      0x00\n        /* \"#utility.yul\":11091:11106   */\n      revert\n        /* \"#utility.yul\":11118:11438   */\n    tag_84:\n        /* \"#utility.yul\":11162:11168   */\n      0x00\n        /* \"#utility.yul\":11199:11200   */\n      0x02\n        /* \"#utility.yul\":11193:11197   */\n      dup3\n        /* \"#utility.yul\":11189:11201   */\n      div\n        /* \"#utility.yul\":11179:11201   */\n      swap1\n      pop\n        /* \"#utility.yul\":11246:11247   */\n      0x01\n        /* \"#utility.yul\":11240:11244   */\n      dup3\n        /* \"#utility.yul\":11236:11248   */\n      and\n        /* \"#utility.yul\":11267:11285   */\n      dup1\n        /* \"#utility.yul\":11257:11338   */\n      tag_357\n      jumpi\n        /* \"#utility.yul\":11323:11327   */\n      0x7f\n        /* \"#utility.yul\":11315:11321   */\n      dup3\n        /* \"#utility.yul\":11311:11328   */\n      and\n        /* \"#utility.yul\":11301:11328   */\n      swap2\n      pop\n        /* \"#utility.yul\":11257:11338   */\n    tag_357:\n        /* \"#utility.yul\":11385:11387   */\n      0x20\n        /* \"#utility.yul\":11377:11383   */\n      dup3\n        /* \"#utility.yul\":11374:11388   */\n      lt\n        /* \"#utility.yul\":11354:11372   */\n      dup2\n        /* \"#utility.yul\":11351:11389   */\n      sub\n        /* \"#utility.yul\":11348:11432   */\n      tag_358\n      jumpi\n        /* \"#utility.yul\":11404:11422   */\n      tag_359\n      tag_197\n      jump\t// in\n    tag_359:\n        /* \"#utility.yul\":11348:11432   */\n    tag_358:\n        /* \"#utility.yul\":11169:11438   */\n      pop\n        /* \"#utility.yul\":11118:11438   */\n      swap2\n      swap1\n      pop\n      jump\t// out\n        /* \"#utility.yul\":11444:11614   */\n    tag_198:\n        /* \"#utility.yul\":11584:11606   */\n      0x456e6375657374612079612066696e616c697a6f000000000000000000000000\n        /* \"#utility.yul\":11580:11581   */\n      0x00\n        /* \"#utility.yul\":11572:11578   */\n      dup3\n        /* \"#utility.yul\":11568:11582   */\n      add\n        /* \"#utility.yul\":11561:11607   */\n      mstore\n        /* \"#utility.yul\":11444:11614   */\n      pop\n      jump\t// out\n        /* \"#utility.yul\":11620:11986   */\n    tag_199:\n        /* \"#utility.yul\":11762:11765   */\n      0x00\n        /* \"#utility.yul\":11783:11850   */\n      tag_362\n        /* \"#utility.yul\":11847:11849   */\n      0x14\n        /* \"#utility.yul\":11842:11845   */\n      dup4\n        /* \"#utility.yul\":11783:11850   */\n      tag_167\n      jump\t// in\n    tag_362:\n        /* \"#utility.yul\":11776:11850   */\n      swap2\n      pop\n        /* \"#utility.yul\":11859:11952   */\n      tag_363\n        /* \"#utility.yul\":11948:11951   */\n      dup3\n        /* \"#utility.yul\":11859:11952   */\n      tag_198\n      jump\t// in\n    tag_363:\n        /* \"#utility.yul\":11977:11979   */\n      0x20\n        /* \"#utility.yul\":11972:11975   */\n      dup3\n        /* \"#utility.yul\":11968:11980   */\n      add\n        /* \"#utility.yul\":11961:11980   */\n      swap1\n      pop\n        /* \"#utility.yul\":11620:11986   */\n      swap2\n      swap1\n      pop\n      jump\t// out\n        /* \"#utility.yul\":11992:12411   */\n    tag_98:\n        /* \"#utility.yul\":12158:12162   */\n      0x00\n        /* \"#utility.yul\":12196:12198   */\n      0x20\n        /* \"#utility.yul\":12185:12194   */\n      dup3\n        /* \"#utility.yul\":12181:12199   */\n      add\n        /* \"#utility.yul\":12173:12199   */\n      swap1\n      pop\n        /* \"#utility.yul\":12245:12254   */\n      dup2\n        /* \"#utility.yul\":12239:12243   */\n      dup2\n        /* \"#utility.yul\":12235:12255   */\n      sub\n        /* \"#utility.yul\":12231:12232   */\n      0x00\n        /* \"#utility.yul\":12220:12229   */\n      dup4\n        /* \"#utility.yul\":12216:12233   */\n      add\n        /* \"#utility.yul\":12209:12256   */\n      mstore\n        /* \"#utility.yul\":12273:12404   */\n      tag_365\n        /* \"#utility.yul\":12399:12403   */\n      dup2\n        /* \"#utility.yul\":12273:12404   */\n      tag_199\n      jump\t// in\n    tag_365:\n        /* \"#utility.yul\":12265:12404   */\n      swap1\n      pop\n        /* \"#utility.yul\":11992:12411   */\n      swap2\n      swap1\n      pop\n      jump\t// out\n        /* \"#utility.yul\":12417:12599   */\n    tag_200:\n        /* \"#utility.yul\":12557:12591   */\n      0x4e6f206573746173207265676973747261646f20636f6d6f20766f74616e7465\n        /* \"#utility.yul\":12553:12554   */\n      0x00\n        /* \"#utility.yul\":12545:12551   */\n      dup3\n        /* \"#utility.yul\":12541:12555   */\n      add\n        /* \"#utility.yul\":12534:12592   */\n      mstore\n        /* \"#utility.yul\":12417:12599   */\n      pop\n      jump\t// out\n        /* \"#utility.yul\":12605:12971   */\n    tag_201:\n        /* \"#utility.yul\":12747:12750   */\n      0x00\n        /* \"#utility.yul\":12768:12835   */\n      tag_368\n        /* \"#utility.yul\":12832:12834   */\n      0x20\n        /* \"#utility.yul\":12827:12830   */\n      dup4\n        /* \"#utility.yul\":12768:12835   */\n      tag_167\n      jump\t// in\n    tag_368:\n        /* \"#utility.yul\":12761:12835   */\n      swap2\n      pop\n        /* \"#utility.yul\":12844:12937   */\n      tag_369\n        /* \"#utility.yul\":12933:12936   */\n      dup3\n        /* \"#utility.yul\":12844:12937   */\n      tag_200\n      jump\t// in\n    tag_369:\n        /* \"#utility.yul\":12962:12964   */\n      0x20\n        /* \"#utility.yul\":12957:12960   */\n      dup3\n        /* \"#utility.yul\":12953:12965   */\n      add\n        /* \"#utility.yul\":12946:12965   */\n      swap1\n      pop\n        /* \"#utility.yul\":12605:12971   */\n      swap2\n      swap1\n      pop\n      jump\t// out\n        /* \"#utility.yul\":12977:13396   */\n    tag_101:\n        /* \"#utility.yul\":13143:13147   */\n      0x00\n        /* \"#utility.yul\":13181:13183   */\n      0x20\n        /* \"#utility.yul\":13170:13179   */\n      dup3\n        /* \"#utility.yul\":13166:13184   */\n      add\n        /* \"#utility.yul\":13158:13184   */\n      swap1\n      pop\n        /* \"#utility.yul\":13230:13239   */\n      dup2\n        /* \"#utility.yul\":13224:13228   */\n      dup2\n        /* \"#utility.yul\":13220:13240   */\n      sub\n        /* \"#utility.yul\":13216:13217   */\n      0x00\n        /* \"#utility.yul\":13205:13214   */\n      dup4\n        /* \"#utility.yul\":13201:13218   */\n      add\n        /* \"#utility.yul\":13194:13241   */\n      mstore\n        /* \"#utility.yul\":13258:13389   */\n      tag_371\n        /* \"#utility.yul\":13384:13388   */\n      dup2\n        /* \"#utility.yul\":13258:13389   */\n      tag_201\n      jump\t// in\n    tag_371:\n        /* \"#utility.yul\":13250:13389   */\n      swap1\n      pop\n        /* \"#utility.yul\":12977:13396   */\n      swap2\n      swap1\n      pop\n      jump\t// out\n        /* \"#utility.yul\":13402:13627   */\n    tag_202:\n        /* \"#utility.yul\":13542:13576   */\n      0x4c6120736174697366616363696f6e206465626520657374617220656e747265\n        /* \"#utility.yul\":13538:13539   */\n      0x00\n        /* \"#utility.yul\":13530:13536   */\n      dup3\n        /* \"#utility.yul\":13526:13540   */\n      add\n        /* \"#utility.yul\":13519:13577   */\n      mstore\n        /* \"#utility.yul\":13611:13619   */\n      0x2031207920350000000000000000000000000000000000000000000000000000\n        /* \"#utility.yul\":13606:13608   */\n      0x20\n        /* \"#utility.yul\":13598:13604   */\n      dup3\n        /* \"#utility.yul\":13594:13609   */\n      add\n        /* \"#utility.yul\":13587:13620   */\n      mstore\n        /* \"#utility.yul\":13402:13627   */\n      pop\n      jump\t// out\n        /* \"#utility.yul\":13633:13999   */\n    tag_203:\n        /* \"#utility.yul\":13775:13778   */\n      0x00\n        /* \"#utility.yul\":13796:13863   */\n      tag_374\n        /* \"#utility.yul\":13860:13862   */\n      0x26\n        /* \"#utility.yul\":13855:13858   */\n      dup4\n        /* \"#utility.yul\":13796:13863   */\n      tag_167\n      jump\t// in\n    tag_374:\n        /* \"#utility.yul\":13789:13863   */\n      swap2\n      pop\n        /* \"#utility.yul\":13872:13965   */\n      tag_375\n        /* \"#utility.yul\":13961:13964   */\n      dup3\n        /* \"#utility.yul\":13872:13965   */\n      tag_202\n      jump\t// in\n    tag_375:\n        /* \"#utility.yul\":13990:13992   */\n      0x40\n        /* \"#utility.yul\":13985:13988   */\n      dup3\n        /* \"#utility.yul\":13981:13993   */\n      add\n        /* \"#utility.yul\":13974:13993   */\n      swap1\n      pop\n        /* \"#utility.yul\":13633:13999   */\n      swap2\n      swap1\n      pop\n      jump\t// out\n        /* \"#utility.yul\":14005:14424   */\n    tag_105:\n        /* \"#utility.yul\":14171:14175   */\n      0x00\n        /* \"#utility.yul\":14209:14211   */\n      0x20\n        /* \"#utility.yul\":14198:14207   */\n      dup3\n        /* \"#utility.yul\":14194:14212   */\n      add\n        /* \"#utility.yul\":14186:14212   */\n      swap1\n      pop\n        /* \"#utility.yul\":14258:14267   */\n      dup2\n        /* \"#utility.yul\":14252:14256   */\n      dup2\n        /* \"#utility.yul\":14248:14268   */\n      sub\n        /* \"#utility.yul\":14244:14245   */\n      0x00\n        /* \"#utility.yul\":14233:14242   */\n      dup4\n        /* \"#utility.yul\":14229:14246   */\n      add\n        /* \"#utility.yul\":14222:14269   */\n      mstore\n        /* \"#utility.yul\":14286:14417   */\n      tag_377\n        /* \"#utility.yul\":14412:14416   */\n      dup2\n        /* \"#utility.yul\":14286:14417   */\n      tag_203\n      jump\t// in\n    tag_377:\n        /* \"#utility.yul\":14278:14417   */\n      swap1\n      pop\n        /* \"#utility.yul\":14005:14424   */\n      swap2\n      swap1\n      pop\n      jump\t// out\n        /* \"#utility.yul\":14430:14650   */\n    tag_204:\n        /* \"#utility.yul\":14570:14604   */\n      0x59612068617320766f7461646f207061726120657374612070726f7075657374\n        /* \"#utility.yul\":14566:14567   */\n      0x00\n        /* \"#utility.yul\":14558:14564   */\n      dup3\n        /* \"#utility.yul\":14554:14568   */\n      add\n        /* \"#utility.yul\":14547:14605   */\n      mstore\n        /* \"#utility.yul\":14639:14642   */\n      0x6100000000000000000000000000000000000000000000000000000000000000\n        /* \"#utility.yul\":14634:14636   */\n      0x20\n        /* \"#utility.yul\":14626:14632   */\n      dup3\n        /* \"#utility.yul\":14622:14637   */\n      add\n        /* \"#utility.yul\":14615:14643   */\n      mstore\n        /* \"#utility.yul\":14430:14650   */\n      pop\n      jump\t// out\n        /* \"#utility.yul\":14656:15022   */\n    tag_205:\n        /* \"#utility.yul\":14798:14801   */\n      0x00\n        /* \"#utility.yul\":14819:14886   */\n      tag_380\n        /* \"#utility.yul\":14883:14885   */\n      0x21\n        /* \"#utility.yul\":14878:14881   */\n      dup4\n        /* \"#utility.yul\":14819:14886   */\n      tag_167\n      jump\t// in\n    tag_380:\n        /* \"#utility.yul\":14812:14886   */\n      swap2\n      pop\n        /* \"#utility.yul\":14895:14988   */\n      tag_381\n        /* \"#utility.yul\":14984:14987   */\n      dup3\n        /* \"#utility.yul\":14895:14988   */\n      tag_204\n      jump\t// in\n    tag_381:\n        /* \"#utility.yul\":15013:15015   */\n      0x40\n        /* \"#utility.yul\":15008:15011   */\n      dup3\n        /* \"#utility.yul\":15004:15016   */\n      add\n        /* \"#utility.yul\":14997:15016   */\n      swap1\n      pop\n        /* \"#utility.yul\":14656:15022   */\n      swap2\n      swap1\n      pop\n      jump\t// out\n        /* \"#utility.yul\":15028:15447   */\n    tag_110:\n        /* \"#utility.yul\":15194:15198   */\n      0x00\n        /* \"#utility.yul\":15232:15234   */\n      0x20\n        /* \"#utility.yul\":15221:15230   */\n      dup3\n        /* \"#utility.yul\":15217:15235   */\n      add\n        /* \"#utility.yul\":15209:15235   */\n      swap1\n      pop\n        /* \"#utility.yul\":15281:15290   */\n      dup2\n        /* \"#utility.yul\":15275:15279   */\n      dup2\n        /* \"#utility.yul\":15271:15291   */\n      sub\n        /* \"#utility.yul\":15267:15268   */\n      0x00\n        /* \"#utility.yul\":15256:15265   */\n      dup4\n        /* \"#utility.yul\":15252:15269   */\n      add\n        /* \"#utility.yul\":15245:15292   */\n      mstore\n        /* \"#utility.yul\":15309:15440   */\n      tag_383\n        /* \"#utility.yul\":15435:15439   */\n      dup2\n        /* \"#utility.yul\":15309:15440   */\n      tag_205\n      jump\t// in\n    tag_383:\n        /* \"#utility.yul\":15301:15440   */\n      swap1\n      pop\n        /* \"#utility.yul\":15028:15447   */\n      swap2\n      swap1\n      pop\n      jump\t// out\n        /* \"#utility.yul\":15453:15633   */\n    tag_206:\n        /* \"#utility.yul\":15501:15578   */\n      0x4e487b7100000000000000000000000000000000000000000000000000000000\n        /* \"#utility.yul\":15498:15499   */\n      0x00\n        /* \"#utility.yul\":15491:15579   */\n      mstore\n        /* \"#utility.yul\":15598:15602   */\n      0x11\n        /* \"#utility.yul\":15595:15596   */\n      0x04\n        /* \"#utility.yul\":15588:15603   */\n      mstore\n        /* \"#utility.yul\":15622:15626   */\n      0x24\n        /* \"#utility.yul\":15619:15620   */\n      0x00\n        /* \"#utility.yul\":15612:15627   */\n      revert\n        /* \"#utility.yul\":15639:15830   */\n    tag_112:\n        /* \"#utility.yul\":15679:15682   */\n      0x00\n        /* \"#utility.yul\":15698:15718   */\n      tag_386\n        /* \"#utility.yul\":15716:15717   */\n      dup3\n        /* \"#utility.yul\":15698:15718   */\n      tag_163\n      jump\t// in\n    tag_386:\n        /* \"#utility.yul\":15693:15718   */\n      swap2\n      pop\n        /* \"#utility.yul\":15732:15752   */\n      tag_387\n        /* \"#utility.yul\":15750:15751   */\n      dup4\n        /* \"#utility.yul\":15732:15752   */\n      tag_163\n      jump\t// in\n    tag_387:\n        /* \"#utility.yul\":15727:15752   */\n      swap3\n      pop\n        /* \"#utility.yul\":15775:15776   */\n      dup3\n        /* \"#utility.yul\":15772:15773   */\n      dup3\n        /* \"#utility.yul\":15768:15777   */\n      add\n        /* \"#utility.yul\":15761:15777   */\n      swap1\n      pop\n        /* \"#utility.yul\":15796:15799   */\n      dup1\n        /* \"#utility.yul\":15793:15794   */\n      dup3\n        /* \"#utility.yul\":15790:15800   */\n      gt\n        /* \"#utility.yul\":15787:15823   */\n      iszero\n      tag_388\n      jumpi\n        /* \"#utility.yul\":15803:15821   */\n      tag_389\n      tag_206\n      jump\t// in\n    tag_389:\n        /* \"#utility.yul\":15787:15823   */\n    tag_388:\n        /* \"#utility.yul\":15639:15830   */\n      swap3\n      swap2\n      pop\n      pop\n      jump\t// out\n        /* \"#utility.yul\":15836:16069   */\n    tag_116:\n        /* \"#utility.yul\":15875:15878   */\n      0x00\n        /* \"#utility.yul\":15898:15922   */\n      tag_391\n        /* \"#utility.yul\":15916:15921   */\n      dup3\n        /* \"#utility.yul\":15898:15922   */\n      tag_163\n      jump\t// in\n    tag_391:\n        /* \"#utility.yul\":15889:15922   */\n      swap2\n      pop\n        /* \"#utility.yul\":15944:16010   */\n      0xffffffffffffffffffffffffffffffffffffffffffffffffffffffffffffffff\n        /* \"#utility.yul\":15937:15942   */\n      dup3\n        /* \"#utility.yul\":15934:16011   */\n      sub\n        /* \"#utility.yul\":15931:16034   */\n      tag_392\n      jumpi\n        /* \"#utility.yul\":16014:16032   */\n      tag_393\n      tag_206\n      jump\t// in\n    tag_393:\n        /* \"#utility.yul\":15931:16034   */\n    tag_392:\n        /* \"#utility.yul\":16061:16062   */\n      0x01\n        /* \"#utility.yul\":16054:16059   */\n      dup3\n        /* \"#utility.yul\":16050:16063   */\n      add\n        /* \"#utility.yul\":16043:16063   */\n      swap1\n      pop\n        /* \"#utility.yul\":15836:16069   */\n      swap2\n      swap1\n      pop\n      jump\t// out\n        /* \"#utility.yul\":16075:16216   */\n    tag_207:\n        /* \"#utility.yul\":16124:16128   */\n      0x00\n        /* \"#utility.yul\":16147:16150   */\n      dup2\n        /* \"#utility.yul\":16139:16150   */\n      swap1\n      pop\n        /* \"#utility.yul\":16170:16173   */\n      dup2\n        /* \"#utility.yul\":16167:16168   */\n      0x00\n        /* \"#utility.yul\":16160:16174   */\n      mstore\n        /* \"#utility.yul\":16204:16208   */\n      0x20\n        /* \"#utility.yul\":16201:16202   */\n      0x00\n        /* \"#utility.yul\":16191:16209   */\n      keccak256\n        /* \"#utility.yul\":16183:16209   */\n      swap1\n      pop\n        /* \"#utility.yul\":16075:16216   */\n      swap2\n      swap1\n      pop\n      jump\t// out\n        /* \"#utility.yul\":16222:16315   */\n    tag_208:\n        /* \"#utility.yul\":16259:16265   */\n      0x00\n        /* \"#utility.yul\":16306:16308   */\n      0x20\n        /* \"#utility.yul\":16301:16303   */\n      0x1f\n        /* \"#utility.yul\":16294:16299   */\n      dup4\n        /* \"#utility.yul\":16290:16304   */\n      add\n        /* \"#utility.yul\":16286:16309   */\n      div\n        /* \"#utility.yul\":16276:16309   */\n      swap1\n      pop\n        /* \"#utility.yul\":16222:16315   */\n      swap2\n      swap1\n      pop\n      jump\t// out\n        /* \"#utility.yul\":16321:16428   */\n    tag_209:\n        /* \"#utility.yul\":16365:16373   */\n      0x00\n        /* \"#utility.yul\":16415:16420   */\n      dup3\n        /* \"#utility.yul\":16409:16413   */\n      dup3\n        /* \"#utility.yul\":16405:16421   */\n      shl\n        /* \"#utility.yul\":16384:16421   */\n      swap1\n      pop\n        /* \"#utility.yul\":16321:16428   */\n      swap3\n      swap2\n      pop\n      pop\n      jump\t// out\n        /* \"#utility.yul\":16434:16827   */\n    tag_210:\n        /* \"#utility.yul\":16503:16509   */\n      0x00\n        /* \"#utility.yul\":16553:16554   */\n      0x08\n        /* \"#utility.yul\":16541:16551   */\n      dup4\n        /* \"#utility.yul\":16537:16555   */\n      mul\n        /* \"#utility.yul\":16576:16673   */\n      tag_398\n        /* \"#utility.yul\":16606:16672   */\n      0xffffffffffffffffffffffffffffffffffffffffffffffffffffffffffffffff\n        /* \"#utility.yul\":16595:16604   */\n      dup3\n        /* \"#utility.yul\":16576:16673   */\n      tag_209\n      jump\t// in\n    tag_398:\n        /* \"#utility.yul\":16694:16733   */\n      tag_399\n        /* \"#utility.yul\":16724:16732   */\n      dup7\n        /* \"#utility.yul\":16713:16722   */\n      dup4\n        /* \"#utility.yul\":16694:16733   */\n      tag_209\n      jump\t// in\n    tag_399:\n        /* \"#utility.yul\":16682:16733   */\n      swap6\n      pop\n        /* \"#utility.yul\":16766:16770   */\n      dup1\n        /* \"#utility.yul\":16762:16771   */\n      not\n        /* \"#utility.yul\":16755:16760   */\n      dup5\n        /* \"#utility.yul\":16751:16772   */\n      and\n        /* \"#utility.yul\":16742:16772   */\n      swap4\n      pop\n        /* \"#utility.yul\":16815:16819   */\n      dup1\n        /* \"#utility.yul\":16805:16813   */\n      dup7\n        /* \"#utility.yul\":16801:16820   */\n      and\n        /* \"#utility.yul\":16794:16799   */\n      dup5\n        /* \"#utility.yul\":16791:16821   */\n      or\n        /* \"#utility.yul\":16781:16821   */\n      swap3\n      pop\n        /* \"#utility.yul\":16510:16827   */\n      pop\n      pop\n        /* \"#utility.yul\":16434:16827   */\n      swap4\n      swap3\n      pop\n      pop\n      pop\n      jump\t// out\n        /* \"#utility.yul\":16833:16975   */\n    tag_211:\n        /* \"#utility.yul\":16883:16892   */\n      0x00\n        /* \"#utility.yul\":16916:16969   */\n      tag_401\n        /* \"#utility.yul\":16934:16968   */\n      tag_402\n        /* \"#utility.yul\":16943:16967   */\n      tag_403\n        /* \"#utility.yul\":16961:16966   */\n      dup5\n        /* \"#utility.yul\":16943:16967   */\n      tag_163\n      jump\t// in\n    tag_403:\n        /* \"#utility.yul\":16934:16968   */\n      tag_192\n      jump\t// in\n    tag_402:\n        /* \"#utility.yul\":16916:16969   */\n      tag_163\n      jump\t// in\n    tag_401:\n        /* \"#utility.yul\":16903:16969   */\n      swap1\n      pop\n        /* \"#utility.yul\":16833:16975   */\n      swap2\n      swap1\n      pop\n      jump\t// out\n        /* \"#utility.yul\":16981:17056   */\n    tag_212:\n        /* \"#utility.yul\":17024:17027   */\n      0x00\n        /* \"#utility.yul\":17045:17050   */\n      dup2\n        /* \"#utility.yul\":17038:17050   */\n      swap1\n      pop\n        /* \"#utility.yul\":16981:17056   */\n      swap2\n      swap1\n      pop\n      jump\t// out\n        /* \"#utility.yul\":17062:17331   */\n    tag_213:\n        /* \"#utility.yul\":17172:17211   */\n      tag_406\n        /* \"#utility.yul\":17203:17210   */\n      dup4\n        /* \"#utility.yul\":17172:17211   */\n      tag_211\n      jump\t// in\n    tag_406:\n        /* \"#utility.yul\":17233:17324   */\n      tag_407\n        /* \"#utility.yul\":17282:17323   */\n      tag_408\n        /* \"#utility.yul\":17306:17322   */\n      dup3\n        /* \"#utility.yul\":17282:17323   */\n      tag_212\n      jump\t// in\n    tag_408:\n        /* \"#utility.yul\":17274:17280   */\n      dup5\n        /* \"#utility.yul\":17267:17271   */\n      dup5\n        /* \"#utility.yul\":17261:17272   */\n      sload\n        /* \"#utility.yul\":17233:17324   */\n      tag_210\n      jump\t// in\n    tag_407:\n        /* \"#utility.yul\":17227:17231   */\n      dup3\n        /* \"#utility.yul\":17220:17325   */\n      sstore\n        /* \"#utility.yul\":17138:17331   */\n      pop\n        /* \"#utility.yul\":17062:17331   */\n      pop\n      pop\n      pop\n      jump\t// out\n        /* \"#utility.yul\":17337:17410   */\n    tag_214:\n        /* \"#utility.yul\":17382:17385   */\n      0x00\n        /* \"#utility.yul\":17337:17410   */\n      swap1\n      jump\t// out\n        /* \"#utility.yul\":17416:17605   */\n    tag_215:\n        /* \"#utility.yul\":17493:17525   */\n      tag_411\n      tag_214\n      jump\t// in\n    tag_411:\n        /* \"#utility.yul\":17534:17599   */\n      tag_412\n        /* \"#utility.yul\":17592:17598   */\n      dup2\n        /* \"#utility.yul\":17584:17590   */\n      dup5\n        /* \"#utility.yul\":17578:17582   */\n      dup5\n        /* \"#utility.yul\":17534:17599   */\n      tag_213\n      jump\t// in\n    tag_412:\n        /* \"#utility.yul\":17469:17605   */\n      pop\n        /* \"#utility.yul\":17416:17605   */\n      pop\n      pop\n      jump\t// out\n        /* \"#utility.yul\":17611:17797   */\n    tag_216:\n        /* \"#utility.yul\":17671:17791   */\n    tag_414:\n        /* \"#utility.yul\":17688:17691   */\n      dup2\n        /* \"#utility.yul\":17681:17686   */\n      dup2\n        /* \"#utility.yul\":17678:17692   */\n      lt\n        /* \"#utility.yul\":17671:17791   */\n      iszero\n      tag_416\n      jumpi\n        /* \"#utility.yul\":17742:17781   */\n      tag_417\n        /* \"#utility.yul\":17779:17780   */\n      0x00\n        /* \"#utility.yul\":17772:17777   */\n      dup3\n        /* \"#utility.yul\":17742:17781   */\n      tag_215\n      jump\t// in\n    tag_417:\n        /* \"#utility.yul\":17715:17716   */\n      0x01\n        /* \"#utility.yul\":17708:17713   */\n      dup2\n        /* \"#utility.yul\":17704:17717   */\n      add\n        /* \"#utility.yul\":17695:17717   */\n      swap1\n      pop\n        /* \"#utility.yul\":17671:17791   */\n      jump(tag_414)\n    tag_416:\n        /* \"#utility.yul\":17611:17797   */\n      pop\n      pop\n      jump\t// out\n        /* \"#utility.yul\":17803:18346   */\n    tag_217:\n        /* \"#utility.yul\":17904:17906   */\n      0x1f\n        /* \"#utility.yul\":17899:17902   */\n      dup3\n        /* \"#utility.yul\":17896:17907   */\n      gt\n        /* \"#utility.yul\":17893:18339   */\n      iszero\n      tag_419\n      jumpi\n        /* \"#utility.yul\":17938:17976   */\n      tag_420\n        /* \"#utility.yul\":17970:17975   */\n      dup2\n        /* \"#utility.yul\":17938:17976   */\n      tag_207\n      jump\t// in\n    tag_420:\n        /* \"#utility.yul\":18022:18051   */\n      tag_421\n        /* \"#utility.yul\":18040:18050   */\n      dup5\n        /* \"#utility.yul\":18022:18051   */\n      tag_208\n      jump\t// in\n    tag_421:\n        /* \"#utility.yul\":18012:18020   */\n      dup2\n        /* \"#utility.yul\":18008:18052   */\n      add\n        /* \"#utility.yul\":18205:18207   */\n      0x20\n        /* \"#utility.yul\":18193:18203   */\n      dup6\n        /* \"#utility.yul\":18190:18208   */\n      lt\n        /* \"#utility.yul\":18187:18236   */\n      iszero\n      tag_422\n      jumpi\n        /* \"#utility.yul\":18226:18234   */\n      dup2\n        /* \"#utility.yul\":18211:18234   */\n      swap1\n      pop\n        /* \"#utility.yul\":18187:18236   */\n    tag_422:\n        /* \"#utility.yul\":18249:18329   */\n      tag_423\n        /* \"#utility.yul\":18305:18327   */\n      tag_424\n        /* \"#utility.yul\":18323:18326   */\n      dup6\n        /* \"#utility.yul\":18305:18327   */\n      tag_208\n      jump\t// in\n    tag_424:\n        /* \"#utility.yul\":18295:18303   */\n      dup4\n        /* \"#utility.yul\":18291:18328   */\n      add\n        /* \"#utility.yul\":18278:18289   */\n      dup3\n        /* \"#utility.yul\":18249:18329   */\n      tag_216\n      jump\t// in\n    tag_423:\n        /* \"#utility.yul\":17908:18339   */\n      pop\n      pop\n        /* \"#utility.yul\":17893:18339   */\n    tag_419:\n        /* \"#utility.yul\":17803:18346   */\n      pop\n      pop\n      pop\n      jump\t// out\n        /* \"#utility.yul\":18352:18469   */\n    tag_218:\n        /* \"#utility.yul\":18406:18414   */\n      0x00\n        /* \"#utility.yul\":18456:18461   */\n      dup3\n        /* \"#utility.yul\":18450:18454   */\n      dup3\n        /* \"#utility.yul\":18446:18462   */\n      shr\n        /* \"#utility.yul\":18425:18462   */\n      swap1\n      pop\n        /* \"#utility.yul\":18352:18469   */\n      swap3\n      swap2\n      pop\n      pop\n      jump\t// out\n        /* \"#utility.yul\":18475:18644   */\n    tag_219:\n        /* \"#utility.yul\":18519:18525   */\n      0x00\n        /* \"#utility.yul\":18552:18603   */\n      tag_427\n        /* \"#utility.yul\":18600:18601   */\n      0x00\n        /* \"#utility.yul\":18596:18602   */\n      not\n        /* \"#utility.yul\":18588:18593   */\n      dup5\n        /* \"#utility.yul\":18585:18586   */\n      0x08\n        /* \"#utility.yul\":18581:18594   */\n      mul\n        /* \"#utility.yul\":18552:18603   */\n      tag_218\n      jump\t// in\n    tag_427:\n        /* \"#utility.yul\":18548:18604   */\n      not\n        /* \"#utility.yul\":18633:18637   */\n      dup1\n        /* \"#utility.yul\":18627:18631   */\n      dup4\n        /* \"#utility.yul\":18623:18638   */\n      and\n        /* \"#utility.yul\":18613:18638   */\n      swap2\n      pop\n        /* \"#utility.yul\":18526:18644   */\n      pop\n        /* \"#utility.yul\":18475:18644   */\n      swap3\n      swap2\n      pop\n      pop\n      jump\t// out\n        /* \"#utility.yul\":18649:18944   */\n    tag_220:\n        /* \"#utility.yul\":18725:18729   */\n      0x00\n        /* \"#utility.yul\":18871:18900   */\n      tag_429\n        /* \"#utility.yul\":18896:18899   */\n      dup4\n        /* \"#utility.yul\":18890:18894   */\n      dup4\n        /* \"#utility.yul\":18871:18900   */\n      tag_219\n      jump\t// in\n    tag_429:\n        /* \"#utility.yul\":18863:18900   */\n      swap2\n      pop\n        /* \"#utility.yul\":18933:18936   */\n      dup3\n        /* \"#utility.yul\":18930:18931   */\n      0x02\n        /* \"#utility.yul\":18926:18937   */\n      mul\n        /* \"#utility.yul\":18920:18924   */\n      dup3\n        /* \"#utility.yul\":18917:18938   */\n      or\n        /* \"#utility.yul\":18909:18938   */\n      swap1\n      pop\n        /* \"#utility.yul\":18649:18944   */\n      swap3\n      swap2\n      pop\n      pop\n      jump\t// out\n        /* \"#utility.yul\":18949:20344   */\n    tag_124:\n        /* \"#utility.yul\":19066:19103   */\n      tag_431\n        /* \"#utility.yul\":19099:19102   */\n      dup3\n        /* \"#utility.yul\":19066:19103   */\n      tag_166\n      jump\t// in\n    tag_431:\n        /* \"#utility.yul\":19168:19186   */\n      0xffffffffffffffff\n        /* \"#utility.yul\":19160:19166   */\n      dup2\n        /* \"#utility.yul\":19157:19187   */\n      gt\n        /* \"#utility.yul\":19154:19210   */\n      iszero\n      tag_432\n      jumpi\n        /* \"#utility.yul\":19190:19208   */\n      tag_433\n      tag_181\n      jump\t// in\n    tag_433:\n        /* \"#utility.yul\":19154:19210   */\n    tag_432:\n        /* \"#utility.yul\":19234:19272   */\n      tag_434\n        /* \"#utility.yul\":19266:19270   */\n      dup3\n        /* \"#utility.yul\":19260:19271   */\n      sload\n        /* \"#utility.yul\":19234:19272   */\n      tag_84\n      jump\t// in\n    tag_434:\n        /* \"#utility.yul\":19319:19386   */\n      tag_435\n        /* \"#utility.yul\":19379:19385   */\n      dup3\n        /* \"#utility.yul\":19371:19377   */\n      dup3\n        /* \"#utility.yul\":19365:19369   */\n      dup6\n        /* \"#utility.yul\":19319:19386   */\n      tag_217\n      jump\t// in\n    tag_435:\n        /* \"#utility.yul\":19413:19414   */\n      0x00\n        /* \"#utility.yul\":19437:19441   */\n      0x20\n        /* \"#utility.yul\":19424:19441   */\n      swap1\n      pop\n        /* \"#utility.yul\":19469:19471   */\n      0x1f\n        /* \"#utility.yul\":19461:19467   */\n      dup4\n        /* \"#utility.yul\":19458:19472   */\n      gt\n        /* \"#utility.yul\":19486:19487   */\n      0x01\n        /* \"#utility.yul\":19481:20099   */\n      dup2\n      eq\n      tag_437\n      jumpi\n        /* \"#utility.yul\":20143:20144   */\n      0x00\n        /* \"#utility.yul\":20160:20166   */\n      dup5\n        /* \"#utility.yul\":20157:20234   */\n      iszero\n      tag_438\n      jumpi\n        /* \"#utility.yul\":20209:20218   */\n      dup3\n        /* \"#utility.yul\":20204:20207   */\n      dup8\n        /* \"#utility.yul\":20200:20219   */\n      add\n        /* \"#utility.yul\":20194:20220   */\n      mload\n        /* \"#utility.yul\":20185:20220   */\n      swap1\n      pop\n        /* \"#utility.yul\":20157:20234   */\n    tag_438:\n        /* \"#utility.yul\":20260:20327   */\n      tag_439\n        /* \"#utility.yul\":20320:20326   */\n      dup6\n        /* \"#utility.yul\":20313:20318   */\n      dup3\n        /* \"#utility.yul\":20260:20327   */\n      tag_220\n      jump\t// in\n    tag_439:\n        /* \"#utility.yul\":20254:20258   */\n      dup7\n        /* \"#utility.yul\":20247:20328   */\n      sstore\n        /* \"#utility.yul\":20116:20338   */\n      pop\n        /* \"#utility.yul\":19451:20338   */\n      jump(tag_436)\n        /* \"#utility.yul\":19481:20099   */\n    tag_437:\n        /* \"#utility.yul\":19533:19537   */\n      0x1f\n        /* \"#utility.yul\":19529:19538   */\n      not\n        /* \"#utility.yul\":19521:19527   */\n      dup5\n        /* \"#utility.yul\":19517:19539   */\n      and\n        /* \"#utility.yul\":19567:19604   */\n      tag_440\n        /* \"#utility.yul\":19599:19603   */\n      dup7\n        /* \"#utility.yul\":19567:19604   */\n      tag_207\n      jump\t// in\n    tag_440:\n        /* \"#utility.yul\":19626:19627   */\n      0x00\n        /* \"#utility.yul\":19640:19848   */\n    tag_441:\n        /* \"#utility.yul\":19654:19661   */\n      dup3\n        /* \"#utility.yul\":19651:19652   */\n      dup2\n        /* \"#utility.yul\":19648:19662   */\n      lt\n        /* \"#utility.yul\":19640:19848   */\n      iszero\n      tag_443\n      jumpi\n        /* \"#utility.yul\":19733:19742   */\n      dup5\n        /* \"#utility.yul\":19728:19731   */\n      dup10\n        /* \"#utility.yul\":19724:19743   */\n      add\n        /* \"#utility.yul\":19718:19744   */\n      mload\n        /* \"#utility.yul\":19710:19716   */\n      dup3\n        /* \"#utility.yul\":19703:19745   */\n      sstore\n        /* \"#utility.yul\":19784:19785   */\n      0x01\n        /* \"#utility.yul\":19776:19782   */\n      dup3\n        /* \"#utility.yul\":19772:19786   */\n      add\n        /* \"#utility.yul\":19762:19786   */\n      swap2\n      pop\n        /* \"#utility.yul\":19831:19833   */\n      0x20\n        /* \"#utility.yul\":19820:19829   */\n      dup6\n        /* \"#utility.yul\":19816:19834   */\n      add\n        /* \"#utility.yul\":19803:19834   */\n      swap5\n      pop\n        /* \"#utility.yul\":19677:19681   */\n      0x20\n        /* \"#utility.yul\":19674:19675   */\n      dup2\n        /* \"#utility.yul\":19670:19682   */\n      add\n        /* \"#utility.yul\":19665:19682   */\n      swap1\n      pop\n        /* \"#utility.yul\":19640:19848   */\n      jump(tag_441)\n    tag_443:\n        /* \"#utility.yul\":19876:19882   */\n      dup7\n        /* \"#utility.yul\":19867:19874   */\n      dup4\n        /* \"#utility.yul\":19864:19883   */\n      lt\n        /* \"#utility.yul\":19861:20040   */\n      iszero\n      tag_444\n      jumpi\n        /* \"#utility.yul\":19934:19943   */\n      dup5\n        /* \"#utility.yul\":19929:19932   */\n      dup10\n        /* \"#utility.yul\":19925:19944   */\n      add\n        /* \"#utility.yul\":19919:19945   */\n      mload\n        /* \"#utility.yul\":19977:20025   */\n      tag_445\n        /* \"#utility.yul\":20019:20023   */\n      0x1f\n        /* \"#utility.yul\":20011:20017   */\n      dup10\n        /* \"#utility.yul\":20007:20024   */\n      and\n        /* \"#utility.yul\":19996:20005   */\n      dup3\n        /* \"#utility.yul\":19977:20025   */\n      tag_219\n      jump\t// in\n    tag_445:\n        /* \"#utility.yul\":19969:19975   */\n      dup4\n        /* \"#utility.yul\":19962:20026   */\n      sstore\n        /* \"#utility.yul\":19884:20040   */\n      pop\n        /* \"#utility.yul\":19861:20040   */\n    tag_444:\n        /* \"#utility.yul\":20086:20087   */\n      0x01\n        /* \"#utility.yul\":20082:20083   */\n      0x02\n        /* \"#utility.yul\":20074:20080   */\n      dup9\n        /* \"#utility.yul\":20070:20084   */\n      mul\n        /* \"#utility.yul\":20066:20088   */\n      add\n        /* \"#utility.yul\":20060:20064   */\n      dup9\n        /* \"#utility.yul\":20053:20089   */\n      sstore\n        /* \"#utility.yul\":19488:20099   */\n      pop\n      pop\n      pop\n        /* \"#utility.yul\":19451:20338   */\n    tag_436:\n      pop\n        /* \"#utility.yul\":19041:20344   */\n      pop\n      pop\n      pop\n        /* \"#utility.yul\":18949:20344   */\n      pop\n      pop\n      jump\t// out\n        /* \"#utility.yul\":20350:20530   */\n    tag_134:\n        /* \"#utility.yul\":20398:20475   */\n      0x4e487b7100000000000000000000000000000000000000000000000000000000\n        /* \"#utility.yul\":20395:20396   */\n      0x00\n        /* \"#utility.yul\":20388:20476   */\n      mstore\n        /* \"#utility.yul\":20495:20499   */\n      0x32\n        /* \"#utility.yul\":20492:20493   */\n      0x04\n        /* \"#utility.yul\":20485:20500   */\n      mstore\n        /* \"#utility.yul\":20519:20523   */\n      0x24\n        /* \"#utility.yul\":20516:20517   */\n      0x00\n        /* \"#utility.yul\":20509:20524   */\n      revert\n        /* \"#utility.yul\":20536:20704   */\n    tag_221:\n        /* \"#utility.yul\":20676:20696   */\n      0x566f746f206e6f20656e636f6e747261646f0000000000000000000000000000\n        /* \"#utility.yul\":20672:20673   */\n      0x00\n        /* \"#utility.yul\":20664:20670   */\n      dup3\n        /* \"#utility.yul\":20660:20674   */\n      add\n        /* \"#utility.yul\":20653:20697   */\n      mstore\n        /* \"#utility.yul\":20536:20704   */\n      pop\n      jump\t// out\n        /* \"#utility.yul\":20710:21076   */\n    tag_222:\n        /* \"#utility.yul\":20852:20855   */\n      0x00\n        /* \"#utility.yul\":20873:20940   */\n      tag_449\n        /* \"#utility.yul\":20937:20939   */\n      0x12\n        /* \"#utility.yul\":20932:20935   */\n      dup4\n        /* \"#utility.yul\":20873:20940   */\n      tag_167\n      jump\t// in\n    tag_449:\n        /* \"#utility.yul\":20866:20940   */\n      swap2\n      pop\n        /* \"#utility.yul\":20949:21042   */\n      tag_450\n        /* \"#utility.yul\":21038:21041   */\n      dup3\n        /* \"#utility.yul\":20949:21042   */\n      tag_221\n      jump\t// in\n    tag_450:\n        /* \"#utility.yul\":21067:21069   */\n      0x20\n        /* \"#utility.yul\":21062:21065   */\n      dup3\n        /* \"#utility.yul\":21058:21070   */\n      add\n        /* \"#utility.yul\":21051:21070   */\n      swap1\n      pop\n        /* \"#utility.yul\":20710:21076   */\n      swap2\n      swap1\n      pop\n      jump\t// out\n        /* \"#utility.yul\":21082:21501   */\n    tag_138:\n        /* \"#utility.yul\":21248:21252   */\n      0x00\n        /* \"#utility.yul\":21286:21288   */\n      0x20\n        /* \"#utility.yul\":21275:21284   */\n      dup3\n        /* \"#utility.yul\":21271:21289   */\n      add\n        /* \"#utility.yul\":21263:21289   */\n      swap1\n      pop\n        /* \"#utility.yul\":21335:21344   */\n      dup2\n        /* \"#utility.yul\":21329:21333   */\n      dup2\n        /* \"#utility.yul\":21325:21345   */\n      sub\n        /* \"#utility.yul\":21321:21322   */\n      0x00\n        /* \"#utility.yul\":21310:21319   */\n      dup4\n        /* \"#utility.yul\":21306:21323   */\n      add\n        /* \"#utility.yul\":21299:21346   */\n      mstore\n        /* \"#utility.yul\":21363:21494   */\n      tag_452\n        /* \"#utility.yul\":21489:21493   */\n      dup2\n        /* \"#utility.yul\":21363:21494   */\n      tag_222\n      jump\t// in\n    tag_452:\n        /* \"#utility.yul\":21355:21494   */\n      swap1\n      pop\n        /* \"#utility.yul\":21082:21501   */\n      swap2\n      swap1\n      pop\n      jump\t// out\n        /* \"#utility.yul\":21507:21673   */\n    tag_223:\n        /* \"#utility.yul\":21647:21665   */\n      0x4e6f2068617920766f746f732061756e00000000000000000000000000000000\n        /* \"#utility.yul\":21643:21644   */\n      0x00\n        /* \"#utility.yul\":21635:21641   */\n      dup3\n        /* \"#utility.yul\":21631:21645   */\n      add\n        /* \"#utility.yul\":21624:21666   */\n      mstore\n        /* \"#utility.yul\":21507:21673   */\n      pop\n      jump\t// out\n        /* \"#utility.yul\":21679:22045   */\n    tag_224:\n        /* \"#utility.yul\":21821:21824   */\n      0x00\n        /* \"#utility.yul\":21842:21909   */\n      tag_455\n        /* \"#utility.yul\":21906:21908   */\n      0x10\n        /* \"#utility.yul\":21901:21904   */\n      dup4\n        /* \"#utility.yul\":21842:21909   */\n      tag_167\n      jump\t// in\n    tag_455:\n        /* \"#utility.yul\":21835:21909   */\n      swap2\n      pop\n        /* \"#utility.yul\":21918:22011   */\n      tag_456\n        /* \"#utility.yul\":22007:22010   */\n      dup3\n        /* \"#utility.yul\":21918:22011   */\n      tag_223\n      jump\t// in\n    tag_456:\n        /* \"#utility.yul\":22036:22038   */\n      0x20\n        /* \"#utility.yul\":22031:22034   */\n      dup3\n        /* \"#utility.yul\":22027:22039   */\n      add\n        /* \"#utility.yul\":22020:22039   */\n      swap1\n      pop\n        /* \"#utility.yul\":21679:22045   */\n      swap2\n      swap1\n      pop\n      jump\t// out\n        /* \"#utility.yul\":22051:22470   */\n    tag_142:\n        /* \"#utility.yul\":22217:22221   */\n      0x00\n        /* \"#utility.yul\":22255:22257   */\n      0x20\n        /* \"#utility.yul\":22244:22253   */\n      dup3\n        /* \"#utility.yul\":22240:22258   */\n      add\n        /* \"#utility.yul\":22232:22258   */\n      swap1\n      pop\n        /* \"#utility.yul\":22304:22313   */\n      dup2\n        /* \"#utility.yul\":22298:22302   */\n      dup2\n        /* \"#utility.yul\":22294:22314   */\n      sub\n        /* \"#utility.yul\":22290:22291   */\n      0x00\n        /* \"#utility.yul\":22279:22288   */\n      dup4\n        /* \"#utility.yul\":22275:22292   */\n      add\n        /* \"#utility.yul\":22268:22315   */\n      mstore\n        /* \"#utility.yul\":22332:22463   */\n      tag_458\n        /* \"#utility.yul\":22458:22462   */\n      dup2\n        /* \"#utility.yul\":22332:22463   */\n      tag_224\n      jump\t// in\n    tag_458:\n        /* \"#utility.yul\":22324:22463   */\n      swap1\n      pop\n        /* \"#utility.yul\":22051:22470   */\n      swap2\n      swap1\n      pop\n      jump\t// out\n        /* \"#utility.yul\":22476:22886   */\n    tag_144:\n        /* \"#utility.yul\":22516:22523   */\n      0x00\n        /* \"#utility.yul\":22539:22559   */\n      tag_460\n        /* \"#utility.yul\":22557:22558   */\n      dup3\n        /* \"#utility.yul\":22539:22559   */\n      tag_163\n      jump\t// in\n    tag_460:\n        /* \"#utility.yul\":22534:22559   */\n      swap2\n      pop\n        /* \"#utility.yul\":22573:22593   */\n      tag_461\n        /* \"#utility.yul\":22591:22592   */\n      dup4\n        /* \"#utility.yul\":22573:22593   */\n      tag_163\n      jump\t// in\n    tag_461:\n        /* \"#utility.yul\":22568:22593   */\n      swap3\n      pop\n        /* \"#utility.yul\":22628:22629   */\n      dup3\n        /* \"#utility.yul\":22625:22626   */\n      dup3\n        /* \"#utility.yul\":22621:22630   */\n      mul\n        /* \"#utility.yul\":22650:22680   */\n      tag_462\n        /* \"#utility.yul\":22668:22679   */\n      dup2\n        /* \"#utility.yul\":22650:22680   */\n      tag_163\n      jump\t// in\n    tag_462:\n        /* \"#utility.yul\":22639:22680   */\n      swap2\n      pop\n        /* \"#utility.yul\":22829:22830   */\n      dup3\n        /* \"#utility.yul\":22820:22827   */\n      dup3\n        /* \"#utility.yul\":22816:22831   */\n      div\n        /* \"#utility.yul\":22813:22814   */\n      dup5\n        /* \"#utility.yul\":22810:22832   */\n      eq\n        /* \"#utility.yul\":22790:22791   */\n      dup4\n        /* \"#utility.yul\":22783:22792   */\n      iszero\n        /* \"#utility.yul\":22763:22846   */\n      or\n        /* \"#utility.yul\":22740:22879   */\n      tag_463\n      jumpi\n        /* \"#utility.yul\":22859:22877   */\n      tag_464\n      tag_206\n      jump\t// in\n    tag_464:\n        /* \"#utility.yul\":22740:22879   */\n    tag_463:\n        /* \"#utility.yul\":22524:22886   */\n      pop\n        /* \"#utility.yul\":22476:22886   */\n      swap3\n      swap2\n      pop\n      pop\n      jump\t// out\n        /* \"#utility.yul\":22892:23072   */\n    tag_225:\n        /* \"#utility.yul\":22940:23017   */\n      0x4e487b7100000000000000000000000000000000000000000000000000000000\n        /* \"#utility.yul\":22937:22938   */\n      0x00\n        /* \"#utility.yul\":22930:23018   */\n      mstore\n        /* \"#utility.yul\":23037:23041   */\n      0x12\n        /* \"#utility.yul\":23034:23035   */\n      0x04\n        /* \"#utility.yul\":23027:23042   */\n      mstore\n        /* \"#utility.yul\":23061:23065   */\n      0x24\n        /* \"#utility.yul\":23058:23059   */\n      0x00\n        /* \"#utility.yul\":23051:23066   */\n      revert\n        /* \"#utility.yul\":23078:23263   */\n    tag_146:\n        /* \"#utility.yul\":23118:23119   */\n      0x00\n        /* \"#utility.yul\":23135:23155   */\n      tag_467\n        /* \"#utility.yul\":23153:23154   */\n      dup3\n        /* \"#utility.yul\":23135:23155   */\n      tag_163\n      jump\t// in\n    tag_467:\n        /* \"#utility.yul\":23130:23155   */\n      swap2\n      pop\n        /* \"#utility.yul\":23169:23189   */\n      tag_468\n        /* \"#utility.yul\":23187:23188   */\n      dup4\n        /* \"#utility.yul\":23169:23189   */\n      tag_163\n      jump\t// in\n    tag_468:\n        /* \"#utility.yul\":23164:23189   */\n      swap3\n      pop\n        /* \"#utility.yul\":23208:23209   */\n      dup3\n        /* \"#utility.yul\":23198:23233   */\n      tag_469\n      jumpi\n        /* \"#utility.yul\":23213:23231   */\n      tag_470\n      tag_225\n      jump\t// in\n    tag_470:\n        /* \"#utility.yul\":23198:23233   */\n    tag_469:\n        /* \"#utility.yul\":23255:23256   */\n      dup3\n        /* \"#utility.yul\":23252:23253   */\n      dup3\n        /* \"#utility.yul\":23248:23257   */\n      div\n        /* \"#utility.yul\":23243:23257   */\n      swap1\n      pop\n        /* \"#utility.yul\":23078:23263   */\n      swap3\n      swap2\n      pop\n      pop\n      jump\t// out\n        /* \"#utility.yul\":23269:23445   */\n    tag_149:\n        /* \"#utility.yul\":23301:23302   */\n      0x00\n        /* \"#utility.yul\":23318:23338   */\n      tag_472\n        /* \"#utility.yul\":23336:23337   */\n      dup3\n        /* \"#utility.yul\":23318:23338   */\n      tag_163\n      jump\t// in\n    tag_472:\n        /* \"#utility.yul\":23313:23338   */\n      swap2\n      pop\n        /* \"#utility.yul\":23352:23372   */\n      tag_473\n        /* \"#utility.yul\":23370:23371   */\n      dup4\n        /* \"#utility.yul\":23352:23372   */\n      tag_163\n      jump\t// in\n    tag_473:\n        /* \"#utility.yul\":23347:23372   */\n      swap3\n      pop\n        /* \"#utility.yul\":23391:23392   */\n      dup3\n        /* \"#utility.yul\":23381:23416   */\n      tag_474\n      jumpi\n        /* \"#utility.yul\":23396:23414   */\n      tag_475\n      tag_225\n      jump\t// in\n    tag_475:\n        /* \"#utility.yul\":23381:23416   */\n    tag_474:\n        /* \"#utility.yul\":23437:23438   */\n      dup3\n        /* \"#utility.yul\":23434:23435   */\n      dup3\n        /* \"#utility.yul\":23430:23439   */\n      mod\n        /* \"#utility.yul\":23425:23439   */\n      swap1\n      pop\n        /* \"#utility.yul\":23269:23445   */\n      swap3\n      swap2\n      pop\n      pop\n      jump\t// out\n\n    auxdata: 0xa26469706673582212208f6c8a8eb9f0f16833f45553c654a3067d61e774cd4461267467753d73d0711d64736f6c63430008120033\n}\n",
				"bytecode": {
					"linkReferences": {},
					"object": "60806040523480156200001157600080fd5b5060405162001c0838038062001c08833981810160405281019062000037919062000116565b806000806101000a81548173ffffffffffffffffffffffffffffffffffffffff021916908373ffffffffffffffffffffffffffffffffffffffff16021790555060004262000086919062000181565b600181905550620697806001546200009f919062000181565b60028190555050620001bc565b600080fd5b600073ffffffffffffffffffffffffffffffffffffffff82169050919050565b6000620000de82620000b1565b9050919050565b620000f081620000d1565b8114620000fc57600080fd5b50565b6000815190506200011081620000e5565b92915050565b6000602082840312156200012f576200012e620000ac565b5b60006200013f84828501620000ff565b91505092915050565b6000819050919050565b7f4e487b7100000000000000000000000000000000000000000000000000000000600052601160045260246000fd5b60006200018e8262000148565b91506200019b8362000148565b9250828201905080821115620001b657620001b562000152565b5b92915050565b611a3c80620001cc6000396000f3fe608060405234801561001057600080fd5b50600436106100f55760003560e01c806385a3863511610097578063cb370ddd11610066578063cb370ddd1461028c578063da35c664146102bd578063ec20ca72146102db578063fc0c546a146102f9576100f5565b806385a38635146101ee5780638778b27d1461020c578063a3ec138d1461022a578063b2731f0e1461025a576100f5565b80633c1d4bbb116100d35780633c1d4bbb146101675780633dca3d341461018557806365e481e2146101a15780636b0dd90f146101bd576100f5565b8063013cf08b146100fa578063101158af1461012d57806338db6dd31461014b575b600080fd5b610114600480360381019061010f9190610d2f565b610317565b6040516101249493929190610dfb565b60405180910390f35b610135610457565b6040516101429190610e4e565b60405180910390f35b61016560048036038101906101609190610ec7565b61045d565b005b61016f6104b8565b60405161017c9190610e4e565b60405180910390f35b61019f600480360381019061019a9190610f2d565b6104bf565b005b6101bb60048036038101906101b691906110a2565b6107ff565b005b6101d760048036038101906101d2919061111a565b6108ed565b6040516101e5929190611169565b60405180910390f35b6101f6610a47565b6040516102039190610e4e565b60405180910390f35b610214610a4d565b6040516102219190610e4e565b60405180910390f35b610244600480360381019061023f9190610ec7565b610a53565b60405161025191906111ad565b60405180910390f35b610274600480360381019061026f9190610d2f565b610a73565b604051610283939291906111d7565b60405180910390f35b6102a660048036038101906102a19190610d2f565b610aca565b6040516102b492919061120e565b60405180910390f35b6102c5610ba7565b6040516102d29190610e4e565b60405180910390f35b6102e3610bad565b6040516102f09190610e4e565b60405180910390f35b610301610bb2565b60405161030e9190611296565b60405180910390f35b600560205280600052604060002060009150905080600001805461033a906112e0565b80601f0160208091040260200160405190810160405280929190818152602001828054610366906112e0565b80156103b35780601f10610388576101008083540402835291602001916103b3565b820191906000526020600020905b81548152906001019060200180831161039657829003601f168201915b5050505050908060010180546103c8906112e0565b80601f01602080910402602001604051908101604052809291908181526020018280546103f4906112e0565b80156104415780601f1061041657610100808354040283529160200191610441565b820191906000526020600020905b81548152906001019060200180831161042457829003601f168201915b5050505050908060020154908060030154905084565b60015481565b6001600760008373ffffffffffffffffffffffffffffffffffffffff1673ffffffffffffffffffffffffffffffffffffffff16815260200190815260200160002060006101000a81548160ff02191690831515021790555050565b6206978081565b600254421115610504576040517f08c379a00000000000000000000000000000000000000000000000000000000081526004016104fb9061135d565b60405180910390fd5b600760003373ffffffffffffffffffffffffffffffffffffffff1673ffffffffffffffffffffffffffffffffffffffff16815260200190815260200160002060009054906101000a900460ff16610590576040517f08c379a0000000000000000000000000000000000000000000000000000000008152600401610587906113c9565b60405180910390fd5b60018160ff16101580156105a8575060058160ff1611155b6105e7576040517f08c379a00000000000000000000000000000000000000000000000000000000081526004016105de9061145b565b60405180910390fd5b6105f13383610bd6565b15610631576040517f08c379a0000000000000000000000000000000000000000000000000000000008152600401610628906114ed565b60405180910390fd5b60016005600084815260200190815260200160002060020154610654919061153c565b60056000848152602001908152602001600020600201819055508060ff166005600084815260200190815260200160002060030154610693919061153c565b6005600084815260200190815260200160002060030181905550600060016004546106be919061153c565b9050600460008154809291906106d390611570565b9190505550600860003373ffffffffffffffffffffffffffffffffffffffff1673ffffffffffffffffffffffffffffffffffffffff16815260200190815260200160002081908060018154018082558091505060019003906000526020600020016000909190919091505560405180606001604052803373ffffffffffffffffffffffffffffffffffffffff1681526020018360ff168152602001848152506006600083815260200190815260200160002060008201518160000160006101000a81548173ffffffffffffffffffffffffffffffffffffffff021916908373ffffffffffffffffffffffffffffffffffffffff16021790555060208201518160000160146101000a81548160ff021916908360ff16021790555060408201518160010155905050505050565b600254421115610844576040517f08c379a000000000000000000000000000000000000000000000000000000000815260040161083b9061135d565b60405180910390fd5b60006001600354610855919061153c565b90506003600081548092919061086a90611570565b919050555060405180608001604052808481526020018381526020016000815260200160008152506005600083815260200190815260200160002060008201518160000190816108ba919061175a565b5060208201518160010190816108d0919061175a565b506040820151816002015560608201518160030155905050505050565b6000806000600860008673ffffffffffffffffffffffffffffffffffffffff1673ffffffffffffffffffffffffffffffffffffffff16815260200190815260200160002080548060200260200160405190810160405280929190818152602001828054801561097b57602002820191906000526020600020905b815481526020019060010190808311610967575b5050505050905060005b8151811015610a045760008282815181106109a3576109a261182c565b5b602002602001015190506000600660008381526020019081526020016000209050868160010154036109ef578060000160149054906101000a900460ff16829550955050505050610a40565b505080806109fc90611570565b915050610985565b506040517f08c379a0000000000000000000000000000000000000000000000000000000008152600401610a37906118a7565b60405180910390fd5b9250929050565b60025481565b60045481565b60076020528060005260406000206000915054906101000a900460ff1681565b60066020528060005260406000206000915090508060000160009054906101000a900473ffffffffffffffffffffffffffffffffffffffff16908060000160149054906101000a900460ff16908060010154905083565b6000806000600560008581526020019081526020016000206002015411610b26576040517f08c379a0000000000000000000000000000000000000000000000000000000008152600401610b1d90611913565b60405180910390fd5b60006005600085815260200190815260200160002060020154670de0b6b3a76400006005600087815260200190815260200160002060030154610b699190611933565b610b7391906119a4565b9050670de0b6b3a764000081610b8991906119a4565b9250670de0b6b3a764000081610b9f91906119d5565b915050915091565b60035481565b600081565b60008054906101000a900473ffffffffffffffffffffffffffffffffffffffff1681565b600080600860008573ffffffffffffffffffffffffffffffffffffffff1673ffffffffffffffffffffffffffffffffffffffff168152602001908152602001600020805480602002602001604051908101604052809291908181526020018280548015610c6257602002820191906000526020600020905b815481526020019060010190808311610c4e575b5050505050905060005b8151811015610cd8576000828281518110610c8a57610c8961182c565b5b60200260200101519050600060066000838152602001908152602001600020905085816001015403610cc3576001945050505050610cdf565b50508080610cd090611570565b915050610c6c565b5060009150505b92915050565b6000604051905090565b600080fd5b600080fd5b6000819050919050565b610d0c81610cf9565b8114610d1757600080fd5b50565b600081359050610d2981610d03565b92915050565b600060208284031215610d4557610d44610cef565b5b6000610d5384828501610d1a565b91505092915050565b600081519050919050565b600082825260208201905092915050565b60005b83811015610d96578082015181840152602081019050610d7b565b60008484015250505050565b6000601f19601f8301169050919050565b6000610dbe82610d5c565b610dc88185610d67565b9350610dd8818560208601610d78565b610de181610da2565b840191505092915050565b610df581610cf9565b82525050565b60006080820190508181036000830152610e158187610db3565b90508181036020830152610e298186610db3565b9050610e386040830185610dec565b610e456060830184610dec565b95945050505050565b6000602082019050610e636000830184610dec565b92915050565b600073ffffffffffffffffffffffffffffffffffffffff82169050919050565b6000610e9482610e69565b9050919050565b610ea481610e89565b8114610eaf57600080fd5b50565b600081359050610ec181610e9b565b92915050565b600060208284031215610edd57610edc610cef565b5b6000610eeb84828501610eb2565b91505092915050565b600060ff82169050919050565b610f0a81610ef4565b8114610f1557600080fd5b50565b600081359050610f2781610f01565b92915050565b60008060408385031215610f4457610f43610cef565b5b6000610f5285828601610d1a565b9250506020610f6385828601610f18565b9150509250929050565b600080fd5b600080fd5b7f4e487b7100000000000000000000000000000000000000000000000000000000600052604160045260246000fd5b610faf82610da2565b810181811067ffffffffffffffff82111715610fce57610fcd610f77565b5b80604052505050565b6000610fe1610ce5565b9050610fed8282610fa6565b919050565b600067ffffffffffffffff82111561100d5761100c610f77565b5b61101682610da2565b9050602081019050919050565b82818337600083830152505050565b600061104561104084610ff2565b610fd7565b90508281526020810184848401111561106157611060610f72565b5b61106c848285611023565b509392505050565b600082601f83011261108957611088610f6d565b5b8135611099848260208601611032565b91505092915050565b600080604083850312156110b9576110b8610cef565b5b600083013567ffffffffffffffff8111156110d7576110d6610cf4565b5b6110e385828601611074565b925050602083013567ffffffffffffffff81111561110457611103610cf4565b5b61111085828601611074565b9150509250929050565b6000806040838503121561113157611130610cef565b5b600061113f85828601610eb2565b925050602061115085828601610d1a565b9150509250929050565b61116381610ef4565b82525050565b600060408201905061117e600083018561115a565b61118b6020830184610dec565b9392505050565b60008115159050919050565b6111a781611192565b82525050565b60006020820190506111c2600083018461119e565b92915050565b6111d181610e89565b82525050565b60006060820190506111ec60008301866111c8565b6111f9602083018561115a565b6112066040830184610dec565b949350505050565b60006040820190506112236000830185610dec565b6112306020830184610dec565b9392505050565b6000819050919050565b600061125c61125761125284610e69565b611237565b610e69565b9050919050565b600061126e82611241565b9050919050565b600061128082611263565b9050919050565b61129081611275565b82525050565b60006020820190506112ab6000830184611287565b92915050565b7f4e487b7100000000000000000000000000000000000000000000000000000000600052602260045260246000fd5b600060028204905060018216806112f857607f821691505b60208210810361130b5761130a6112b1565b5b50919050565b7f456e6375657374612079612066696e616c697a6f000000000000000000000000600082015250565b6000611347601483610d67565b915061135282611311565b602082019050919050565b600060208201905081810360008301526113768161133a565b9050919050565b7f4e6f206573746173207265676973747261646f20636f6d6f20766f74616e7465600082015250565b60006113b3602083610d67565b91506113be8261137d565b602082019050919050565b600060208201905081810360008301526113e2816113a6565b9050919050565b7f4c6120736174697366616363696f6e206465626520657374617220656e74726560008201527f2031207920350000000000000000000000000000000000000000000000000000602082015250565b6000611445602683610d67565b9150611450826113e9565b604082019050919050565b6000602082019050818103600083015261147481611438565b9050919050565b7f59612068617320766f7461646f207061726120657374612070726f707565737460008201527f6100000000000000000000000000000000000000000000000000000000000000602082015250565b60006114d7602183610d67565b91506114e28261147b565b604082019050919050565b60006020820190508181036000830152611506816114ca565b9050919050565b7f4e487b7100000000000000000000000000000000000000000000000000000000600052601160045260246000fd5b600061154782610cf9565b915061155283610cf9565b925082820190508082111561156a5761156961150d565b5b92915050565b600061157b82610cf9565b91507fffffffffffffffffffffffffffffffffffffffffffffffffffffffffffffffff82036115ad576115ac61150d565b5b600182019050919050565b60008190508160005260206000209050919050565b60006020601f8301049050919050565b600082821b905092915050565b60006008830261161a7fffffffffffffffffffffffffffffffffffffffffffffffffffffffffffffffff826115dd565b61162486836115dd565b95508019841693508086168417925050509392505050565b600061165761165261164d84610cf9565b611237565b610cf9565b9050919050565b6000819050919050565b6116718361163c565b61168561167d8261165e565b8484546115ea565b825550505050565b600090565b61169a61168d565b6116a5818484611668565b505050565b5b818110156116c9576116be600082611692565b6001810190506116ab565b5050565b601f82111561170e576116df816115b8565b6116e8846115cd565b810160208510156116f7578190505b61170b611703856115cd565b8301826116aa565b50505b505050565b600082821c905092915050565b600061173160001984600802611713565b1980831691505092915050565b600061174a8383611720565b9150826002028217905092915050565b61176382610d5c565b67ffffffffffffffff81111561177c5761177b610f77565b5b61178682546112e0565b6117918282856116cd565b600060209050601f8311600181146117c457600084156117b2578287015190505b6117bc858261173e565b865550611824565b601f1984166117d2866115b8565b60005b828110156117fa578489015182556001820191506020850194506020810190506117d5565b868310156118175784890151611813601f891682611720565b8355505b6001600288020188555050505b505050505050565b7f4e487b7100000000000000000000000000000000000000000000000000000000600052603260045260246000fd5b7f566f746f206e6f20656e636f6e747261646f0000000000000000000000000000600082015250565b6000611891601283610d67565b915061189c8261185b565b602082019050919050565b600060208201905081810360008301526118c081611884565b9050919050565b7f4e6f2068617920766f746f732061756e00000000000000000000000000000000600082015250565b60006118fd601083610d67565b9150611908826118c7565b602082019050919050565b6000602082019050818103600083015261192c816118f0565b9050919050565b600061193e82610cf9565b915061194983610cf9565b925082820261195781610cf9565b9150828204841483151761196e5761196d61150d565b5b5092915050565b7f4e487b7100000000000000000000000000000000000000000000000000000000600052601260045260246000fd5b60006119af82610cf9565b91506119ba83610cf9565b9250826119ca576119c9611975565b5b828204905092915050565b60006119e082610cf9565b91506119eb83610cf9565b9250826119fb576119fa611975565b5b82820690509291505056fea26469706673582212208f6c8a8eb9f0f16833f45553c654a3067d61e774cd4461267467753d73d0711d64736f6c63430008120033",
					"opcodes": "PUSH1 0x80 PUSH1 0x40 MSTORE CALLVALUE DUP1 ISZERO PUSH3 0x11 JUMPI PUSH1 0x0 DUP1 REVERT JUMPDEST POP PUSH1 0x40 MLOAD PUSH3 0x1C08 CODESIZE SUB DUP1 PUSH3 0x1C08 DUP4 CODECOPY DUP2 DUP2 ADD PUSH1 0x40 MSTORE DUP2 ADD SWAP1 PUSH3 0x37 SWAP2 SWAP1 PUSH3 0x116 JUMP JUMPDEST DUP1 PUSH1 0x0 DUP1 PUSH2 0x100 EXP DUP2 SLOAD DUP2 PUSH20 0xFFFFFFFFFFFFFFFFFFFFFFFFFFFFFFFFFFFFFFFF MUL NOT AND SWAP1 DUP4 PUSH20 0xFFFFFFFFFFFFFFFFFFFFFFFFFFFFFFFFFFFFFFFF AND MUL OR SWAP1 SSTORE POP PUSH1 0x0 TIMESTAMP PUSH3 0x86 SWAP2 SWAP1 PUSH3 0x181 JUMP JUMPDEST PUSH1 0x1 DUP2 SWAP1 SSTORE POP PUSH3 0x69780 PUSH1 0x1 SLOAD PUSH3 0x9F SWAP2 SWAP1 PUSH3 0x181 JUMP JUMPDEST PUSH1 0x2 DUP2 SWAP1 SSTORE POP POP PUSH3 0x1BC JUMP JUMPDEST PUSH1 0x0 DUP1 REVERT JUMPDEST PUSH1 0x0 PUSH20 0xFFFFFFFFFFFFFFFFFFFFFFFFFFFFFFFFFFFFFFFF DUP3 AND SWAP1 POP SWAP2 SWAP1 POP JUMP JUMPDEST PUSH1 0x0 PUSH3 0xDE DUP3 PUSH3 0xB1 JUMP JUMPDEST SWAP1 POP SWAP2 SWAP1 POP JUMP JUMPDEST PUSH3 0xF0 DUP2 PUSH3 0xD1 JUMP JUMPDEST DUP2 EQ PUSH3 0xFC JUMPI PUSH1 0x0 DUP1 REVERT JUMPDEST POP JUMP JUMPDEST PUSH1 0x0 DUP2 MLOAD SWAP1 POP PUSH3 0x110 DUP2 PUSH3 0xE5 JUMP JUMPDEST SWAP3 SWAP2 POP POP JUMP JUMPDEST PUSH1 0x0 PUSH1 0x20 DUP3 DUP5 SUB SLT ISZERO PUSH3 0x12F JUMPI PUSH3 0x12E PUSH3 0xAC JUMP JUMPDEST JUMPDEST PUSH1 0x0 PUSH3 0x13F DUP5 DUP3 DUP6 ADD PUSH3 0xFF JUMP JUMPDEST SWAP2 POP POP SWAP3 SWAP2 POP POP JUMP JUMPDEST PUSH1 0x0 DUP2 SWAP1 POP SWAP2 SWAP1 POP JUMP JUMPDEST PUSH32 0x4E487B7100000000000000000000000000000000000000000000000000000000 PUSH1 0x0 MSTORE PUSH1 0x11 PUSH1 0x4 MSTORE PUSH1 0x24 PUSH1 0x0 REVERT JUMPDEST PUSH1 0x0 PUSH3 0x18E DUP3 PUSH3 0x148 JUMP JUMPDEST SWAP2 POP PUSH3 0x19B DUP4 PUSH3 0x148 JUMP JUMPDEST SWAP3 POP DUP3 DUP3 ADD SWAP1 POP DUP1 DUP3 GT ISZERO PUSH3 0x1B6 JUMPI PUSH3 0x1B5 PUSH3 0x152 JUMP JUMPDEST JUMPDEST SWAP3 SWAP2 POP POP JUMP JUMPDEST PUSH2 0x1A3C DUP1 PUSH3 0x1CC PUSH1 0x0 CODECOPY PUSH1 0x0 RETURN INVALID PUSH1 0x80 PUSH1 0x40 MSTORE CALLVALUE DUP1 ISZERO PUSH2 0x10 JUMPI PUSH1 0x0 DUP1 REVERT JUMPDEST POP PUSH1 0x4 CALLDATASIZE LT PUSH2 0xF5 JUMPI PUSH1 0x0 CALLDATALOAD PUSH1 0xE0 SHR DUP1 PUSH4 0x85A38635 GT PUSH2 0x97 JUMPI DUP1 PUSH4 0xCB370DDD GT PUSH2 0x66 JUMPI DUP1 PUSH4 0xCB370DDD EQ PUSH2 0x28C JUMPI DUP1 PUSH4 0xDA35C664 EQ PUSH2 0x2BD JUMPI DUP1 PUSH4 0xEC20CA72 EQ PUSH2 0x2DB JUMPI DUP1 PUSH4 0xFC0C546A EQ PUSH2 0x2F9 JUMPI PUSH2 0xF5 JUMP JUMPDEST DUP1 PUSH4 0x85A38635 EQ PUSH2 0x1EE JUMPI DUP1 PUSH4 0x8778B27D EQ PUSH2 0x20C JUMPI DUP1 PUSH4 0xA3EC138D EQ PUSH2 0x22A JUMPI DUP1 PUSH4 0xB2731F0E EQ PUSH2 0x25A JUMPI PUSH2 0xF5 JUMP JUMPDEST DUP1 PUSH4 0x3C1D4BBB GT PUSH2 0xD3 JUMPI DUP1 PUSH4 0x3C1D4BBB EQ PUSH2 0x167 JUMPI DUP1 PUSH4 0x3DCA3D34 EQ PUSH2 0x185 JUMPI DUP1 PUSH4 0x65E481E2 EQ PUSH2 0x1A1 JUMPI DUP1 PUSH4 0x6B0DD90F EQ PUSH2 0x1BD JUMPI PUSH2 0xF5 JUMP JUMPDEST DUP1 PUSH4 0x13CF08B EQ PUSH2 0xFA JUMPI DUP1 PUSH4 0x101158AF EQ PUSH2 0x12D JUMPI DUP1 PUSH4 0x38DB6DD3 EQ PUSH2 0x14B JUMPI JUMPDEST PUSH1 0x0 DUP1 REVERT JUMPDEST PUSH2 0x114 PUSH1 0x4 DUP1 CALLDATASIZE SUB DUP2 ADD SWAP1 PUSH2 0x10F SWAP2 SWAP1 PUSH2 0xD2F JUMP JUMPDEST PUSH2 0x317 JUMP JUMPDEST PUSH1 0x40 MLOAD PUSH2 0x124 SWAP5 SWAP4 SWAP3 SWAP2 SWAP1 PUSH2 0xDFB JUMP JUMPDEST PUSH1 0x40 MLOAD DUP1 SWAP2 SUB SWAP1 RETURN JUMPDEST PUSH2 0x135 PUSH2 0x457 JUMP JUMPDEST PUSH1 0x40 MLOAD PUSH2 0x142 SWAP2 SWAP1 PUSH2 0xE4E JUMP JUMPDEST PUSH1 0x40 MLOAD DUP1 SWAP2 SUB SWAP1 RETURN JUMPDEST PUSH2 0x165 PUSH1 0x4 DUP1 CALLDATASIZE SUB DUP2 ADD SWAP1 PUSH2 0x160 SWAP2 SWAP1 PUSH2 0xEC7 JUMP JUMPDEST PUSH2 0x45D JUMP JUMPDEST STOP JUMPDEST PUSH2 0x16F PUSH2 0x4B8 JUMP JUMPDEST PUSH1 0x40 MLOAD PUSH2 0x17C SWAP2 SWAP1 PUSH2 0xE4E JUMP JUMPDEST PUSH1 0x40 MLOAD DUP1 SWAP2 SUB SWAP1 RETURN JUMPDEST PUSH2 0x19F PUSH1 0x4 DUP1 CALLDATASIZE SUB DUP2 ADD SWAP1 PUSH2 0x19A SWAP2 SWAP1 PUSH2 0xF2D JUMP JUMPDEST PUSH2 0x4BF JUMP JUMPDEST STOP JUMPDEST PUSH2 0x1BB PUSH1 0x4 DUP1 CALLDATASIZE SUB DUP2 ADD SWAP1 PUSH2 0x1B6 SWAP2 SWAP1 PUSH2 0x10A2 JUMP JUMPDEST PUSH2 0x7FF JUMP JUMPDEST STOP JUMPDEST PUSH2 0x1D7 PUSH1 0x4 DUP1 CALLDATASIZE SUB DUP2 ADD SWAP1 PUSH2 0x1D2 SWAP2 SWAP1 PUSH2 0x111A JUMP JUMPDEST PUSH2 0x8ED JUMP JUMPDEST PUSH1 0x40 MLOAD PUSH2 0x1E5 SWAP3 SWAP2 SWAP1 PUSH2 0x1169 JUMP JUMPDEST PUSH1 0x40 MLOAD DUP1 SWAP2 SUB SWAP1 RETURN JUMPDEST PUSH2 0x1F6 PUSH2 0xA47 JUMP JUMPDEST PUSH1 0x40 MLOAD PUSH2 0x203 SWAP2 SWAP1 PUSH2 0xE4E JUMP JUMPDEST PUSH1 0x40 MLOAD DUP1 SWAP2 SUB SWAP1 RETURN JUMPDEST PUSH2 0x214 PUSH2 0xA4D JUMP JUMPDEST PUSH1 0x40 MLOAD PUSH2 0x221 SWAP2 SWAP1 PUSH2 0xE4E JUMP JUMPDEST PUSH1 0x40 MLOAD DUP1 SWAP2 SUB SWAP1 RETURN JUMPDEST PUSH2 0x244 PUSH1 0x4 DUP1 CALLDATASIZE SUB DUP2 ADD SWAP1 PUSH2 0x23F SWAP2 SWAP1 PUSH2 0xEC7 JUMP JUMPDEST PUSH2 0xA53 JUMP JUMPDEST PUSH1 0x40 MLOAD PUSH2 0x251 SWAP2 SWAP1 PUSH2 0x11AD JUMP JUMPDEST PUSH1 0x40 MLOAD DUP1 SWAP2 SUB SWAP1 RETURN JUMPDEST PUSH2 0x274 PUSH1 0x4 DUP1 CALLDATASIZE SUB DUP2 ADD SWAP1 PUSH2 0x26F SWAP2 SWAP1 PUSH2 0xD2F JUMP JUMPDEST PUSH2 0xA73 JUMP JUMPDEST PUSH1 0x40 MLOAD PUSH2 0x283 SWAP4 SWAP3 SWAP2 SWAP1 PUSH2 0x11D7 JUMP JUMPDEST PUSH1 0x40 MLOAD DUP1 SWAP2 SUB SWAP1 RETURN JUMPDEST PUSH2 0x2A6 PUSH1 0x4 DUP1 CALLDATASIZE SUB DUP2 ADD SWAP1 PUSH2 0x2A1 SWAP2 SWAP1 PUSH2 0xD2F JUMP JUMPDEST PUSH2 0xACA JUMP JUMPDEST PUSH1 0x40 MLOAD PUSH2 0x2B4 SWAP3 SWAP2 SWAP1 PUSH2 0x120E JUMP JUMPDEST PUSH1 0x40 MLOAD DUP1 SWAP2 SUB SWAP1 RETURN JUMPDEST PUSH2 0x2C5 PUSH2 0xBA7 JUMP JUMPDEST PUSH1 0x40 MLOAD PUSH2 0x2D2 SWAP2 SWAP1 PUSH2 0xE4E JUMP JUMPDEST PUSH1 0x40 MLOAD DUP1 SWAP2 SUB SWAP1 RETURN JUMPDEST PUSH2 0x2E3 PUSH2 0xBAD JUMP JUMPDEST PUSH1 0x40 MLOAD PUSH2 0x2F0 SWAP2 SWAP1 PUSH2 0xE4E JUMP JUMPDEST PUSH1 0x40 MLOAD DUP1 SWAP2 SUB SWAP1 RETURN JUMPDEST PUSH2 0x301 PUSH2 0xBB2 JUMP JUMPDEST PUSH1 0x40 MLOAD PUSH2 0x30E SWAP2 SWAP1 PUSH2 0x1296 JUMP JUMPDEST PUSH1 0x40 MLOAD DUP1 SWAP2 SUB SWAP1 RETURN JUMPDEST PUSH1 0x5 PUSH1 0x20 MSTORE DUP1 PUSH1 0x0 MSTORE PUSH1 0x40 PUSH1 0x0 KECCAK256 PUSH1 0x0 SWAP2 POP SWAP1 POP DUP1 PUSH1 0x0 ADD DUP1 SLOAD PUSH2 0x33A SWAP1 PUSH2 0x12E0 JUMP JUMPDEST DUP1 PUSH1 0x1F ADD PUSH1 0x20 DUP1 SWAP2 DIV MUL PUSH1 0x20 ADD PUSH1 0x40 MLOAD SWAP1 DUP2 ADD PUSH1 0x40 MSTORE DUP1 SWAP3 SWAP2 SWAP1 DUP2 DUP2 MSTORE PUSH1 0x20 ADD DUP3 DUP1 SLOAD PUSH2 0x366 SWAP1 PUSH2 0x12E0 JUMP JUMPDEST DUP1 ISZERO PUSH2 0x3B3 JUMPI DUP1 PUSH1 0x1F LT PUSH2 0x388 JUMPI PUSH2 0x100 DUP1 DUP4 SLOAD DIV MUL DUP4 MSTORE SWAP2 PUSH1 0x20 ADD SWAP2 PUSH2 0x3B3 JUMP JUMPDEST DUP3 ADD SWAP2 SWAP1 PUSH1 0x0 MSTORE PUSH1 0x20 PUSH1 0x0 KECCAK256 SWAP1 JUMPDEST DUP2 SLOAD DUP2 MSTORE SWAP1 PUSH1 0x1 ADD SWAP1 PUSH1 0x20 ADD DUP1 DUP4 GT PUSH2 0x396 JUMPI DUP3 SWAP1 SUB PUSH1 0x1F AND DUP3 ADD SWAP2 JUMPDEST POP POP POP POP POP SWAP1 DUP1 PUSH1 0x1 ADD DUP1 SLOAD PUSH2 0x3C8 SWAP1 PUSH2 0x12E0 JUMP JUMPDEST DUP1 PUSH1 0x1F ADD PUSH1 0x20 DUP1 SWAP2 DIV MUL PUSH1 0x20 ADD PUSH1 0x40 MLOAD SWAP1 DUP2 ADD PUSH1 0x40 MSTORE DUP1 SWAP3 SWAP2 SWAP1 DUP2 DUP2 MSTORE PUSH1 0x20 ADD DUP3 DUP1 SLOAD PUSH2 0x3F4 SWAP1 PUSH2 0x12E0 JUMP JUMPDEST DUP1 ISZERO PUSH2 0x441 JUMPI DUP1 PUSH1 0x1F LT PUSH2 0x416 JUMPI PUSH2 0x100 DUP1 DUP4 SLOAD DIV MUL DUP4 MSTORE SWAP2 PUSH1 0x20 ADD SWAP2 PUSH2 0x441 JUMP JUMPDEST DUP3 ADD SWAP2 SWAP1 PUSH1 0x0 MSTORE PUSH1 0x20 PUSH1 0x0 KECCAK256 SWAP1 JUMPDEST DUP2 SLOAD DUP2 MSTORE SWAP1 PUSH1 0x1 ADD SWAP1 PUSH1 0x20 ADD DUP1 DUP4 GT PUSH2 0x424 JUMPI DUP3 SWAP1 SUB PUSH1 0x1F AND DUP3 ADD SWAP2 JUMPDEST POP POP POP POP POP SWAP1 DUP1 PUSH1 0x2 ADD SLOAD SWAP1 DUP1 PUSH1 0x3 ADD SLOAD SWAP1 POP DUP5 JUMP JUMPDEST PUSH1 0x1 SLOAD DUP2 JUMP JUMPDEST PUSH1 0x1 PUSH1 0x7 PUSH1 0x0 DUP4 PUSH20 0xFFFFFFFFFFFFFFFFFFFFFFFFFFFFFFFFFFFFFFFF AND PUSH20 0xFFFFFFFFFFFFFFFFFFFFFFFFFFFFFFFFFFFFFFFF AND DUP2 MSTORE PUSH1 0x20 ADD SWAP1 DUP2 MSTORE PUSH1 0x20 ADD PUSH1 0x0 KECCAK256 PUSH1 0x0 PUSH2 0x100 EXP DUP2 SLOAD DUP2 PUSH1 0xFF MUL NOT AND SWAP1 DUP4 ISZERO ISZERO MUL OR SWAP1 SSTORE POP POP JUMP JUMPDEST PUSH3 0x69780 DUP2 JUMP JUMPDEST PUSH1 0x2 SLOAD TIMESTAMP GT ISZERO PUSH2 0x504 JUMPI PUSH1 0x40 MLOAD PUSH32 0x8C379A000000000000000000000000000000000000000000000000000000000 DUP2 MSTORE PUSH1 0x4 ADD PUSH2 0x4FB SWAP1 PUSH2 0x135D JUMP JUMPDEST PUSH1 0x40 MLOAD DUP1 SWAP2 SUB SWAP1 REVERT JUMPDEST PUSH1 0x7 PUSH1 0x0 CALLER PUSH20 0xFFFFFFFFFFFFFFFFFFFFFFFFFFFFFFFFFFFFFFFF AND PUSH20 0xFFFFFFFFFFFFFFFFFFFFFFFFFFFFFFFFFFFFFFFF AND DUP2 MSTORE PUSH1 0x20 ADD SWAP1 DUP2 MSTORE PUSH1 0x20 ADD PUSH1 0x0 KECCAK256 PUSH1 0x0 SWAP1 SLOAD SWAP1 PUSH2 0x100 EXP SWAP1 DIV PUSH1 0xFF AND PUSH2 0x590 JUMPI PUSH1 0x40 MLOAD PUSH32 0x8C379A000000000000000000000000000000000000000000000000000000000 DUP2 MSTORE PUSH1 0x4 ADD PUSH2 0x587 SWAP1 PUSH2 0x13C9 JUMP JUMPDEST PUSH1 0x40 MLOAD DUP1 SWAP2 SUB SWAP1 REVERT JUMPDEST PUSH1 0x1 DUP2 PUSH1 0xFF AND LT ISZERO DUP1 ISZERO PUSH2 0x5A8 JUMPI POP PUSH1 0x5 DUP2 PUSH1 0xFF AND GT ISZERO JUMPDEST PUSH2 0x5E7 JUMPI PUSH1 0x40 MLOAD PUSH32 0x8C379A000000000000000000000000000000000000000000000000000000000 DUP2 MSTORE PUSH1 0x4 ADD PUSH2 0x5DE SWAP1 PUSH2 0x145B JUMP JUMPDEST PUSH1 0x40 MLOAD DUP1 SWAP2 SUB SWAP1 REVERT JUMPDEST PUSH2 0x5F1 CALLER DUP4 PUSH2 0xBD6 JUMP JUMPDEST ISZERO PUSH2 0x631 JUMPI PUSH1 0x40 MLOAD PUSH32 0x8C379A000000000000000000000000000000000000000000000000000000000 DUP2 MSTORE PUSH1 0x4 ADD PUSH2 0x628 SWAP1 PUSH2 0x14ED JUMP JUMPDEST PUSH1 0x40 MLOAD DUP1 SWAP2 SUB SWAP1 REVERT JUMPDEST PUSH1 0x1 PUSH1 0x5 PUSH1 0x0 DUP5 DUP2 MSTORE PUSH1 0x20 ADD SWAP1 DUP2 MSTORE PUSH1 0x20 ADD PUSH1 0x0 KECCAK256 PUSH1 0x2 ADD SLOAD PUSH2 0x654 SWAP2 SWAP1 PUSH2 0x153C JUMP JUMPDEST PUSH1 0x5 PUSH1 0x0 DUP5 DUP2 MSTORE PUSH1 0x20 ADD SWAP1 DUP2 MSTORE PUSH1 0x20 ADD PUSH1 0x0 KECCAK256 PUSH1 0x2 ADD DUP2 SWAP1 SSTORE POP DUP1 PUSH1 0xFF AND PUSH1 0x5 PUSH1 0x0 DUP5 DUP2 MSTORE PUSH1 0x20 ADD SWAP1 DUP2 MSTORE PUSH1 0x20 ADD PUSH1 0x0 KECCAK256 PUSH1 0x3 ADD SLOAD PUSH2 0x693 SWAP2 SWAP1 PUSH2 0x153C JUMP JUMPDEST PUSH1 0x5 PUSH1 0x0 DUP5 DUP2 MSTORE PUSH1 0x20 ADD SWAP1 DUP2 MSTORE PUSH1 0x20 ADD PUSH1 0x0 KECCAK256 PUSH1 0x3 ADD DUP2 SWAP1 SSTORE POP PUSH1 0x0 PUSH1 0x1 PUSH1 0x4 SLOAD PUSH2 0x6BE SWAP2 SWAP1 PUSH2 0x153C JUMP JUMPDEST SWAP1 POP PUSH1 0x4 PUSH1 0x0 DUP2 SLOAD DUP1 SWAP3 SWAP2 SWAP1 PUSH2 0x6D3 SWAP1 PUSH2 0x1570 JUMP JUMPDEST SWAP2 SWAP1 POP SSTORE POP PUSH1 0x8 PUSH1 0x0 CALLER PUSH20 0xFFFFFFFFFFFFFFFFFFFFFFFFFFFFFFFFFFFFFFFF AND PUSH20 0xFFFFFFFFFFFFFFFFFFFFFFFFFFFFFFFFFFFFFFFF AND DUP2 MSTORE PUSH1 0x20 ADD SWAP1 DUP2 MSTORE PUSH1 0x20 ADD PUSH1 0x0 KECCAK256 DUP2 SWAP1 DUP1 PUSH1 0x1 DUP2 SLOAD ADD DUP1 DUP3 SSTORE DUP1 SWAP2 POP POP PUSH1 0x1 SWAP1 SUB SWAP1 PUSH1 0x0 MSTORE PUSH1 0x20 PUSH1 0x0 KECCAK256 ADD PUSH1 0x0 SWAP1 SWAP2 SWAP1 SWAP2 SWAP1 SWAP2 POP SSTORE PUSH1 0x40 MLOAD DUP1 PUSH1 0x60 ADD PUSH1 0x40 MSTORE DUP1 CALLER PUSH20 0xFFFFFFFFFFFFFFFFFFFFFFFFFFFFFFFFFFFFFFFF AND DUP2 MSTORE PUSH1 0x20 ADD DUP4 PUSH1 0xFF AND DUP2 MSTORE PUSH1 0x20 ADD DUP5 DUP2 MSTORE POP PUSH1 0x6 PUSH1 0x0 DUP4 DUP2 MSTORE PUSH1 0x20 ADD SWAP1 DUP2 MSTORE PUSH1 0x20 ADD PUSH1 0x0 KECCAK256 PUSH1 0x0 DUP3 ADD MLOAD DUP2 PUSH1 0x0 ADD PUSH1 0x0 PUSH2 0x100 EXP DUP2 SLOAD DUP2 PUSH20 0xFFFFFFFFFFFFFFFFFFFFFFFFFFFFFFFFFFFFFFFF MUL NOT AND SWAP1 DUP4 PUSH20 0xFFFFFFFFFFFFFFFFFFFFFFFFFFFFFFFFFFFFFFFF AND MUL OR SWAP1 SSTORE POP PUSH1 0x20 DUP3 ADD MLOAD DUP2 PUSH1 0x0 ADD PUSH1 0x14 PUSH2 0x100 EXP DUP2 SLOAD DUP2 PUSH1 0xFF MUL NOT AND SWAP1 DUP4 PUSH1 0xFF AND MUL OR SWAP1 SSTORE POP PUSH1 0x40 DUP3 ADD MLOAD DUP2 PUSH1 0x1 ADD SSTORE SWAP1 POP POP POP POP POP JUMP JUMPDEST PUSH1 0x2 SLOAD TIMESTAMP GT ISZERO PUSH2 0x844 JUMPI PUSH1 0x40 MLOAD PUSH32 0x8C379A000000000000000000000000000000000000000000000000000000000 DUP2 MSTORE PUSH1 0x4 ADD PUSH2 0x83B SWAP1 PUSH2 0x135D JUMP JUMPDEST PUSH1 0x40 MLOAD DUP1 SWAP2 SUB SWAP1 REVERT JUMPDEST PUSH1 0x0 PUSH1 0x1 PUSH1 0x3 SLOAD PUSH2 0x855 SWAP2 SWAP1 PUSH2 0x153C JUMP JUMPDEST SWAP1 POP PUSH1 0x3 PUSH1 0x0 DUP2 SLOAD DUP1 SWAP3 SWAP2 SWAP1 PUSH2 0x86A SWAP1 PUSH2 0x1570 JUMP JUMPDEST SWAP2 SWAP1 POP SSTORE POP PUSH1 0x40 MLOAD DUP1 PUSH1 0x80 ADD PUSH1 0x40 MSTORE DUP1 DUP5 DUP2 MSTORE PUSH1 0x20 ADD DUP4 DUP2 MSTORE PUSH1 0x20 ADD PUSH1 0x0 DUP2 MSTORE PUSH1 0x20 ADD PUSH1 0x0 DUP2 MSTORE POP PUSH1 0x5 PUSH1 0x0 DUP4 DUP2 MSTORE PUSH1 0x20 ADD SWAP1 DUP2 MSTORE PUSH1 0x20 ADD PUSH1 0x0 KECCAK256 PUSH1 0x0 DUP3 ADD MLOAD DUP2 PUSH1 0x0 ADD SWAP1 DUP2 PUSH2 0x8BA SWAP2 SWAP1 PUSH2 0x175A JUMP JUMPDEST POP PUSH1 0x20 DUP3 ADD MLOAD DUP2 PUSH1 0x1 ADD SWAP1 DUP2 PUSH2 0x8D0 SWAP2 SWAP1 PUSH2 0x175A JUMP JUMPDEST POP PUSH1 0x40 DUP3 ADD MLOAD DUP2 PUSH1 0x2 ADD SSTORE PUSH1 0x60 DUP3 ADD MLOAD DUP2 PUSH1 0x3 ADD SSTORE SWAP1 POP POP POP POP POP JUMP JUMPDEST PUSH1 0x0 DUP1 PUSH1 0x0 PUSH1 0x8 PUSH1 0x0 DUP7 PUSH20 0xFFFFFFFFFFFFFFFFFFFFFFFFFFFFFFFFFFFFFFFF AND PUSH20 0xFFFFFFFFFFFFFFFFFFFFFFFFFFFFFFFFFFFFFFFF AND DUP2 MSTORE PUSH1 0x20 ADD SWAP1 DUP2 MSTORE PUSH1 0x20 ADD PUSH1 0x0 KECCAK256 DUP1 SLOAD DUP1 PUSH1 0x20 MUL PUSH1 0x20 ADD PUSH1 0x40 MLOAD SWAP1 DUP2 ADD PUSH1 0x40 MSTORE DUP1 SWAP3 SWAP2 SWAP1 DUP2 DUP2 MSTORE PUSH1 0x20 ADD DUP3 DUP1 SLOAD DUP1 ISZERO PUSH2 0x97B JUMPI PUSH1 0x20 MUL DUP3 ADD SWAP2 SWAP1 PUSH1 0x0 MSTORE PUSH1 0x20 PUSH1 0x0 KECCAK256 SWAP1 JUMPDEST DUP2 SLOAD DUP2 MSTORE PUSH1 0x20 ADD SWAP1 PUSH1 0x1 ADD SWAP1 DUP1 DUP4 GT PUSH2 0x967 JUMPI JUMPDEST POP POP POP POP POP SWAP1 POP PUSH1 0x0 JUMPDEST DUP2 MLOAD DUP2 LT ISZERO PUSH2 0xA04 JUMPI PUSH1 0x0 DUP3 DUP3 DUP2 MLOAD DUP2 LT PUSH2 0x9A3 JUMPI PUSH2 0x9A2 PUSH2 0x182C JUMP JUMPDEST JUMPDEST PUSH1 0x20 MUL PUSH1 0x20 ADD ADD MLOAD SWAP1 POP PUSH1 0x0 PUSH1 0x6 PUSH1 0x0 DUP4 DUP2 MSTORE PUSH1 0x20 ADD SWAP1 DUP2 MSTORE PUSH1 0x20 ADD PUSH1 0x0 KECCAK256 SWAP1 POP DUP7 DUP2 PUSH1 0x1 ADD SLOAD SUB PUSH2 0x9EF JUMPI DUP1 PUSH1 0x0 ADD PUSH1 0x14 SWAP1 SLOAD SWAP1 PUSH2 0x100 EXP SWAP1 DIV PUSH1 0xFF AND DUP3 SWAP6 POP SWAP6 POP POP POP POP POP PUSH2 0xA40 JUMP JUMPDEST POP POP DUP1 DUP1 PUSH2 0x9FC SWAP1 PUSH2 0x1570 JUMP JUMPDEST SWAP2 POP POP PUSH2 0x985 JUMP JUMPDEST POP PUSH1 0x40 MLOAD PUSH32 0x8C379A000000000000000000000000000000000000000000000000000000000 DUP2 MSTORE PUSH1 0x4 ADD PUSH2 0xA37 SWAP1 PUSH2 0x18A7 JUMP JUMPDEST PUSH1 0x40 MLOAD DUP1 SWAP2 SUB SWAP1 REVERT JUMPDEST SWAP3 POP SWAP3 SWAP1 POP JUMP JUMPDEST PUSH1 0x2 SLOAD DUP2 JUMP JUMPDEST PUSH1 0x4 SLOAD DUP2 JUMP JUMPDEST PUSH1 0x7 PUSH1 0x20 MSTORE DUP1 PUSH1 0x0 MSTORE PUSH1 0x40 PUSH1 0x0 KECCAK256 PUSH1 0x0 SWAP2 POP SLOAD SWAP1 PUSH2 0x100 EXP SWAP1 DIV PUSH1 0xFF AND DUP2 JUMP JUMPDEST PUSH1 0x6 PUSH1 0x20 MSTORE DUP1 PUSH1 0x0 MSTORE PUSH1 0x40 PUSH1 0x0 KECCAK256 PUSH1 0x0 SWAP2 POP SWAP1 POP DUP1 PUSH1 0x0 ADD PUSH1 0x0 SWAP1 SLOAD SWAP1 PUSH2 0x100 EXP SWAP1 DIV PUSH20 0xFFFFFFFFFFFFFFFFFFFFFFFFFFFFFFFFFFFFFFFF AND SWAP1 DUP1 PUSH1 0x0 ADD PUSH1 0x14 SWAP1 SLOAD SWAP1 PUSH2 0x100 EXP SWAP1 DIV PUSH1 0xFF AND SWAP1 DUP1 PUSH1 0x1 ADD SLOAD SWAP1 POP DUP4 JUMP JUMPDEST PUSH1 0x0 DUP1 PUSH1 0x0 PUSH1 0x5 PUSH1 0x0 DUP6 DUP2 MSTORE PUSH1 0x20 ADD SWAP1 DUP2 MSTORE PUSH1 0x20 ADD PUSH1 0x0 KECCAK256 PUSH1 0x2 ADD SLOAD GT PUSH2 0xB26 JUMPI PUSH1 0x40 MLOAD PUSH32 0x8C379A000000000000000000000000000000000000000000000000000000000 DUP2 MSTORE PUSH1 0x4 ADD PUSH2 0xB1D SWAP1 PUSH2 0x1913 JUMP JUMPDEST PUSH1 0x40 MLOAD DUP1 SWAP2 SUB SWAP1 REVERT JUMPDEST PUSH1 0x0 PUSH1 0x5 PUSH1 0x0 DUP6 DUP2 MSTORE PUSH1 0x20 ADD SWAP1 DUP2 MSTORE PUSH1 0x20 ADD PUSH1 0x0 KECCAK256 PUSH1 0x2 ADD SLOAD PUSH8 0xDE0B6B3A7640000 PUSH1 0x5 PUSH1 0x0 DUP8 DUP2 MSTORE PUSH1 0x20 ADD SWAP1 DUP2 MSTORE PUSH1 0x20 ADD PUSH1 0x0 KECCAK256 PUSH1 0x3 ADD SLOAD PUSH2 0xB69 SWAP2 SWAP1 PUSH2 0x1933 JUMP JUMPDEST PUSH2 0xB73 SWAP2 SWAP1 PUSH2 0x19A4 JUMP JUMPDEST SWAP1 POP PUSH8 0xDE0B6B3A7640000 DUP2 PUSH2 0xB89 SWAP2 SWAP1 PUSH2 0x19A4 JUMP JUMPDEST SWAP3 POP PUSH8 0xDE0B6B3A7640000 DUP2 PUSH2 0xB9F SWAP2 SWAP1 PUSH2 0x19D5 JUMP JUMPDEST SWAP2 POP POP SWAP2 POP SWAP2 JUMP JUMPDEST PUSH1 0x3 SLOAD DUP2 JUMP JUMPDEST PUSH1 0x0 DUP2 JUMP JUMPDEST PUSH1 0x0 DUP1 SLOAD SWAP1 PUSH2 0x100 EXP SWAP1 DIV PUSH20 0xFFFFFFFFFFFFFFFFFFFFFFFFFFFFFFFFFFFFFFFF AND DUP2 JUMP JUMPDEST PUSH1 0x0 DUP1 PUSH1 0x8 PUSH1 0x0 DUP6 PUSH20 0xFFFFFFFFFFFFFFFFFFFFFFFFFFFFFFFFFFFFFFFF AND PUSH20 0xFFFFFFFFFFFFFFFFFFFFFFFFFFFFFFFFFFFFFFFF AND DUP2 MSTORE PUSH1 0x20 ADD SWAP1 DUP2 MSTORE PUSH1 0x20 ADD PUSH1 0x0 KECCAK256 DUP1 SLOAD DUP1 PUSH1 0x20 MUL PUSH1 0x20 ADD PUSH1 0x40 MLOAD SWAP1 DUP2 ADD PUSH1 0x40 MSTORE DUP1 SWAP3 SWAP2 SWAP1 DUP2 DUP2 MSTORE PUSH1 0x20 ADD DUP3 DUP1 SLOAD DUP1 ISZERO PUSH2 0xC62 JUMPI PUSH1 0x20 MUL DUP3 ADD SWAP2 SWAP1 PUSH1 0x0 MSTORE PUSH1 0x20 PUSH1 0x0 KECCAK256 SWAP1 JUMPDEST DUP2 SLOAD DUP2 MSTORE PUSH1 0x20 ADD SWAP1 PUSH1 0x1 ADD SWAP1 DUP1 DUP4 GT PUSH2 0xC4E JUMPI JUMPDEST POP POP POP POP POP SWAP1 POP PUSH1 0x0 JUMPDEST DUP2 MLOAD DUP2 LT ISZERO PUSH2 0xCD8 JUMPI PUSH1 0x0 DUP3 DUP3 DUP2 MLOAD DUP2 LT PUSH2 0xC8A JUMPI PUSH2 0xC89 PUSH2 0x182C JUMP JUMPDEST JUMPDEST PUSH1 0x20 MUL PUSH1 0x20 ADD ADD MLOAD SWAP1 POP PUSH1 0x0 PUSH1 0x6 PUSH1 0x0 DUP4 DUP2 MSTORE PUSH1 0x20 ADD SWAP1 DUP2 MSTORE PUSH1 0x20 ADD PUSH1 0x0 KECCAK256 SWAP1 POP DUP6 DUP2 PUSH1 0x1 ADD SLOAD SUB PUSH2 0xCC3 JUMPI PUSH1 0x1 SWAP5 POP POP POP POP POP PUSH2 0xCDF JUMP JUMPDEST POP POP DUP1 DUP1 PUSH2 0xCD0 SWAP1 PUSH2 0x1570 JUMP JUMPDEST SWAP2 POP POP PUSH2 0xC6C JUMP JUMPDEST POP PUSH1 0x0 SWAP2 POP POP JUMPDEST SWAP3 SWAP2 POP POP JUMP JUMPDEST PUSH1 0x0 PUSH1 0x40 MLOAD SWAP1 POP SWAP1 JUMP JUMPDEST PUSH1 0x0 DUP1 REVERT JUMPDEST PUSH1 0x0 DUP1 REVERT JUMPDEST PUSH1 0x0 DUP2 SWAP1 POP SWAP2 SWAP1 POP JUMP JUMPDEST PUSH2 0xD0C DUP2 PUSH2 0xCF9 JUMP JUMPDEST DUP2 EQ PUSH2 0xD17 JUMPI PUSH1 0x0 DUP1 REVERT JUMPDEST POP JUMP JUMPDEST PUSH1 0x0 DUP2 CALLDATALOAD SWAP1 POP PUSH2 0xD29 DUP2 PUSH2 0xD03 JUMP JUMPDEST SWAP3 SWAP2 POP POP JUMP JUMPDEST PUSH1 0x0 PUSH1 0x20 DUP3 DUP5 SUB SLT ISZERO PUSH2 0xD45 JUMPI PUSH2 0xD44 PUSH2 0xCEF JUMP JUMPDEST JUMPDEST PUSH1 0x0 PUSH2 0xD53 DUP5 DUP3 DUP6 ADD PUSH2 0xD1A JUMP JUMPDEST SWAP2 POP POP SWAP3 SWAP2 POP POP JUMP JUMPDEST PUSH1 0x0 DUP2 MLOAD SWAP1 POP SWAP2 SWAP1 POP JUMP JUMPDEST PUSH1 0x0 DUP3 DUP3 MSTORE PUSH1 0x20 DUP3 ADD SWAP1 POP SWAP3 SWAP2 POP POP JUMP JUMPDEST PUSH1 0x0 JUMPDEST DUP4 DUP2 LT ISZERO PUSH2 0xD96 JUMPI DUP1 DUP3 ADD MLOAD DUP2 DUP5 ADD MSTORE PUSH1 0x20 DUP2 ADD SWAP1 POP PUSH2 0xD7B JUMP JUMPDEST PUSH1 0x0 DUP5 DUP5 ADD MSTORE POP POP POP POP JUMP JUMPDEST PUSH1 0x0 PUSH1 0x1F NOT PUSH1 0x1F DUP4 ADD AND SWAP1 POP SWAP2 SWAP1 POP JUMP JUMPDEST PUSH1 0x0 PUSH2 0xDBE DUP3 PUSH2 0xD5C JUMP JUMPDEST PUSH2 0xDC8 DUP2 DUP6 PUSH2 0xD67 JUMP JUMPDEST SWAP4 POP PUSH2 0xDD8 DUP2 DUP6 PUSH1 0x20 DUP7 ADD PUSH2 0xD78 JUMP JUMPDEST PUSH2 0xDE1 DUP2 PUSH2 0xDA2 JUMP JUMPDEST DUP5 ADD SWAP2 POP POP SWAP3 SWAP2 POP POP JUMP JUMPDEST PUSH2 0xDF5 DUP2 PUSH2 0xCF9 JUMP JUMPDEST DUP3 MSTORE POP POP JUMP JUMPDEST PUSH1 0x0 PUSH1 0x80 DUP3 ADD SWAP1 POP DUP2 DUP2 SUB PUSH1 0x0 DUP4 ADD MSTORE PUSH2 0xE15 DUP2 DUP8 PUSH2 0xDB3 JUMP JUMPDEST SWAP1 POP DUP2 DUP2 SUB PUSH1 0x20 DUP4 ADD MSTORE PUSH2 0xE29 DUP2 DUP7 PUSH2 0xDB3 JUMP JUMPDEST SWAP1 POP PUSH2 0xE38 PUSH1 0x40 DUP4 ADD DUP6 PUSH2 0xDEC JUMP JUMPDEST PUSH2 0xE45 PUSH1 0x60 DUP4 ADD DUP5 PUSH2 0xDEC JUMP JUMPDEST SWAP6 SWAP5 POP POP POP POP POP JUMP JUMPDEST PUSH1 0x0 PUSH1 0x20 DUP3 ADD SWAP1 POP PUSH2 0xE63 PUSH1 0x0 DUP4 ADD DUP5 PUSH2 0xDEC JUMP JUMPDEST SWAP3 SWAP2 POP POP JUMP JUMPDEST PUSH1 0x0 PUSH20 0xFFFFFFFFFFFFFFFFFFFFFFFFFFFFFFFFFFFFFFFF DUP3 AND SWAP1 POP SWAP2 SWAP1 POP JUMP JUMPDEST PUSH1 0x0 PUSH2 0xE94 DUP3 PUSH2 0xE69 JUMP JUMPDEST SWAP1 POP SWAP2 SWAP1 POP JUMP JUMPDEST PUSH2 0xEA4 DUP2 PUSH2 0xE89 JUMP JUMPDEST DUP2 EQ PUSH2 0xEAF JUMPI PUSH1 0x0 DUP1 REVERT JUMPDEST POP JUMP JUMPDEST PUSH1 0x0 DUP2 CALLDATALOAD SWAP1 POP PUSH2 0xEC1 DUP2 PUSH2 0xE9B JUMP JUMPDEST SWAP3 SWAP2 POP POP JUMP JUMPDEST PUSH1 0x0 PUSH1 0x20 DUP3 DUP5 SUB SLT ISZERO PUSH2 0xEDD JUMPI PUSH2 0xEDC PUSH2 0xCEF JUMP JUMPDEST JUMPDEST PUSH1 0x0 PUSH2 0xEEB DUP5 DUP3 DUP6 ADD PUSH2 0xEB2 JUMP JUMPDEST SWAP2 POP POP SWAP3 SWAP2 POP POP JUMP JUMPDEST PUSH1 0x0 PUSH1 0xFF DUP3 AND SWAP1 POP SWAP2 SWAP1 POP JUMP JUMPDEST PUSH2 0xF0A DUP2 PUSH2 0xEF4 JUMP JUMPDEST DUP2 EQ PUSH2 0xF15 JUMPI PUSH1 0x0 DUP1 REVERT JUMPDEST POP JUMP JUMPDEST PUSH1 0x0 DUP2 CALLDATALOAD SWAP1 POP PUSH2 0xF27 DUP2 PUSH2 0xF01 JUMP JUMPDEST SWAP3 SWAP2 POP POP JUMP JUMPDEST PUSH1 0x0 DUP1 PUSH1 0x40 DUP4 DUP6 SUB SLT ISZERO PUSH2 0xF44 JUMPI PUSH2 0xF43 PUSH2 0xCEF JUMP JUMPDEST JUMPDEST PUSH1 0x0 PUSH2 0xF52 DUP6 DUP3 DUP7 ADD PUSH2 0xD1A JUMP JUMPDEST SWAP3 POP POP PUSH1 0x20 PUSH2 0xF63 DUP6 DUP3 DUP7 ADD PUSH2 0xF18 JUMP JUMPDEST SWAP2 POP POP SWAP3 POP SWAP3 SWAP1 POP JUMP JUMPDEST PUSH1 0x0 DUP1 REVERT JUMPDEST PUSH1 0x0 DUP1 REVERT JUMPDEST PUSH32 0x4E487B7100000000000000000000000000000000000000000000000000000000 PUSH1 0x0 MSTORE PUSH1 0x41 PUSH1 0x4 MSTORE PUSH1 0x24 PUSH1 0x0 REVERT JUMPDEST PUSH2 0xFAF DUP3 PUSH2 0xDA2 JUMP JUMPDEST DUP2 ADD DUP2 DUP2 LT PUSH8 0xFFFFFFFFFFFFFFFF DUP3 GT OR ISZERO PUSH2 0xFCE JUMPI PUSH2 0xFCD PUSH2 0xF77 JUMP JUMPDEST JUMPDEST DUP1 PUSH1 0x40 MSTORE POP POP POP JUMP JUMPDEST PUSH1 0x0 PUSH2 0xFE1 PUSH2 0xCE5 JUMP JUMPDEST SWAP1 POP PUSH2 0xFED DUP3 DUP3 PUSH2 0xFA6 JUMP JUMPDEST SWAP2 SWAP1 POP JUMP JUMPDEST PUSH1 0x0 PUSH8 0xFFFFFFFFFFFFFFFF DUP3 GT ISZERO PUSH2 0x100D JUMPI PUSH2 0x100C PUSH2 0xF77 JUMP JUMPDEST JUMPDEST PUSH2 0x1016 DUP3 PUSH2 0xDA2 JUMP JUMPDEST SWAP1 POP PUSH1 0x20 DUP2 ADD SWAP1 POP SWAP2 SWAP1 POP JUMP JUMPDEST DUP3 DUP2 DUP4 CALLDATACOPY PUSH1 0x0 DUP4 DUP4 ADD MSTORE POP POP POP JUMP JUMPDEST PUSH1 0x0 PUSH2 0x1045 PUSH2 0x1040 DUP5 PUSH2 0xFF2 JUMP JUMPDEST PUSH2 0xFD7 JUMP JUMPDEST SWAP1 POP DUP3 DUP2 MSTORE PUSH1 0x20 DUP2 ADD DUP5 DUP5 DUP5 ADD GT ISZERO PUSH2 0x1061 JUMPI PUSH2 0x1060 PUSH2 0xF72 JUMP JUMPDEST JUMPDEST PUSH2 0x106C DUP5 DUP3 DUP6 PUSH2 0x1023 JUMP JUMPDEST POP SWAP4 SWAP3 POP POP POP JUMP JUMPDEST PUSH1 0x0 DUP3 PUSH1 0x1F DUP4 ADD SLT PUSH2 0x1089 JUMPI PUSH2 0x1088 PUSH2 0xF6D JUMP JUMPDEST JUMPDEST DUP2 CALLDATALOAD PUSH2 0x1099 DUP5 DUP3 PUSH1 0x20 DUP7 ADD PUSH2 0x1032 JUMP JUMPDEST SWAP2 POP POP SWAP3 SWAP2 POP POP JUMP JUMPDEST PUSH1 0x0 DUP1 PUSH1 0x40 DUP4 DUP6 SUB SLT ISZERO PUSH2 0x10B9 JUMPI PUSH2 0x10B8 PUSH2 0xCEF JUMP JUMPDEST JUMPDEST PUSH1 0x0 DUP4 ADD CALLDATALOAD PUSH8 0xFFFFFFFFFFFFFFFF DUP2 GT ISZERO PUSH2 0x10D7 JUMPI PUSH2 0x10D6 PUSH2 0xCF4 JUMP JUMPDEST JUMPDEST PUSH2 0x10E3 DUP6 DUP3 DUP7 ADD PUSH2 0x1074 JUMP JUMPDEST SWAP3 POP POP PUSH1 0x20 DUP4 ADD CALLDATALOAD PUSH8 0xFFFFFFFFFFFFFFFF DUP2 GT ISZERO PUSH2 0x1104 JUMPI PUSH2 0x1103 PUSH2 0xCF4 JUMP JUMPDEST JUMPDEST PUSH2 0x1110 DUP6 DUP3 DUP7 ADD PUSH2 0x1074 JUMP JUMPDEST SWAP2 POP POP SWAP3 POP SWAP3 SWAP1 POP JUMP JUMPDEST PUSH1 0x0 DUP1 PUSH1 0x40 DUP4 DUP6 SUB SLT ISZERO PUSH2 0x1131 JUMPI PUSH2 0x1130 PUSH2 0xCEF JUMP JUMPDEST JUMPDEST PUSH1 0x0 PUSH2 0x113F DUP6 DUP3 DUP7 ADD PUSH2 0xEB2 JUMP JUMPDEST SWAP3 POP POP PUSH1 0x20 PUSH2 0x1150 DUP6 DUP3 DUP7 ADD PUSH2 0xD1A JUMP JUMPDEST SWAP2 POP POP SWAP3 POP SWAP3 SWAP1 POP JUMP JUMPDEST PUSH2 0x1163 DUP2 PUSH2 0xEF4 JUMP JUMPDEST DUP3 MSTORE POP POP JUMP JUMPDEST PUSH1 0x0 PUSH1 0x40 DUP3 ADD SWAP1 POP PUSH2 0x117E PUSH1 0x0 DUP4 ADD DUP6 PUSH2 0x115A JUMP JUMPDEST PUSH2 0x118B PUSH1 0x20 DUP4 ADD DUP5 PUSH2 0xDEC JUMP JUMPDEST SWAP4 SWAP3 POP POP POP JUMP JUMPDEST PUSH1 0x0 DUP2 ISZERO ISZERO SWAP1 POP SWAP2 SWAP1 POP JUMP JUMPDEST PUSH2 0x11A7 DUP2 PUSH2 0x1192 JUMP JUMPDEST DUP3 MSTORE POP POP JUMP JUMPDEST PUSH1 0x0 PUSH1 0x20 DUP3 ADD SWAP1 POP PUSH2 0x11C2 PUSH1 0x0 DUP4 ADD DUP5 PUSH2 0x119E JUMP JUMPDEST SWAP3 SWAP2 POP POP JUMP JUMPDEST PUSH2 0x11D1 DUP2 PUSH2 0xE89 JUMP JUMPDEST DUP3 MSTORE POP POP JUMP JUMPDEST PUSH1 0x0 PUSH1 0x60 DUP3 ADD SWAP1 POP PUSH2 0x11EC PUSH1 0x0 DUP4 ADD DUP7 PUSH2 0x11C8 JUMP JUMPDEST PUSH2 0x11F9 PUSH1 0x20 DUP4 ADD DUP6 PUSH2 0x115A JUMP JUMPDEST PUSH2 0x1206 PUSH1 0x40 DUP4 ADD DUP5 PUSH2 0xDEC JUMP JUMPDEST SWAP5 SWAP4 POP POP POP POP JUMP JUMPDEST PUSH1 0x0 PUSH1 0x40 DUP3 ADD SWAP1 POP PUSH2 0x1223 PUSH1 0x0 DUP4 ADD DUP6 PUSH2 0xDEC JUMP JUMPDEST PUSH2 0x1230 PUSH1 0x20 DUP4 ADD DUP5 PUSH2 0xDEC JUMP JUMPDEST SWAP4 SWAP3 POP POP POP JUMP JUMPDEST PUSH1 0x0 DUP2 SWAP1 POP SWAP2 SWAP1 POP JUMP JUMPDEST PUSH1 0x0 PUSH2 0x125C PUSH2 0x1257 PUSH2 0x1252 DUP5 PUSH2 0xE69 JUMP JUMPDEST PUSH2 0x1237 JUMP JUMPDEST PUSH2 0xE69 JUMP JUMPDEST SWAP1 POP SWAP2 SWAP1 POP JUMP JUMPDEST PUSH1 0x0 PUSH2 0x126E DUP3 PUSH2 0x1241 JUMP JUMPDEST SWAP1 POP SWAP2 SWAP1 POP JUMP JUMPDEST PUSH1 0x0 PUSH2 0x1280 DUP3 PUSH2 0x1263 JUMP JUMPDEST SWAP1 POP SWAP2 SWAP1 POP JUMP JUMPDEST PUSH2 0x1290 DUP2 PUSH2 0x1275 JUMP JUMPDEST DUP3 MSTORE POP POP JUMP JUMPDEST PUSH1 0x0 PUSH1 0x20 DUP3 ADD SWAP1 POP PUSH2 0x12AB PUSH1 0x0 DUP4 ADD DUP5 PUSH2 0x1287 JUMP JUMPDEST SWAP3 SWAP2 POP POP JUMP JUMPDEST PUSH32 0x4E487B7100000000000000000000000000000000000000000000000000000000 PUSH1 0x0 MSTORE PUSH1 0x22 PUSH1 0x4 MSTORE PUSH1 0x24 PUSH1 0x0 REVERT JUMPDEST PUSH1 0x0 PUSH1 0x2 DUP3 DIV SWAP1 POP PUSH1 0x1 DUP3 AND DUP1 PUSH2 0x12F8 JUMPI PUSH1 0x7F DUP3 AND SWAP2 POP JUMPDEST PUSH1 0x20 DUP3 LT DUP2 SUB PUSH2 0x130B JUMPI PUSH2 0x130A PUSH2 0x12B1 JUMP JUMPDEST JUMPDEST POP SWAP2 SWAP1 POP JUMP JUMPDEST PUSH32 0x456E6375657374612079612066696E616C697A6F000000000000000000000000 PUSH1 0x0 DUP3 ADD MSTORE POP JUMP JUMPDEST PUSH1 0x0 PUSH2 0x1347 PUSH1 0x14 DUP4 PUSH2 0xD67 JUMP JUMPDEST SWAP2 POP PUSH2 0x1352 DUP3 PUSH2 0x1311 JUMP JUMPDEST PUSH1 0x20 DUP3 ADD SWAP1 POP SWAP2 SWAP1 POP JUMP JUMPDEST PUSH1 0x0 PUSH1 0x20 DUP3 ADD SWAP1 POP DUP2 DUP2 SUB PUSH1 0x0 DUP4 ADD MSTORE PUSH2 0x1376 DUP2 PUSH2 0x133A JUMP JUMPDEST SWAP1 POP SWAP2 SWAP1 POP JUMP JUMPDEST PUSH32 0x4E6F206573746173207265676973747261646F20636F6D6F20766F74616E7465 PUSH1 0x0 DUP3 ADD MSTORE POP JUMP JUMPDEST PUSH1 0x0 PUSH2 0x13B3 PUSH1 0x20 DUP4 PUSH2 0xD67 JUMP JUMPDEST SWAP2 POP PUSH2 0x13BE DUP3 PUSH2 0x137D JUMP JUMPDEST PUSH1 0x20 DUP3 ADD SWAP1 POP SWAP2 SWAP1 POP JUMP JUMPDEST PUSH1 0x0 PUSH1 0x20 DUP3 ADD SWAP1 POP DUP2 DUP2 SUB PUSH1 0x0 DUP4 ADD MSTORE PUSH2 0x13E2 DUP2 PUSH2 0x13A6 JUMP JUMPDEST SWAP1 POP SWAP2 SWAP1 POP JUMP JUMPDEST PUSH32 0x4C6120736174697366616363696F6E206465626520657374617220656E747265 PUSH1 0x0 DUP3 ADD MSTORE PUSH32 0x2031207920350000000000000000000000000000000000000000000000000000 PUSH1 0x20 DUP3 ADD MSTORE POP JUMP JUMPDEST PUSH1 0x0 PUSH2 0x1445 PUSH1 0x26 DUP4 PUSH2 0xD67 JUMP JUMPDEST SWAP2 POP PUSH2 0x1450 DUP3 PUSH2 0x13E9 JUMP JUMPDEST PUSH1 0x40 DUP3 ADD SWAP1 POP SWAP2 SWAP1 POP JUMP JUMPDEST PUSH1 0x0 PUSH1 0x20 DUP3 ADD SWAP1 POP DUP2 DUP2 SUB PUSH1 0x0 DUP4 ADD MSTORE PUSH2 0x1474 DUP2 PUSH2 0x1438 JUMP JUMPDEST SWAP1 POP SWAP2 SWAP1 POP JUMP JUMPDEST PUSH32 0x59612068617320766F7461646F207061726120657374612070726F7075657374 PUSH1 0x0 DUP3 ADD MSTORE PUSH32 0x6100000000000000000000000000000000000000000000000000000000000000 PUSH1 0x20 DUP3 ADD MSTORE POP JUMP JUMPDEST PUSH1 0x0 PUSH2 0x14D7 PUSH1 0x21 DUP4 PUSH2 0xD67 JUMP JUMPDEST SWAP2 POP PUSH2 0x14E2 DUP3 PUSH2 0x147B JUMP JUMPDEST PUSH1 0x40 DUP3 ADD SWAP1 POP SWAP2 SWAP1 POP JUMP JUMPDEST PUSH1 0x0 PUSH1 0x20 DUP3 ADD SWAP1 POP DUP2 DUP2 SUB PUSH1 0x0 DUP4 ADD MSTORE PUSH2 0x1506 DUP2 PUSH2 0x14CA JUMP JUMPDEST SWAP1 POP SWAP2 SWAP1 POP JUMP JUMPDEST PUSH32 0x4E487B7100000000000000000000000000000000000000000000000000000000 PUSH1 0x0 MSTORE PUSH1 0x11 PUSH1 0x4 MSTORE PUSH1 0x24 PUSH1 0x0 REVERT JUMPDEST PUSH1 0x0 PUSH2 0x1547 DUP3 PUSH2 0xCF9 JUMP JUMPDEST SWAP2 POP PUSH2 0x1552 DUP4 PUSH2 0xCF9 JUMP JUMPDEST SWAP3 POP DUP3 DUP3 ADD SWAP1 POP DUP1 DUP3 GT ISZERO PUSH2 0x156A JUMPI PUSH2 0x1569 PUSH2 0x150D JUMP JUMPDEST JUMPDEST SWAP3 SWAP2 POP POP JUMP JUMPDEST PUSH1 0x0 PUSH2 0x157B DUP3 PUSH2 0xCF9 JUMP JUMPDEST SWAP2 POP PUSH32 0xFFFFFFFFFFFFFFFFFFFFFFFFFFFFFFFFFFFFFFFFFFFFFFFFFFFFFFFFFFFFFFFF DUP3 SUB PUSH2 0x15AD JUMPI PUSH2 0x15AC PUSH2 0x150D JUMP JUMPDEST JUMPDEST PUSH1 0x1 DUP3 ADD SWAP1 POP SWAP2 SWAP1 POP JUMP JUMPDEST PUSH1 0x0 DUP2 SWAP1 POP DUP2 PUSH1 0x0 MSTORE PUSH1 0x20 PUSH1 0x0 KECCAK256 SWAP1 POP SWAP2 SWAP1 POP JUMP JUMPDEST PUSH1 0x0 PUSH1 0x20 PUSH1 0x1F DUP4 ADD DIV SWAP1 POP SWAP2 SWAP1 POP JUMP JUMPDEST PUSH1 0x0 DUP3 DUP3 SHL SWAP1 POP SWAP3 SWAP2 POP POP JUMP JUMPDEST PUSH1 0x0 PUSH1 0x8 DUP4 MUL PUSH2 0x161A PUSH32 0xFFFFFFFFFFFFFFFFFFFFFFFFFFFFFFFFFFFFFFFFFFFFFFFFFFFFFFFFFFFFFFFF DUP3 PUSH2 0x15DD JUMP JUMPDEST PUSH2 0x1624 DUP7 DUP4 PUSH2 0x15DD JUMP JUMPDEST SWAP6 POP DUP1 NOT DUP5 AND SWAP4 POP DUP1 DUP7 AND DUP5 OR SWAP3 POP POP POP SWAP4 SWAP3 POP POP POP JUMP JUMPDEST PUSH1 0x0 PUSH2 0x1657 PUSH2 0x1652 PUSH2 0x164D DUP5 PUSH2 0xCF9 JUMP JUMPDEST PUSH2 0x1237 JUMP JUMPDEST PUSH2 0xCF9 JUMP JUMPDEST SWAP1 POP SWAP2 SWAP1 POP JUMP JUMPDEST PUSH1 0x0 DUP2 SWAP1 POP SWAP2 SWAP1 POP JUMP JUMPDEST PUSH2 0x1671 DUP4 PUSH2 0x163C JUMP JUMPDEST PUSH2 0x1685 PUSH2 0x167D DUP3 PUSH2 0x165E JUMP JUMPDEST DUP5 DUP5 SLOAD PUSH2 0x15EA JUMP JUMPDEST DUP3 SSTORE POP POP POP POP JUMP JUMPDEST PUSH1 0x0 SWAP1 JUMP JUMPDEST PUSH2 0x169A PUSH2 0x168D JUMP JUMPDEST PUSH2 0x16A5 DUP2 DUP5 DUP5 PUSH2 0x1668 JUMP JUMPDEST POP POP POP JUMP JUMPDEST JUMPDEST DUP2 DUP2 LT ISZERO PUSH2 0x16C9 JUMPI PUSH2 0x16BE PUSH1 0x0 DUP3 PUSH2 0x1692 JUMP JUMPDEST PUSH1 0x1 DUP2 ADD SWAP1 POP PUSH2 0x16AB JUMP JUMPDEST POP POP JUMP JUMPDEST PUSH1 0x1F DUP3 GT ISZERO PUSH2 0x170E JUMPI PUSH2 0x16DF DUP2 PUSH2 0x15B8 JUMP JUMPDEST PUSH2 0x16E8 DUP5 PUSH2 0x15CD JUMP JUMPDEST DUP2 ADD PUSH1 0x20 DUP6 LT ISZERO PUSH2 0x16F7 JUMPI DUP2 SWAP1 POP JUMPDEST PUSH2 0x170B PUSH2 0x1703 DUP6 PUSH2 0x15CD JUMP JUMPDEST DUP4 ADD DUP3 PUSH2 0x16AA JUMP JUMPDEST POP POP JUMPDEST POP POP POP JUMP JUMPDEST PUSH1 0x0 DUP3 DUP3 SHR SWAP1 POP SWAP3 SWAP2 POP POP JUMP JUMPDEST PUSH1 0x0 PUSH2 0x1731 PUSH1 0x0 NOT DUP5 PUSH1 0x8 MUL PUSH2 0x1713 JUMP JUMPDEST NOT DUP1 DUP4 AND SWAP2 POP POP SWAP3 SWAP2 POP POP JUMP JUMPDEST PUSH1 0x0 PUSH2 0x174A DUP4 DUP4 PUSH2 0x1720 JUMP JUMPDEST SWAP2 POP DUP3 PUSH1 0x2 MUL DUP3 OR SWAP1 POP SWAP3 SWAP2 POP POP JUMP JUMPDEST PUSH2 0x1763 DUP3 PUSH2 0xD5C JUMP JUMPDEST PUSH8 0xFFFFFFFFFFFFFFFF DUP2 GT ISZERO PUSH2 0x177C JUMPI PUSH2 0x177B PUSH2 0xF77 JUMP JUMPDEST JUMPDEST PUSH2 0x1786 DUP3 SLOAD PUSH2 0x12E0 JUMP JUMPDEST PUSH2 0x1791 DUP3 DUP3 DUP6 PUSH2 0x16CD JUMP JUMPDEST PUSH1 0x0 PUSH1 0x20 SWAP1 POP PUSH1 0x1F DUP4 GT PUSH1 0x1 DUP2 EQ PUSH2 0x17C4 JUMPI PUSH1 0x0 DUP5 ISZERO PUSH2 0x17B2 JUMPI DUP3 DUP8 ADD MLOAD SWAP1 POP JUMPDEST PUSH2 0x17BC DUP6 DUP3 PUSH2 0x173E JUMP JUMPDEST DUP7 SSTORE POP PUSH2 0x1824 JUMP JUMPDEST PUSH1 0x1F NOT DUP5 AND PUSH2 0x17D2 DUP7 PUSH2 0x15B8 JUMP JUMPDEST PUSH1 0x0 JUMPDEST DUP3 DUP2 LT ISZERO PUSH2 0x17FA JUMPI DUP5 DUP10 ADD MLOAD DUP3 SSTORE PUSH1 0x1 DUP3 ADD SWAP2 POP PUSH1 0x20 DUP6 ADD SWAP5 POP PUSH1 0x20 DUP2 ADD SWAP1 POP PUSH2 0x17D5 JUMP JUMPDEST DUP7 DUP4 LT ISZERO PUSH2 0x1817 JUMPI DUP5 DUP10 ADD MLOAD PUSH2 0x1813 PUSH1 0x1F DUP10 AND DUP3 PUSH2 0x1720 JUMP JUMPDEST DUP4 SSTORE POP JUMPDEST PUSH1 0x1 PUSH1 0x2 DUP9 MUL ADD DUP9 SSTORE POP POP POP JUMPDEST POP POP POP POP POP POP JUMP JUMPDEST PUSH32 0x4E487B7100000000000000000000000000000000000000000000000000000000 PUSH1 0x0 MSTORE PUSH1 0x32 PUSH1 0x4 MSTORE PUSH1 0x24 PUSH1 0x0 REVERT JUMPDEST PUSH32 0x566F746F206E6F20656E636F6E747261646F0000000000000000000000000000 PUSH1 0x0 DUP3 ADD MSTORE POP JUMP JUMPDEST PUSH1 0x0 PUSH2 0x1891 PUSH1 0x12 DUP4 PUSH2 0xD67 JUMP JUMPDEST SWAP2 POP PUSH2 0x189C DUP3 PUSH2 0x185B JUMP JUMPDEST PUSH1 0x20 DUP3 ADD SWAP1 POP SWAP2 SWAP1 POP JUMP JUMPDEST PUSH1 0x0 PUSH1 0x20 DUP3 ADD SWAP1 POP DUP2 DUP2 SUB PUSH1 0x0 DUP4 ADD MSTORE PUSH2 0x18C0 DUP2 PUSH2 0x1884 JUMP JUMPDEST SWAP1 POP SWAP2 SWAP1 POP JUMP JUMPDEST PUSH32 0x4E6F2068617920766F746F732061756E00000000000000000000000000000000 PUSH1 0x0 DUP3 ADD MSTORE POP JUMP JUMPDEST PUSH1 0x0 PUSH2 0x18FD PUSH1 0x10 DUP4 PUSH2 0xD67 JUMP JUMPDEST SWAP2 POP PUSH2 0x1908 DUP3 PUSH2 0x18C7 JUMP JUMPDEST PUSH1 0x20 DUP3 ADD SWAP1 POP SWAP2 SWAP1 POP JUMP JUMPDEST PUSH1 0x0 PUSH1 0x20 DUP3 ADD SWAP1 POP DUP2 DUP2 SUB PUSH1 0x0 DUP4 ADD MSTORE PUSH2 0x192C DUP2 PUSH2 0x18F0 JUMP JUMPDEST SWAP1 POP SWAP2 SWAP1 POP JUMP JUMPDEST PUSH1 0x0 PUSH2 0x193E DUP3 PUSH2 0xCF9 JUMP JUMPDEST SWAP2 POP PUSH2 0x1949 DUP4 PUSH2 0xCF9 JUMP JUMPDEST SWAP3 POP DUP3 DUP3 MUL PUSH2 0x1957 DUP2 PUSH2 0xCF9 JUMP JUMPDEST SWAP2 POP DUP3 DUP3 DIV DUP5 EQ DUP4 ISZERO OR PUSH2 0x196E JUMPI PUSH2 0x196D PUSH2 0x150D JUMP JUMPDEST JUMPDEST POP SWAP3 SWAP2 POP POP JUMP JUMPDEST PUSH32 0x4E487B7100000000000000000000000000000000000000000000000000000000 PUSH1 0x0 MSTORE PUSH1 0x12 PUSH1 0x4 MSTORE PUSH1 0x24 PUSH1 0x0 REVERT JUMPDEST PUSH1 0x0 PUSH2 0x19AF DUP3 PUSH2 0xCF9 JUMP JUMPDEST SWAP2 POP PUSH2 0x19BA DUP4 PUSH2 0xCF9 JUMP JUMPDEST SWAP3 POP DUP3 PUSH2 0x19CA JUMPI PUSH2 0x19C9 PUSH2 0x1975 JUMP JUMPDEST JUMPDEST DUP3 DUP3 DIV SWAP1 POP SWAP3 SWAP2 POP POP JUMP JUMPDEST PUSH1 0x0 PUSH2 0x19E0 DUP3 PUSH2 0xCF9 JUMP JUMPDEST SWAP2 POP PUSH2 0x19EB DUP4 PUSH2 0xCF9 JUMP JUMPDEST SWAP3 POP DUP3 PUSH2 0x19FB JUMPI PUSH2 0x19FA PUSH2 0x1975 JUMP JUMPDEST JUMPDEST DUP3 DUP3 MOD SWAP1 POP SWAP3 SWAP2 POP POP JUMP INVALID LOG2 PUSH5 0x6970667358 0x22 SLT KECCAK256 DUP16 PUSH13 0x8A8EB9F0F16833F45553C654A3 MOD PUSH30 0x61E774CD4461267467753D73D0711D64736F6C6343000812003300000000 "
				},
				"gasEstimates": {
					"creation": {
						"codeDepositCost": "1343200",
						"executionCost": "infinite",
						"totalCost": "infinite"
					},
					"external": {
						"DESDE_HOY_A_INICIO_VOTACION_DIAS()": "395",
						"DURACION_VOTACION_DIAS()": "352",
						"createProposal(string,string)": "infinite",
						"getAvgSatisfaction(uint256)": "infinite",
						"getVote(address,uint256)": "infinite",
						"proposalCount()": "2473",
						"proposals(uint256)": "infinite",
						"registerVoter(address)": "24880",
						"token()": "infinite",
						"voteProposal(uint256,uint8)": "infinite",
						"voters(address)": "2912",
						"votesCount()": "2474",
						"votingEnd()": "2452",
						"votingStart()": "2475",
						"votos(uint256)": "infinite"
					},
					"internal": {
						"votoExistente(address,uint256)": "infinite"
					}
				},
				"methodIdentifiers": {
					"DESDE_HOY_A_INICIO_VOTACION_DIAS()": "ec20ca72",
					"DURACION_VOTACION_DIAS()": "3c1d4bbb",
					"createProposal(string,string)": "65e481e2",
					"getAvgSatisfaction(uint256)": "cb370ddd",
					"getVote(address,uint256)": "6b0dd90f",
					"proposalCount()": "da35c664",
					"proposals(uint256)": "013cf08b",
					"registerVoter(address)": "38db6dd3",
					"token()": "fc0c546a",
					"voteProposal(uint256,uint8)": "3dca3d34",
					"voters(address)": "a3ec138d",
					"votesCount()": "8778b27d",
					"votingEnd()": "85a38635",
					"votingStart()": "101158af",
					"votos(uint256)": "b2731f0e"
				}
			},
			"storageLayout": {
				"storage": [
					{
						"astId": 1033,
						"contract": "contracts/CourseVoting.sol:CourseVoting",
						"label": "token",
						"offset": 0,
						"slot": "0",
						"type": "t_contract(ERC20)586"
					},
					{
						"astId": 1035,
						"contract": "contracts/CourseVoting.sol:CourseVoting",
						"label": "votingStart",
						"offset": 0,
						"slot": "1",
						"type": "t_uint256"
					},
					{
						"astId": 1037,
						"contract": "contracts/CourseVoting.sol:CourseVoting",
						"label": "votingEnd",
						"offset": 0,
						"slot": "2",
						"type": "t_uint256"
					},
					{
						"astId": 1039,
						"contract": "contracts/CourseVoting.sol:CourseVoting",
						"label": "proposalCount",
						"offset": 0,
						"slot": "3",
						"type": "t_uint256"
					},
					{
						"astId": 1041,
						"contract": "contracts/CourseVoting.sol:CourseVoting",
						"label": "votesCount",
						"offset": 0,
						"slot": "4",
						"type": "t_uint256"
					},
					{
						"astId": 1070,
						"contract": "contracts/CourseVoting.sol:CourseVoting",
						"label": "proposals",
						"offset": 0,
						"slot": "5",
						"type": "t_mapping(t_uint256,t_struct(Proposal)1057_storage)"
					},
					{
						"astId": 1076,
						"contract": "contracts/CourseVoting.sol:CourseVoting",
						"label": "votos",
						"offset": 0,
						"slot": "6",
						"type": "t_mapping(t_uint256,t_struct(Voto)1064_storage)"
					},
					{
						"astId": 1081,
						"contract": "contracts/CourseVoting.sol:CourseVoting",
						"label": "voters",
						"offset": 0,
						"slot": "7",
						"type": "t_mapping(t_address,t_bool)"
					},
					{
						"astId": 1087,
						"contract": "contracts/CourseVoting.sol:CourseVoting",
						"label": "votosPorDireccion",
						"offset": 0,
						"slot": "8",
						"type": "t_mapping(t_address,t_array(t_uint256)dyn_storage)"
					}
				],
				"types": {
					"t_address": {
						"encoding": "inplace",
						"label": "address",
						"numberOfBytes": "20"
					},
					"t_array(t_uint256)dyn_storage": {
						"base": "t_uint256",
						"encoding": "dynamic_array",
						"label": "uint256[]",
						"numberOfBytes": "32"
					},
					"t_bool": {
						"encoding": "inplace",
						"label": "bool",
						"numberOfBytes": "1"
					},
					"t_contract(ERC20)586": {
						"encoding": "inplace",
						"label": "contract ERC20",
						"numberOfBytes": "20"
					},
					"t_mapping(t_address,t_array(t_uint256)dyn_storage)": {
						"encoding": "mapping",
						"key": "t_address",
						"label": "mapping(address => uint256[])",
						"numberOfBytes": "32",
						"value": "t_array(t_uint256)dyn_storage"
					},
					"t_mapping(t_address,t_bool)": {
						"encoding": "mapping",
						"key": "t_address",
						"label": "mapping(address => bool)",
						"numberOfBytes": "32",
						"value": "t_bool"
					},
					"t_mapping(t_uint256,t_struct(Proposal)1057_storage)": {
						"encoding": "mapping",
						"key": "t_uint256",
						"label": "mapping(uint256 => struct CourseVoting.Proposal)",
						"numberOfBytes": "32",
						"value": "t_struct(Proposal)1057_storage"
					},
					"t_mapping(t_uint256,t_struct(Voto)1064_storage)": {
						"encoding": "mapping",
						"key": "t_uint256",
						"label": "mapping(uint256 => struct CourseVoting.Voto)",
						"numberOfBytes": "32",
						"value": "t_struct(Voto)1064_storage"
					},
					"t_string_storage": {
						"encoding": "bytes",
						"label": "string",
						"numberOfBytes": "32"
					},
					"t_struct(Proposal)1057_storage": {
						"encoding": "inplace",
						"label": "struct CourseVoting.Proposal",
						"members": [
							{
								"astId": 1050,
								"contract": "contracts/CourseVoting.sol:CourseVoting",
								"label": "title",
								"offset": 0,
								"slot": "0",
								"type": "t_string_storage"
							},
							{
								"astId": 1052,
								"contract": "contracts/CourseVoting.sol:CourseVoting",
								"label": "description",
								"offset": 0,
								"slot": "1",
								"type": "t_string_storage"
							},
							{
								"astId": 1054,
								"contract": "contracts/CourseVoting.sol:CourseVoting",
								"label": "votes",
								"offset": 0,
								"slot": "2",
								"type": "t_uint256"
							},
							{
								"astId": 1056,
								"contract": "contracts/CourseVoting.sol:CourseVoting",
								"label": "totalSatisfaction",
								"offset": 0,
								"slot": "3",
								"type": "t_uint256"
							}
						],
						"numberOfBytes": "128"
					},
					"t_struct(Voto)1064_storage": {
						"encoding": "inplace",
						"label": "struct CourseVoting.Voto",
						"members": [
							{
								"astId": 1059,
								"contract": "contracts/CourseVoting.sol:CourseVoting",
								"label": "voter",
								"offset": 0,
								"slot": "0",
								"type": "t_address"
							},
							{
								"astId": 1061,
								"contract": "contracts/CourseVoting.sol:CourseVoting",
								"label": "satisfaction",
								"offset": 20,
								"slot": "0",
								"type": "t_uint8"
							},
							{
								"astId": 1063,
								"contract": "contracts/CourseVoting.sol:CourseVoting",
								"label": "proposalId",
								"offset": 0,
								"slot": "1",
								"type": "t_uint256"
							}
						],
						"numberOfBytes": "64"
					},
					"t_uint256": {
						"encoding": "inplace",
						"label": "uint256",
						"numberOfBytes": "32"
					},
					"t_uint8": {
						"encoding": "inplace",
						"label": "uint8",
						"numberOfBytes": "1"
					}
				}
			},
			"userdoc": {
				"kind": "user",
				"methods": {
					"DESDE_HOY_A_INICIO_VOTACION_DIAS()": {
						"notice": "Permite desfasar el tiempo entre el lanzamiento del contrato y el inicio de la votación"
					},
					"constructor": {
						"notice": "Constructor -Setea tokeN, fechas de inicio y fin"
					},
					"createProposal(string,string)": {
						"notice": "Function to create a proposal  - Se pueden crear propuestas mientras la votación está abierta - Se aumenta el contador de proupuestas totales - Se agrega a la estructura de propuestas"
					},
					"getAvgSatisfaction(uint256)": {
						"notice": "Function to get the voting result. Promedio de satisfacción para la propuesta - Valida división por cero"
					},
					"proposals(uint256)": {
						"notice": "List of proposals.  Mapea el ID de la propuesta a la estructura de la propuesta"
					},
					"registerVoter(address)": {
						"notice": "Function to register a voter - LO DESHABILITO Validación de tiempo, solo puede registrarse como votantes antes de que inicie la otación - Registra la address como voters"
					},
					"voteProposal(uint256,uint8)": {
						"notice": "Function to vote for a proposal, con un nivel de satisfacción - Valida que la votación no haya finalizado - Valida que el votante esté registrado - Valida que el votante no haya votado ya - Valida nivel de satisfacción de 1 a 5"
					},
					"voters(address)": {
						"notice": "List of voters Mapea las direcciones de los votantes a un booleano que indica si están registrados como votantes."
					},
					"votos(uint256)": {
						"notice": "Struct for individual votes Voto debe incluir, address, idProposal, satisfaction"
					}
				},
				"version": 1
			}
		}
	}
}